:020000040800F2
:1000000008540020450100080B810008154D000828
:100010000981000803200008659500080000000021
:10002000000000000000000000000000F383000852
:100030006123000800000000F18300081584000817
:100040005F0100085F0100085F0100085F01000810
:100050005F0100085F010008632300085F010008DA
:100060005F010008692300086F230008D1220008FF
:100070005F0100085F0100085F010008DD22000841
:100080005F0100085F0100085F0100085F010008D0
:100090005F0100085F0100085F0100085F010008C0
:1000A0005F0100085F0100085F0100085F010008B0
:1000B0005F0100085F0100085F0100085F010008A0
:1000C0005F0100085F0100085F0100085F01000890
:1000D0005F010008C19400085F0100085F0100088B
:1000E0005F0100085F0100085F0100085F01000870
:1000F0005F0100085F0100085F0100085F01000860
:100100005F0100085F0100085F0100085F0100084F
:100110005F0100085F010008958400085F01000886
:100120005F0100085F010008E92200085F01000884
:10013000DFF80CD001F0D2FD00480047F19E000826
:10014000085400200648804706480047FEE7FEE7BF
:10015000FEE7FEE7FEE7FEE7FEE7FEE7FEE7FEE777
:1001600093840008310100082DE9F04F4FF0000C96
:100170004FF0000301EB9C5EBEF90250BEF9004057
:100180000EF5806EBEF90290BEF900800EF5806E0D
:10019000BEF90270BEF900600EF5806EBEF902B0C5
:1001A000BEF900A00EF5806ED044D944A8EB4A0AEF
:1001B000A9EB4B0B4FEAA4044FEAA50504EBA604F8
:1001C00005EBA705A4EB6606A5EB670704EBA804FF
:1001D00005EBA905A4EB6808A5EB690906EBAB06DE
:1001E000A7EBAA07A6EB6B0B07EB6A0A458020F882
:1001F000044B478020F8046BA0F8029020F8048B91
:10020000A0F802A020F804BB03F1010393FAA3FCB9
:10021000B3F5807FAED1A0EB82014FF0100312093D
:100220000FF2341000F1000006B403EB430C6144FC
:10023000A2F5803202EB8332B1F90250B1F90040ED
:10024000A1EB0301B0F902B0B0F900A000F1040085
:10025000A5EB040E0EFB0BFC0AEB4B0E05FB0ACBC9
:1002600004FB0ECAB1F90250B1F90040A1EB030141
:10027000B0F90290B0F9008000F10400A5EB040E83
:100280000EFB09FC08EB490E05FB08C904FB0EC870
:10029000B1F90250B1F90040A1EB0301B0F90270CD
:1002A000B0F9006000F10400A5EB040E0EFB07FCA2
:1002B00006EB470E05FB06C704FB0EC6B1F902505C
:1002C000B1F9004001F10001D044D944A8EB4A0A39
:1002D000A9EB4B0B4FEAA4044FEAA50504EB264417
:1002E00005EB2745A4EBE636A5EBE73704EB2844FE
:1002F00005EB2945A4EBE838A5EBE93906EB2B46DD
:10030000A7EB2A47A6EBEB3B07EBEA3A4D800C80C4
:1003100019444F800E801944A1F80290A1F8008082
:100320001944A1F802A021F804BBB2F5803283DAA7
:1003300003EB430C6144A2F101025FEA024E18BFD5
:10034000A0EB0C007FF476AF06BC4FEA8303920863
:100350007FF46AAFBDE8F08F00400000004000006D
:10036000004000005DDD213BA3227E180000412DEE
:100370007EA5412D0000412D00C000405DDD82E7DB
:100380005DDD213B7EA5412D0040000000400000C6
:1003900000400000AA2A94126B39460649327C0CB0
:1003A000A8118E2349327C0CA3227E1821F77931C3
:1003B000AA2A9412A8118E235DDD213BA3227E1868
:1003C0000000412D95C6B13F461A2B1E58EE373519
:1003D000BEB4C53EA8118E235DDD213B63A97138F3
:1003E000DF089A28B7CDC53E7EA5412D0000412DDE
:1003F00000C0004063A92B1E21F77931BEB4C53E71
:10040000BEB47C0C58EE373561AC213B95C6BAF9C9
:10041000BAE571383BA737355DDD82E75DDD213B0D
:100420007EA5412D21F766D756D53F3D3BA78E23AC
:10043000A811C9CAB7CDC53E61AC7E18AA2AC1C2EF
:1004400095C6B13FBEB47C0C0040000000400000E7
:10045000004000001E3BB504693E9201C83C2403E5
:10046000EB356409C83C24036B3946066C30060E34
:100470001E3BB504EB356409AA2A94126B39460673
:1004800049327C0CAE240917AF37D607882E8D0F62
:100490007E1E5D1BEB356409AA2A941224188C1F5A
:1004A0001E34F10AB3269015A8118E2349327C0C14
:1004B000A3227E18140B60276C30060E7E1E5D1B77
:1004C0007104FB2A882E8D0F461A2B1EC7FD5A2E4B
:1004D0009D2C1211FE15E72021F77931AA2A9412DA
:1004E000A8118E2387F05334B2281314480D202608
:1004F00002EAE536B3269015DF089A289CE32B39EB
:10050000AE2409177104FB2A5DDD213BA3227E186E
:100510000000412D4ED7C53C9320EF198FFB6C2F67
:1005200078D1153E7E1E5D1B21F77931E2CB0F3F5E
:10053000641CC61CB8F2683395C6B13F461A2B1E20
:1005400058EE373597C1FB3F24188C1F02EAE53679
:10055000F0BCEC3FFE15E720BAE57138A6B8853F40
:10056000D5133D2282E1DB39BEB4C53EA8118E23EE
:100570005DDD213B40B1AF3D790FDA244DD9423CDE
:100580002EAE423C480D202656D53F3D8EAB823ADA
:10059000140B602778D1153E63A97138DF089A28BB
:1005A000B7CDC53EB1A71236A906CE2915CA4F3F11
:1005B00078A668337104FB2A95C6B13FBCA5763096
:1005C0003902212C38C3EC3F7EA5412D0000412D7E
:1005D00000C00040BCA5CE29C7FD5A2EF0BCEC3FA0
:1005E00078A620268FFB6C2F09BAB13FB1A73D2218
:1005F00057F976304DB74F3F63A92B1E21F779315C
:10060000BEB4C53E8EABEF19ECF474325EB2153E4B
:100610002EAE9015B8F268332DB03F3D40B11211A7
:1006200087F053342EAE423CBEB47C0C58EE3735C6
:1006300061AC213BA6B8D6072BEC1236C8AADB3931
:10064000F0BC240302EAE53663A9713897C16EFE57
:10065000DCE7B03734A8E53695C6BAF9BAE57138A3
:100660003BA73735E2CB0FF59CE32B3978A66833EF
:1006700078D173F082E1DB39EDA579314ED7EDEB1E
:100680006DDF823A99A56C2F5DDD82E75DDD213B50
:100690007EA5412D9CE33AE352DBB63B99A5FB2AAC
:1006A00002EA19DF4DD9423CEDA59A2887F026DBF6
:1006B0004ED7C53C78A6202621F766D756D53F3DB4
:1006C0003BA78E23C7FDDFD363D3AF3D34A8E7201C
:1006D000710494D078D1153E63A92B1E140B8CCDD8
:1006E00094CF723EC8AA5D1BA811C9CAB7CDC53E3A
:1006F00061AC7E18241850C8E2CB0F3F2EAE901587
:100700007E1E25C615CA4F3F2DB09412AE244AC492
:1007100051C8853F5EB28D0FAA2AC1C295C6B13FAE
:10072000BEB47C0C6C308EC1E2C4D43F4DB76409BA
:10073000EB35B1C038C3EC3F09BA46061E3B2CC0AE
:1007400097C1FB3FF0BC24030040000000400000C4
:1007500000400000D03E2E019B3F6500363FC9009F
:100760009A3D5B02363FC900693E92015F3C8803B7
:10077000D03E2E019A3D5B021E3BB504693E9201BC
:10078000C83C2403D939E205023EF701F43BED03EE
:100790008E380E079A3D5B021E3BB5043F37390881
:1007A000313DC002463A7E05EB356409C83C24035E
:1007B0006B39460692348E0A5F3C88038E380E07EA
:1007C0003433B70BF43BED03AF37D607D231DF0C30
:1007D0008A3B5104CE369D086C30060E1E3BB50494
:1007E000EB356409022F2B0FB23A1A0505352B0A97
:1007F000932D5010463A7E051E34F10A212C7311B8
:10080000D939E2053433B70BAA2A94126B3946065C
:1008100049327C0C3129B413FD38AA065B31410DF5
:10082000B327D2148E380E076C30060E3226EE1522
:100830001F3872077B2FCA0EAE240917AF37D607B1
:10084000882E8D0F262321183F373908932D5010FD
:100850009C213719CE369D089D2C12110E204B1A63
:100860005D360109A42BD3117E1E5D1BEB35640997
:10087000AA2A9412EB1C6C1C7835C709AF295413B3
:10088000561B791D05352B0AB2281314BE19841E78
:1008900092348E0AB327D21424188C1F1E34F10A06
:1008A000B326901588169120A933540BB1254C1608
:1008B000EA1493213433B70BAE2409174A1392225A
:1008C000BF321A0CA923C417A8118E2349327C0CFD
:1008D000A3227E1805108824D231DF0C9C21371901
:1008E000610E7E255B31410D9320EF19BB0C712603
:1008F000E430A40D891FA71A140B60276C30060E74
:100900007E1E5D1B6D094C28F42F680E721D121C93
:10091000C40735297B2FCA0E641CC61C1B061A2A65
:10092000022F2B0F561B791D7104FB2A882E8D0F69
:10093000461A2B1EC702D82B0E2EEE0F3519DC1EC1
:100940001C01B22C932D501024188C1F72FF882D7F
:10095000182DB11011173A20C7FD5A2E9D2C1211D7
:10096000FE15E7201DFC282F212C7311EA1493217A
:1009700073FAF22FA42BD311D5133D22CAF8B83045
:10098000282B3412BF12E72221F77931AA2A9412B8
:10099000A8118E2379F536322D2AF41291103524C0
:1009A000D2F3EF32AF295413790FDA242CF2A333A8
:1009B0003129B413610E7E2587F05334B228131405
:1009C000480D2026E3EEFF34332873142E0CC12685
:1009D00041EDA535B327D214140B6027A1EB48369F
:1009E00033273115FA09FE2702EAE536B3269015BA
:1009F000DF089A2865E87E373226EE15C4073529C8
:100A0000CBE61238B1254C16A906CE2932E5A1381D
:100A10002F25AB168D05652A9CE32B39AE240917CB
:100A20007104FB2A08E2B0392B24661755038F2B7B
:100A300077E0303AA923C4173902212CE9DEAB3A1A
:100A4000262321181C01B22C5DDD213BA3227E1838
:100A50000000412DD5DB923B1F22DB18E4FECF2D99
:100A60004FDAFD3B9C213719C7FD5A2ECDD8643C87
:100A700017219319ABFCE42E4ED7C53C9320EF19F8
:100A80008FFB6C2FD3D5213D0E204B1A73FAF22F1A
:100A90005CD4783D891FA71A57F97630E8D2C93D52
:100AA000041F021B3CF8F93078D1153E7E1E5D1BF9
:100AB00021F779310CD05C3EF81DB81B06F6F831F1
:100AC000A5CE9D3E721D121CECF4743241CDD83E71
:100AD000EB1C6C1CD2F3EF32E2CB0F3F641CC61C44
:100AE000B8F2683388CA403FDD1B201D9FF1DF3319
:100AF00032C96B3F561B791D87F05334E1C7913FD4
:100B0000CE1AD31D6FEFC63495C6B13F461A2B1EC1
:100B100058EE37354EC5CC3FBE19841E41EDA53584
:100B20000CC4E13F3519DC1E2BEC1236CFC2F13F6D
:100B3000AD18341F16EB7D3697C1FB3F24188C1F70
:100B400002EAE53665C000409B17E31FEFE84B372C
:100B500038BFFF3F11173A20DCE7B03711BEF83F2E
:100B600088169120CBE61238F0BCEC3FFE15E7204A
:100B7000BAE57138D4BBDB3F74153D21AAE4CF3808
:100B8000BFBAC43FEA1493219CE32B39AFB9A73F06
:100B90005F14E8218EE28439A6B8853FD5133D2243
:100BA00082E1DB39A2B75D3F4A13922277E0303A07
:100BB000A5B6303FBF12E7226DDF823AAFB5FD3EEA
:100BC00034123B2364DED33ABEB4C53EA8118E2353
:100BD0005DDD213BD5B3883E1D11E22357DC6D3B23
:100BE000F2B2453E9110352452DBB63B15B2FC3DC6
:100BF000051088244FDAFD3B40B1AF3D790FDA2470
:100C00004DD9423C71B05B3DED0E2C254DD8853C55
:100C1000A9AF033D610E7E254ED7C53CE8AEA53C8D
:100C2000D40DCF2551D6033D2EAE423C480D202693
:100C300056D53F3D7BADDA3BBB0C71265CD4783D8D
:100C4000D0AC6D3B2E0CC12663D3AF3D2BACFA3A32
:100C5000A10B11276DD2E33D8EAB823A140B6027B6
:100C600078D1153EF8AA063A870AAF2785D0453EC7
:100C70006AAA8439FA09FE2794CF723EE3A9FD38A7
:100C80006D094C28A5CE9D3E63A97138DF089A28CE
:100C9000B7CDC53EEBA8E1375208E728CCCCEB3EF8
:100CA0007BA84B37C4073529E2CB0F3F12A8B136DA
:100CB00036078129FBCA303FB1A71236A906CE29D3
:100CC00015CA4F3F57A76E351B061A2A32C96B3F0C
:100CD00005A7C6348D05652A51C8853FBBA61934C2
:100CE000FF04B02A72C79C3F78A668337104FB2AC0
:100CF00095C6B13F3EA6B232E303452BBAC5C43F09
:100D00000BA6F83155038F2BE2C4D43FE0A539314F
:100D1000C702D82B0CC4E13FBCA576303902212C88
:100D200038C3EC3FA1A5AF2FAA016A2C66C2F53FDC
:100D30008DA5E42E1C01B22C97C1FB3F81A5152E79
:100D40008E00FA2CCAC0FF3F7EA5412D0000412D28
:100D500000C0004081A56A2C72FF882D38BFFF3F7C
:100D60008DA58F2BE4FECF2D73BEFB3FA1A5B02A2E
:100D700056FE152EB0BDF53FBCA5CE29C7FD5A2E97
:100D8000F0BCEC3FE0A5E72839FD9F2E32BCE13FE7
:100D90000BA6FE27ABFCE42E77BBD43F3EA6112763
:100DA0001DFC282FBFBAC43F78A620268FFB6C2FCE
:100DB00009BAB13FBBA62C2501FBAF2F56B99C3F0A
:100DC00005A7352473FAF22FA6B8853F57A73B2312
:100DD000E5F93430F8B76B3FB1A73D2257F97630CB
:100DE0004DB74F3F12A83D21CAF8B830A5B6303FE5
:100DF0007BA83A203CF8F93000B60F3FEBA8341F2F
:100E0000AEF739315EB5EB3E63A92B1E21F7793180
:100E1000BEB4C53EE3A9201D93F6B93122B49D3E70
:100E20006AAA121C06F6F83188B3723EF8AA021BB1
:100E300079F53632F2B2453E8EABEF19ECF47432EE
:100E40005EB2153E2BACDB185FF4B232CDB1E33DA0
:100E5000D0ACC417D2F3EF3240B1AF3D7BADAB168F
:100E600045F32C33B5B0783D2EAE9015B8F268330B
:100E70002DB03F3DE8AE73142CF2A333A9AF033D70
:100E8000A9AF54139FF1DF3328AFC53C71B03412C2
:100E900013F11934A9AE853C40B1121187F05334D7
:100EA0002EAE423C15B2EE0FFBEF8D34B6ADFD3BDE
:100EB000F2B2CA0E6FEFC63441ADB63BD5B3A40D46
:100EC000E3EEFF34D0AC6D3BBEB47C0C58EE37354E
:100ED00061AC213BAFB5540BCCED6E35F6ABD33ADC
:100EE000A5B62B0A41EDA5358EAB823AA2B7010912
:100EF000B6ECDC3529AB303AA6B8D6072BEC123667
:100F0000C8AADB39AFB9AA06A1EB48366AAA843968
:100F1000BFBA7E0516EB7D360FAA2B39D4BB510420
:100F20008CEAB136B7A9CF38F0BC240302EAE53623
:100F300063A9713811BEF70178E9183712A9123880
:100F400038BFC900EFE84B37C5A8B03765C09BFF75
:100F500065E87E377BA84B3797C16EFEDCE7B0377C
:100F600034A8E536CFC240FD53E7E137F1A77D361F
:100F70000CC413FCCBE61238B1A712364EC5E6FA04
:100F800042E6423874A7A53595C6BAF9BAE5713874
:100F90003BA73735E1C78EF832E5A13805A7C6343F
:100FA00032C963F7AAE4CF38D3A6533488CA39F6D6
:100FB00023E4FD38A4A6DF33E2CB0FF59CE32B3905
:100FC00078A6683341CDE6F315E3583950A6EF32E1
:100FD000A5CEBFF28EE284392CA674320CD098F1E3
:100FE00008E2B0390BA6F83178D173F082E1DB3931
:100FF000EDA57931E8D24FEFFCE0063AD3A5F93000
:101000005CD42DEE77E0303ABCA57630D3D50CED2C
:10101000F2DF593AA9A5F22F4ED7EDEB6DDF823AF8
:1010200099A56C2FCDD8CFEAE9DEAB3A8DA5E42E99
:101030004FDAB4E964DED33A85A55A2ED5DB9AE8B7
:10104000E1DDFA3A7FA5CF2D5DDD82E75DDD213B55
:101050007EA5412DE9DE6DE6DADC473B7FA5B22CAB
:1010600077E059E557DC6D3B85A5212C08E248E483
:10107000D5DB923B8DA58F2B9CE33AE352DBB63B4D
:1010800099A5FB2A32E52DE2D1DADA3BA9A5652A3A
:10109000CBE624E14FDAFD3BBCA5CE2965E81DE097
:1010A000CED9203CD3A5352902EA19DF4DD9423CDF
:1010B000EDA59A28A1EB18DECDD8643C0BA6FE273F
:1010C00041ED19DD4DD8853C2CA66027E3EE1EDCF2
:1010D000CDD7A53C50A6C12687F026DB4ED7C53C10
:1010E00078A620262CF231DACFD6E43CA4A67E25C1
:1010F000D2F33FD951D6033DD3A6DA2479F551D89E
:10110000D3D5213D05A7352421F766D756D53F3DD8
:101110003BA78E23CAF87FD6D8D45B3D74A7E722BD
:1011200073FA9BD55CD4783DB1A73D221DFCBBD49E
:10113000DFD3933DF1A79321C7FDDFD363D3AF3D49
:1011400034A8E72072FF06D3E8D2C93D7BA83A2035
:101150001C0131D26DD2E33DC5A88C1FC70261D1FD
:10116000F2D1FC3D12A9DC1E710494D078D1153E59
:1011700063A92B1E1B06CCCFFED02D3EB7A9791D2F
:10118000C40707CF85D0453E0FAAC61C6D0947CEC0
:101190000CD05C3E6AAA121C140B8CCD94CF723E0C
:1011A000C8AA5D1BBB0CD4CC1CCF883E29ABA71AA8
:1011B000610E21CCA5CE9D3E8EABEF19051073CBF1
:1011C0002ECEB13EF6AB3719A811C9CAB7CDC53E70
:1011D00061AC7E184A1324CA41CDD83ED0ACC417A6
:1011E000EA1483C9CCCCEB3E41AD09178816E8C898
:1011F00057CCFD3EB6AD4C16241850C8E2CB0F3F7D
:101200002EAE9015BE19BEC76ECB203FA9AED2142C
:10121000561B31C7FBCA303F28AF1314EB1CA8C6BE
:1012200088CA403FA9AF54137E1E25C615CA4F3F3A
:101230002DB094120E20A7C5A3C95D3FB5B0D31140
:101240009C212DC532C96B3F40B112112623B9C470
:10125000C1C8783FCDB15010AE244AC451C8853FB3
:101260005EB28D0F3226E0C3E1C7913FF2B2CA0EE3
:10127000B3277BC372C79C3F88B3060E31291CC3BA
:1012800003C7A73F22B4410DAA2AC1C295C6B13FE8
:10129000BEB47C0C212C6DC227C6BB3F5EB5B70B1C
:1012A000932D1DC2BAC5C43F00B6F10A022FD3C1A7
:1012B0004EC5CC3FA5B62B0A6C308EC1E2C4D43FDC
:1012C0004DB76409D2314FC176C4DB3FF8B79D08F2
:1012D000343315C10CC4E13FA6B8D6079234E0C040
:1012E000A1C3E73F56B90E07EB35B1C038C3EC3F99
:1012F00009BA46063F3788C0CFC2F13FBFBA7E0564
:101300008E3864C066C2F53F77BBB504D93945C095
:10131000FEC1F83F32BCED031E3B2CC097C1FB3F22
:10132000F0BC24035F3C19C030C1FD3FB0BD5B027F
:101330009A3D0BC0CAC0FF3F73BE9201D03E03C0AE
:1013400065C0004038BFC9002DE9F05F05460020A8
:1013500092469B4688460646814640241BE0284626
:1013600041464746224600F02FF853465A46C01AD7
:10137000914110D311461846224600F016F82D1A56
:1013800067EB01084F4622460120002100F00DF8CE
:1013900017EB00094E41201EA4F10104DFDC484692
:1013A00031462A464346BDE8F09F202A04DB203A16
:1013B00000FA02F1002070479140C2F1200320FAA8
:1013C00003F3194390407047202A04DB203A21FAA6
:1013D00002F00021704721FA02F3D040C2F120024E
:1013E0009140084319467047202A06DBCB17203A64
:1013F00041FA02F043EAE07306E041FA02F3D0401A
:10140000C2F120029140084319467047D2B201E070
:1014100000F8012B491EFBD270470022F6E710B5F9
:1014200013460A4604461946FFF7F0FF204610BD52
:1014300010B5002200E0521C835C8C5CA34201D1F9
:10144000002BF8D1D8B2E1B2401A10BDF0B480EA56
:101450000102D40F4200B2EB410F02D2024608460D
:1014600011464A0042D0C30DDDB2C1F3C752AD1AD6
:10147000202D35DAC1F3160141F4000204B15242C5
:10148000C5F1200602FA06F12A411044B3EBD05F01
:1014900023D0C4B1012DA0EBC35009DCF0BC4FF048
:1014A000004202EAC352DBB200F5000000F021BBAB
:1014B000400000F1807000EBC350A0F1807040EA62
:1014C000D170490009E0490841EAC071A0EBC3505E
:1014D00000F50000400800EBC350F0BC00F000BB7A
:1014E0006142012202EB4101001BF6E7F0BC7047AC
:1014F00081F00041AAE780F00040A7E780EA0102FE
:1015000010B502F00043400022D04A001FD0010E67
:1015100001EB1261C0F35600C2F3560240F4000022
:1015200042F40002A0FB022000047F39140400D022
:10153000401C50EA124001D44000491EC2B20C06C1
:1015400004EBD010401C4008802A02D003E00020A9
:1015500010BD20F00100002900DA0020184310BD62
:1015600030B480EA010202F0004530F0004221F080
:10157000004013D090B1C30DD40DC2F31601C0F3D7
:101580001600E41A41F4000140F400027D34914257
:1015900001D3641C00E04900002C02DA30BC0020BA
:1015A00070474FF400000023914201D3891A03438E
:1015B00040084FEA4101F7D151B1914202D14FF0B9
:1015C000004105E002D24FF0010101E06FF001019E
:1015D00003EBC450284430BC00F082BA420005D06E
:1015E000C0F3C7525242914201DC0020704700EB29
:1015F000C15070472DE9FE4F804681EA0300C00FBD
:101600000C46009021F0004123F00045B8EB0200A9
:10161000A94105D24046214690461C460B4602464B
:1016200023F00040104347D0270DC7F30A00C3F34F
:101630000A510290401A019040286BDAC3F313005C
:1016400040F4801B0098924620B10023D2EB030A9D
:1016500063EB0B0B01985946C0F140025046FFF76F
:10166000A4FE06460D4650465946019AFFF7BCFEB9
:1016700010EB08006141002487EA115284EAE77305
:101680001A4340D0009A62B3019A012A4FEA0752E6
:1016900015DC001B61EB02014FF0004202EA075229
:1016A000CDE90042001C41F5801132462B4600F086
:1016B0005DFA03B0BDE8F08F40462146F9E7001B14
:1016C00061EB0201001C41F5801300185B412018FA
:1016D000A2F5001747EB030140EAD570B6196D413A
:1016E00011E06D084FEA360645EAC0754FEA075229
:1016F000001B61EB0201001C41F5801149084FEA13
:1017000030000019514132462B4603B0BDE8F04F7E
:1017100000F01DBA0098012240000023D0EB020225
:1017200063EBE073009821464FEAE074B8EB0000E9
:1017300061EB0401E9E783F000435BE781F00041DE
:1017400058E72DE9FE4F81EA030404F0004421F03C
:10175000004100944FF0000B23F0004350EA0104D5
:101760005ED052EA03045BD0C3F30A54C1F30A55B6
:101770002C44A4F2F3340194A0FB0254C1F31301EE
:1017800041F48011C3F3130343F4801301FB0244BB
:1017900000FB034E840A970A44EA815447EA8357C0
:1017A000A4FB076802958D0A05FB07854FEA932C79
:1017B00004FB0C542705029D4FEA065847EA1637EA
:1017C000B5EB08056EEB070C870E920E47EA811702
:1017D00042EA8312A7FB0201B6EB0B0164EB0004A3
:1017E0002B0D43EA0C335E1844EB1C50DA4651468D
:1017F000E7FB0201C5F313044FEA0B3343EA14532A
:101800004FEA0432019C43EA0603A4F10C0402945B
:10181000009CCDE900B400F0A9F903B0BDE8F08F59
:1018200000200146F9E72DE9F04D81EA030404F0B8
:10183000004B21F0004514464FF0000A23F0004110
:1018400050EA050220D054EA01021DD0C5F30A5720
:101850000246C5F31303C1F31300C1F30A5640F463
:10186000801543F48013A7EB0608101BD64608F238
:10187000FD3873EB050002D308F1010801E092186E
:101880005B41B8F1000F03DA00200146BDE8F08D9E
:1018900000204FF48011064684460EE0171B73EBC0
:1018A000050705D3121B63EB050306434CEA010C45
:1018B00049084FEA300092185B4150EA0107EDD128
:1018C00052EA030012D082EA040083EA05010843C9
:1018D00005D0101BAB4106D20122002306E00022F6
:1018E0004FF0004302E06FF0010253101AEB0600C4
:1018F0004CEB085110EB0A0041EB0B01BDE8F04D39
:1019000000F025B970B521F0004303430CD0C1F3BA
:101910000A550024D5EB040564EB0403D617AD1A71
:10192000B34102DB0020014670BD201841EB02519B
:1019300070BDC10F80EAE0700844CA0796230021F9
:1019400000F0D7B896230022114600F0D2B80EB5A9
:1019500040F2334102910021CDE900110A460B46C5
:1019600000F004F903B000BD00F0004220F0004098
:10197000C10DC0F3160040F400007F2901DA0020F9
:101980007047962903DCC1F19601C84001E0963901
:101990008840002AF4D04042704720F00040C10D3A
:1019A000C0F3160040F400007F2901DA00207047E0
:1019B000962903DCC1F19601C840704796398840EA
:1019C0007047C1F30A5210B5C1F3130140F2FF335F
:1019D00041F480119A4201DA002010BD40F23343F5
:1019E0009A42A2F2334203DC5242FFF7EDFC10BDF3
:1019F000904010BD00F0004230F000400AD0C10D10
:101A000001F56071C0F3160042EA0151C2084007B7
:101A100011437047002001467047000030B5041E96
:101A200071F1000404DB4FF00044404264EB01011B
:101A3000141E73F1000405DB1C464FF000435242B4
:101A400063EB04038B4208BF824230BD30B5041EF5
:101A500071F1000404DB4FF00044404264EB0101EB
:101A6000141E73F1000405DB1C464FF00043524284
:101A700063EB0403994208BF904230BD01F000437C
:101A800030B421F0004150EA010206D00A0DA2F55F
:101A90006072C1F31301002A02DC30BC00207047E1
:101AA000440F44EAC104C100E01830BC00EBC2504E
:101AB00000F016B830B50B46014600202022012464
:101AC00009E021FA02F59D4205D303FA02F5491B0C
:101AD00004FA02F52844151EA2F10102F1DC30BD22
:101AE0000029A8BF7047401C490008BF20F0010032
:101AF000704710B4B0FA80FC00FA0CF050EA010410
:101B000004BF10BC704749B1CCF1200421FA04F4A1
:101B100011FA0CF118BF012121430843A3EB0C017A
:101B2000CB1D4FEA00614FEA102042BF002010BCDD
:101B3000704700EBC35010440029A4BF10BC70478D
:101B4000401C490008BF20F0010010BC704710B5D0
:101B5000141E73F1000408DA401C41F100019218D0
:101B60005B411A4301D120F0010010BD2DE9F04D79
:101B700092469B4611B1B1FA81F202E0B0FA80F2CE
:101B800020329046FFF711FC04460F4640EA0A0057
:101B900041EA0B0153465A46084313D0114653EA13
:101BA000010019D0C8F140025046FFF70DFC054670
:101BB0000E46504659464246FFF7F7FB084305D00C
:101BC000012004E020463946BDE8F08D00200543A1
:101BD00046EAE0762C4337430A986305E40AA0EB13
:101BE00008000022FD0A44EA47540A3002D50020CA
:101BF0000146E9E7010510196941DDE908450019C9
:101C00006941BDE8F04DA2E72DE9F04D00231A46E9
:101C10001B1A8A4103DB00200146BDE8F08DC1F3A9
:101C20000A52C1F3130141F480154FF0000BD107A4
:101C300002D100186D41521E0027044640F2FF11E8
:101C4000384601EB620A3E468046024600204FF4C9
:101C50008011FFF7B9FBC2197141BB1846EB0100B7
:101C6000B4EB030C75EB000C04D3E41A65EB000530
:101C700017460E46241908F101006D4180463428AC
:101C8000E3DDF91946EB0600091BA84103D24FF02A
:101C9000FF32134601E0002213461BEB070046EB20
:101CA0000A51BDE8F04DFFF752BFC1F30A52C1F32C
:101CB000130140F2FF3341F480119A4202DA00200E
:101CC0000146704740F233439A42A2F2334202DCAB
:101CD0005242FFF779BBFFF768BB0000064C074D87
:101CE00006E0E06840F0010394E8070098471034EC
:101CF000AC42F6D3FEF720FA10BA000830BA00085A
:101D000070B5044600688168C943C90717D1816866
:101D100021F00101816001F029FF05460AE000BFC2
:101D200001F024FF401B022804D920688068C043CA
:101D3000C00706D020688068C043C007F0D00020EC
:101D400070BDA06A40F01000A062E06A40F001009F
:101D5000E062012070BD00002DE9FC5F00213648E3
:101D600001F0B1FA354C82B2002622811025CDE96E
:101D70000056042396215E2005F063FF2089FFF7BB
:101D8000E6FDDFF8BCB04FF066394A465B46FFF728
:101D9000D8FCFFF773FE0746FFF7FFFD2081CDE972
:101DA000005602460123AA215E2005F04AFF208941
:101DB000FFF7C8FD3946FFF79EFBDFF888A05146C4
:101DC000FFF79CFBFFF7E9FD4FF08008CDE90058D5
:101DD00002460323AA216E2005F033FF1A4801F0C2
:101DE000E9F880B2FFF7B3FD4A465B46FFF7A9FC6E
:101DF000FFF744FE0746FFF7D0FD2081CDE90056EE
:101E000002460123BE215E2005F01BFF2089FFF75B
:101E100099FD3946FFF76FFB5146FFF76FFBFFF760
:101E2000BCFDCDE9005802460323BE216E2005F01B
:101E300008FFBDE8FC9F0000F01000200C0000200F
:101E400066664A3F00007A447C10002010B50146C7
:101E5000406A826A12F0500F05D0006A026BBDE83A
:101E6000104008461047816A41F4007181620168A0
:101E70008968C1F3424107290CD1017B51B9816ABC
:101E800021F480718162816AC90403D4816A41F0BE
:101E90000101816201F058F810BD10B5406A816AF5
:101EA00041F040018162C16A41F00401C16201F068
:101EB00080F810BD10B5406A01F07AF810BD00003E
:101EC000F8B500260446009600688168C943C90732
:101ED0002DD0816841F001018160164816490068E3
:101EE000B0FBF1F000E0401E00900028FBD101F0B3
:101EF0003DFE054616E000BF01F038FE401B0228FB
:101F000010D920688068C043C0070BD0A06A40F099
:101F10001000A062E06A40F00100E06284F82460F2
:101F20000120F8BD20688068C043C007E4D10020CC
:101F3000F8BD00002400002040420F0002F00CBF5A
:101F400070B514460D46064608E03046711C8EB248
:101F500000F007F8641E05F8010BA4B2002CF4D1C0
:101F600070BD10B5044602F0A1FF200AA02101EBCC
:101F70004000C0B202F06AFF02F0DAFFE0B202F005
:101F800065FF02F0D5FF02F091FFA12002F05EFF95
:101F900002F0CEFF002002F023FF044602F0A6FF6D
:101FA000204610BD70B516460C46054606E0217861
:101FB000284600F007F86D1CADB2641C761EB6B260
:101FC000F5D270BD70B50D46044602F06FFF200AD1
:101FD000A02101EB4000C0B202F038FF02F0A8FFE0
:101FE000E0B202F033FF02F0A3FF284602F02EFF1A
:101FF00002F09EFF02F07AFFBDE870400A2007F071
:1020000042BFFEE770B50F4C0025C4F884510E485E
:10201000016821F0F0010160016841F030010160C8
:10202000052004F5C27407F03DFF0848C0F8A4512C
:10203000052007F037FF01202060052007F032FF60
:10204000256070BD00802142041C014000802342B5
:10205000154810B5816986B041F008018161816938
:1020600001F008010491816941F08001816180697A
:10207000012400F0800004900220CDE90004032038
:10208000CDE902406946094801F06EFC600200900B
:102090006946074801F068FC0648C0F884410648D4
:1020A000C0F8A44106B010BD00100240000C014071
:1020B000001C0140008021420080234270B50F4C7B
:1020C0000025C4F884510E48016821F0F001016038
:1020D000016841F030010160052004F5C27407F089
:1020E000E1FE08480126C0F8A461052007F0DAFEE9
:1020F0002660052007F0D6FE256070BD00802142D5
:10210000041C0140008023422DE9F0478246194813
:102110000024016821F0F0010160016841F08001B4
:1021200001601E2007F0BEFE0025134EDFF84C9024
:102130002F464FF0010800BFC6F88471052007F054
:10214000B1FEC6F884816006040ED9F8240108B1F6
:10215000641CE4B26D1CEDB2082DEDD3BAF1000F92
:1021600004D0FFF74FFF2046BDE8F087FFF7A6FF3A
:10217000F9E70000041C0140008021420080234256
:102180002DE9F04706461548016821F0F00101608D
:10219000016841F030010160114D0027C5F88471DC
:1021A000052007F07FFEDFF83C8000244FF0010996
:1021B000F109C8F8A4117006060EC5F8849105202F
:1021C00007F070FEC5F88471052007F06BFE641CF3
:1021D000E4B2082CECD3BDE8F0870000041C0140F9
:1021E000008021420080234270B50F48016821F031
:1021F000F0010160016841F0300101600B4C0120E9
:10220000C4F8A4010A4DC5F884011E2004F5D27457
:1022100005F5C27507F046FE00262660052007F08A
:1022200041FE2E6070BD0000041C0140008023426E
:102230000080214270B50D48016821F0F001016075
:10224000016841F03001016009480125C0F884515E
:102250001E2007F027FE074C0020C4F8A40105202B
:1022600004F5D27407F01EFE256070BD041C014009
:10227000008021420080234270B51248002401688A
:1022800021F0F0010160016841F0800101600E4E13
:102290000120C6F8A4010D4DC5F8840107E0641CB7
:1022A000E4B2FA2C03D9FFF7C5FF012070BD052069
:1022B00007F0F8FDD6F824010028F0D1C5F8840114
:1022C00070BD0000041C01400080234200802142B8
:1022D000014801F029B90000AC100020014801F0CC
:1022E00023B9000014130020014801F01DB90000BB
:1022F0000411002030B590F840500124AC40C56B6B
:102300006C60046863604368102B036803D09960B5
:102310000068C26030BD9A600068C16030BD0000D6
:1023200011B50D4CAB200622207001206070FE20FC
:10233000A070F220E070042020710020607121461E
:10234000684607F005F9204600F000FD03480178D3
:10235000A1724078E07218BDF8430020710000209F
:102360007047012001F0F4BA082001F0F1BA102002
:1023700001F0EEBA72B6FEE730B5B3F5804F05D086
:102380006FF0704140F82210002030BD8C690B685E
:102390008D6823434C688989240144EA052423433A
:1023A00043EA014150F82230014C23401943E9E748
:1023B0000000F0CF10B50A6850F8223023F0010376
:1023C00040F822308C68082C23D000234A6822432E
:1023D000CC681C430B6922431A434B690E4C1A43C9
:1023E000CB691A430B6A1A434B6A1A438B6A1A4326
:1023F000CB6A1A430B6B1A438B6913434A6B096808
:102400001A4350F82130A343134340F821300020F1
:1024100010BD4023DAE700007FFF0F0030B5D1E99F
:10242000003443EA04138C688D89240244EA05448D
:1024300023430C8A094D00EB820005EB045423432F
:102440000C7D6D0105EB0464896923430B434168EE
:1024500001F040410B434360002030BD0000F0FF1D
:1024600070B5444888B0816941F08001816180691C
:10247000012500F0800006904FF40060CDE90205D0
:102480000320CDE904503C4E02A9304601F06CFA1D
:10249000A8020024CDE9020402A9304601F064FA42
:1024A000FFF7D6FD354EC6F8AC41142006F5D676BA
:1024B00007F0E9FC3560322007F0E5FC8DF80040BC
:1024C00001226946002000F0BBF901226946A420E0
:1024D00000F0B6F916208DF8000001226946802030
:1024E00000F0AEF90C208DF800000122694688202A
:1024F00000F0A6F902226946A12000F04FF89DF8ED
:102500000000302803D19DF8010003282BD00422BD
:10251000694648F2401000F043FA8DF804406946DD
:1025200017A007F021F81948009948F24005C0F8B3
:10253000021002208DF8000001226946284600F0B2
:1025400045FB01226946E81D00F02AFA0A2007F03F
:102550009AFC8DF8004001226946284600F036FBBF
:1025600008B0002070BD43F2030109A006F0FCFF93
:10257000F6E7000000100240001C014000802342EA
:102580004354502049443A25730D0A006800002046
:102590004354502049443A25780D0A002DE9F04172
:1025A00015460E460446FFF71FFE7020FFF7E8FDB4
:1025B000FFF762FEE0B2FFF7E3FDFFF75DFEFFF716
:1025C00013FE7120FFF7DCFDFFF756FE00246F1E9F
:1025D00009E0BC4201D0012000E00020FFF794FD9B
:1025E0003055641CE4B2AC42F3D3BDE8F041FFF7D0
:1025F00021BE00002DE9F14783B000268B4D8DF8F8
:1026000004604FF00A096878894C401CC0B2B0FBE6
:10261000F9F209FB12013746687009B10A2871D234
:10262000824884A1801CFEF703FF4FF0010203A93A
:1026300010B30220FFF7B2FF9DF80C00010761D034
:10264000297800F00F028A425CD8FF209040C043F6
:1026500094F8208040F0C00084F8200004EB410092
:10266000A2894281E18A8182042007F00CFC8DF866
:102670000460DFF8C4A185E048F24E18404600F03F
:102680008FF99DF80C000106D6D5297800F00F00CF
:102690008842D1D88DF80460012201A9404600F09B
:1026A00095FAC9E794F8201001228240114264D0C3
:1026B0005E4860A1801CFEF7BBFE20B35F489DF81A
:1026C0000410042230F811006946FFF767FF94F800
:1026D00030009DF80010C0079DF8010001F00F01C7
:1026E00000EB012138D09DF8040004EB4000C182CA
:1026F0009DF802209DF8031002F00F0201EB022169
:1027000081813AE059E04D489DF804100A300422D6
:1027100030F81100694600F043F994F830009DF854
:102720000110C0079DF8000000EB01219DF8040096
:1027300004EB400005D081819DF802109DF8032034
:1027400018E0C1829DF802109DF8032001EB0222DF
:10275000BAF80010891AD3E7BAF80000411A9DF8B8
:10276000040004EB400081819DF802209DF80310D5
:1027700002F00F0201EB0221C1829DF80400401C0F
:102780008DF804009DF80400297888428AD3A18935
:10279000BAF800200127914204D8E18ABAF8020071
:1027A000814209D99DF80C0000F00F00012812D9D0
:1027B000E089A081208BE0826E701C481DA1801CE6
:1027C000FEF736FE01009DF80C104FF6FF700FD09B
:1027D000C90625D01BE0287804EB40004189A1817F
:1027E000808AE08280208DF80C0084F82080E4E765
:1027F00001F08F01802913D009E000BF21F0800093
:1028000003E0A081E08201F0E00084F82000687815
:10281000F02801D985F8019004B03846BDE8F0876A
:1028200094F820100A06ECD5E8E7000068000020C4
:102830003400002039313100A0430020B4B8000832
:102840002DE9F04116460F4604460025FFF7CCFC63
:102850007020FFF795FCFFF70FFDE0B2FFF790FC4B
:10286000FFF70AFD002408E0385DFFF789FCFFF759
:1028700003FD050003D1641CE4B2B442F4D3FFF7B6
:10288000D9FC2846BDE8F0812DE9F041374888B0F1
:10289000816941F0800181618069012500F080003B
:1028A00006904FF40060CDE900050320CDE9025009
:1028B000DFF8BC806946404601F056F8AE020024BD
:1028C000CDE900646946404601F04EF8FFF7C0FBD1
:1028D000284FC7F8AC410A2007F5D67707F0D3FA9E
:1028E0003D600A2007F0CFFA02250096694640466F
:1028F000CDE9014501F038F8642007F0C4FA04225C
:1029000004A948F2401000F04BF88DF8144004A9D7
:1029100019A006F029FE1BA104A8FEF789FD08BB3B
:102920008DF8105048F24005012204A9284600F015
:102930004DF9012204A9E81D00F032F89DF81010AD
:10294000602905D211A006F00FFE012000F016F953
:102950000A2007F098FA8DF81040012204A92846B1
:1029600000F034F908B00020BDE8F081001002400A
:10297000001C0140008023424354502049443A2522
:10298000730D0A0039313437000000004465666178
:10299000756C74205665723A25640D0A00000000BB
:1029A0002DE9F04115460E460446FFF71DFC282090
:1029B000FFF7E6FBFFF760FC200AFFF7E1FBFFF7FC
:1029C0005BFCE0B2FFF7DCFBFFF756FCFFF70CFC0B
:1029D0002920FFF7D5FBFFF74FFC00246F1E09E00D
:1029E000BC4201D0012000E00020FFF78DFB3055F4
:1029F000641CE4B2AC42F3D3BDE8F041FFF71ABC6B
:102A00002DE9F147594E00244FF00A0A307885B07D
:102A1000401CC0B2B0FBFAF20AFB1201544DA046B2
:102A2000307009B10A2878D248F24E19012205A95E
:102A30004846FFF7B5FF9DF814004FF00007010668
:102A40000AD500F00F00062806D28DF8007001228A
:102A50006946484600F0BAF89DF8140001075CD0BA
:102A600000F00F01062958D2FF2088408DF80000A1
:102A7000C04395F8209040F0C00085F82000A88958
:102A8000A882E88AE8834FF0010800BF95F820107B
:102A900008FA04F0014225D03648042202A930F891
:102AA0001400FFF77DFF95F830009DF80910C0076E
:102AB0009DF8080000EB012105EB44000AD0C1821B
:102AC0009DF80A109DF80B2001EB0221C1F5487119
:102AD000818107E081819DF80A109DF80B2001EBB0
:102AE0000221C182641CE4B2052CCFD32249AA89F9
:102AF0004FF001080B8828469A4203D8C28A4988B9
:102B00008A4209D99DF8141001F00F0101290BD94F
:102B1000C1898181018BE98237709DF8140000F032
:102B20008F0080280AD018E0818A8181C18BC18200
:102B300080218DF8141085F82090EEE795F820009C
:102B4000010602D520F0800005E04FF6FF71A98153
:102B5000E98200F0E00085F820003078F02801D903
:102B600086F800A006B04046BDE8F0876F00002060
:102B70003400002080B90008A043002008B50021DF
:102B80008DF800108DF801000F4800BF435C9DF8E0
:102B90000020491C1A44C9B28DF80020B829F5D389
:102BA000D0B2C043401C8DF80000B822064948F25C
:102BB000470000F00BF80222694648F2FF0000F0DF
:102BC00005F8002008BD0000C8B800082DE9F04154
:102BD00016460F4604460025FFF706FB2820FFF7A0
:102BE000CFFAFFF749FB200AFFF7CAFAFFF744FBC9
:102BF000E0B2FFF7C5FAFFF73FFB002408E0385DBD
:102C0000FFF7BEFAFFF738FB050003D1641CE4B2FE
:102C1000B442F4D3FFF70EFB2846BDE8F081000074
:102C20002DE9F05FDFF8F89000246FF00E0AA9F5A7
:102C300000554FF4007B00BF59F8241008140EB261
:102C4000FEF777FE0A21FEF7C9FC57465146FEF70C
:102C5000C5FC80463046FEF76CFE0A21FEF7BEFC3E
:102C60003946FEF7BBFC06460146FEF747FC074621
:102C700041460846FEF742FC3946FEF7E7FBFEF701
:102C8000B9FE07F0F1F96FF00902FEF73BFEFEF71F
:102C9000F5FE002C3CD01021FEF7A0FCFEF77DFED7
:102CA00045F82400611C1FA006F05EFC2046FEF7DC
:102CB00049FE1F49FEF722FCFEF79CFE02460B462A
:102CC0001CA006F051FC55F8241016A006F04CFC90
:102CD0004046FEF78FFE02460B4616A006F044FC67
:102CE0003046FEF787FE02460B4615A006F03CFC78
:102CF000641CA4B25E46B4429ED3002455F824005E
:102D000005F078FB641CA4B2B442F7D3BDE8F09F91
:102D10000F21FEF763FCFEF740FE2860C2E70000CB
:102D200058330020256420202020202000000000AF
:102D3000B61DFB4325662020202020200000000037
:102D400025662020202020200D0A0000084910B50B
:102D500000220A704A70835C0C78521C23440B706A
:102D60004C78D2B223444B700A2AF4D310BD000031
:102D700071000020F8B500250446009590F8240065
:102D800001280BD0012084F824002046FEF7B8FF6C
:102D90002046FFF795F8060002D050E00220F8BD6B
:102DA000A06A20F4885040F00200A062022000F0E7
:102DB00073FF25490968B1FBF0F0400000E0401EB8
:102DC00000900028FBD12068816841F008018160F3
:102DD00000F0CCFE074608E000F0C8FEC01B0A2841
:102DE00003D920688068000715D420688068000730
:102DF000F2D42068816841F00401816000F0B6FEE1
:102E0000074612E000F0B2FEC01B0A280DD9206868
:102E10008068400709D5A06A20F0020040F0100049
:102E2000A06284F824500120F8BD20688068400723
:102E3000E8D4A06A20F0020040F00100A06284F80B
:102E400024503046F8BD000024000020F8B50024CE
:102E5000009490F824202546012A12D0012280F8FF
:102E600024204A681F23072A0DD20668776B521E5A
:102E700002EB820293409F430B6893401F437763AA
:102E800019E00220F8BD06680D2A0AD2376BD21F5E
:102E900002EB820293409F430B6893401F433763CA
:102EA00009E0F76A0D3A02EB820293409F430B68F8
:102EB00093401F43F7620A68072306680A2A0AD369
:102EC000F7680A3A02EB420293409F438B689340B3
:102ED0001F43F76008E0376902EB420293409F43CB
:102EE0008B6893401F4337610A68102A01D0112A6A
:102EF00020D1124B02689A4217D193681B0219D451
:102F0000936843F4000393600968102912D10C49B7
:102F10000C4A0968B1FBF2F101EB8101490000E0C4
:102F2000491E00910029FBD104E0816A41F0200193
:102F30008162012480F824502046F8BD002401401D
:102F40002400002040420F0070B5114C00222021C7
:102F5000204600F005FE0FA006F006FB00211248F7
:102F6000124B221550F821502D0443F82150491CD2
:102F70009142F7DB0D4901F58050FDF7F5F8FFF7B9
:102F80004FFE2046BDE870400122202100F0E8BD40
:102F90000018014041444320444D4120636F6D704F
:102FA0006C657465210D0A007C0000205823002008
:102FB000704770470068C06C704700002DE9F04111
:102FC00004004FF000057FD0A06A002628B9E66211
:102FD00084F82460204600F081F82046FEF790FE39
:102FE000A16AC90600D420B1A06A40F01000A06216
:102FF0006AE0A16A21F4885141F00201A1623349DB
:1030000023688B42E16904D1B1F5402F01D14FF41F
:103010000021277B4FF4807C41EA470261680A4324
:10302000A168614508D0012906D0002194F814E078
:10303000BEF1010F02D00AE06146F7E7C7B1A76A07
:1030400047F02007A762E76A47F00107E7625F6879
:1030500027F469470F435F60236899681C4F394024
:1030600011439960A16861450BD0012909D00CE09A
:10307000DFF860E0A7690EEB47370F4347F40061C4
:10308000E5E7218A0D05A5F580152168CB6A23F4B3
:1030900070032B43CB62216889680F4B1940914222
:1030A00008D1E662A16A21F0020141F00101A162AA
:1030B000BDE8F081A06A20F0020040F01000A0629C
:1030C000E06A40F00100E0620120F1E7003C0140CD
:1030D000FDF7E1FF00E0FFFFFE0E1FFF70B586B0B9
:1030E00000250646009501950295039500681A494A
:1030F00088422FD11949886940F400708861886935
:1031000000F400700490886940F0040088618869C8
:10311000694600F004000490022000900320019012
:103120000F4800F021FC104C0E48C4E90005802037
:10313000C4E9025040002061C000C4E905054FF415
:103140004050E061204600F013FB08B1FFF712F990
:103150003462666206B070BD002401400010024077
:103160000008014008000240AC1000202DE9F047A3
:10317000894604463B4900683B4F0E1D90468842F5
:1031800001D0B84207D1306810F4702F03D0012568
:103190002846BDE8F08794F8240001280CD00120CF
:1031A00084F824002046FEF78BFE05004FF0000057
:1031B00004D084F82400EBE70220EAE7A16A40F695
:1031C0000162914341F48071A1622168B94218D132
:1031D000326812F4702F14D0A16A41F48011A162F8
:1031E0003168490505D5A16A21F4005141F48051A7
:1031F000A162A16AC9040AD5E16A21F00601E1626F
:1032000006E0A26A22F48012A2624968E9E7E0625D
:1032100084F82400216A15488862216A1448C8622B
:10322000216A1448086321686FF002000860206872
:10323000816841F480718160216843464A464C317F
:10324000206A00F0D3FA20688168C1F3424107295F
:10325000816803D041F48011816099E741F4A001B5
:10326000FAE7000000240140002801404D1E00083C
:10327000B51E00089B1E000870B500B3F9B1437974
:10328000012B1ED0012646710223037105682C68AC
:1032900002F0100340F6FE729A409443D1E90021F7
:1032A0000A439A4022432A6001680A68C0249C406D
:1032B000A2430A60067100214171084670BD0120D9
:1032C00070BD022070BD18B1006819B1006B704765
:1032D00001207047C06A704770B5040003D02079A0
:1032E000002510B105E0012070BD6571204600F099
:1032F00007F802202071256101202071002070BD97
:10330000F0B585B000260546009601960296039614
:1033100000681A4988422ED11949C86940F0005006
:10332000C861C86900F000500490886940F004004A
:1033300088618869102700F0040004900320CDE91B
:10334000007069460F4800F00FFB104C0E48C4E9AE
:1033500000078020C4E902604000206180006061B5
:103360002020C4E90606204600F002FA08B1FFF763
:1033700001F8AC60656205B0F0BD0000007400406B
:1033800000100240000801403004024004110020F7
:1033900018B50024009440B100680090104431B189
:1033A000143000900360002018BD012018BD0830C3
:1033B000F7E710B590F821100022022905D004216A
:1033C000816380F82020012010BD01680B6823F084
:1033D0000E030B6001680B6823F001030B6090F88B
:1033E0004030C46B012101FA03F3636080F82110BF
:1033F00080F82020104610BD2DE9F05F90F82110D4
:103400000024022903D004218163012485E001689E
:103410000A6822F00E020A6001680A6822F00102BE
:103420000A603F4E3E4FB215DFF8F4C0DFF8F0906F
:10343000DFF8ECA0DFF8E8B0DFF8E4E00168783FFF
:1034400013011502ACF1640CA9F15009AAF13C0A70
:10345000ABF1280BAEF1140E4FF48018B14227D90E
:10346000B9420ED0614512D049451DD0514518D002
:10347000594518D0714501D1424615E0294EB14257
:1034800001D1012210E0274E1436B14201D11022A1
:103490000AE0244E2836B14206D0224A3C329142FC
:1034A00001D11A4600E02A461E49091F0A602BE096
:1034B000B94213D0614517D0494522D051451DD09E
:1034C00059451DD0714501D142461AE0B14202D1A1
:1034D0004FF0807215E0134EB14201D1012210E08D
:1034E000104E1436B14201D110220AE00D4E28369A
:1034F000B14206D00B4A3C32914201D11A4600E05B
:103500002A46074980394A60012180F821100021AC
:1035100080F82010416B01B188472046BDE8F09F3C
:1035200080000240080402402DE9F05FC16B0A6888
:1035300001680B68046C4FF0040808FA04F8844D25
:10354000844E854FDFF814C2DFF81492DFF814A21E
:10355000DFF814B2DFF814E218EA020F65D05FEA70
:10356000437862D50A68920603D40A6822F00402FE
:103570000A60DFF8F0814FF48062016808F11408F6
:1035800013011402414524D9A9420DD0B1420FD0F4
:10359000B9421AD0614515D0494515D0514501D1E0
:1035A000120312E0594501D104220EE0714501D108
:1035B00040220AE06D4D1435A94206D06B4A2832EC
:1035C000914201D11A4600E022466749091F0A606C
:1035D00029E0A94213D0B14215D0B94220D06145AB
:1035E0001BD049451BD0514502D14FF4800217E052
:1035F000414502D14FF0806212E0594501D10422C9
:103600000EE0714501D140220AE0584D1435A9421F
:1036100006D0564A2832914201D11A4600E022468D
:103620004B4908394A60C16A71E04FF0020808FA54
:1036300004F818EA020F70D05FEA83786DD50A6843
:10364000920606D40A6822F00A020A60012180F874
:103650002110DFF810814FF40072016808F114089E
:1036600013011402414524D9A9420DD0B1420FD013
:10367000B9421AD0614515D0494515D0514501D1FF
:10368000120312E0594501D102220EE0714501D129
:1036900020220AE0354D1435A94206D0334A28329B
:1036A000914201D11A4600E022462F49091F0A60C3
:1036B00029E0A94213D0B14215D0B94220D06145CA
:1036C0001BD049451BD0514502D14FF4001217E0E1
:1036D000414502D14FF0007212E0594501D102225A
:1036E0000EE0714501D120220AE0204D1435A94297
:1036F00006D01E4A2832914201D11A4600E02246E5
:10370000134908394A60002180F82010816A002995
:103710001CD0BDE8F05F0847FFE70825A54015422B
:1037200014D01A0712D50A6822F00E020A6090F827
:103730004020C36B012101FA02F25A60816380F8D4
:103740002110002180F82010016BE0E7BDE8F09F18
:10375000080002401C0002403000024044000240C9
:10376000580002406C000240080402401C04024061
:1037700030B560B11A4B026814219A4209D2194B34
:103780001344B3FBF1F18900016417490AE00120F9
:1037900030BD134B5B421344B3FBF1F1890001646C
:1037A0000F490839C163022180F82110136843F6DC
:1037B000F0718B43F0E901142143D0E902452C4319
:1037C0002143046921434469214384692143194306
:1037D000116000214163012242770177084630BD24
:1037E00008040240F8FFFDBF0000024070B5044627
:1037F00090F82000002501280CD0012084F820003A
:1038000094F821600020012E06D084F820000225C3
:10381000284670BD022070BD022684F82160A06396
:103820002068066826F0010606602046FEF762FD65
:10383000E06A00282068016802D041F00E0106E02D
:1038400021F0040101602068016841F00A01016073
:103850002068016841F001010160D9E730B585B009
:103860000020009001900290039017480168002901
:1038700027D1012101601548416941F480714161FE
:103880004069022400F48070049041F20100CDE907
:1038900000040325694603950D4800F065F84FF6CE
:1038A0008070CDE90004694603950A4800F05CF891
:1038B0004CF23370CDE9000469460395064800F0E8
:1038C00053F805B030BD0000000000200010024099
:1038D00000200140001801400014014070B5054669
:1038E000164C00070BD56088B0F57A6F01D2C8304E
:1038F000608083B2002211461148FFF749FDE806B7
:103900000CD56088C82801D9C83800E00020608044
:1039100083B2002211460A48FFF73AFDE80708D0B3
:10392000084800F0E5FD4FF4806207490748FFF7BB
:103930001DFCBDE87040FEF70FBA00000C0000202F
:10394000F0100020901100207C0000207C1000204E
:10395000044910B50A68024202D00860FFF7BEFFB2
:1039600010BD0000140401402DE9F84FDFF8C891A4
:103970000024A9F1040B23460F2709F1040AABF137
:10398000040ED1E00125A54006EA0502AA4276D13F
:10399000DFF8A8C14E68A6EB0C0866452BD00DDCFD
:1039A000032E34D005DC36B3012E19D0022E2FD1D0
:1039B0001BE0112E16D0122E2AD119E0B8F5881F5F
:1039C00019D006DCB8F5803F15D0B8F5801F1FD19F
:1039D00011E0B8F5001F0ED0B8F5041F18D10AE0A9
:1039E000CB6815E0CB681B1D12E0CB6808330FE0F5
:1039F000CB680C330CE08B682BB1012B4FF0080324
:103A000003D0456104E0042302E0056100E00023E7
:103A1000FF2A01D8064601E000F104064FEA8405BA
:103A200001D9A5F12005D6F8008007FA05FC28EA9F
:103A30000C0803FA05F548EA0508C6F800804D6849
:103A4000ED0070D53E4DAE6946F00106AE61AD6940
:103A500024F0030605F0010500953A4D06EB050C30
:103A6000DCF80850A607360F07FA06F825EA08051D
:103A7000DFF8D480404503D14FF0000825E052E044
:103A8000DFF8C880404502D14FF001081DE0DFF8A3
:103A9000C080404502D14FF0020816E0DFF8B48044
:103AA000404502D14FF003080FE0DFF8AC804045FD
:103AB00002D14FF0040808E0DFF8A080404502D1B1
:103AC0004FF0050801E04FF0060808FA06F848EA4A
:103AD0000508CCF808804D68D9F80060ED024D4625
:103AE00001D5164300E096432E604D68DAF8006079
:103AF000AD02554601D5164300E096432E604D6851
:103B0000DBF80060AD035D4601D5164300E0964347
:103B10002E604D68DEF80060ED03754601D5164352
:103B200000E096432E60641C0A681646E2407FF46B
:103B300029AFBDE8F88F0000080401400000111013
:103B4000001002400000014000080140000C01404C
:103B5000001001400014014000180140001C014009
:103B60000AB1016170470904FBE700000148806861
:103B70007047000018000020024881680278114454
:103B80008160704718000020074810B5016841F0B7
:103B900010010160032000F06DF80F2000F006F81E
:103BA00000F024F8002010BD0020024070B50D4D3B
:103BB00004464FF47A712878B1FBF0F00A4909689D
:103BC000B1FBF0F000F0DAFB48B9102C07D200226C
:103BD0002146501E00F02EF800206C6070BD0120C0
:103BE00070BD00001800002024000020094808B51E
:103BF000816941F001018161816901F00101009158
:103C0000C16941F08051C161C06900F080500090ED
:103C100008BD000000100240002809DB00F01F0270
:103C2000012191404009800000F1E020C0F800111E
:103C300070470000F0B40E4B1B680C46C3F3022320
:103C4000C3F10705042D00D90425191D072901D248
:103C5000002300E0DB1E012606FA05F1491E214083
:103C600099409E40761E16403143F0BC05F08CBC56
:103C70000CED00E0064900F0070208684FF6FF036C
:103C8000184040EA0220034A1043086070470000D1
:103C90000CED00E00000FA0510B501460020284CAC
:103CA00004292FD00BDC012930D0022929D100F0C2
:103CB0006BF96168C1F38131491C49001FE0082993
:103CC00020D010291DD161682268D20119D51D4864
:103CD000C1F38342C903805C0AD56168194AC1F304
:103CE0004041921E515C184AB2FBF1F1484301E099
:103CF000164948436168490203D440000321B0FBE0
:103D0000F1F010BDBDE8104000F04EB9226AC2F3D8
:103D10000121012903D1920701D5C80310BD022951
:103D200005D1626A920702D549F6404010BD0329C9
:103D3000FCD121688903F9D54FF2244010BD000061
:103D400000100240C8A0000800127A0000093D00DF
:103D50002DE9F84305460078354CC00754D0E0699A
:103D60000026C00008D4E06940F08050E061E069BE
:103D7000012600F0805000902E480168C90512D439
:103D80000168804641F480710160FFF7EFFE07464D
:103D900005E000BFFFF7EAFEC01B642823D8D8F86F
:103DA0000000C005F6D5206A10F4407021D0A98823
:103DB00001F4407181421CD0206A1F49012220F485
:103DC00040700A6000220A602062C00711D0FFF72D
:103DD000CDFE074641F2883808E000BFFFF7C6FE77
:103DE000C11B414502D90320BDE8F883206A800742
:103DF000F4D5206A696820F44070084320621EB13F
:103E0000E06920F08050E0612878800705D560687F
:103E1000A96820F44040084360602878C00605D5B2
:103E20006068696920F48000084360600020DBE777
:103E30000010024000700040400442422DE9F0476B
:103E40000F46050061D0434E306800F00700B842CD
:103E500009D2306820F0070038433060306800F045
:103E60000700B84251D128683B4C810712D5400762
:103E700003D5606840F4E06060602878000703D5EF
:103E8000606840F4605060606068A96820F0F000ED
:103E9000084360602878C00728D06868012810D0DF
:103EA0002168022810D0890700292EDA616821F0E4
:103EB000030101436160FFF759FE804641F28839F2
:103EC0000DE021688903EFE78901EDE7FFF74EFE7A
:103ED000A0EB0801494502D90320BDE8F0876068DE
:103EE000696800F00C00B0EB810FEFD1306800F092
:103EF0000700B8420BD9306820F007003843306023
:103F0000306800F00700B84201D00120E5E72878CA
:103F1000400705D56068E96820F4E0600843606008
:103F20002878000706D56068296920F4605040EAC7
:103F3000C100606000F038F86168084AC1F30311FD
:103F4000515CC8400649086006480068FFF72EFE2D
:103F50000020C2E70020024000100240D8A0000864
:103F6000240000201C00002004480549006849681E
:103F7000044AC1F30221515CC8407047240000206C
:103F800000100240E8A0000804480549006849689C
:103F9000044AC1F3C221515CC8407047240000208C
:103FA00000100240E8A000080E4A51680E4801F0D7
:103FB0000C03042B11D0082B0FD10C48C1F3834301
:103FC000C903C05C0AD55168084AC1F34041921E3A
:103FD000515C054A5043B0FBF1F070470449484337
:103FE000704700000010024000127A00B6A00008DE
:103FF00000093D002DE9F84F040070D02078C04D35
:10400000C00749D06868C0F38100012807D06868FC
:10401000C0F38100022809D16868C00306D528686A
:10402000800339D560680028E7D035E06068B0F5D6
:10403000803F0BD010B1B0F5A02F11D0286820F42C
:1040400080302860286820F4802002E0286840F44E
:1040500080302860606890B1FFF788FD06460AE06E
:10406000286840F480202860F0E700BFFFF77EFD5D
:10407000801B642873D828688003F7D50CE0FFF70D
:1040800075FD064605E000BFFFF770FD801B642844
:10409000F0D828688003F7D420789A4E80074FF034
:1040A00001094FF0000839D5686810F00C0F07D0EF
:1040B0006868C0F38100022809D16868C00306D48B
:1040C0002868800714D52069012808D110E02069EC
:1040D000B0B1C6F80090FFF749FD074605E00AE1D8
:1040E000FFF744FDC01B0228C4D828688007F7D515
:1040F0002868616920F0F80040EAC10028600DE0FE
:10410000C6F80080FFF732FD074604E0FFF72EFDFA
:10411000C01B022823D828688007F7D4207800071E
:104120002CD57948A169D9B1C0F80090FFF71EFDE0
:10413000074604E0FFF71AFDC01B02280FD8686A83
:104140008007F7D571484FF4FA510068B0FBF1F0E1
:10415000009000BF0098411E0091FAD20EE080E06E
:10416000C0F80080FFF702FD074604E0FFF7FEFC01
:10417000C01B022875D8686A8007F7D420784007EA
:1041800060D5E8690027C00008D4E86940F0805095
:10419000E861E869012700F0805000905C48016800
:1041A000C90513D40168834641F480710160FFF7AB
:1041B000DDFC824606E000BFFFF7D8FCA0EB0A005A
:1041C00064284ED8DBF80000C005F5D5E06801286A
:1041D0000AD008B1052813D0286A20F0010028620F
:1041E000286A20F0040002E0286A40F001002862FA
:1041F000E06841F2883B98B1FFF7B8FC82460BE0DB
:10420000286A40F004002862EEE700BFFFF7AEFC2A
:10421000A0EB0A0159455AD8286A8007F6D50CE068
:10422000FFF7A4FC824605E0FFF7A0FCA0EB0A0123
:1042300059454CD8286A8007F6D41FB1E86920F0A8
:104240008050E861E06988B36968C1F3810102299F
:1042500044D00228C6F8608004D0FFF787FC0446EB
:1042600038E034E0FFF782FC074604E0FFF77EFC0D
:10427000C01B02282BD828688001F7D4206AB0F52B
:10428000803F05D16868A16820F400300843686069
:10429000D4E908010843696821F47411084368608F
:1042A000C6F86090FFF762FC044606E025E000BF18
:1042B000FFF75CFC001B022809D828688001F7D5AD
:1042C0001BE000BFFFF752FC001B022802D90320AD
:1042D000BDE8F88F28688001F4D40EE00128F7D0FB
:1042E0006868226A00F48031914204D1616A00F466
:1042F0007010884201D00120EAE70020E8E70000C2
:10430000001002400000424280044242240000208B
:104310000070004070B515460E46040007D0A06935
:10432000B0F5807F03D094F8410010B107E0012080
:1043300070BD002084F84000204600F01DF804F114
:1043400008012068FEF736F83146A2682068FEF7BB
:1043500065F8D4E901022946236BFEF70DF8A16840
:10436000206850F8212042F0010240F8212001206D
:1043700084F84100002070BDFFF770BA10B5401EF0
:10438000B0F1807F01D3012010BD4FF0E0246061C7
:104390000F21601705F0F8F80020A06107202061C8
:1043A000002010BD7047704770B590F83C20012A7E
:1043B0002CD0012480F83C40022280F83D20036884
:1043C0005A689D6822F070060A6832435A60104BA2
:1043D00002689A420ED00F4B9A420BD0B2F1804F36
:1043E00008D00D4B9A4205D00C4B9A4202D00C4B90
:1043F0009A4204D1496825F080031943916080F8FE
:104400003D40002180F83C10084670BD022070BD80
:10441000002C01400034014000040040000800402E
:10442000000C004010B5040003D094F83D0010B11A
:1044300007E0012010BD002084F83C00204600F079
:104440001FF8022084F83D00211D206804F028F8A0
:10445000012084F8460084F83E0084F83F0084F888
:10446000400084F8410084F8420084F8430084F856
:10447000440084F8450084F83D00002010BD000091
:1044800008B5174A01681748914207D1C16941F040
:104490000201C161C06900F002001EE0124A9142AF
:1044A00011D1C16941F01001C161C069002200F061
:1044B0001000009011463620FFF7BCFBBDE8084015
:1044C0003620FFF7A9BB094A914207D1C16941F0E3
:1044D0002001C161C06900F02000009008BD00000B
:1044E0000004004000100240001000400014004092
:1044F00090F83D10012901D001207047022180F879
:104500003D1000680E4988420ED00E4988420BD0FB
:10451000B0F1804F08D00C49884205D00B49884241
:1045200002D00B49884204D1816801F007010629B5
:1045300003D0016841F001010160002070470000D4
:10454000002C0140003401400004004000080040FD
:10455000000C004090F83D10012901D00120704767
:10456000022180F83D100168CA6842F00102CA6069
:1045700000680E4988420ED00D4988420BD0B0F138
:10458000804F08D00B49884205D00B49884202D0A1
:104590000A49884204D1816801F00701062903D045
:1045A000016841F00101016000207047002C0140CA
:1045B000003401400004004000080040000C0040AE
:1045C00001680A6A41F211131A4207D10A6A9B1064
:1045D0001A4203D10A6822F001020A60012180F820
:1045E0003D100020704770B5044690F83C0000254F
:1045F000012817D0012684F83C60022084F83D0091
:104600002068826822F0770222F47F428260086884
:10461000502838D00DDC20284FD005DC90B310286E
:1046200011D14AE0022070BD302846D040280AD17E
:104630003BE060282FD070280DD0B0F5805F03D00C
:10464000B0F5005F12D0012584F83D60002084F8A9
:104650003C00284670BDCB68D1E90121206803F0F9
:1046600065FF2068816841F0770109E0CB68D1E9F6
:104670000121206803F05AFF2068816841F48041DD
:104680008160E1E719E0CA684968206803F060FFCB
:104690005021206806E0CA684968206803F069FF75
:1046A0006021206803F04CFFCEE7CA6849682068A3
:1046B00003F04EFF40212068F4E7226801461046CF
:1046C000F0E7704770B50446006801694FF00005D7
:1046D000C943890715D4C168C943890711D4E91EA4
:1046E000016101202077206880698007204602D080
:1046F000FFF7E7FF04E000F098F8204600F096F896
:10470000257720680169C943490717D4C168C9439F
:10471000490713D46FF0040101610220207720685B
:10472000806910F4407F204602D0FFF7CAFF04E002
:1047300000F07BF8204600F079F8257720680169C1
:10474000C943090716D4C168C943090712D46FF0D9
:1047500008010161042020772068C0698007204695
:1047600002D0FFF7AEFF04E000F05FF8204600F053
:104770005DF8257720680169C943C90617D4C16867
:10478000C943C90613D46FF01001016108202077D6
:104790002068C06910F4407F204602D0FFF791FFE7
:1047A00004E000F042F8204600F040F82577206849
:1047B0000169C943C90708D1C168C943C90704D100
:1047C000891E0161204600F033F820680169C94361
:1047D000090609D4C168C943090605D46FF08001F0
:1047E00001612046FFF7DEFD20680169C9434906E3
:1047F00009D4C168C943490605D46FF0400101617D
:10480000204600F02DF820680169C94389060BD4C1
:10481000C168C943890607D46FF0200101612046B1
:10482000BDE87040FFF7BFBD70BD70477047000026
:10483000094988420ED109488188491C89B2818082
:10484000B1F57A7F06D100218180C188491CC180E1
:10485000FDF782BA70470000D81100200C0000203C
:104860007047704710B504460068406994F84110DD
:10487000C0F3C010212911D180B12068143050E854
:10488000001F21F0800140E80012002AF5D1A06B42
:1048900008B1FEF78EFD204604F0C2FC2068406996
:1048A00094F84210C0F38010222911D180B1206801
:1048B000143050E8001F21F0400140E80012002AA7
:1048C000F5D1E06B08B1FEF774FD204604F081FCE1
:1048D000002010BD70470000F8B501680446086864
:1048E000CA684B6910F00F0F4FF0000559D003F064
:1048F000010602F49077374365D0C10705D0D10592
:1049000003D5616C41F001016164410705D5D90708
:1049100003D0616C41F002016164810705D5D907BC
:1049200003D0616C41F004016164010707D502F016
:104930002001314303D0616C41F008016164616C76
:1049400000293AD0800604D5900602D5204604F00E
:1049500075FC20684069616CC0F38010090700D4C1
:1049600060B3204604F035FC20684069400621D53C
:104970002068143050E8001F21F0400140E8001288
:10498000002AF5D1E06BA8B16D494163E06BFEF7F9
:1049900033FD002811D0E06B416B01B0BDE8F04061
:1049A000084783060FD593060DD52046BDE8F8408D
:1049B00004F044BC2046FFF78DFFF8BD2046FFF70A
:1049C00089FF6564F8BD266B2023012E7CD1C606C5
:1049D0007AD5D60678D508684868009048694FF0BF
:1049E0000206400640D5E16B086840680004000CF0
:1049F000E8D0A28D8242E5D9E085886920282DD0B3
:104A000020680C3050E8001F21F4807140E800124B
:104A1000002AF5D12068143050E8001F21F0010170
:104A200040E80012002AF5D12068143050E8001F39
:104A300021F0400140E80012002AF5D184F842300C
:104A4000256320680C3050E8001F21F0100140E879
:104A50000012002AF5D1E06BFEF7ABFC6663A08D77
:104A6000E18D401A81B22AE0A08DE18D401A81B219
:104A7000E08D0028A6D00029A4D022680C3252E88C
:104A8000000F20F4907042E80007002FF5D1206855
:104A9000143050E8002F22F0010240E80027002FD8
:104AA000F5D184F84230256320680C3050E8002F9F
:104AB00022F0100240E80023002BF5D16663204667
:104AC000FFF7CFFEF8BDFFE705062BD5150629D564
:104AD00094F841002128F5D1A068B0F5805F01D19C
:104AE0002069B0B1206A411C2162216800784860C9
:104AF000E08C401E0004000CE084E3D12068C16813
:104B000021F08001C1602068C16841F04001C160AE
:104B1000D8E7206A0088C0F308004860206A801C3B
:104B20002062E5E74006CDD55006CBD5CA682046C1
:104B300022F04002CA6084F8413000F0EAF8C1E790
:104B4000D590000870B5040004D094F84100002509
:104B500010B106E0012070BD84F84050204600F0FE
:104B600023F8242084F841002068C16821F4005112
:104B7000C160204604F0C4FB2068016921F4904123
:104B800001612068416921F02A0141612068C16802
:104B900041F40051C1606564202084F8410084F82C
:104BA00042006563002070BD70B586B000250646E2
:104BB00000950195029503950068224988423FD1EE
:104BC0002149886940F480408861886900F4804008
:104BD0000490886940F00400886188691B4C00F0EB
:104BE00004000490481500900220019003200390D7
:104BF00069462046FEF7B8FE2015CDE90005694656
:104C000020460295FEF7B0FE124C1148C4E900059B
:104C10008020C4E9025020202561C4E905502046C7
:104C2000E561FEF7A5FD08B1FDF7A4FBF4630022E2
:104C3000114625206662FEF7FDFF2520FEF7ECFFFA
:104C400006B070BD0038014000100240000801406D
:104C5000580002401413002090F84230202B01D05D
:104C60000220704721B11AB10023036304F0A4BBF2
:104C700001207047704770472DE9F843044690F8CB
:104C800041001F4616460D46202802D00220BDE8EE
:104C9000F8837DB176B100206064212084F8410062
:104CA000FEF764FFA6848046E684A068B0F5805FC6
:104CB00002D003E00120EAE7206910B12E4600256A
:104CC0000EE000260CE08021204604F0BDFBA0B9D8
:104CD000AEB116F8010B21684860E08C401EE084FC
:104CE000E08C43464FF0000200970028EBD14FF0D4
:104CF0004001204604F0A8FB30B10320C7E735F897
:104D0000020BC0F30800E6E7202084F841000020F1
:104D1000BDE77047FEE7000070B50D4C0025C4F8F4
:104D200098510C48016821F070410160016841F020
:104D300040510160C4F89C51022004F5CC7405F088
:104D4000B1F801202060022005F0ACF8256070BDAC
:104D500000802142000C01400E4810B5816986B0E8
:104D600041F0080181618069012400F0080004908D
:104D7000C020CDE900040320CDE902406946064881
:104D8000FEF7F2FD0548C0F89C41C0F8984106B016
:104D900010BD000000100240000C014000802142C4
:104DA00070B50D4C0025C4F898510C48016821F0ED
:104DB00070410160016841F0405101600126C4F872
:104DC0009C61022004F5CC7405F06CF8266002208A
:104DD00005F068F8256070BD00802142000C01409C
:104DE0002DE9F047814617480024016821F0704101
:104DF0000160016841F000410160134E25462746DD
:104E00004FF00108C6F89871022005F04BF8C6F87B
:104E100098816006040ED6F81C0108B1641CE4B247
:104E2000012005F03FF86D1CEDB2082DEAD3B9F171
:104E3000000F04D0FFF770FF2046BDE8F087FFF7B2
:104E4000AFFFF9E7000C0140008021422DE9F0415D
:104E500006461448016821F070410160016841F084
:104E600040510160104C0027C4F898713D464FF046
:104E70000108F009C4F89C017006060E022005F036
:104E800011F8C4F89881022005F00CF8C4F8987164
:104E9000022005F007F86D1CEDB2082DE9D3BDE83E
:104EA000F0810000000C01400080214270B50D48E7
:104EB000016821F070410160016841F040510160DA
:104EC000094C0120C4F89C01C4F89801042004F5A1
:104ED000CC7404F0E7FF00256560042004F0E2FFD5
:104EE000256070BD000C0140008021420E4810B5C5
:104EF000016821F070410160016841F0405101609A
:104F00000A4C0020C4F89801C4F89C01042004F560
:104F1000CC7404F0C7FF012020606060BDE8104041
:104F2000042004F0BFBF0000000C014000802142BB
:104F300070B513480024016821F0704101600168D8
:104F400041F0004101600F4D0126C5F89C613046DB
:104F500004F0A8FFC5F89861012004F0A3FF07E062
:104F6000641CE4B2FA2C03D9FFF7C0FF012070BD26
:104F7000D5F81C010028F3D1C5F8980170BD0000D8
:104F8000000C01400080214270B50949064600240A
:104F900008884D8821464543204602F009FD02F06D
:104FA000ABFE044801E00680641CAC42FBD370BD3C
:104FB000A04300200008006C2DE9F04F2B492C265F
:104FC0000A46887192884FF4305A4FF4285B4FF4A8
:104FD000487541F6631E2B274FF02A0C4FF0F0085E
:104FE00045F210594FF4A0744FF4F073B8B10C802F
:104FF000A1F802804A4532D1A1F808A0A1F80AB070
:10500000380288810D804B80A2F5A640103801D16E
:105010000B804C80BDE8F04F002002F009BCA1F8E5
:1050200000804C804A4507D1A1F808A0A1F80AB039
:105030004FF42C50888105E072450E8105D14F81D7
:10504000A1F80CC00B804D8002E0A1F80AC08F814E
:10505000A2F5A6401038DDD10C804B80DAE70E8136
:10506000A1F80AC072458F81CCD0CDE7A0430020C3
:105070002DE9FE4F161ACDE900104FF000085D1A19
:1050800047464FF0FF30002E02DD4FF0010102E0F5
:1050900003D14FF000018B4602E08346C6F10006C3
:1050A000002D02DD4FF0010002E003D14FF00000BF
:1050B000824602E08246C5F10005AE4201DD34467B
:1050C00000E02C46601C4FF00009029018E00098A8
:1050D00081B2019880B200F019F8B0442F44A04585
:1050E00004DD0198A8EB040858440190A74203DDB1
:1050F00000983F1B5044009009F101001FFA80F90D
:1051000002998945E3DDBDE8FE8F000000B502F09D
:105110004FFC02F0F1FD024802490088088000BD02
:10512000280000200008006C2DE9FC4F8046002577
:10513000144603200F46A0EB440649E0381B81B219
:1051400008EB050A01901FFA8AF0FFF7DFFF781BD2
:1051500081B208EB040900901FFA89F0FFF7D6FF2F
:1051600007EB050B1FFA8BF11FFA89F0FFF7CEFF53
:1051700007EB04091FFA89F11FFA8AF0FFF7C6FF4F
:10518000A8EB050A1FFA89F11FFA8AF0FFF7BEFFA4
:10519000A8EB04091FFA8BF11FFA89F0FFF7B6FF9D
:1051A000019881B21FFA8AF0FFF7B0FF009881B230
:1051B0001FFA89F0FFF7AAFF6D1C002E03DA06EB39
:1051C0008506B61D04E0281B06EB8006641E0A3621
:1051D000A542B3DDBDE8FC8F2DE9F0419046304A91
:1051E0000D460446060A918810462F0A4089A1F50B
:1051F000AA43103B0FD0A1F5C853633B24D002F063
:105200006FFD304602F060FDE0B202F05DFD908976
:1052100002F066FD36E002F063FD304602F054FD18
:105220005089401C80B202F05BFDE0B202F04CFD00
:10523000908902F055FD384602F046FD9089401CE9
:1052400080B202F04DFD20E0917919B91188091B57
:10525000491E8CB202F044FD260A304602F034FDAD
:10526000E0B202F031FD304602F02EFDE0B202F075
:105270002BFD908902F034FD384602F025FDE8B29E
:1052800002F022FD384602F01FFDE8B202F01CFDDC
:10529000044910890880891CA1F80080BDE8F081CC
:1052A000A0430020FE07006C2DE9F04FFF488FB0AF
:1052B0004FF020410160FE490622C0E901120021A1
:1052C0001023C160C0E9041381611B02C161C0E900
:1052D00009139B00C0E90B13416381631A20CDE9D8
:1052E00008100D910792032003918DE807000691A5
:1052F0006A4607A9ED48FFF70DF8322004F0C3FD18
:10530000D32002F0EDFC02F063FAE84C4834A080B0
:1053100002F05EFAA08002F05BFA4FF6FF7505EA34
:105320000020A08002F054FAA18849F241370843D6
:10533000A08047F2897645F2103845F2105941F6BF
:10534000631A4FF4704BB84276D0042002F0C8FCC8
:1053500002F03EFAA08002F03BFAA08002F038FA98
:1053600005EA0020A08002F033FAA1880843A0F5E6
:105370000541A08052395BD0B0425DD0D42002F00C
:10538000AFFC02F025FAA08002F022FAA08002F021
:105390001FFA05EA0020A08002F01AFAA18808434B
:1053A000A080404548D05521584602F0AFFCAA21C4
:1053B0004FF2010002F0AAFC52214FF2020002F06B
:1053C000A5FC08214FF2030002F0A0FC01214FF2DE
:1053D000040002F09BFC4FF4454002F081FC02F017
:1053E000F7F905EA0020A0804CF2015002F078FCA9
:1053F00002F0EEF9A1880843A080322004F043FDBA
:10540000A188494518D0A12002F06AFC02F0E0F919
:10541000A08002F0DDF905EA0020A08002F0D8F9B2
:10542000A1880843A0F5AE41A080613902D003E015
:10543000A68001E0A4F804A0A1889EA004F094F83E
:10544000A088B8427ED1CF2002F04AFC002002F0B2
:105450003BFCC12002F038FC302002F035FCED208E
:1054600002F03EFC642002F02FFC032002F02CFC32
:10547000122002F029FC812002F026FCE82002F034
:105480002FFC852002F020FC102002F01DFC7A2069
:1054900002F01AFCCB2002F023FC392002F014FCAD
:1054A0002C2002F011FC002002F00EFC342002F04F
:1054B0000BFC022002F008FCF72002F011FC202077
:1054C00002F002FCEA2002F00BFC002002F0FCFBE0
:1054D000002002F0F9FBC02002F002FC1B2002F0C9
:1054E000F3FBC12002F0FCFB012002F0EDFBC52024
:1054F00002F0F6FB302002F0E7FB302002F0E4FB84
:10550000C72002F0EDFBB72002F0DEFB362002F0F0
:10551000E7FB482002F0D8FB3A2002F0E1FB5520DF
:1055200002F0D2FBB12002F0DBFB002002F0CCFB4A
:105530001A2002F0C9FBB62002F0D2FB0A2002F0CA
:10554000C3FB00E093E0A22002F0BEFBF22002F0D9
:10555000C7FB002002F0B8FB262002F0C1FB0120AF
:1055600002F0B2FBE02002F0BBFB0F2002F0ACFB2C
:105570002A2002F0A9FB282002F0A6FB082002F056
:10558000A3FB0E2002F0A0FB082002F09DFB54209C
:1055900002F09AFBA92002F097FB432002F094FB53
:1055A0000A2002F091FB0F2002F08EFB002002F097
:1055B0008BFB002002F088FB002002F085FB00201E
:1055C00002F082FBE12002F08BFB002002F07CFB6A
:1055D000152002F079FB172002F076FB072002F07D
:1055E00073FB112002F070FB062002F06DFB2B20F4
:1055F00002F06AFB562002F067FB3C2002F064FBDD
:10560000052002F061FB102002F05EFB0F2002F08B
:105610005BFB3F2002F058FB3F2002F055FB0F20C0
:1056200002F052FB2B2002F05BFB002002F04CFB4F
:10563000002002F049FB012002F046FB3F2002F06F
:1056400043FB2A2002F04CFB002002F03DFB00202F
:1056500002F03AFB002002F037FBEF2002F034FBAF
:10566000112002F03DFB782004F00DFCDFE0B04299
:105670007DD1112002F034FB782004F004FC3620A8
:1056800002F02EFB002002F01FFB3A2002F028FB64
:10569000052002F019FBB22002F022FB0C2002F0E0
:1056A00013FB0C2002F010FB00200BE058430020FD
:1056B000040100A0204C43442049443A25780D0AB7
:1056C0000000000002F000FB332002F0FDFA33205E
:1056D00002F0FAFAB72002F003FB352002F0F4FAE8
:1056E000BB2002F0FDFA322002F0EEFAC02002F0F8
:1056F000F7FA0C2002F0E8FAC22002F0F1FA0120D9
:1057000002F0E2FAC32002F0EBFA102002F0DCFA19
:10571000C42002F0E5FA202002F0D6FAC62002F0FA
:10572000DFFA0F2002F0D0FAD02002F0D9FAA4203C
:1057300002F0CAFAA12002F0C7FAE02002F0D0FA83
:10574000D02002F0C1FA002002F0BEFA022002F0DE
:10575000BBFA072002F0B8FA0A2002F0B5FA2820B6
:1057600002F0B2FA322002F0AFFA442000E061E029
:1057700002F0AAFA422002F0A7FA062002F0A4FAE8
:105780000E2002F0A1FA122002F09EFA142002F07C
:105790009BFA172002F098FAE12002F0A1FAD0203B
:1057A00002F092FA002002F08FFA022002F08CFA46
:1057B000072002F089FA0A2002F086FA282002F077
:1057C00083FA312002F080FA542002F07DFA47205B
:1057D00002F07AFA0E2002F077FA1C2002F074FA36
:1057E000172002F071FA1B2002F06EFA1E2002F060
:1057F0006BFA2A2002F074FA002002F065FA002009
:1058000002F062FA002002F05FFAEF2002F05CFA88
:105810002B2002F065FA002002F056FA002002F078
:1058200053FA012002F050FA3F2002F04DFA2920ED
:1058300001F0FABE40457CD1ED2002F051FA012082
:1058400002F042FAFE2002F03FFAEE2002F048FA9F
:10585000DE2002F039FA212002F036FAF12002F0BF
:105860003FFA012002F030FADF2002F039FA10206E
:1058700002F02AFAC42002F033FA8F2002F024FA50
:10588000C62002F02DFA002002F01EFAE22002F0FB
:105890001BFAE22002F018FAE22002F015FABF200B
:1058A00002F01EFAAA2002F00FFAB02002F018FA55
:1058B0000D2002F009FA002002F006FA0D2002F095
:1058C00003FA002002F000FA112002F0FDF9002096
:1058D00002F0FAF9192002F0F7F9002002F0F4F9C9
:1058E000212002F0F1F9002002F0EEF92D2002F063
:1058F000EBF9002002F0E8F93D2002F0E5F9002084
:1059000002F0E2F95D2002F0DFF9002002F0DCF99C
:105910005D2002F0D9F9002002F0D6F9B12002F0A2
:10592000DFF9802002F0D0F9002002F0CDF98B20C1
:1059300000E0FCE302F0C8F9002002F0C5F996206F
:1059400002F0C2F9002002F0BFF9B22002F0C8F95B
:10595000002002F0B9F9002002F0B6F9022002F0AE
:10596000B3F9002002F0B0F9032002F0ADF90020F5
:1059700002F0AAF9B32002F0B3F9002002F0A4F972
:10598000002002F0A1F9002002F09EF9002002F0B0
:105990009BF9002002F098F9002002F095F9002010
:1059A00002F092F9002002F08FF9002002F08CF949
:1059B000002002F089F9002002F086F9002002F0B0
:1059C00083F9002002F080F9002002F07DF9002028
:1059D00002F07AF9002002F077F9002002F074F961
:1059E000002002F071F9002002F06EF9002002F0B0
:1059F0006BF9002002F068F9002002F065F9002040
:105A000002F062F9002002F05FF9B42002F068F9B8
:105A10008B2002F059F9002002F056F9962002F08E
:105A200053F9002002F050F9A12002F04DF90020B6
:105A300002F04AF9B52002F053F9022002F044F9CD
:105A4000002002F041F9032002F03EF9002002F0AC
:105A50003BF9042002F038F9002002F035F9B620B5
:105A600002F03EF9002002F02FF9002002F02CF99C
:105A7000B72002F035F9002002F026F9002002F0EC
:105A800023F93F2002F020F9002002F01DF95E20EA
:105A900002F01AF9002002F017F9642002F014F95C
:105AA000002002F011F98C2002F00EF9002002F023
:105AB0000BF9AC2002F008F9002002F005F9DC2017
:105AC00002F002F9002002F0FFF8702002F0FCF86A
:105AD000002002F0F9F8902002F0F6F8002002F021
