:020000040800F2
:10000000F053002045010008E7750008B9450008D5
:10001000E5750008152000081D7C000800000000A0
:10002000000000000000000000000000EB75000868
:10003000A920000800000000E97500080D760008FE
:100040005F0100085F0100085F0100085F01000810
:100050005F0100085F0100085F0100085F01000800
:100060005F0100085F0100085F0100081920000817
:100070005F0100085F0100085F01000825200008FB
:100080005F0100085F0100085F0100085F010008D0
:100090005F0100085F0100085F0100085F010008C0
:1000A0005F0100085F0100085F0100085F010008B0
:1000B0005F0100085F0100085F0100085F010008A0
:1000C0005F0100085F0100085F0100085F01000890
:1000D0005F010008797B00085F0100085F010008EC
:1000E0005F0100085F0100085F0100085F01000870
:1000F0005F0100085F0100085F0100085F01000860
:100100005F0100085F0100085F0100085F0100084F
:100110005F0100085F0100088D7600085F0100089C
:100120005F0100085F010008312000085F0100083E
:10013000DFF80CD001F07EFD004800471D88000864
:10014000F05300200648804706480047FEE7FEE7D8
:10015000FEE7FEE7FEE7FEE7FEE7FEE7FEE7FEE777
:100160008B760008310100082DE9F04F4FF0000CAC
:100170004FF0000301EB9C5EBEF90250BEF9004057
:100180000EF5806EBEF90290BEF900800EF5806E0D
:10019000BEF90270BEF900600EF5806EBEF902B0C5
:1001A000BEF900A00EF5806ED044D944A8EB4A0AEF
:1001B000A9EB4B0B4FEAA4044FEAA50504EBA604F8
:1001C00005EBA705A4EB6606A5EB670704EBA804FF
:1001D00005EBA905A4EB6808A5EB690906EBAB06DE
:1001E000A7EBAA07A6EB6B0B07EB6A0A458020F882
:1001F000044B478020F8046BA0F8029020F8048B91
:10020000A0F802A020F804BB03F1010393FAA3FCB9
:10021000B3F5807FAED1A0EB82014FF0100312093D
:100220000FF2341000F1000006B403EB430C6144FC
:10023000A2F5803202EB8332B1F90250B1F90040ED
:10024000A1EB0301B0F902B0B0F900A000F1040085
:10025000A5EB040E0EFB0BFC0AEB4B0E05FB0ACBC9
:1002600004FB0ECAB1F90250B1F90040A1EB030141
:10027000B0F90290B0F9008000F10400A5EB040E83
:100280000EFB09FC08EB490E05FB08C904FB0EC870
:10029000B1F90250B1F90040A1EB0301B0F90270CD
:1002A000B0F9006000F10400A5EB040E0EFB07FCA2
:1002B00006EB470E05FB06C704FB0EC6B1F902505C
:1002C000B1F9004001F10001D044D944A8EB4A0A39
:1002D000A9EB4B0B4FEAA4044FEAA50504EB264417
:1002E00005EB2745A4EBE636A5EBE73704EB2844FE
:1002F00005EB2945A4EBE838A5EBE93906EB2B46DD
:10030000A7EB2A47A6EBEB3B07EBEA3A4D800C80C4
:1003100019444F800E801944A1F80290A1F8008082
:100320001944A1F802A021F804BBB2F5803283DAA7
:1003300003EB430C6144A2F101025FEA024E18BFD5
:10034000A0EB0C007FF476AF06BC4FEA8303920863
:100350007FF46AAFBDE8F08F00400000004000006D
:10036000004000005DDD213BA3227E180000412DEE
:100370007EA5412D0000412D00C000405DDD82E7DB
:100380005DDD213B7EA5412D0040000000400000C6
:1003900000400000AA2A94126B39460649327C0CB0
:1003A000A8118E2349327C0CA3227E1821F77931C3
:1003B000AA2A9412A8118E235DDD213BA3227E1868
:1003C0000000412D95C6B13F461A2B1E58EE373519
:1003D000BEB4C53EA8118E235DDD213B63A97138F3
:1003E000DF089A28B7CDC53E7EA5412D0000412DDE
:1003F00000C0004063A92B1E21F77931BEB4C53E71
:10040000BEB47C0C58EE373561AC213B95C6BAF9C9
:10041000BAE571383BA737355DDD82E75DDD213B0D
:100420007EA5412D21F766D756D53F3D3BA78E23AC
:10043000A811C9CAB7CDC53E61AC7E18AA2AC1C2EF
:1004400095C6B13FBEB47C0C0040000000400000E7
:10045000004000001E3BB504693E9201C83C2403E5
:10046000EB356409C83C24036B3946066C30060E34
:100470001E3BB504EB356409AA2A94126B39460673
:1004800049327C0CAE240917AF37D607882E8D0F62
:100490007E1E5D1BEB356409AA2A941224188C1F5A
:1004A0001E34F10AB3269015A8118E2349327C0C14
:1004B000A3227E18140B60276C30060E7E1E5D1B77
:1004C0007104FB2A882E8D0F461A2B1EC7FD5A2E4B
:1004D0009D2C1211FE15E72021F77931AA2A9412DA
:1004E000A8118E2387F05334B2281314480D202608
:1004F00002EAE536B3269015DF089A289CE32B39EB
:10050000AE2409177104FB2A5DDD213BA3227E186E
:100510000000412D4ED7C53C9320EF198FFB6C2F67
:1005200078D1153E7E1E5D1B21F77931E2CB0F3F5E
:10053000641CC61CB8F2683395C6B13F461A2B1E20
:1005400058EE373597C1FB3F24188C1F02EAE53679
:10055000F0BCEC3FFE15E720BAE57138A6B8853F40
:10056000D5133D2282E1DB39BEB4C53EA8118E23EE
:100570005DDD213B40B1AF3D790FDA244DD9423CDE
:100580002EAE423C480D202656D53F3D8EAB823ADA
:10059000140B602778D1153E63A97138DF089A28BB
:1005A000B7CDC53EB1A71236A906CE2915CA4F3F11
:1005B00078A668337104FB2A95C6B13FBCA5763096
:1005C0003902212C38C3EC3F7EA5412D0000412D7E
:1005D00000C00040BCA5CE29C7FD5A2EF0BCEC3FA0
:1005E00078A620268FFB6C2F09BAB13FB1A73D2218
:1005F00057F976304DB74F3F63A92B1E21F779315C
:10060000BEB4C53E8EABEF19ECF474325EB2153E4B
:100610002EAE9015B8F268332DB03F3D40B11211A7
:1006200087F053342EAE423CBEB47C0C58EE3735C6
:1006300061AC213BA6B8D6072BEC1236C8AADB3931
:10064000F0BC240302EAE53663A9713897C16EFE57
:10065000DCE7B03734A8E53695C6BAF9BAE57138A3
:100660003BA73735E2CB0FF59CE32B3978A66833EF
:1006700078D173F082E1DB39EDA579314ED7EDEB1E
:100680006DDF823A99A56C2F5DDD82E75DDD213B50
:100690007EA5412D9CE33AE352DBB63B99A5FB2AAC
:1006A00002EA19DF4DD9423CEDA59A2887F026DBF6
:1006B0004ED7C53C78A6202621F766D756D53F3DB4
:1006C0003BA78E23C7FDDFD363D3AF3D34A8E7201C
:1006D000710494D078D1153E63A92B1E140B8CCDD8
:1006E00094CF723EC8AA5D1BA811C9CAB7CDC53E3A
:1006F00061AC7E18241850C8E2CB0F3F2EAE901587
:100700007E1E25C615CA4F3F2DB09412AE244AC492
:1007100051C8853F5EB28D0FAA2AC1C295C6B13FAE
:10072000BEB47C0C6C308EC1E2C4D43F4DB76409BA
:10073000EB35B1C038C3EC3F09BA46061E3B2CC0AE
:1007400097C1FB3FF0BC24030040000000400000C4
:1007500000400000D03E2E019B3F6500363FC9009F
:100760009A3D5B02363FC900693E92015F3C8803B7
:10077000D03E2E019A3D5B021E3BB504693E9201BC
:10078000C83C2403D939E205023EF701F43BED03EE
:100790008E380E079A3D5B021E3BB5043F37390881
:1007A000313DC002463A7E05EB356409C83C24035E
:1007B0006B39460692348E0A5F3C88038E380E07EA
:1007C0003433B70BF43BED03AF37D607D231DF0C30
:1007D0008A3B5104CE369D086C30060E1E3BB50494
:1007E000EB356409022F2B0FB23A1A0505352B0A97
:1007F000932D5010463A7E051E34F10A212C7311B8
:10080000D939E2053433B70BAA2A94126B3946065C
:1008100049327C0C3129B413FD38AA065B31410DF5
:10082000B327D2148E380E076C30060E3226EE1522
:100830001F3872077B2FCA0EAE240917AF37D607B1
:10084000882E8D0F262321183F373908932D5010FD
:100850009C213719CE369D089D2C12110E204B1A63
:100860005D360109A42BD3117E1E5D1BEB35640997
:10087000AA2A9412EB1C6C1C7835C709AF295413B3
:10088000561B791D05352B0AB2281314BE19841E78
:1008900092348E0AB327D21424188C1F1E34F10A06
:1008A000B326901588169120A933540BB1254C1608
:1008B000EA1493213433B70BAE2409174A1392225A
:1008C000BF321A0CA923C417A8118E2349327C0CFD
:1008D000A3227E1805108824D231DF0C9C21371901
:1008E000610E7E255B31410D9320EF19BB0C712603
:1008F000E430A40D891FA71A140B60276C30060E74
:100900007E1E5D1B6D094C28F42F680E721D121C93
:10091000C40735297B2FCA0E641CC61C1B061A2A65
:10092000022F2B0F561B791D7104FB2A882E8D0F69
:10093000461A2B1EC702D82B0E2EEE0F3519DC1EC1
:100940001C01B22C932D501024188C1F72FF882D7F
:10095000182DB11011173A20C7FD5A2E9D2C1211D7
:10096000FE15E7201DFC282F212C7311EA1493217A
:1009700073FAF22FA42BD311D5133D22CAF8B83045
:10098000282B3412BF12E72221F77931AA2A9412B8
:10099000A8118E2379F536322D2AF41291103524C0
:1009A000D2F3EF32AF295413790FDA242CF2A333A8
:1009B0003129B413610E7E2587F05334B228131405
:1009C000480D2026E3EEFF34332873142E0CC12685
:1009D00041EDA535B327D214140B6027A1EB48369F
:1009E00033273115FA09FE2702EAE536B3269015BA
:1009F000DF089A2865E87E373226EE15C4073529C8
:100A0000CBE61238B1254C16A906CE2932E5A1381D
:100A10002F25AB168D05652A9CE32B39AE240917CB
:100A20007104FB2A08E2B0392B24661755038F2B7B
:100A300077E0303AA923C4173902212CE9DEAB3A1A
:100A4000262321181C01B22C5DDD213BA3227E1838
:100A50000000412DD5DB923B1F22DB18E4FECF2D99
:100A60004FDAFD3B9C213719C7FD5A2ECDD8643C87
:100A700017219319ABFCE42E4ED7C53C9320EF19F8
:100A80008FFB6C2FD3D5213D0E204B1A73FAF22F1A
:100A90005CD4783D891FA71A57F97630E8D2C93D52
:100AA000041F021B3CF8F93078D1153E7E1E5D1BF9
:100AB00021F779310CD05C3EF81DB81B06F6F831F1
:100AC000A5CE9D3E721D121CECF4743241CDD83E71
:100AD000EB1C6C1CD2F3EF32E2CB0F3F641CC61C44
:100AE000B8F2683388CA403FDD1B201D9FF1DF3319
:100AF00032C96B3F561B791D87F05334E1C7913FD4
:100B0000CE1AD31D6FEFC63495C6B13F461A2B1EC1
:100B100058EE37354EC5CC3FBE19841E41EDA53584
:100B20000CC4E13F3519DC1E2BEC1236CFC2F13F6D
:100B3000AD18341F16EB7D3697C1FB3F24188C1F70
:100B400002EAE53665C000409B17E31FEFE84B372C
:100B500038BFFF3F11173A20DCE7B03711BEF83F2E
:100B600088169120CBE61238F0BCEC3FFE15E7204A
:100B7000BAE57138D4BBDB3F74153D21AAE4CF3808
:100B8000BFBAC43FEA1493219CE32B39AFB9A73F06
:100B90005F14E8218EE28439A6B8853FD5133D2243
:100BA00082E1DB39A2B75D3F4A13922277E0303A07
:100BB000A5B6303FBF12E7226DDF823AAFB5FD3EEA
:100BC00034123B2364DED33ABEB4C53EA8118E2353
:100BD0005DDD213BD5B3883E1D11E22357DC6D3B23
:100BE000F2B2453E9110352452DBB63B15B2FC3DC6
:100BF000051088244FDAFD3B40B1AF3D790FDA2470
:100C00004DD9423C71B05B3DED0E2C254DD8853C55
:100C1000A9AF033D610E7E254ED7C53CE8AEA53C8D
:100C2000D40DCF2551D6033D2EAE423C480D202693
:100C300056D53F3D7BADDA3BBB0C71265CD4783D8D
:100C4000D0AC6D3B2E0CC12663D3AF3D2BACFA3A32
:100C5000A10B11276DD2E33D8EAB823A140B6027B6
:100C600078D1153EF8AA063A870AAF2785D0453EC7
:100C70006AAA8439FA09FE2794CF723EE3A9FD38A7
:100C80006D094C28A5CE9D3E63A97138DF089A28CE
:100C9000B7CDC53EEBA8E1375208E728CCCCEB3EF8
:100CA0007BA84B37C4073529E2CB0F3F12A8B136DA
:100CB00036078129FBCA303FB1A71236A906CE29D3
:100CC00015CA4F3F57A76E351B061A2A32C96B3F0C
:100CD00005A7C6348D05652A51C8853FBBA61934C2
:100CE000FF04B02A72C79C3F78A668337104FB2AC0
:100CF00095C6B13F3EA6B232E303452BBAC5C43F09
:100D00000BA6F83155038F2BE2C4D43FE0A539314F
:100D1000C702D82B0CC4E13FBCA576303902212C88
:100D200038C3EC3FA1A5AF2FAA016A2C66C2F53FDC
:100D30008DA5E42E1C01B22C97C1FB3F81A5152E79
:100D40008E00FA2CCAC0FF3F7EA5412D0000412D28
:100D500000C0004081A56A2C72FF882D38BFFF3F7C
:100D60008DA58F2BE4FECF2D73BEFB3FA1A5B02A2E
:100D700056FE152EB0BDF53FBCA5CE29C7FD5A2E97
:100D8000F0BCEC3FE0A5E72839FD9F2E32BCE13FE7
:100D90000BA6FE27ABFCE42E77BBD43F3EA6112763
:100DA0001DFC282FBFBAC43F78A620268FFB6C2FCE
:100DB00009BAB13FBBA62C2501FBAF2F56B99C3F0A
:100DC00005A7352473FAF22FA6B8853F57A73B2312
:100DD000E5F93430F8B76B3FB1A73D2257F97630CB
:100DE0004DB74F3F12A83D21CAF8B830A5B6303FE5
:100DF0007BA83A203CF8F93000B60F3FEBA8341F2F
:100E0000AEF739315EB5EB3E63A92B1E21F7793180
:100E1000BEB4C53EE3A9201D93F6B93122B49D3E70
:100E20006AAA121C06F6F83188B3723EF8AA021BB1
:100E300079F53632F2B2453E8EABEF19ECF47432EE
:100E40005EB2153E2BACDB185FF4B232CDB1E33DA0
:100E5000D0ACC417D2F3EF3240B1AF3D7BADAB168F
:100E600045F32C33B5B0783D2EAE9015B8F268330B
:100E70002DB03F3DE8AE73142CF2A333A9AF033D70
:100E8000A9AF54139FF1DF3328AFC53C71B03412C2
:100E900013F11934A9AE853C40B1121187F05334D7
:100EA0002EAE423C15B2EE0FFBEF8D34B6ADFD3BDE
:100EB000F2B2CA0E6FEFC63441ADB63BD5B3A40D46
:100EC000E3EEFF34D0AC6D3BBEB47C0C58EE37354E
:100ED00061AC213BAFB5540BCCED6E35F6ABD33ADC
:100EE000A5B62B0A41EDA5358EAB823AA2B7010912
:100EF000B6ECDC3529AB303AA6B8D6072BEC123667
:100F0000C8AADB39AFB9AA06A1EB48366AAA843968
:100F1000BFBA7E0516EB7D360FAA2B39D4BB510420
:100F20008CEAB136B7A9CF38F0BC240302EAE53623
:100F300063A9713811BEF70178E9183712A9123880
:100F400038BFC900EFE84B37C5A8B03765C09BFF75
:100F500065E87E377BA84B3797C16EFEDCE7B0377C
:100F600034A8E536CFC240FD53E7E137F1A77D361F
:100F70000CC413FCCBE61238B1A712364EC5E6FA04
:100F800042E6423874A7A53595C6BAF9BAE5713874
:100F90003BA73735E1C78EF832E5A13805A7C6343F
:100FA00032C963F7AAE4CF38D3A6533488CA39F6D6
:100FB00023E4FD38A4A6DF33E2CB0FF59CE32B3905
:100FC00078A6683341CDE6F315E3583950A6EF32E1
:100FD000A5CEBFF28EE284392CA674320CD098F1E3
:100FE00008E2B0390BA6F83178D173F082E1DB3931
:100FF000EDA57931E8D24FEFFCE0063AD3A5F93000
:101000005CD42DEE77E0303ABCA57630D3D50CED2C
:10101000F2DF593AA9A5F22F4ED7EDEB6DDF823AF8
:1010200099A56C2FCDD8CFEAE9DEAB3A8DA5E42E99
:101030004FDAB4E964DED33A85A55A2ED5DB9AE8B7
:10104000E1DDFA3A7FA5CF2D5DDD82E75DDD213B55
:101050007EA5412DE9DE6DE6DADC473B7FA5B22CAB
:1010600077E059E557DC6D3B85A5212C08E248E483
:10107000D5DB923B8DA58F2B9CE33AE352DBB63B4D
:1010800099A5FB2A32E52DE2D1DADA3BA9A5652A3A
:10109000CBE624E14FDAFD3BBCA5CE2965E81DE097
:1010A000CED9203CD3A5352902EA19DF4DD9423CDF
:1010B000EDA59A28A1EB18DECDD8643C0BA6FE273F
:1010C00041ED19DD4DD8853C2CA66027E3EE1EDCF2
:1010D000CDD7A53C50A6C12687F026DB4ED7C53C10
:1010E00078A620262CF231DACFD6E43CA4A67E25C1
:1010F000D2F33FD951D6033DD3A6DA2479F551D89E
:10110000D3D5213D05A7352421F766D756D53F3DD8
:101110003BA78E23CAF87FD6D8D45B3D74A7E722BD
:1011200073FA9BD55CD4783DB1A73D221DFCBBD49E
:10113000DFD3933DF1A79321C7FDDFD363D3AF3D49
:1011400034A8E72072FF06D3E8D2C93D7BA83A2035
:101150001C0131D26DD2E33DC5A88C1FC70261D1FD
:10116000F2D1FC3D12A9DC1E710494D078D1153E59
:1011700063A92B1E1B06CCCFFED02D3EB7A9791D2F
:10118000C40707CF85D0453E0FAAC61C6D0947CEC0
:101190000CD05C3E6AAA121C140B8CCD94CF723E0C
:1011A000C8AA5D1BBB0CD4CC1CCF883E29ABA71AA8
:1011B000610E21CCA5CE9D3E8EABEF19051073CBF1
:1011C0002ECEB13EF6AB3719A811C9CAB7CDC53E70
:1011D00061AC7E184A1324CA41CDD83ED0ACC417A6
:1011E000EA1483C9CCCCEB3E41AD09178816E8C898
:1011F00057CCFD3EB6AD4C16241850C8E2CB0F3F7D
:101200002EAE9015BE19BEC76ECB203FA9AED2142C
:10121000561B31C7FBCA303F28AF1314EB1CA8C6BE
:1012200088CA403FA9AF54137E1E25C615CA4F3F3A
:101230002DB094120E20A7C5A3C95D3FB5B0D31140
:101240009C212DC532C96B3F40B112112623B9C470
:10125000C1C8783FCDB15010AE244AC451C8853FB3
:101260005EB28D0F3226E0C3E1C7913FF2B2CA0EE3
:10127000B3277BC372C79C3F88B3060E31291CC3BA
:1012800003C7A73F22B4410DAA2AC1C295C6B13FE8
:10129000BEB47C0C212C6DC227C6BB3F5EB5B70B1C
:1012A000932D1DC2BAC5C43F00B6F10A022FD3C1A7
:1012B0004EC5CC3FA5B62B0A6C308EC1E2C4D43FDC
:1012C0004DB76409D2314FC176C4DB3FF8B79D08F2
:1012D000343315C10CC4E13FA6B8D6079234E0C040
:1012E000A1C3E73F56B90E07EB35B1C038C3EC3F99
:1012F00009BA46063F3788C0CFC2F13FBFBA7E0564
:101300008E3864C066C2F53F77BBB504D93945C095
:10131000FEC1F83F32BCED031E3B2CC097C1FB3F22
:10132000F0BC24035F3C19C030C1FD3FB0BD5B027F
:101330009A3D0BC0CAC0FF3F73BE9201D03E03C0AE
:1013400065C0004038BFC9002DE9F05F05460020A8
:1013500092469B4688460646814640241BE0284626
:1013600041464746224600F02FF853465A46C01AD7
:10137000914110D311461846224600F016F82D1A56
:1013800067EB01084F4622460120002100F00DF8CE
:1013900017EB00094E41201EA4F10104DFDC484692
:1013A00031462A464346BDE8F09F202A04DB203A16
:1013B00000FA02F1002070479140C2F1200320FAA8
:1013C00003F3194390407047202A04DB203A21FAA6
:1013D00002F00021704721FA02F3D040C2F120024E
:1013E0009140084319467047202A06DBCB17203A64
:1013F00041FA02F043EAE07306E041FA02F3D0401A
:10140000C2F120029140084319467047D2B201E070
:1014100000F8012B491EFBD270470022F6E710B5F9
:1014200013460A4604461946FFF7F0FF204610BD52
:10143000F0B480EA0102D40F4200B2EB410F02D2B5
:101440000246084611464A0042D0C30DDDB2C1F340
:10145000C752AD1A202D35DAC1F3160141F400024E
:1014600004B15242C5F1200602FA06F12A411044A5
:10147000B3EBD05F23D0C4B1012DA0EBC35009DC86
:10148000F0BC4FF0004202EAC352DBB200F50000AC
:1014900000F0DBBA400000F1807000EBC350A0F117
:1014A000807040EAD170490009E0490841EAC07102
:1014B000A0EBC35000F50000400800EBC350F0BCA7
:1014C00000F0BABA6142012202EB4101001BF6E7CB
:1014D000F0BC704781F00041AAE780F00040A7E728
:1014E00080EA010210B502F00043400022D04A0019
:1014F0001FD0010E01EB1261C0F35600C2F3560279
:1015000040F4000042F40002A0FB022000047F39F6
:10151000140400D0401C50EA124001D44000491E7F
:10152000C2B20C0604EBD010401C4008802A02D046
:1015300003E0002010BD20F00100002900DA0020A7
:10154000184310BD420005D0C0F3C7525242914229
:1015500001DC0020704700EBC15070472DE9FE4FC1
:10156000804681EA0300C00F0C46009021F0004144
:1015700023F00045B8EB0200A94105D240462146C0
:1015800090461C460B46024623F00040104347D0CD
:10159000270DC7F30A00C3F30A510290401A0190C5
:1015A00040286BDAC3F3130040F4801B0098924686
:1015B00020B10023D2EB030A63EB0B0B01985946D1
:1015C000C0F140025046FFF7F0FE06460D46504679
:1015D0005946019AFFF708FF10EB0800614100240B
:1015E00087EA115284EAE7731A4340D0009A62B343
:1015F000019A012A4FEA075215DC001B61EB020138
:101600004FF0004202EA0752CDE90042001C41F5CA
:10161000801132462B4600F055FA03B0BDE8F08F3A
:1016200040462146F9E7001B61EB0201001C41F531
:10163000801300185B412018A2F5001747EB030147
:1016400040EAD570B6196D4111E06D084FEA3606D3
:1016500045EAC0754FEA0752001B61EB0201001C0E
:1016600041F5801149084FEA3000001951413246D6
:101670002B4603B0BDE8F04F00F015BA00980122E8
:1016800040000023D0EB020263EBE0730098214698
:101690004FEAE074B8EB000061EB0401E9E783F086
:1016A00000435BE781F0004158E72DE9FE4F81EAF6
:1016B000030404F0004421F0004100944FF0000BBB
:1016C00023F0004350EA01045ED052EA03045BD0E9
:1016D000C3F30A54C1F30A552C44A4F2F334019421
:1016E000A0FB0254C1F3130141F48011C3F31303AF
:1016F00043F4801301FB024400FB034E840A970A63
:1017000044EA815447EA8357A4FB076802958D0A8F
:1017100005FB07854FEA932C04FB0C542705029D1B
:101720004FEA065847EA1637B5EB08056EEB070C8B
:10173000870E920E47EA811742EA8312A7FB020145
:10174000B6EB0B0164EB00042B0D43EA0C335E187F
:1017500044EB1C50DA465146E7FB0201C5F3130483
:101760004FEA0B3343EA14534FEA0432019C43EA35
:101770000603A4F10C040294009CCDE900B400F02F
:10178000A1F903B0BDE8F08F00200146F9E72DE98B
:10179000F04D81EA030404F0004B21F000451446AB
:1017A0004FF0000A23F0004150EA050220D054EA2D
:1017B00001021DD0C5F30A570246C5F31303C1F356
:1017C0001300C1F30A5640F4801543F48013A7EBCD
:1017D0000608101BD64608F2FD3873EB050002D34D
:1017E00008F1010801E092185B41B8F1000F03DA3B
:1017F00000200146BDE8F08D00204FF48011064620
:1018000084460EE0171B73EB050705D3121B63EB31
:10181000050306434CEA010C49084FEA30009218D0
:101820005B4150EA0107EDD152EA030012D082EA8F
:10183000040083EA0501084305D0101BAB4106D222
:101840000122002306E000224FF0004302E06FF087
:10185000010253101AEB06004CEB085110EB0A0082
:1018600041EB0B01BDE8F04D00F01DB970B521F062
:10187000004303430CD0C1F30A550024D5EB040503
:1018800064EB0403D617AD1AB34102DB0020014616
:1018900070BD201841EB025170BDC10F80EAE070AD
:1018A0000844CA079623002100F0CFB896230022EF
:1018B000114600F0CAB80EB540F233410291002142
:1018C000CDE900110A460B4600F0FCF803B000BD5C
:1018D00020F00040C10DC0F3160040F400007F2945
:1018E00001DA00207047962903DCC1F19601C84057
:1018F000704796398840704770B5C1F30A5201F0BD
:1019000000450024C1F3130140F2FF3341F480117C
:101910009A4201DA002070BD40F233439A42A2F2AB
:10192000334203DC5242FFF74FFD00E090402C436E
:10193000F1D0404270BDC1F30A5210B5C1F313019A
:1019400040F2FF3341F480119A4201DA002010BDC9
:1019500040F233439A42A2F2334203DC5242FFF791
:1019600033FD10BD904010BD00F0004230F000404B
:101970000AD0C10D01F56071C0F3160042EA0151B1
:10198000C20840071143704700200146704700001D
:1019900030B5041E71F1000404DB4FF000444042F6
:1019A00064EB0101141E73F1000405DB1C464FF0CB
:1019B0000043524263EB0403994208BF904230BD9A
:1019C00001F0004330B421F0004150EA010206D09A
:1019D0000A0DA2F56072C1F31301002A02DC30BCCB
:1019E00000207047440F44EAC104C100E01830BC35
:1019F00000EBC25000F020B8002801DBC0F100402D
:101A0000002901DBC1F100418142704730B50B462E
:101A1000014600202022012409E021FA02F59D421E
:101A200005D303FA02F5491B04FA02F52844151EF2
:101A3000A2F10102F1DC30BD0029A8BF7047401CB3
:101A4000490008BF20F00100704710B4B0FA80FCD4
:101A500000FA0CF050EA010404BF10BC704749B111
:101A6000CCF1200421FA04F411FA0CF118BF012181
:101A700021430843A3EB0C01CB1D4FEA00614FEA61
:101A8000102042BF002010BC704700EBC350104430
:101A90000029A4BF10BC7047401C490008BF20F0BB
:101AA000010010BC704710B5141E73F1000408DA71
:101AB000401C41F1000192185B411A4301D120F012
:101AC000010010BD2DE9F04D92469B4611B1B1FACF
:101AD00081F202E0B0FA80F220329046FFF765FC16
:101AE00004460F4640EA0A0041EA0B0153465A46B3
:101AF000084313D0114653EA010019D0C8F140023F
:101B00005046FFF761FC05460E4650465946424690
:101B1000FFF74BFC084305D0012004E0204639467E
:101B2000BDE8F08D0020054346EAE0762C433743BC
:101B30000A986305E40AA0EB08000022FD0A44EAC3
:101B400047540A3002D500200146E9E70105101983
:101B50006941DDE9084500196941BDE8F04DA2E79A
:101B60002DE9F04D00231A461B1A8A4103DB0020A1
:101B70000146BDE8F08DC1F30A52C1F3130141F4EF
:101B800080154FF0000BD10702D100186D41521E95
:101B90000027044640F2FF11384601EB620A3E4638
:101BA0008046024600204FF48011FFF70DFCC21959
:101BB0007141BB1846EB0100B4EB030C75EB000C54
:101BC00004D3E41A65EB000517460E46241908F104
:101BD00001006D4180463428E3DDF91946EB06002B
:101BE000091BA84103D24FF0FF32134601E0002247
:101BF00013461BEB070046EB0A51BDE8F04DFFF71B
:101C000052BFC1F30A52C1F3130140F2FF3341F452
:101C100080119A4202DA00200146704740F23343B5
:101C20009A42A2F2334202DC5242FFF7CDBBFFF7E9
:101C3000BCBB0000064C074D06E0E06840F0010325
:101C400094E8070098471034AC42F6D3FEF774FAD4
:101C500034A1000854A1000800B585B0002002900E
:101C60000E48816941F008018161816901F0080134
:101C70000491816941F0800181618069694600F0C9
:101C800080000490032003900120019040F2034063
:101C90000090034801F05CFA05B000BD001002405E
:101CA000000C014070B50C460546FFF7D5FF0B4B05
:101CB00035B10B48586006F053FC012C05D006E006
:101CC0000848586006F03CFCF7E701201870BDE8B2
:101CD00070400020044900F009B8000054000020C2
:101CE00059860008998500080088C3400B460249C0
:101CF00002460878496808475400002070B5224C15
:101D000000224FF48051204601F02BFB0022611588
:101D1000204601F026FB251500222946204601F029
:101D200020FB0122D6023146204601F01AFB642036
:101D300006F018FD00223146204601F012FB002279
:101D40008021124801F00DFB0022A115204601F070
:101D500008FB072000F094F8002000F091F80A201A
:101D600000F08EF8002000F08BF8602000F088F87A
:101D700001222946204601F0F4FA29462046BDE812
:101D80007040002201F0EDBA00100140000801404F
:101D90002DE9F0410E46002500F0FEF90624184F0B
:101DA00000E015B9022000F06BF8641EE4B2385D63
:101DB00000F066F86D1CEDB2002CF2D1082000F0A6
:101DC0005FF8340A204600F05BF8F0B200F058F8F3
:101DD000092000F055F8204600F052F8F0B200F06B
:101DE0004FF80122074D94022146284601F0B9FA26
:101DF00021462846BDE8F041002201F0B2BA0000B9
:101E00004C000020001001402DE9F041164600254D
:101E100000F0EAF90624184F00E015B9022000F09E
:101E20002FF8641EE4B2385D00F02AF86D1CEDB2A4
:101E3000002CF2D1082000F023F8340A204600F0EC
:101E40001FF8F0B200F01CF8092000F019F8204645
:101E500000F016F8F0B200F013F80122074D9402DA
:101E60002146284601F07DFA21462846BDE8F0418A
:101E7000002201F076BA00004C0000200010014062
:101E80002DE9F0410824DFF84080104F0546A601F7
:101E9000280601D5012200E000222021404601F061
:101EA00060FA6806050E00223146384601F059FAFC
:101EB00001223146384601F054FA641E14F0FF0442
:101EC000E6D1BDE8F08100000008014000100140AB
:101ED00070B5044600688168C943C90717D1816895
:101EE00021F00101816001F041FA05460AE000BFDE
:101EF00001F03CFA401B022804D920688068C043E6
:101F0000C00706D020688068C043C007F0D000201A
:101F100070BDA06A40F01000A062E06A40F00100CD
:101F2000E062012070BD10B50146406A826A12F07D
:101F3000500F05D0006A026BBDE8104008461047FC
:101F4000816A41F40071816201688968C1F342418C
:101F500007290CD1017B51B9816A21F4807181621A
:101F6000816AC90403D4816A41F00101816200F0F1
:101F7000ABFB10BD10B5406A816A41F0400181623F
:101F8000C16A41F00401C16200F0C7FB10BD10B589
:101F9000406A00F0C1FB10BDF8B50026044600966B
:101FA00000688168C943C9072DD0816841F00101EB
:101FB0008160164816490068B0FBF1F000E0401E51
:101FC00000900028FBD101F0D1F9054616E000BFD2
:101FD00001F0CCF9401B022810D920688068C0436A
:101FE000C0070BD0A06A40F01000A062E06A40F089
:101FF0000100E06284F824600120F8BD2068806858
:10200000C043C007E4D10020F8BD0000300000202C
:1020100040420F00FEE70000014800F0BFBE000094
:1020200094100020014800F0B9BE0000FC1200200E
:10203000014800F0B3BE0000EC10002030B590F86D
:1020400040500124AC40C56B6C6004686360436819
:10205000102B036803D099600068C26030BD9A609D
:102060000068C16030BD000011B50D4CAB200622E8
:10207000207001206070FE20A070F220E07004202B
:102080002071002060712146684605F0BDFD2046A4
:1020900000F01CFA03480178A1724078E07218BD84
:1020A000E04300203C000020704772B6FEE70000CD
:1020B00030B5B3F5804F05D06FF0704140F8221075
:1020C000002030BD8C690B688D6823434C6889897A
:1020D000240144EA0524234343EA014150F8223015
:1020E000014C23401943E9E70000F0CF10B50A681E
:1020F00050F8223023F0010340F822308C68082C7D
:1021000023D000234A682243CC681C430B69224336
:102110001A434B690E4C1A43CB691A430B6A1A4394
:102120004B6A1A438B6A1A43CB6A1A430B6B1A43E6
:102130008B6913434A6B09681A4350F82130A34353
:10214000134340F82130002010BD4023DAE700009F
:102150007FFF0F0030B5D1E9003443EA04138C68E7
:102160008D89240244EA054423430C8A094D00EB7F
:10217000820005EB045423430C7D6D0105EB0464E0
:10218000896923430B43416801F040410B4343609D
:10219000002030BD0000F0FF70B5124AC1B2C0F39C
:1021A000072611705670C0F307439370040EA2F116
:1021B0000805D4702A6805F10C0051430170090A22
:1021C00002FB06114170090A02FB03118170090A22
:1021D00002FB0411C170090A69600171090A4171A9
:1021E00070BD0000480000202DE9F041144A154B55
:1021F000FFF75BFA144FDFF8548005460E463A4667
:102200004346FFF7C4FAFFF777FB84B22046FFF797
:1022100052FB3A464346FFF748FA2A463346FFF751
:1022200041FAFFF788FB0A49020A08704A70020C5B
:102230008A70000EC8700C71200A4871BDE8F081E8
:10224000CC5D4BD813A22C410000E0FFFFFFEF4113
:102250004C00002030B585B0002002901248816902
:1022600041F010018161816901F0100104918169DF
:1022700041F0040181618069012500F004000490AF
:10228000E020CDE90005032469460394074800F0E7
:102290005FFF4FF4FE40CDE9000569460394044812
:1022A00000F056FF05B030BD0010024000080140AC
:1022B000001001402DE9F04FDFF880A1DFF880B178
:1022C0008BB000246FF00E07AAF500584FF4007988
:1022D0005AF8241008140EB2FFF7DFFA0A21FFF7AC
:1022E00031F93946FFF72EF905463046FFF7D5FAA2
:1022F0000A21FFF727F93946FFF724F90146FFF7CE
:10230000EFF8064629460846FFF7EAF83146FFF798
:102310008FF8FFF729FB06F0E9FA6FF00902FFF7E3
:10232000A5FAFFF74DFB002C7FD01021FFF70AF92B
:10233000FFF7CEFA48F82400611C42A005F070FCBB
:102340002046FFF7B3FA5946FFF7CAF8FFF70CFB30
:1023500002460B463EA005F063FC454658F82410A3
:102360003EA005F05DFC641CA4B24E46B442AFD35F
:102370005FF0000455F8240005F038F9641CA4B29D
:10238000B442F7D308A906A8CDE9000109AB07AA12
:102390003146354806F000FABDF81800FFF786FA16
:1023A0005C465946FFF79CF80546BDF82000FFF74C
:1023B0007DFA2146FFF794F8044601462846FFF7C8
:1023C0001BFB02D228462546044628A005F028FC1F
:1023D0002046FFF7C9FA06460C462846FFF7C4FA1E
:1023E000CDE90464BDF82020BDF82430CDE90232E7
:1023F000CDE90001BDF81820BDF81C1000E014E084
:1024000021A005F00DFC2846FFF762FA4FF47A612F
:10241000FFF7BEFC30462146FFF768FC20212A4822
:1024200000F097FF0BB0BDE8F08F0F21FFF78AF89F
:10243000FFF74EFAC8F800007EE7000040330020A6
:1024400000606A4325642020202020200000000036
:102450002566202020202020000000002564202068
:10246000202020200D0A0000401300200D0A20200B
:10247000202020202020202020202020202020205C
:1024800020202020200D0A006D6178313A2564203B
:10249000206D61785F696E6465783A256420204616
:1024A00072653A25660D0A6D6178323A25642020FE
:1024B0006D6178325F696E6465783A2564202046E4
:1024C00072653A25660D0A00000C0140084910B5F6
:1024D00000220A704A70835C0C78521C23440B70F3
:1024E0004C78D2B223444B700A2AF4D310BD0000BA
:1024F0003C000020F8B500250446009590F8240023
:1025000001280BD0012084F824002046FFF7E0FCCE
:102510002046FFF741FD060002D050E00220F8BD42
:10252000A06A20F4885040F00200A062022000F06F
:10253000B3FF25490968B1FBF0F0400000E0401E00
:1025400000900028FBD12068816841F0080181607B
:1025500000F00CFF074608E000F008FFC01B0A2847
:1025600003D920688068000715D4206880680007B8
:10257000F2D42068816841F00401816000F0F6FE29
:10258000074612E000F0F2FEC01B0A280DD92068B1
:102590008068400709D5A06A20F0020040F01000D2
:1025A000A06284F824500120F8BD206880684007AC
:1025B000E8D4A06A20F0020040F00100A06284F894
:1025C00024503046F8BD000030000020F8B500244B
:1025D000009490F824202546012A12D0012280F888
:1025E00024204A681F23072A0DD20668776B521EE3
:1025F00002EB820293409F430B6893401F43776333
:1026000019E00220F8BD06680D2A0AD2376BD21FE6
:1026100002EB820293409F430B6893401F43376352
:1026200009E0F76A0D3A02EB820293409F430B6880
:1026300093401F43F7620A68072306680A2A0AD3F1
:10264000F7680A3A02EB420293409F438B6893403B
:102650001F43F76008E0376902EB420293409F4353
:102660008B6893401F4337610A68102A01D0112AF2
:1026700020D1124B02689A4217D193681B0219D4D9
:10268000936843F4000393600968102912D10C4940
:102690000C4A0968B1FBF2F101EB8101490000E04D
:1026A000491E00910029FBD104E0816A41F020011C
:1026B0008162012480F824502046F8BD00240140A6
:1026C0003000002040420F0070B5104C0022202145
:1026D000204600F046FE00210D480E4B5FEA2452D2
:1026E00050F821502D0443F82150491C9142F7DB4A
:1026F000084901F58050FDF737FDFFF7DBFD204667
:10270000BDE870400122202100F02BBE00180140DE
:102710006400002040230020704770472DE9F041FD
:1027200004004FF000057FD0A06A002628B9E662B9
:1027300084F82460204600F081F82046FFF7C8FBAB
:10274000A16AC90600D420B1A06A40F01000A062BE
:102750006AE0A16A21F4885141F00201A162334983
:1027600023688B42E16904D1B1F5402F01D14FF4C8
:102770000021277B4FF4807C41EA470261680A43CD
:10278000A168614508D0012906D0002194F814E021
:10279000BEF1010F02D00AE06146F7E7C7B1A76AB0
:1027A00047F02007A762E76A47F00107E7625F6822
:1027B00027F469470F435F60236899681C4F3940CD
:1027C00011439960A16861450BD0012909D00CE043
:1027D000DFF860E0A7690EEB47370F4347F400616D
:1027E000E5E7218A0D05A5F580152168CB6A23F45C
:1027F00070032B43CB62216889680F4B19409142CB
:1028000008D1E662A16A21F0020141F00101A16252
:10281000BDE8F081A06A20F0020040F01000A06244
:10282000E06A40F00100E0620120F1E7003C014075
:10283000FDF7E1FF00E0FFFFFE0E1FFF70B586B061
:1028400000250646009501950295039500681A49F2
:1028500088422FD11949886940F4007088618869DD
:1028600000F400700490886940F004008861886971
:10287000694600F0040004900220009003200190BB
:102880000F4800F065FC104C0E48C4E9000580209C
:10289000C4E9025040002061C000C4E905054FF4BE
:1028A0004050E061204600F09DFB08B1FFF7FDFBC2
:1028B0003462666206B070BD002401400010024020
:1028C00000080140080002409410002070B5044642
:1028D00090F8240001280DD0012084F8240020461F
:1028E000FFF75AFB02004FF0000005D084F82400E7
:1028F000104670BD022070BDA16A40F201239943C9
:1029000041F48071A1621F4D23681F49AB4218D169
:102910000E6816F4702F14D0A66A46F48016A662CC
:102920000E68760505D5A66A26F4005646F480564C
:10293000A662A66AF6040AD5E66A26F00606E662EC
:1029400006E0A66A26F48016A6625E68E9E7E06201
:1029500084F824006FF00200186020688368C3F3D5
:102960004243072B05D1A84208D1096811F4702F02
:1029700004D0816841F480118160B9E7816841F435
:10298000A001F9E700280140042401402DE9F047A7
:10299000894604463B4900683B4F0E1D90468842DD
:1029A00001D0B84207D1306810F4702F03D0012550
:1029B0002846BDE8F08794F8240001280CD00120B7
:1029C00084F824002046FFF7E7FA05004FF00000E6
:1029D00004D084F82400EBE70220EAE7A16A40F67D
:1029E0000162914341F48071A1622168B94218D11A
:1029F000326812F4702F14D0A16A41F48011A162E0
:102A00003168490505D5A16A21F4005141F480518E
:102A1000A162A16AC9040AD5E16A21F00601E16256
:102A200006E0A26A22F48012A2624968E9E7E06245
:102A300084F82400216A15488862216A1448C86213
:102A4000216A1448086321686FF00200086020685A
:102A5000816841F480718160216843464A464C3167
:102A6000206A00F0FDFA20688168C1F3424107291D
:102A7000816803D041F48011816099E741F4A0019D
:102A8000FAE700000024014000280140271F000849
:102A90008F1F0008751F000870B500B3F9B14379A6
:102AA000012B1ED0012646710223037105682C6894
:102AB00002F0100340F6FE729A409443D1E90021DF
:102AC0000A439A4022432A6001680A68C0249C4055
:102AD000A2430A60067100214171084670BD0120C1
:102AE00070BD022070BD70B5040003D020790025B0
:102AF00010B105E0012070BD6571204600F008F8B6
:102B000002202071256101202071002070BD00008D
:102B1000F0B585B00026054600960196029603960C
:102B200000681A4988422ED11949C86940F00050FE
:102B3000C861C86900F000500490886940F0040042
:102B400088618869102700F0040004900320CDE913
:102B5000007069460F4800F0FBFA104C0E48C4E9BB
:102B600000078020C4E902604000206180006061AD
:102B70002020C4E90606204600F034FA08B1FFF729
:102B800094FAAC60656205B0F0BD000000740040CE
:102B9000001002400008014030040240EC10002008
:102BA00018B50024009440B100680090104431B181
:102BB000143000900360002018BD012018BD0830BB
:102BC000F7E770B508B34279012A20D0012242719B
:102BD000022303710468266801F0100302FA03F56A
:102BE0002E4326600029016813D00C6804F4701588
:102BF0003C249C40A54203D14B6843F002034B6048
:102C0000027100214171084670BD012070BD022093
:102C100070BD0B68C3F383030F2BF1D14B6843F0F6
:102C20000103ECE710B590F821100022022905D02D
:102C30000421816380F82020012010BD01680B6809
:102C400023F00E030B6001680B6823F001030B6097
:102C500090F84030C46B012101FA03F3636080F8FF
:102C6000211080F82020104610BD00002DE9F05FF3
:102C700090F821100024022903D00421816301244B
:102C800085E001680A6822F00E020A6001680A689D
:102C900022F001020A603F4E3E4FB215DFF8F4C049
:102CA000DFF8F090DFF8ECA0DFF8E8B0DFF8E4E060
:102CB0000168783F13011502ACF1640CA9F15009C9
:102CC000AAF13C0AABF1280BAEF1140E4FF48018B8
:102CD000B14227D9B9420ED0614512D049451DD025
:102CE000514518D0594518D0714501D1424615E0DB
:102CF000294EB14201D1012210E0274E1436B142D3
:102D000001D110220AE0244E2836B14206D0224AD0
:102D10003C32914201D11A4600E02A461E49091F61
:102D20000A602BE0B94213D0614517D0494522D043
:102D300051451DD059451DD0714501D142461AE07B
:102D4000B14202D14FF0807215E0134EB14201D171
:102D5000012210E0104E1436B14201D110220AE0D7
:102D60000D4E2836B14206D00B4A3C32914201D179
:102D70001A4600E02A46074980394A60012180F856
:102D80002110002180F82010416B01B188472046B6
:102D9000BDE8F09F80000240080402402DE9F05F8A
:102DA000C16B0A6801680B68046C4FF0040808FAEC
:102DB00004F8844D844E854FDFF814C2DFF8149276
:102DC000DFF814A2DFF814B2DFF814E218EA020FF9
:102DD00065D05FEA437862D50A68920603D40A6830
:102DE00022F004020A60DFF8F0814FF4806201688B
:102DF00008F1140813011402414524D9A9420DD049
:102E0000B1420FD0B9421AD0614515D0494515D00D
:102E1000514501D1120312E0594501D104220EE0BF
:102E2000714501D140220AE06D4D1435A94206D00A
:102E30006B4A2832914201D11A4600E02246674986
:102E4000091F0A6029E0A94213D0B14215D0B94246
:102E500020D061451BD049451BD0514502D14FF4CC
:102E6000800217E0414502D14FF0806212E05945DF
:102E700001D104220EE0714501D140220AE0584DF3
:102E80001435A94206D0564A2832914201D11A4639
:102E900000E022464B4908394A60C16A71E04FF0B0
:102EA000020808FA04F818EA020F70D05FEA837883
:102EB0006DD50A68920606D40A6822F00A020A60F2
:102EC000012180F82110DFF810814FF400720168B1
:102ED00008F1140813011402414524D9A9420DD068
:102EE000B1420FD0B9421AD0614515D0494515D02D
:102EF000514501D1120312E0594501D102220EE0E1
:102F0000714501D120220AE0354D1435A94206D081
:102F1000334A2832914201D11A4600E022462F4915
:102F2000091F0A6029E0A94213D0B14215D0B94265
:102F300020D061451BD049451BD0514502D14FF4EB
:102F4000001217E0414502D14FF0007212E05945DE
:102F500001D102220EE0714501D120220AE0204D6C
:102F60001435A94206D01E4A2832914201D11A4690
:102F700000E02246134908394A60002180F82010F9
:102F8000816A00291CD0BDE8F05F0847FFE70825EB
:102F9000A540154214D01A0712D50A6822F00E0275
:102FA0000A6090F84020C36B012101FA02F25A60D6
:102FB000816380F82110002180F82010016BE0E788
:102FC000BDE8F09F080002401C00024030000240B3
:102FD00044000240580002406C00024008040240D5
:102FE0001C04024030B560B11A4B026814219A42A9
:102FF00009D2194B1344B3FBF1F18900016417495D
:103000000AE0012030BD134B5B421344B3FBF1F1E6
:10301000890001640F490839C163022180F8211039
:10302000136843F6F0718B43F0E901142143D0E9B2
:1030300002452C43214304692143446921438469A7
:103040002143194311600021416301224277017736
:10305000084630BD08040240F8FFFDBF00000240F2
:1030600070B5044690F82000002501280CD00120FE
:1030700084F8200094F821600020012E06D084F806
:1030800020000225284670BD022070BD022684F86B
:103090002160A0632068066826F0010606602046CD
:1030A000FEF7CCFFE06A00282068016802D041F0FA
:1030B0000E0106E021F0040101602068016841F082
:1030C0000A0101602068016841F001010160D9E74F
:1030D00030B585B000200090019002900390174811
:1030E0000168002927D1012101601548416941F497
:1030F000807141614069022400F48070049041F2C3
:103100000100CDE900040325694603950D4800F050
:103110001FF84FF68070CDE90004694603950A4810
:1031200000F016F84CF23370CDE9000469460395BF
:10313000064800F00DF805B030BD00000800002082
:10314000001002400020014000180140001401401E
:103150002DE9F84FDFF8C8910024A9F1040B2346AC
:103160000F2709F1040AABF1040ED1E00125A540B7
:1031700006EA0502AA4276D1DFF8A8C14E68A6EB9E
:103180000C0866452BD00DDC032E34D005DC36B39D
:10319000012E19D0022E2FD11BE0112E16D0122E87
:1031A0002AD119E0B8F5881F19D006DCB8F5803FA0
:1031B00015D0B8F5801F1FD111E0B8F5001F0ED053
:1031C000B8F5041F18D10AE0CB6815E0CB681B1DC9
:1031D00012E0CB6808330FE0CB680C330CE08B684F
:1031E0002BB1012B4FF0080303D0456104E0042309
:1031F00002E0056100E00023FF2A01D8064601E055
:1032000000F104064FEA840501D9A5F12005D6F89E
:10321000008007FA05FC28EA0C0803FA05F548EADD
:103220000508C6F800804D68ED0070D53E4DAE69CA
:1032300046F00106AE61AD6924F0030605F0010514
:1032400000953A4D06EB050CDCF80850A607360F42
:1032500007FA06F825EA0805DFF8D480404503D1CF
:103260004FF0000825E052E0DFF8C880404502D169
:103270004FF001081DE0DFF8C080404502D14FF05B
:10328000020816E0DFF8B480404502D14FF0030891
:103290000FE0DFF8AC80404502D14FF0040808E0B1
:1032A000DFF8A080404502D14FF0050801E04FF063
:1032B000060808FA06F848EA0508CCF808804D68C0
:1032C000D9F80060ED024D4601D5164300E0964363
:1032D0002E604D68DAF80060AD02554601D5164300
:1032E00000E096432E604D68DBF80060AD035D465C
:1032F00001D5164300E096432E604D68DEF800606D
:10330000ED03754601D5164300E096432E60641C1C
:103310000A681646E2407FF429AFBDE8F88F000046
:10332000080401400000111000100240000001409C
:1033300000080140000C0140001001400014014051
:1033400000180140001C01408068084000D00120A6
:103350007047C26821EA02030A4043EA0241016160
:1033600070470AB1016170470904FBE701488068B2
:103370007047000024000020024881680278114450
:103380008160704724000020074810B5016841F0B3
:1033900010010160032000F06DF80F2000F006F826
:1033A00000F024F8002010BD0020024070B50D4D43
:1033B00004464FF47A712878B1FBF0F00A490968A5
:1033C000B1FBF0F000F0DAFB48B9102C07D2002274
:1033D0002146501E00F02EF800206C6070BD0120C8
:1033E00070BD00002400002030000020094808B50E
:1033F000816941F001018161816901F00101009160
:10340000C16941F08051C161C06900F080500090F5
:1034100008BD000000100240002809DB00F01F0278
:10342000012191404009800000F1E020C0F8001126
:1034300070470000F0B40E4B1B680C46C3F3022328
:10344000C3F10705042D00D90425191D072901D250
:10345000002300E0DB1E012606FA05F1491E21408B
:1034600099409E40761E16403143F0BC04F0E8BB04
:103470000CED00E0064900F0070208684FF6FF0374
:10348000184040EA0220034A1043086070470000D9
:103490000CED00E00000FA0510B501460020284CB4
:1034A00004292FD00BDC012930D0022929D100F0CA
:1034B0006BF96168C1F38131491C49001FE008299B
:1034C00020D010291DD161682268D20119D51D486C
:1034D000C1F38342C903805C0AD56168194AC1F30C
:1034E0004041921E515C184AB2FBF1F1484301E0A1
:1034F000164948436168490203D440000321B0FBE8
:10350000F1F010BDBDE8104000F04EB9226AC2F3E0
:103510000121012903D1920701D5C80310BD022959
:1035200005D1626A920702D549F6404010BD0329D1
:10353000FCD121688903F9D54FF2244010BD000069
:10354000001002404C89000800127A0000093D007A
:103550002DE9F84305460078354CC00754D0E069A2
:103560000026C00008D4E06940F08050E061E069C6
:10357000012600F0805000902E480168C90512D441
:103580000168804641F480710160FFF7EFFE074655
:1035900005E000BFFFF7EAFEC01B642823D8D8F877
:1035A0000000C005F6D5206A10F4407021D0A9882B
:1035B00001F4407181421CD0206A1F49012220F48D
:1035C00040700A6000220A602062C00711D0FFF735
:1035D000CDFE074641F2883808E000BFFFF7C6FE7F
:1035E000C11B414502D90320BDE8F883206A80074A
:1035F000F4D5206A696820F44070084320621EB147
:10360000E06920F08050E0612878800705D5606887
:10361000A96820F44040084360602878C00605D5BA
:103620006068696920F48000084360600020DBE77F
:103630000010024000700040400442422DE9F04773
:103640000F46050061D0434E306800F00700B842D5
:1036500009D2306820F0070038433060306800F04D
:103660000700B84251D128683B4C810712D540076A
:1036700003D5606840F4E06060602878000703D5F7
:10368000606840F4605060606068A96820F0F000F5
:10369000084360602878C00728D06868012810D0E7
:1036A0002168022810D0890700292EDA616821F0EC
:1036B000030101436160FFF759FE804641F28839FA
:1036C0000DE021688903EFE78901EDE7FFF74EFE82
:1036D000A0EB0801494502D90320BDE8F0876068E6
:1036E000696800F00C00B0EB810FEFD1306800F09A
:1036F0000700B8420BD9306820F00700384330602B
:10370000306800F00700B84201D00120E5E72878D2
:10371000400705D56068E96820F4E0600843606010
:103720002878000706D56068296920F4605040EACF
:10373000C100606000F038F86168084AC1F3031105
:10374000515CC8400649086006480068FFF72EFE35
:103750000020C2E700200240001002405C890008FF
:10376000300000202800002004480549006849680E
:10377000044AC1F30221515CC84070473000002068
:10378000001002406C890008044805490068496837
:10379000044AC1F3C221515CC84070473000002088
:1037A000001002406C8900080E4A51680E4801F072
:1037B0000C03042B11D0082B0FD10C48C1F3834309
:1037C000C903C05C0AD55168084AC1F34041921E42
:1037D000515C054A5043B0FBF1F07047044948433F
:1037E000704700000010024000127A003A89000879
:1037F00000093D002DE9F84F040070D02078C04D3D
:10380000C00749D06868C0F38100012807D0686804
:10381000C0F38100022809D16868C00306D5286872
:10382000800339D560680028E7D035E06068B0F5DE
:10383000803F0BD010B1B0F5A02F11D0286820F434
:1038400080302860286820F4802002E0286840F456
:1038500080302860606890B1FFF788FD06460AE076
:10386000286840F480202860F0E700BFFFF77EFD65
:10387000801B642873D828688003F7D50CE0FFF715
:1038800075FD064605E000BFFFF770FD801B64284C
:10389000F0D828688003F7D420789A4E80074FF03C
:1038A00001094FF0000839D5686810F00C0F07D0F7
:1038B0006868C0F38100022809D16868C00306D493
:1038C0002868800714D52069012808D110E02069F4
:1038D000B0B1C6F80090FFF749FD074605E00AE1E0
:1038E000FFF744FDC01B0228C4D828688007F7D51D
:1038F0002868616920F0F80040EAC10028600DE006
:10390000C6F80080FFF732FD074604E0FFF72EFD02
:10391000C01B022823D828688007F7D42078000726
:103920002CD57948A169D9B1C0F80090FFF71EFDE8
:10393000074604E0FFF71AFDC01B02280FD8686A8B
:103940008007F7D571484FF4FA510068B0FBF1F0E9
:10395000009000BF0098411E0091FAD20EE080E076
:10396000C0F80080FFF702FD074604E0FFF7FEFC09
:10397000C01B022875D8686A8007F7D420784007F2
:1039800060D5E8690027C00008D4E86940F080509D
:10399000E861E869012700F0805000905C48016808
:1039A000C90513D40168834641F480710160FFF7B3
:1039B000DDFC824606E000BFFFF7D8FCA0EB0A0062
:1039C00064284ED8DBF80000C005F5D5E068012872
:1039D0000AD008B1052813D0286A20F00100286217
:1039E000286A20F0040002E0286A40F00100286202
:1039F000E06841F2883B98B1FFF7B8FC82460BE0E3
:103A0000286A40F004002862EEE700BFFFF7AEFC32
:103A1000A0EB0A0159455AD8286A8007F6D50CE070
:103A2000FFF7A4FC824605E0FFF7A0FCA0EB0A012B
:103A300059454CD8286A8007F6D41FB1E86920F0B0
:103A40008050E861E06988B36968C1F381010229A7
:103A500044D00228C6F8608004D0FFF787FC0446F3
:103A600038E034E0FFF782FC074604E0FFF77EFC15
:103A7000C01B02282BD828688001F7D4206AB0F533
:103A8000803F05D16868A16820F400300843686071
:103A9000D4E908010843696821F474110843686097
:103AA000C6F86090FFF762FC044606E025E000BF20
:103AB000FFF75CFC001B022809D828688001F7D5B5
:103AC0001BE000BFFFF752FC001B022802D90320B5
:103AD000BDE8F88F28688001F4D40EE00128F7D003
:103AE0006868226A00F48031914204D1616A00F46E
:103AF0007010884201D00120EAE70020E8E70000CA
:103B00000010024000004242800442423000002087
:103B10000070004070B515460E46040007D0A0693D
:103B2000B0F5807F03D094F8410010B107E0012088
:103B300070BD002084F84000204600F01DF804F11C
:103B400008012068FEF7D2FA3146A2682068FEF725
:103B500001FBD4E901022946236BFEF7A9FAA1680B
:103B6000206850F8212042F0010240F82120012075
:103B700084F84100002070BDFFF7AABA10B5401EBE
:103B8000B0F1807F01D3012010BD4FF0E0246061CF
:103B90000F21601704F054F80020A0610720206175
:103BA000002010BD7047704770B590F83C20012A86
:103BB0002CD0012480F83C40022280F83D2003688C
:103BC0005A689D6822F070060A6832435A60104BAA
:103BD00002689A420ED00F4B9A420BD0B2F1804F3E
:103BE00008D00D4B9A4205D00C4B9A4202D00C4B98
:103BF0009A4204D1496825F080031943916080F806
:103C00003D40002180F83C10084670BD022070BD88
:103C1000002C014000340140000400400008004036
:103C2000000C004010B5040003D094F83D0010B122
:103C300007E0012010BD002084F83C00204600F081
:103C40001FF8022084F83D00211D206803F024FDA8
:103C5000012084F8460084F83E0084F83F0084F890
:103C6000400084F8410084F8420084F8430084F85E
:103C7000440084F8450084F83D00002010BD000099
:103C800008B5174A01681748914207D1C16941F048
:103C90000201C161C06900F002001EE0124A9142B7
:103CA00011D1C16941F01001C161C069002200F069
:103CB0001000009011463620FFF7BCFBBDE808401D
:103CC0003620FFF7A9BB094A914207D1C16941F0EB
:103CD0002001C161C06900F02000009008BD000013
:103CE000000400400010024000100040001400409A
:103CF00090F83D10012901D001207047022180F881
:103D00003D1000680E4988420ED00E4988420BD003
:103D1000B0F1804F08D00C49884205D00B49884249
:103D200002D00B49884204D1816801F007010629BD
:103D300003D0016841F001010160002070470000DC
:103D4000002C014000340140000400400008004005
:103D5000000C004090F83D10012901D0012070476F
:103D6000022180F83D100168CA6842F00102CA6071
:103D700000680E4988420ED00D4988420BD0B0F140
:103D8000804F08D00B49884205D00B49884202D0A9
:103D90000A49884204D1816801F00701062903D04D
:103DA000016841F00101016000207047002C0140D2
:103DB000003401400004004000080040000C0040B6
:103DC00001680A6A41F211131A4207D10A6A9B106C
:103DD0001A4203D10A6822F001020A60012180F828
:103DE0003D100020704770B5044690F83C00002557
:103DF000012817D0012684F83C60022084F83D0099
:103E00002068826822F0770222F47F42826008688C
:103E1000502838D00DDC20284FD005DC90B3102876
:103E200011D14AE0022070BD302846D040280AD186
:103E30003BE060282FD070280DD0B0F5805F03D014
:103E4000B0F5005F12D0012584F83D60002084F8B1
:103E50003C00284670BDCB68D1E90121206803F001
:103E600061FC2068816841F0770109E0CB68D1E905
:103E70000121206803F056FC2068816841F48041EC
:103E80008160E1E719E0CA684968206803F05CFCDA
:103E90005021206806E0CA684968206803F065FC84
:103EA0006021206803F048FCCEE7CA6849682068B2
:103EB00003F04AFC40212068F4E7226801461046DE
:103EC000F0E7704770B50446006801694FF00005DF
:103ED000C943890715D4C168C943890711D4E91EAC
:103EE000016101202077206880698007204602D088
:103EF000FFF7E7FF04E000F098F8204600F096F89E
:103F0000257720680169C943490717D4C168C943A7
:103F1000490713D46FF00401016102202077206863
:103F2000806910F4407F204602D0FFF7CAFF04E00A
:103F300000F07BF8204600F079F8257720680169C9
:103F4000C943090716D4C168C943090712D46FF0E1
:103F500008010161042020772068C069800720469D
:103F600002D0FFF7AEFF04E000F05FF8204600F05B
:103F70005DF8257720680169C943C90617D4C1686F
:103F8000C943C90613D46FF01001016108202077DE
:103F90002068C06910F4407F204602D0FFF791FFEF
:103FA00004E000F042F8204600F040F82577206851
:103FB0000169C943C90708D1C168C943C90704D108
:103FC000891E0161204600F033F820680169C94369
:103FD000090609D4C168C943090605D46FF08001F8
:103FE00001612046FFF7DEFD20680169C9434906EB
:103FF00009D4C168C943490605D46FF04001016185
:10400000204600F07FF820680169C94389060BD477
:10401000C168C943890607D46FF0200101612046B9
:10402000BDE87040FFF7BFBD70BD7047704700002E
:1040300070B52A49884250D1294C6088401C80B212
:104040000A21B0FBF1F2608001FB120078B9254D26
:1040500010222946244800F0B0FA082229462348B5
:1040600000F0ABFA01222249224800F0CBFA1E48A8
:10407000214E0025417801290AD14570A06842F2FD
:1040800010710844A0603188FDF782FE00F0F8FA54
:104090001648417801290AD14570A068A0F51C5046
:1040A0001038A0603188FDF773FE00F0E9FA11487E
:1040B0004178012905D145708A0210491048FEF760
:1040C00065FC6088B0F57A7F07D16580A088401CC8
:1040D000A080BDE8704000F0D3BA70BDC0110020D0
:1040E00014000020001801400200002004000020FD
:1040F00000080140060000200000002064000020AD
:10410000641000207047704710B50446006840698D
:1041100094F84110C0F3C010212911D180B120685A
:10412000143050E8001F21F0800140E80012002AFE
:10413000F5D1A06B08B1FEF775FD204603F0CDFB6D
:104140002068406994F84210C0F38010222911D1F0
:1041500080B12068143050E8001F21F0400140E891
:104160000012002AF5D1E06B08B1FEF75BFD204696
:1041700003F08CFB002010BD70470000F8B501680B
:1041800004460868CA684B6910F00F0F4FF000052D
:1041900059D003F0010602F49077374365D0C10788
:1041A00005D0D10503D5616C41F00101616441077F
:1041B00005D5D90703D0616C41F002016164810724
:1041C00005D5D90703D0616C41F004016164010792
:1041D00007D502F02001314303D0616C41F00801A2
:1041E0006164616C00293AD0800604D5900602D53E
:1041F000204603F080FB20684069616CC0F38010AA
:10420000090700D460B3204603F040FB20684069F2
:10421000400621D52068143050E8001F21F04001ED
:1042200040E80012002AF5D1E06BA8B16D49416366
:10423000E06BFEF71BFD002811D0E06B416B01B075
:10424000BDE8F040084783060FD593060DD52046FC
:10425000BDE8F84003F04FBB2046FFF78DFFF8BDE7
:104260002046FFF789FF6564F8BD266B2023012EE9
:104270007CD1C6067AD5D60678D5086848680090FD
:1042800048694FF00206400640D5E16B0868406877
:104290000004000CE8D0A28D8242E5D9E08588694F
:1042A00020282DD020680C3050E8001F21F48071A8
:1042B00040E80012002AF5D12068143050E8001FB1
:1042C00021F0010140E80012002AF5D120681430E5
:1042D00050E8001F21F0400140E80012002AF5D10B
:1042E00084F84230256320680C3050E8001F21F02C
:1042F000100140E80012002AF5D1E06BFEF792FCB5
:104300006663A08DE18D401A81B22AE0A08DE18D17
:10431000401A81B2E08D0028A6D00029A4D02268DE
:104320000C3252E8000F20F4907042E80007002F92
:10433000F5D12068143050E8002F22F0010240E847
:104340000027002FF5D184F84230256320680C3017
:1043500050E8002F22F0100240E80023002BF5D196
:1043600066632046FFF7CFFEF8BDFFE705062BD5B5
:10437000150629D594F841002128F5D1A068B0F59B
:10438000805F01D12069B0B1206A411C216221689F
:1043900000784860E08C401E0004000CE084E3D10B
:1043A0002068C16821F08001C1602068C16841F0C7
:1043B0004001C160D8E7206A0088C0F30800486067
:1043C000206A801C2062E5E74006CDD55006CBD59B
:1043D000CA68204622F04002CA6084F8413000F0EA
:1043E000EAF8C1E78F77000870B5040004D094F8AC
:1043F0004100002510B106E0012070BD84F8405056
:10440000204600F023F8242084F841002068C16889
:1044100021F40051C160204603F0CEFA2068016902
:1044200021F4904101612068416921F02A01416134
:104430002068C16841F40051C1606564202084F89F
:10444000410084F842006563002070BD70B586B0FD
:1044500000250646009501950295039500682249BE
:1044600088423FD12149886940F480408861886949
:1044700000F480400490886940F0040088618869F5
:104480001B4C00F00400049048150090022001909D
:104490000320039069462046FEF75AFE2015CDE919
:1044A0000005694620460295FEF752FE124C11485F
:1044B000C4E900058020C4E9025020202561C4E938
:1044C00005502046E561FEF78DFD08B1FDF7EDFDD5
:1044D000F4630022114625206662FEF7ABFF25201B
:1044E000FEF79AFF06B070BD003801400010024090
:1044F0000008014058000240FC12002090F84230B1
:10450000202B01D00220704721B11AB10023036390
:1045100003F0AEBA01207047704770472DE9F843A9
:10452000044690F841001F4616460D46202802D04A
:104530000220BDE8F8837DB176B1002060642120BF
:1045400084F84100FEF712FFA6848046E684A06846
:10455000B0F5805F02D003E00120EAE7206910B1E6
:104560002E4600250EE000260CE08021204603F0B8
:10457000C7FAA0B9AEB116F8010B21684860E08C0B
:10458000401EE084E08C43464FF000020097002874
:10459000EBD14FF04001204603F0B2FA30B10320D6
:1045A000C7E735F8020BC0F30800E6E7202084F8DF
:1045B00041000020BDE77047FEE770B50446007873
:1045C0000B46012560B10026012811D002280ED12A
:1045D00011461846FEF7B8FE012808D165700CE0B8
:1045E00011461846FEF7B0FE002800D1257070BDB8
:1045F00011461846FEF7A8FE08B1267070BD0220CD
:10460000207070BD70B5044600780B46012560B17E
:104610000026012811D002280ED111461846FEF7B7
:1046200093FE002808D165700DE011461846FEF78C
:104630008BFE012800D1257070BD11461846FEF78B
:1046400083FE012801D0267070BD0220207070BD4D
:1046500070B509490646002408884D88214645431F
:10466000204602F06BFC02F0D3FD044801E0068016
:10467000641CAC42FBD370BD884300200008006C72
:104680001CB5102409A0CDE900402346C82296217C
:104690001E2002F037FD0020CDE900400648082327
:1046A000962182685E2002F057FD1CBD44445320D1
:1046B0004672653A00000000140000202DE9F04F1A
:1046C0002B492C260A46887192884FF4305A4FF4B1
:1046D000285B4FF4487541F6631E2B274FF02A0CD8
:1046E0004FF0F00845F210594FF4A0744FF4F073F6
:1046F000B8B10C80A1F802804A4532D1A1F808A0D7
:10470000A1F80AB0380288810D804B80A2F5A6403E
:10471000103801D10B804C80BDE8F04F002002F032
:104720004DBBA1F800804C804A4507D1A1F808A0F4
:10473000A1F80AB04FF42C50888105E072450E8133
:1047400005D14F81A1F80CC00B804D8002E0A1F88B
:104750000AC08F81A2F5A6401038DDD10C804B80B5
:10476000DAE70E81A1F80AC072458F81CCD0CDE77F
:10477000884300202DE9F0419046304A0D4604461A
:10478000060A918810462F0A4089A1F5AA43103BDA
:104790000FD0A1F5C853633B24D002F02DFD304665
:1047A00002F01EFDE0B202F01BFD908902F024FD34
:1047B00036E002F021FD304602F012FD5089401C27
:1047C00080B202F019FDE0B202F00AFD908902F019
:1047D00013FD384602F004FD9089401C80B202F0BF
:1047E0000BFD20E0917919B91188091B491E8CB283
:1047F00002F002FD260A304602F0F2FCE0B202F0BE
:10480000EFFC304602F0ECFCE0B202F0E9FC9089EB
:1048100002F0F2FC384602F0E3FCE8B202F0E0FC01
:10482000384602F0DDFCE8B202F0DAFC04491089F7
:104830000880891CA1F80080BDE8F0818843002031
:10484000FE07006C2DE9F04FFF488FB04FF020417C
:104850000160FE490622C0E9011200211023C16057
:10486000C0E9041381611B02C161C0E909139B0007
:10487000C0E90B13416381631A20CDE908100D9143
:104880000792032003918DE8070006916A4607A965
:10489000ED48FFF73FF9322003F056FFD32002F036
:1048A000ABFC02F05BFAE84C4834A08002F056FA08
:1048B000A08002F053FA4FF6FF7505EA0020A080B1
:1048C00002F04CFAA18849F241370843A08041F632
:1048D000631847F2897645F2103945F2105A4FF4C1
:1048E000704BB84271D0042002F086FC02F036FA18
:1048F000A08002F033FAA08002F030FA05EA00202E
:10490000A08002F02BFAA1880843A0F50541A08001
:1049100052397DD0B04258D0D42002F06DFC02F064
:104920001DFAA08002F01AFAA08002F017FA05EA38
:104930000020A08002F012FAA1880843A080484518
:1049400043D05521584602F06DFCAA214FF20100D8
:1049500002F068FC52214FF2020002F063FC0821D1
:104960004FF2030002F05EFC01214FF2040002F05E
:1049700059FC4FF4454002F03FFC02F0EFF905EA24
:104980000020A0804CF2015002F036FC02F0E6F963
:10499000A1880843A080322003F0D6FEA1885145AB
:1049A00013D0A12002F028FC02F0D8F9A08002F078
:1049B000D5F905EA0020A08002F0D0F9A1880843CB
:1049C000A0F5AE41A08061397ED0A088B8427CD1EC
:1049D000CF2002F011FC002002F002FCC12002F006
:1049E000FFFB302002F0FCFBED2002F005FC642010
:1049F00002F0F6FB032002F0F3FB122002F0F0FBC2
:104A0000812002F0EDFBE82002F0F6FB852000E0BB
:104A1000F5E002F0E5FB102002F0E2FB7A2002F064
:104A2000DFFBCB2002F0E8FB392002F0D9FB2C2081
:104A300002F0D6FB002002F0D3FB342002F0D0FBC2
:104A4000022002F0CDFBF72002F0D6FB202002F07E
:104A5000C7FBEA2002F0D0FB002002F0C1FB0020DF
:104A600002F0BEFBC02002F0C7FB1B2002F0B8FB27
:104A7000C12002F0C1FB012002F0B2FBC52002F010
:104A8000BBFB302002F0ACFB302002F0A9FBC720BA
:104A900002F0B2FBB72002F0A3FB362002F0ACFB21
:104AA000482002F09DFB3A2002F0A6FB552002F0C0
:104AB00097FBB12002F0A0FB002002F091FB1A202E
:104AC00002F08EFBB62001E09BE09EE002F094FB3A
:104AD0000A2002F085FBA22002F082FBF22002F005
:104AE0008BFB002002F07CFB262002F085FB0120DE
:104AF00002F076FBE02002F07FFB0F2002F070FB5B
:104B00002A2002F06DFB282002F06AFB082002F048
:104B100067FB0E2002F064FB082002F061FB5420CA
:104B200002F05EFBA92002F05BFB432002F058FB81
:104B30000A2002F055FB0F2002F052FB002002F089
:104B40004FFB002002F04CFB002002F049FB00204C
:104B500002F046FBE12002F04FFB002002F040FB98
:104B6000152002F03DFB172002F03AFB072002F06F
:104B700037FB112002F034FB062002F031FB2B2022
:104B800002F02EFB562002F02BFB3C2002F028FB0B
:104B9000052002F025FB102002F022FB0F2002F07E
:104BA0001FFB3F2002F01CFB3F2002F019FB0F20EF
:104BB00002F016FB2B2002F01FFB002002F010FB7E
:104BC000002002F00DFB012002F00AFB3F2002F062
:104BD00007FB2A2002F010FB002002F001FB00205E
:104BE00002F0FEFA002002F0FBFAEF2002F0F8FAE1
:104BF000112002F001FB782003F0A6FDDDE0A68085
:104C000005E0A4F8048001F0DABFB0427ED11120A3
:104C100002F0F2FA782003F097FD362002F0ECFA69
:104C2000002002F0DDFA3A2002F0E6FA052002F058
:104C3000D7FAB22002F0E0FA0C2002F0D1FA0C20F0
:104C400002F0CEFA002003E040430020040100A05F
:104C500002F0C6FA332002F0C3FA332002F0C0FAA1
:104C6000B72002F0C9FA352002F0BAFABB2002F0F0
:104C7000C3FA322002F0B4FAC02002F0BDFA0C20D0
:104C800002F0AEFAC22002F0B7FA012002F0A8FA50
:104C9000C32002F0B1FA102002F0A2FAC42002F000
:104CA000ABFA202002F09CFAC62002F0A5FA0F20F1
:104CB00002F096FAD02002F09FFAA42002F090FAB7
:104CC000A12002F08DFAE02002F096FAD02002F046
:104CD00087FA002002F084FA022002F081FA07200D
:104CE00002F07EFA0A2002F07BFA282002F078FA1D
:104CF000322002F075FA442002F072FA422002F0EB
:104D00006FFA062002F06CFA0E2000E058E002F084
:104D100067FA122002F064FA142002F061FA1720F8
:104D200002F05EFAE12002F067FAD02002F058FAB1
:104D3000002002F055FA022002F052FA072002F099
:104D40004FFA0A2002F04CFA282002F049FA3120EA
:104D500002F046FA542002F043FA472002F040FAEB
:104D60000E2002F03DFA1C2002F03AFA172002F061
:104D700037FA1B2002F034FA1E2002F031FA2A2002
:104D800002F03AFA002002F02BFA002002F028FA92
:104D9000002002F025FAEF2002F022FA2B2002F088
:104DA0002BFA002002F01CFA002002F019FA012070
:104DB00002F016FA3F2002F013FA292001F0FABEA1
:104DC00048457CD1ED2002F017FA012002F008FAE4
:104DD000FE2002F005FAEE2002F00EFADE2002F0CC
:104DE000FFF9212002F0FCF9F12002F005FA012080
:104DF00002F0F6F9DF2002F0FFF9102002F0F0F9DE
:104E0000C42002F0F9F98F2002F0EAF9C62002F07E
:104E1000F3F9002002F0E4F9E22002F0E1F9E220E7
:104E200002F0DEF9E22002F0DBF9BF2002F0E4F943
:104E3000AA2002F0D5F9B02002F0DEF90D2002F030
:104E4000CFF9002002F0CCF90D2002F0C9F90020C2
:104E500002F0C6F9112002F0C3F9002002F0C0F9F7
:104E6000192002F0BDF9002002F0BAF9212002F069
:104E7000B7F9002002F0B4F92D2002F0B1F90020BA
:104E800002F0AEF93D2002F0ABF9002002F0A8F9E3
:104E90005D2002F0A5F9002002F0A2F95D2002F0E9
:104EA0009FF9002002F09CF9B12002F0A5F98020C2
:104EB00002F096F9002002F093F98B2000E0FCE369
:104EC00002F08EF9002002F08BF9962002F088F9AA
:104ED000002002F085F9B22002F08EF9002002F0E5
:104EE0007FF9002002F07CF9022002F079F900201D
:104EF00002F076F9032002F073F9002002F070F955
:104F0000B32002F079F9002002F06AF9002002F0E3
:104F100067F9002002F064F9002002F061F9002036
:104F200002F05EF9002002F05BF9002002F058F96F
:104F3000002002F055F9002002F052F9002002F0A2
:104F40004FF9002002F04CF9002002F049F900204E
:104F500002F046F9002002F043F9002002F040F987
:104F6000002002F03DF9002002F03AF9002002F0A2
:104F700037F9002002F034F9002002F031F9002066
:104F800002F02EF9002002F02BF9002002F028F99F
:104F9000002002F025F9B42002F02EF98B2002F057
:104FA0001FF9002002F01CF9962002F019F90020E8
:104FB00002F016F9A12002F013F9002002F010F916
:104FC000B52002F019F9022002F00AF9002002F0DF
:104FD00007F9032002F004F9002002F001F904208F
:104FE00002F0FEF8002002F0FBF8B62002F004F90F
:104FF000002002F0F5F8002002F0F2F8B72002F0ED
:10500000FBF8002002F0ECF8002002F0E9F83F2065
:1050100002F0E6F8002002F0E3F85E2002F0E0F88B
:10502000002002F0DDF8642002F0DAF8002002F03F
:10503000D7F88C2002F0D4F8002002F0D1F8AC2090
:1050400002F0CEF8002002F0CBF8DC2002F0C8F825
:10505000002002F0C5F8702002F0C2F8002002F033
:10506000BFF8902002F0BCF8002002F0B9F8EB2065
:1050700002F0B6F8002002F0B3F8DC2002F0B0F83D
:10508000002002F0ADF8B82002F0B6F8002002F0DF
:10509000A7F8002002F0A4F8002002F0A1F80020F8
:1050A00002F09EF8002002F09BF8002002F098F831
:1050B000002002F095F8002002F092F8BA2002F0E9
:1050C0009BF8242002F08CF8002002F089F80020E0
:1050D00002F086F8002002F083F8C12002F08CF87C
:1050E000202002F07DF8002002F07AF8542002F02F
:1050F00077F8002002F074F8FF2002F071F8002029
:1051000002F06EF8C22002F077F80A2002F068F888
:10511000002002F065F8042002F062F8002002F09E
:105120005FF8C32002F068F83C2002F059F8002034
:1051300002F056F83A2002F053F8002002F050F83E
:10514000392002F04DF8002002F04AF8372002F032
:1051500047F8002002F044F83C2002F041F800201B
:1051600002F03EF8362002F03BF8002002F038F85A
:10517000322002F035F8002002F032F82F2002F041
:105180002FF8002002F02CF82C2002F029F8002043
:1051900002F026F8292002F023F8002002F020F87F
:1051A000262002F01DF8002002F01AF8242002F058
:1051B00017F8002002F014F8242002F011F8002063
:1051C00002F00EF8232002F00BF8002002F008F89D
:1051D0003C2002F005F8002002F002F8362001F031
:1051E000FFFF002001F0FCFF322001F0F9FF00205A
:1051F00001F0F6FF2F2001F0F3FF002001F0F0FF97
:105200002C2001F0EDFF002001F0EAFF292001F041
:10521000E7FF002001F0E4FF262001F0E1FF00207D
:1052200001F0DEFF242001F0DBFF002001F0D8FFB9
:10523000242001F0D5FF002001F0D2FF232001F04F
:10524000CFFF002001F0CCFFC42001F0D5FF622089
:1052500001F0C6FF002001F0C3FF052001F0C0FFF0
:10526000002001F0BDFF842001F0BAFF002001F012
:10527000B7FFF02001F0B4FF002001F0B1FF1820CB
:1052800001F0AEFF002001F0ABFFA42001F0A8FF69
:10529000002001F0A5FF182001F0A2FF002001F07E
:1052A0009FFF502001F09CFF002001F099FF0C208F
:1052B00001F096FF002001F093FF172001F090FF0E
:1052C000002001F08DFF952001F08AFF002001F001
:1052D00087FFF32001F084FF002001F081FFE6202A
:1052E00001F07EFF002001F07BFFC52001F084FF6C
:1052F000322001F075FF002001F072FF442001F020
:105300006FFF002001F06CFF652001F069FF0020B5
:1053100001F066FF762001F063FF002001F060FFDE
:10532000882001F05DFF002001F05AFFC62001F047
:1053300063FF202001F054FF002001F051FF1720EF
:1053400001F04EFF002001F04BFF012001F048FF6B
:10535000002001F045FFC72001F04EFF002001F0C2
:105360003FFF002001F03CFF002001F039FF00204A
:1053700001F036FFC82001F03FFF002001F030FFB0
:10538000002001F02DFF002001F02AFF002001F095
:1053900027FFC92001F030FF002001F021FF00208D
:1053A00001F01EFF002001F01BFF002001F018FF9C
:1053B000002001F015FF002001F012FF002001F095
:1053C0000FFF002001F00CFF002001F009FF00207A
:1053D00001F006FF002001F003FF002001F000FFB4
:1053E000002001F0FDFE002001F0FAFE002001F097
:1053F000F7FE002001F0F4FEE02001F0FDFE162093
:1054000001F0EEFE002001F0EBFE1C2001F0E8FEB2
:10541000002001F0E5FE212001F0E2FE002001F075
:10542000DFFE362001F0DCFE002001F0D9FE462030
:1054300001F0D6FE002001F0D3FE522001F0D0FE94
:10544000002001F0CDFE642001F0CAFE002001F032
:10545000C7FE7A2001F0C4FE002001F0C1FE8B20BF
:1054600001F0BEFE002001F0BBFE992001F0B8FE65
:10547000002001F0B5FEA82001F0B2FE002001F0EE
:10548000AFFEB92001F0ACFE002001F0A9FEC4205F
:1054900001F0A6FE002001F0A3FECA2001F0A0FE4C
:1054A000002001F09DFED22001F09AFE002001F0C4
:1054B00097FED92001F094FE002001F091FEE0203B
:1054C00001F08EFE002001F08BFEF32001F088FE3B
:1054D000002001F085FEE12001F08EFE162001F093
:1054E0007FFE002001F07CFE1C2001F079FE0020F0
:1054F00001F076FE222001F073FE002001F070FE24
:10550000362001F06DFE002001F06AFE452001F01A
:1055100067FE002001F064FE522001F061FE0020D1
:1055200001F05EFE642001F05BFE002001F058FEF9
:105530007A2001F055FE002001F052FE8B2001F090
:105540004FFE002001F04CFE992001F049FE0020A2
:1055500001F046FEA82001F043FE002001F040FECD
:10556000B92001F03DFE002001F03AFEC42001F018
:1055700037FE002001F034FECA2001F031FE002089
:1055800001F02EFED22001F02BFE002001F028FEBB
:10559000D82001F025FE002001F022FEE02001F0DD
:1055A0001FFE002001F01CFEF32001F019FE002078
:1055B00001F016FEE22001F01FFE052001F010FEB2
:1055C000002001F00DFE0B2001F00AFE002001F08A
:1055D00007FE1B2001F004FE002001F001FE342034
:1055E00001F0FEFD002001F0FBFD442001F0F8FD7C
:1055F000002001F0F5FD4F2001F0F2FD002001F048
:10560000EFFD612001F0ECFD002001F0E9FD7920C3
:1056100001F0E6FD002001F0E3FD882001F0E0FD4F
:10562000002001F0DDFD972001F0DAFD002001F0FF
:10563000D7FDA62001F0D4FD002001F0D1FDB72058
:1056400001F0CEFD002001F0CBFDC22001F0C8FD2D
:10565000002001F0C5FDC72001F0C2FD002001F0CF
:10566000BFFDD12001F0BCFD002001F0B9FDD62026
:1056700001F0B6FD002001F0B3FDDD2001F0B0FD2A
:10568000002001F0ADFDF32001F0AAFD002001F0A3
:10569000A7FDE32001F0B0FD052001F0A1FD0020F1
:1056A00001F09EFD0A2001F09BFD002001F098FD15
:1056B0001C2001F095FD002000E0FDE201F090FDCE
:1056C000332001F08DFD002001F08AFD442001F01F
:1056D00087FD002001F084FD502001F081FD0020B5
:1056E00001F07EFD622001F07BFD002001F078FDDD
:1056F000782001F075FD002001F072FD882001F096
:105700006FFD002001F06CFD972001F069FD002085
:1057100001F066FDA62001F063FD002001F060FDB0
:10572000B72001F05DFD002001F05AFDC22001F01C
:1057300057FD002001F054FDC72001F051FD00206D
:1057400001F04EFDD12001F04BFD002001F048FD9D
:10575000D52001F045FD002001F042FDDD2001F0E3
:105760003FFD002001F03CFDF32001F039FD002059
:1057700001F036FDE42001F03FFD012001F030FD95
:10578000002001F02DFD012001F02AFD002001F094
:1057900027FD022001F024FD002001F021FD2A2038
:1057A00001F01EFD002001F01BFD3C2001F018FD62
:1057B000002001F015FD4B2001F012FD002001F04A
:1057C0000FFD5D2001F00CFD002001F009FD7420AB
:1057D00001F006FD002001F003FD842001F000FD32
:1057E000002001F0FDFC932001F0FAFC002001F004
:1057F000F7FCA22001F0F4FC002001F0F1FCB32042
:1058000001F0EEFC002001F0EBFCBE2001F0E8FC12
:10581000002001F0E5FCC42001F0E2FC002001F0D2
:10582000DFFCCD2001F0DCFC002001F0D9FCD3200E
:1058300001F0D6FC002001F0D3FCDD2001F0D0FC0B
:10584000002001F0CDFCF32001F0CAFC002001F0A3
:10585000C7FCE52001F0D0FC002001F0C1FC0020D5
:1058600001F0BEFC002001F0BBFC002001F0B8FC00
:10587000022001F0B5FC002001F0B2FC292001F06B
:10588000AFFC002001F0ACFC3C2001F0A9FC0020A2
:1058900001F0A6FC4B2001F0A3FC002001F0A0FCCD
:1058A0005D2001F09DFC002001F09AFC742001F0C5
:1058B00097FC002001F094FC842001F091FC002072
:1058C00001F08EFC932001F08BFC002001F088FC9D
:1058D000A22001F085FC002001F082FCB32001F041
:1058E0007FFC002001F07CFCBE2001F079FC002050
:1058F00001F076FCC42001F073FC002001F070FC84
:10590000CD2001F06DFC002001F06AFCD32001F0F5
:1059100067FC002001F064FCDC2001F061FC002049
:1059200001F05EFCF32001F05BFC002001F058FC6C
:10593000E62001F061FC112001F052FC002001F092
:105940004FFC342001F04CFC002001F049FC5620B3
:1059500001F046FC002001F043FC762001F040FC01
:10596000002001F03DFC772001F03AFC002001F01E
:1059700037FC662001F034FC002001F031FC882067
:1059800001F02EFC002001F02BFC992001F028FCF6
:10599000002001F025FCBB2001F022FC002001F0DA
:1059A0001FFC992001F01CFC002001F019FC66206E
:1059B00001F016FC002001F013FC552001F010FC52
:1059C000002001F00DFC552001F00AFC002001F040
:1059D00007FC452001F004FC002001F001FC4320FD
:1059E00001F0FEFB002001F0FBFB442001F0F8FB7E
:1059F000002001F0F5FBE72001F0FEFB322001F072
:105A0000EFFB002001F0ECFB552001F0E9FB00204A
:105A100001F0E6FB762001F0E3FB002001F0E0FB63
:105A2000662001F0DDFB002001F0DAFB672001F0C9
:105A3000D7FB002001F0D4FB672001F0D1FB002050
:105A400001F0CEFB872001F0CBFB002001F0C8FB6A
:105A5000992001F0C5FB002001F0C2FBBB2001F042
:105A6000BFFB002001F0BCFB992001F0B9FB002036
:105A700001F0B6FB772001F0B3FB002001F0B0FB92
:105A8000442001F0ADFB002001F0AAFB562001F0FC
:105A9000A7FB002001F0A4FB232001F0A1FB0020C4
:105AA00001F09EFB332001F09BFB002001F098FBEE
:105AB000452001F095FB002001F092FBE82001F069
:105AC0009BFB002001F08CFB002001F089FB99205A
:105AD00001F086FB002001F083FB872001F080FBB2
