:020000040800F2
:1000000018140020450100086F6F0008193B000814
:100010006D6F0008EF0E00089583000800000000D7
:1000200000000000000000000000000057720008FF
:100030000B120008000000005572000859720008F9
:100040005F0100085F0100085F0100085F01000810
:100050005F0100085F0100085F0100085F01000800
:100060005F0100085F0100085F010008BD11000882
:100070005F0100085F0100085F010008C911000866
:100080005F0100085F0100085F0100085F010008D0
:100090005F0100085F0100085F0100085F010008C0
:1000A0005F0100085F0100085F0100085F010008B0
:1000B0005F0100085F0100085F0100085F010008A0
:1000C0005F0100085F0100085F0100085F01000890
:1000D0005F010008058300085F0100085F01000858
:1000E0005F0100085F0100085F0100085F01000870
:1000F0005F0100085F0100085F0100085F01000860
:100100005F0100085F0100085F0100085F0100084F
:100110005F0100085F010008D97200085F01000854
:100120005F0100085F010008D51100085F010008A9
:10013000DFF80CD000F0CAFC00480047218D000811
:10014000181400200648804706480047FEE7FEE7EF
:10015000FEE7FEE7FEE7FEE7FEE7FEE7FEE7FEE777
:10016000D7720008310100082DE9F05F0546002034
:1001700092469B4688460646814640241BE0284618
:1001800041464746224600F02FF853465A46C01AC9
:10019000914110D311461846224600F016F82D1A48
:1001A00067EB01084F4622460120002100F00DF8C0
:1001B00017EB00094E41201EA4F10104DFDC484684
:1001C00031462A464346BDE8F09F202A04DB203A08
:1001D00000FA02F1002070479140C2F1200320FA9A
:1001E00003F3194390407047202A04DB203A21FA98
:1001F00002F00021704721FA02F3D040C2F1200240
:100200009140084319467047202A06DBCB17203A55
:1002100041FA02F043EAE07306E041FA02F3D0400B
:10022000C2F120029140084319467047D2B201E062
:1002300000F8012B491EFBD270470022F6E710B5EB
:1002400013460A4604461946FFF7F0FF204610BD44
:1002500010B5002200E0521C835C8C5CA34201D1EB
:10026000002BF8D1D8B2E1B2401A10BDF0B480EA48
:100270000102D40F4200B2EB410F02D202460846FF
:1002800011464A0042D0C30DDDB2C1F3C752AD1AC8
:10029000202D35DAC1F3160141F4000204B15242B7
:1002A000C5F1200602FA06F12A411044B3EBD05FF3
:1002B00023D0C4B1012DA0EBC35009DCF0BC4FF03A
:1002C000004202EAC352DBB200F5000000F009BBB5
:1002D000400000F1807000EBC350A0F1807040EA54
:1002E000D170490009E0490841EAC071A0EBC35050
:1002F00000F50000400800EBC350F0BC00F0E8BA85
:100300006142012202EB4101001BF6E7F0BC70479D
:1003100081F00041AAE780F00040A7E780EA0102EF
:1003200010B502F00043400022D04A001FD0010E59
:1003300001EB1261C0F35600C2F3560240F4000014
:1003400042F40002A0FB022000047F39140400D014
:10035000401C50EA124001D44000491EC2B20C06B3
:1003600004EBD010401C4008802A02D003E000209B
:1003700010BD20F00100002900DA0020184310BD54
:1003800030B480EA010202F0004530F0004221F072
:10039000004013D090B1C30DD40DC2F31601C0F3C9
:1003A0001600E41A41F4000140F400027D34914249
:1003B00001D3641C00E04900002C02DA30BC0020AC
:1003C00070474FF400000023914201D3891A034380
:1003D00040084FEA4101F7D151B1914202D14FF0AB
:1003E000004105E002D24FF0010101E06FF0010190
:1003F00003EBC450284430BC00F06ABA420005D078
:10040000C0F3C7525242914201DC0020704700EB1A
:10041000C15070472DE9FE4F804681EA0300C00FAE
:100420000C46009021F0004123F00045B8EB02009B
:10043000A94105D24046214690461C460B4602463D
:1004400023F00040104347D0270DC7F30A00C3F341
:100450000A510290401A019040286BDAC3F313004E
:1004600040F4801B0098924620B10023D2EB030A8F
:1004700063EB0B0B01985946C0F140025046FFF761
:10048000A4FE06460D4650465946019AFFF7BCFEAB
:1004900010EB08006141002487EA115284EAE773F7
:1004A0001A4340D0009A62B3019A012A4FEA0752D8
:1004B00015DC001B61EB02014FF0004202EA07521B
:1004C000CDE90042001C41F5801132462B4600F078
:1004D00045FA03B0BDE8F08F40462146F9E7001B1E
:1004E00061EB0201001C41F5801300185B412018EC
:1004F000A2F5001747EB030140EAD570B6196D412C
:1005000011E06D084FEA360645EAC0754FEA07521A
:10051000001B61EB0201001C41F5801149084FEA04
:1005200030000019514132462B4603B0BDE8F04F70
:1005300000F005BA0098012240000023D0EB02022F
:1005400063EBE073009821464FEAE074B8EB0000DB
:1005500061EB0401E9E783F000435BE781F00041D0
:1005600058E72DE9FE4F81EA030404F0004421F02E
:10057000004100944FF0000B23F0004350EA0104C7
:100580005ED052EA03045BD0C3F30A54C1F30A55A8
:100590002C44A4F2F3340194A0FB0254C1F31301E0
:1005A00041F48011C3F3130343F4801301FB0244AD
:1005B00000FB034E840A970A44EA815447EA8357B2
:1005C000A4FB076802958D0A05FB07854FEA932C6B
:1005D00004FB0C542705029D4FEA065847EA1637DC
:1005E000B5EB08056EEB070C870E920E47EA8117F4
:1005F00042EA8312A7FB0201B6EB0B0164EB000495
:100600002B0D43EA0C335E1844EB1C50DA4651467E
:10061000E7FB0201C5F313044FEA0B3343EA14531B
:100620004FEA0432019C43EA0603A4F10C0402944D
:10063000009CCDE900B400F091F903B0BDE8F08F63
:1006400000200146F9E72DE9F04D81EA030404F0AA
:10065000004B21F0004514464FF0000A23F0004102
:1006600050EA050220D054EA01021DD0C5F30A5712
:100670000246C5F31303C1F31300C1F30A5640F455
:10068000801543F48013A7EB0608101BD64608F22A
:10069000FD3873EB050002D308F1010801E0921860
:1006A0005B41B8F1000F03DA00200146BDE8F08D90
:1006B00000204FF48011064684460EE0171B73EBB2
:1006C000050705D3121B63EB050306434CEA010C37
:1006D00049084FEA300092185B4150EA0107EDD11A
:1006E00052EA030012D082EA040083EA05010843BB
:1006F00005D0101BAB4106D20122002306E00022E8
:100700004FF0004302E06FF0010253101AEB0600B5
:100710004CEB085110EB0A0041EB0B01BDE8F04D2A
:1007200000F00DB9C10F80EAE0700844CA079623B3
:10073000002100F0D6B896230022114600F0D1B86F
:100740000EB540F2334102910021CDE900110A4675
:100750000B4600F003F903B000BD00F0004220F0AA
:100760000040C10DC0F3160040F400007F2901DAFB
:1007700000207047962903DCC1F19601C84001E0D2
:1007800096398840002AF4D04042704720F000405B
:10079000C10DC0F3160040F400007F2901DA0020EB
:1007A0007047962903DCC1F19601C840704796391D
:1007B00088407047C1F30A5210B5C1F3130140F2EB
:1007C000FF3341F480119A4201DA002010BD40F25B
:1007D00033439A42A2F2334203DC5242FFF704FD54
:1007E00010BD904010BD00F0004230F000400AD033
:1007F000C10D01F56071C0F3160042EA0151C20853
:1008000040071143704700200146704730B5041E71
:1008100071F1000404DB4FF00044404264EB01013D
:10082000141E73F1000405DB1C464FF000435242D6
:1008300063EB04038B4208BF824230BD30B5041E17
:1008400071F1000404DB4FF00044404264EB01010D
:10085000141E73F1000405DB1C464FF000435242A6
:1008600063EB0403994208BF904230BD01F000439E
:1008700030B421F0004150EA010206D00A0DA2F581
:100880006072C1F31301002A02DC30BC0020704703
:10089000440F44EAC104C100E01830BC00EBC25070
:1008A00000F016B830B50B46014600202022012486
:1008B00009E021FA02F59D4205D303FA02F5491B2E
:1008C00004FA02F52844151EA2F10102F1DC30BD44
:1008D0000029A8BF7047401C490008BF20F0010054
:1008E000704710B4B0FA80FC00FA0CF050EA010432
:1008F00004BF10BC704749B1CCF1200421FA04F4C4
:1009000011FA0CF118BF012121430843A3EB0C019C
:10091000CB1D4FEA00614FEA102042BF002010BCFF
:10092000704700EBC35010440029A4BF10BC7047AF
:10093000401C490008BF20F0010010BC704710B5F2
:10094000141E73F1000408DA401C41F100019218F2
:100950005B411A4301D120F0010010BD2DE9F04D9B
:1009600092469B4611B1B1FA81F202E0B0FA80F2F0
:1009700020329046FFF729FC04460F4640EA0A0061
:1009800041EA0B0153465A46084313D0114653EA35
:10099000010019D0C8F140025046FFF725FC05467A
:1009A0000E46504659464246FFF70FFC084305D015
:1009B000012004E020463946BDE8F08D00200543C3
:1009C00046EAE0762C4337430A986305E40AA0EB35
:1009D00008000022FD0A44EA47540A3002D50020EC
:1009E0000146E9E7010510196941DDE908450019EB
:1009F0006941BDE8F04DA2E72DE9F04D00231A460C
:100A00001B1A8A4103DB00200146BDE8F08DC1F3CB
:100A10000A52C1F3130141F480154FF0000BD107C6
:100A200002D100186D41521E0027044640F2FF110A
:100A3000384601EB620A3E468046024600204FF4EB
:100A40008011FFF7D1FBC2197141BB1846EB0100C1
:100A5000B4EB030C75EB000C04D3E41A65EB000552
:100A600017460E46241908F101006D4180463428CE
:100A7000E3DDF91946EB0600091BA84103D24FF04C
:100A8000FF32134601E0002213461BEB070046EB42
:100A90000A51BDE8F04DFFF752BFC1F30A52C1F34E
:100AA000130140F2FF3341F480119A4202DA002030
:100AB0000146704740F233439A42A2F2334202DCCD
:100AC0005242FFF791BBFFF780BB0000064C074D79
:100AD00006E0E06840F0010394E80700984710340E
:100AE000AC42F6D3FFF728FBA4A70008C4A7000870
:100AF00070B5224C00224FF48051204601F0BFFE19
:100B000000226115204601F0BAFE25150022294673
:100B1000204601F0B4FE0122D6023146204601F003
:100B2000AEFE642008F0D6F800223146204601F0DF
:100B3000A6FE00228021124801F0A1FE0022A1158C
:100B4000204601F09CFE072000F058F8002000F03D
:100B500055F80A2000F052F8002000F04FF860200D
:100B600000F04CF801222946204601F088FE294673
:100B70002046BDE87040002201F081BE0010014017
:100B8000000801402DE9F0410E46002500F0C8FDA7
:100B90000624184F00E015B9022000F02FF8641E5B
:100BA000E4B2385D00F02AF86D1CEDB2002CF2D1F1
:100BB000082000F023F8340A204600F01FF8F0B2B5
:100BC00000F01CF8092000F019F8204600F016F893
:100BD000F0B200F013F80122074D94022146284696
:100BE00001F04DFE21462846BDE8F041002201F00B
:100BF00046BE00008C000020001001402DE9F041AD
:100C00000824DFF84080104F0546A601280601D5CC
:100C1000012200E000222021404601F030FE68065B
:100C2000050E00223146384601F029FE01223146E8
:100C3000384601F024FE641E14F0FF04E6D1BDE83E
:100C4000F0810000000801400010014070B504462A
:100C500000688168C943C90717D1816821F0010183
:100C6000816001F011FE05460AE000BF01F00CFEB4
:100C7000401B022804D920688068C043C00706D002
:100C800020688068C043C007F0D0002070BDA06A13
:100C900040F01000A062E06A40F00100E062012034
:100CA00070BD00002DE9FC4700213A4801F0A9F988
:100CB000394C82B2002622811025CDE9005604234A
:100CC00078215E2005F00BFF2089FFF739FDDFF862
:100CD000CCA04FF0663842465346FFF742FCFFF780
:100CE000C5FD0746FFF752FD2081CDE900560246BB
:100CF00001238C215E2005F0F2FE2089FFF71BFD09
:100D00003946FFF708FBDFF898904946FFF706FBE6
:100D1000FFF73CFD8027CDE90057024603238C21D5
:100D20006E2005F0DCFE1F4801F008F880B2FFF7E6
:100D300007FD42465346FFF714FCFFF797FD804638
:100D4000FFF724FD2081CDE9005602460123A021B2
:100D50005E2005F0C4FE2089FFF7EDFC4146FFF759
:100D6000DAFA4946FFF7DAFAFFF710FDCDE9005746
:100D700002460323A0216E2005F0B1FE0A48CDE90A
:100D8000005702880323B4216E2005F0A8FEBDE8B9
:100D9000FC870000100100201800002066664A3F12
:100DA00000007A449C00002000000020F8B50026D6
:100DB0000446009600688168C943C9072DD0816840
:100DC00041F001018160164816490068B0FBF1F05E
:100DD00000E0401E00900028FBD101F055FD0546C3
:100DE00016E000BF01F050FD401B022810D920681A
:100DF0008068C043C0070BD0A06A40F01000A0621A
:100E0000E06A40F00100E06284F824600120F8BD4F
:100E100020688068C043C007E4D10020F8BD00000E
:100E20003000002040420F0002F098BE70B514461A
:100E30000D46064608E03046711C8EB200F007F8F9
:100E4000641E05F8010BA4B2002CF4D170BD10B5DE
:100E5000044602F02DFF200AA02101EB4000C0B2A1
:100E600002F0F6FE02F066FFE0B202F0F1FE02F0E0
:100E700061FF02F01DFFA12002F0EAFE02F05AFF1E
:100E8000002002F0AFFE044602F032FF204610BD03
:100E900070B516460C46054606E02178284600F057
:100EA00007F86D1CADB2641C761EB6B2F5D270BDEB
:100EB00070B50D46044602F0FBFE200AA02101EBAE
:100EC0004000C0B202F0C4FE02F034FFE0B202F013
:100ED000BFFE02F02FFF284602F0BAFE02F02AFF02
:100EE00002F006FFBDE870400A2007F0E4BEFEE70E
:100EF00070B50F4C0025C4F884510E48016821F0EC
:100F0000F0010160016841F030010160052004F545
:100F1000C27407F0DFFE0848C0F8A451052007F0AE
:100F2000D9FE01202060052007F0D4FE256070BDA9
:100F300000802142041C014000802342154810B566
:100F4000816986B041F008018161816901F0080181
:100F50000491816941F0800181618069012400F080
:100F6000800004900220CDE900040320CDE9024076
:100F70006946094801F082FB600200906946074813
:100F800001F07CFB0648C0F884410648C0F8A44143
:100F900006B010BD00100240000C0140001C0140D2
:100FA000008021420080234270B50F4C0025C4F818
:100FB00084510E48016821F0F0010160016841F0A0
:100FC00030010160052004F5C27407F083FE084873
:100FD0000126C0F8A461052007F07CFE26600520EC
:100FE00007F078FE256070BD00802142041C01409E
:100FF000008023422DE9F047824619480024016809
:1010000021F0F0010160016841F0800101601E20C3
:1010100007F060FE0025134EDFF84C902F464FF08E
:10102000010800BFC6F88471052007F053FEC6F81A
:1010300084816006040ED9F8240108B1641CE4B26E
:101040006D1CEDB2082DEDD3BAF1000F04D0FFF7FF
:101050004FFF2046BDE8F087FFF7A6FFF9E7000045
:10106000041C014000802142008023422DE9F0470A
:1010700006461548016821F0F0010160016841F061
:1010800030010160114D0027C5F88471052007F07B
:1010900021FEDFF83C8000244FF00109F109C8F877
:1010A000A4117006060EC5F88491052007F012FE03
:1010B000C5F88471052007F00DFE641CE4B2082C0D
:1010C000ECD3BDE8F0870000041C01400080214201
:1010D0000080234270B50F48016821F0F0010160E3
:1010E000016841F0300101600B4C0120C4F8A401FB
:1010F0000A4DC5F884011E2004F5D27405F5C275A9
:1011000007F0E8FD00262660052007F0E3FD2E60CD
:1011100070BD0000041C0140008023420080214279
:1011200070B50D48016821F0F0010160016841F0DF
:101130003001016009480125C0F884511E2007F0E4
:10114000C9FD074C0020C4F8A401052004F5D274A1
:1011500007F0C0FD256070BD041C014000802142E5
:101160000080234270B512480024016821F0F0018C
:101170000160016841F0800101600E4E0120C6F857
:10118000A4010D4DC5F8840107E0641CE4B2FA2CFB
:1011900003D9FFF7C5FF012070BD052007F09AFDB8
:1011A000D6F824010028F0D1C5F8840170BD0000F4
:1011B000041C01400080234200802142014801F0CC
:1011C00083B80000CC000020014801F07DB8000089
:1011D00034030020014801F077B80000240100200A
:1011E00030B590F840500124AC40C56B6C60046889
:1011F00063604368102B036803D099600068C26085
:1012000030BD9A600068C16030BD704772B6FEE7BD
:1012100030B5B3F5804F05D06FF0704140F8221023
:10122000002030BD8C690B688D6823434C68898928
:10123000240144EA0524234343EA014150F82230C3
:10124000014C23401943E9E70000F0CF10B50A68CC
:1012500050F8223023F0010340F822308C68082C2B
:1012600023D000234A682243CC681C430B692243E5
:101270001A434B690E4C1A43CB691A430B6A1A4343
:101280004B6A1A438B6A1A43CB6A1A430B6B1A4395
:101290008B6913434A6B09681A4350F82130A34302
:1012A000134340F82130002010BD4023DAE700004E
:1012B0007FFF0F0030B5D1E9003443EA04138C6896
:1012C0008D89240244EA054423430C8A094D00EB2E
:1012D000820005EB045423430C7D6D0105EB04648F
:1012E000896923430B43416801F040410B4343604C
:1012F000002030BD0000F0FF70B5444888B081691F
:1013000041F0800181618069012500F08000069034
:101310004FF40060CDE902050320CDE904503C4EB6
:1013200002A9304601F0AAF9A8020024CDE902047E
:1013300002A9304601F0A2F9FFF700FE354EC6F8CB
:10134000AC41142006F5D67607F0B5FC35603220A6
:1013500007F0B1FC8DF8004001226946002000F042
:10136000BBF901226946A42000F0B6F916208DF8D9
:10137000000001226946802000F0AEF90C208DF8B3
:10138000000001226946882000F0A6F90222694681
:10139000A12000F04FF89DF80000302803D19DF8FF
:1013A000010003282BD00422694648F2401000F0C7
:1013B0009BFA8DF80440694617A006F0EDFF194826
:1013C000009948F24005C0F8021002208DF8000094
:1013D00001226946284600F09DFB01226946E81D6E
:1013E00000F082FA0A2007F066FC8DF80040012226
:1013F0006946284600F08EFB08B0002070BD43F21D
:10140000030109A006F0C8FFF6E700000010024043
:10141000001C0140008023424354502049443A2597
:10142000730D0A00740000204354502049443A25AB
:10143000780D0A002DE9F04115460E460446FFF7E7
:1014400049FE7020FFF712FEFFF78CFEE0B2FFF7B7
:101450000DFEFFF787FEFFF73DFE7120FFF706FE4A
:10146000FFF780FE00246F1E09E0BC4201D001207E
:1014700000E00020FFF7BEFD3055641CE4B2AC4232
:10148000F3D3BDE8F041FFF74BBE00002DE9F14773
:1014900083B000268B4D8DF804604FF00A09687800
:1014A000894C401CC0B2B0FBF9F209FB120137466F
:1014B000687009B10A2871D2824884A1801CFEF7A5
:1014C000C7FE4FF0010203A910B30220FFF7B2FFDD
:1014D0009DF80C00010761D0297800F00F028A42C4
:1014E0005CD8FF209040C04394F8208040F0C000BA
:1014F00084F8200004EB4100A2894281E18A8182C4
:10150000042007F0D8FB8DF80460DFF8C4A185E063
:1015100048F24E18404600F0E7F99DF80C0001062D
:10152000D6D5297800F00F008842D1D88DF8046014
:10153000012201A9404600F0EDFAC9E794F8201015
:1015400001228240114264D05E4860A1801CFEF7F7
:101550007FFE20B35F489DF80410042230F811008C
:101560006946FFF767FF94F830009DF80010C00748
:101570009DF8010001F00F0100EB012138D09DF82A
:10158000040004EB4000C1829DF802209DF8031086
:1015900002F00F0201EB022181813AE059E04D484F
:1015A0009DF804100A30042230F81100694600F05A
:1015B0009BF994F830009DF80110C0079DF80000D9
:1015C00000EB01219DF8040004EB400005D081816F
:1015D0009DF802109DF8032018E0C1829DF80210CA
:1015E0009DF8032001EB0222BAF80010891AD3E714
:1015F000BAF80000411A9DF8040004EB4000818114
:101600009DF802209DF8031002F00F0201EB022169
:10161000C1829DF80400401C8DF804009DF8040070
:10162000297888428AD3A189BAF8002001279142FB
:1016300004D8E18ABAF80200814209D99DF80C0069
:1016400000F00F00012812D9E089A081208BE082F0
:101650006E701C481DA1801CFEF7FAFD01009DF86C
:101660000C104FF6FF700FD0C90625D01BE028786C
:1016700004EB40004189A181808AE08280208DF8BE
:101680000C0084F82080E4E701F08F01802913D05A
:1016900009E000BF21F0800003E0A081E08201F0BA
:1016A000E00084F820006878F02801D985F80190DE
:1016B00004B03846BDE8F08794F820100A06ECD54F
:1016C000E8E70000740000204000002039313100BC
:1016D000C003002048A600082DE9F04116460F4639
:1016E00004460025FFF7F6FC7020FFF7BFFCFFF76C
:1016F00039FDE0B2FFF7BAFCFFF734FD002408E043
:10170000385DFFF7B3FCFFF72DFD050003D1641C26
:10171000E4B2B442F4D3FFF703FD2846BDE8F081FC
:1017200070B5124AC1B2C0F3072611705670C0F3EB
:1017300007439370040EA2F10805D4702A6805F1DE
:101740000C0051430170090A02FB06114170090A9D
:1017500002FB03118170090A02FB0411C170090A1E
:1017600069600171090A417170BD000088000020A4
:1017700030B585B0002002901248816941F0100117
:101780008161816901F010010491816941F00401D6
:1017900081618069012500F004000490E020CDE91A
:1017A0000005032469460394074800F067FF4FF4DF
:1017B000FE40CDE9000569460394044800F05EFF51
:1017C00005B030BD0010024000080140001001408B
:1017D0002DE9F041374888B0816941F0800181618D
:1017E0008069012500F0800006904FF40060CDE98B
:1017F00000050320CDE90250DFF8BC806946404671
:1018000000F03CFFAE020024CDE90064694640468A
:1018100000F034FFFFF792FB284FC7F8AC410A20D5
:1018200007F5D67707F047FA3D600A2007F043FA3C
:101830000225009669464046CDE9014500F01EFFAD
:10184000642007F038FA042204A948F2401000F09E
:101850004BF88DF8144004A919A006F09DFD1BA1BA
:1018600004A8FEF7F5FC08BB8DF8105048F24005BF
:10187000012204A9284600F04DF9012204A9E81D1F
:1018800000F032F89DF81010602905D211A006F082
:1018900083FD012000F016F90A2007F00CFA8DF8FC
:1018A0001040012204A9284600F034F908B00020B5
:1018B000BDE8F08100100240001C0140008023427E
:1018C0004354502049443A25730D0A0039313437C6
:1018D0000000000044656661756C74205665723ABC
:1018E00025640D0A000000002DE9F04115460E4662
:1018F0000446FFF7EFFB2820FFF7B8FBFFF732FCA9
:10190000200AFFF7B3FBFFF72DFCE0B2FFF7AEFBB9
:10191000FFF728FCFFF7DEFB2920FFF7A7FBFFF707
:1019200021FC00246F1E09E0BC4201D0012000E030
:101930000020FFF75FFB3055641CE4B2AC42F3D3E8
:10194000BDE8F041FFF7ECBB2DE9F147594E00240B
:101950004FF00A0A307885B0401CC0B2B0FBFAF2F2
:101960000AFB1201544DA046307009B10A2878D202
:1019700048F24E19012205A94846FFF7B5FF9DF828
:1019800014004FF0000701060AD500F00F000628EA
:1019900006D28DF8007001226946484600F0BAF878
:1019A0009DF8140001075CD000F00F01062958D201
:1019B000FF2088408DF80000C04395F8209040F04B
:1019C000C00085F82000A889A882E88AE8834FF043
:1019D000010800BF95F8201008FA04F0014225D054
:1019E0003648042202A930F81400FFF77DFF95F86D
:1019F00030009DF80910C0079DF8080000EB012198
:101A000005EB44000AD0C1829DF80A109DF80B2016
:101A100001EB0221C1F54871818107E081819DF8C8
:101A20000A109DF80B2001EB0221C182641CE4B274
:101A3000052CCFD32249AA894FF001080B882846EC
:101A40009A4203D8C28A49888A4209D99DF814105B
:101A500001F00F0101290BD9C1898181018BE98234
:101A600037709DF8140000F08F0080280AD018E02D
:101A7000818A8181C18BC18280218DF8141085F803
:101A80002090EEE795F82000010602D520F08000B6
:101A900005E04FF6FF71A981E98200F0E00085F8CA
:101AA00020003078F02801D986F800A006B0404622
:101AB000BDE8F0877B0000204000002014A700084C
:101AC000C003002008B500218DF800108DF801003A
:101AD0000F4800BF435C9DF80020491C1A44C9B25E
:101AE0008DF80020B829F5D3D0B2C043401C8DF842
:101AF0000000B822064948F2470000F00BF8022225
:101B0000694648F2FF0000F005F8002008BD00001B
:101B10005CA600082DE9F04116460F460446002554
:101B2000FFF7D8FA2820FFF7A1FAFFF71BFB200ADE
:101B3000FFF79CFAFFF716FBE0B2FFF797FAFFF703
:101B400011FB002408E0385DFFF790FAFFF70AFB6D
:101B5000050003D1641CE4B2B442F4D3FFF7E0FA09
:101B60002846BDE8F0810000F8B500250446009540
:101B700090F8240001280BD0012084F8240020468E
:101B8000FFF764F82046FFF711F9060002D050E095
:101B90000220F8BDA06A20F4885040F00200A06244
:101BA000022000F007FF25490968B1FBF0F0400072
:101BB00000E0401E00900028FBD12068816841F0C1
:101BC0000801816000F060FE074608E000F05CFE5E
:101BD000C01B0A2803D920688068000715D4206834
:101BE00080680007F2D42068816841F004018160B8
:101BF00000F04AFE074612E000F046FEC01B0A282D
:101C00000DD920688068400709D5A06A20F002003D
:101C100040F01000A06284F824500120F8BD206834
:101C200080684007E8D4A06A20F0020040F001007C
:101C3000A06284F824503046F8BD00003000002037
:101C4000F8B50024009490F824202546012A12D0EB
:101C5000012280F824204A681F23072A0DD2066833
:101C6000776B521E02EB820293409F430B689340B6
:101C70001F43776319E00220F8BD06680D2A0AD2D7
:101C8000376BD21F02EB820293409F430B68934055
:101C90001F43376309E0F76A0D3A02EB8202934073
:101CA0009F430B6893401F43F7620A680723066847
:101CB0000A2A0AD3F7680A3A02EB420293409F438A
:101CC0008B6893401F43F76008E0376902EB4202DC
:101CD00093409F438B6893401F4337610A68102AE3
:101CE00001D0112A20D1124B02689A4217D1936871
:101CF0001B0219D4936843F4000393600968102908
:101D000012D10C490C4A0968B1FBF2F101EB8101D7
:101D1000490000E0491E00910029FBD104E0816ADE
:101D200041F020018162012480F824502046F8BD52
:101D3000002401403000002040420F000068C06CC9
:101D4000704700002DE9F04104004FF000057FD0FE
:101D5000A06A002628B9E66284F82460204600F0D4
:101D600081F82046FEF772FFA16AC90600D420B1AF
:101D7000A06A40F01000A0626AE0A16A21F48851D4
:101D800041F00201A162334923688B42E16904D129
:101D9000B1F5402F01D14FF40021277B4FF4807C17
:101DA00041EA470261680A43A168614508D00129F8
:101DB00006D0002194F814E0BEF1010F02D00AE031
:101DC0006146F7E7C7B1A76A47F02007A762E76A4D
:101DD00047F00107E7625F6827F469470F435F60D8
:101DE000236899681C4F394011439960A168614587
:101DF0000BD0012909D00CE0DFF860E0A7690EEBF9
:101E000047370F4347F40061E5E7218A0D05A5F543
:101E100080152168CB6A23F470032B43CB622168C1
:101E200089680F4B1940914208D1E662A16A21F0FE
:101E3000020141F00101A162BDE8F081A06A20F039
:101E4000020040F01000A062E06A40F00100E06291
:101E50000120F1E7003C0140FDF7E1FF00E0FFFF5A
:101E6000FE0E1FFF70B586B0002506460095019551
:101E70000295039500681A4988422FD1194988694B
:101E800040F400708861886900F4007004908869EB
:101E900040F0040088618869694600F004000490FD
:101EA00002200090032001900F4800F0E7FB104C47
:101EB0000E48C4E900058020C4E9025040002061BA
:101EC000C000C4E905054FF44050E061204600F031
:101ED0001FFB08B1FFF79AF93462666206B070BD65
:101EE00000240140001002400008014008000240A8
:101EF000CC00002070B5044690F8240001280DD0D5
:101F0000012084F824002046FEF750FF02004FF025
:101F1000000005D084F82400104670BD022070BD7A
:101F2000A16A40F20123994341F48071A1621F4DDF
:101F300023681F49AB4218D10E6816F4702F14D0D5
:101F4000A66A46F48016A6620E68760505D5A66ACE
:101F500026F4005646F48056A662A66AF6040AD510
:101F6000E66A26F00606E66206E0A66A26F4801611
:101F7000A6625E68E9E7E06284F824006FF0020080
:101F8000186020688368C3F34243072B05D1A84239
:101F900008D1096811F4702F04D0816841F48011D0
:101FA0008160B9E7816841F4A001F9E700280140A8
:101FB0000424014070B500B3F9B14379012B1ED060
:101FC000012646710223037105682C6802F0100394
:101FD00040F6FE729A409443D1E900210A439A40A8
:101FE00022432A6001680A68C0249C40A2430A6018
:101FF000067100214171084670BD012070BD0220AC
:1020000070BD18B1006819B1006B704701207047AE
:10201000C06A704770B5040003D02079002510B164
:1020200005E0012070BD6571204600F007F8022030
:102030002071256101202071002070BDF0B585B0B0
:1020400000260546009601960296039600681A49F6
:1020500088422ED11949C86940F00050C861C8694A
:1020600000F000500490886940F00400886188699D
:10207000102700F0040004900320CDE900706946A9
:102080000F4800F0FBFA104C0E48C4E9000780200E
:10209000C4E9026040002061800060612020C4E942
:1020A0000606204600F034FA08B1FFF7AFF8AC603E
:1020B000656205B0F0BD00000074004000100240F1
:1020C00000080140300402402401002018B500241B
:1020D000009440B100680090104431B11430009079
:1020E0000360002018BD012018BD0830F7E770B567
:1020F00008B34279012A20D00122427102230371E0
:102100000468266801F0100302FA03F52E432660E6
:102110000029016813D00C6804F470153C249C401D
:10212000A54203D14B6843F002034B6002710021CA
:102130004171084670BD012070BD022070BD0B6862
:10214000C3F383030F2BF1D14B6843F00103ECE79A
:1021500010B590F821100022022905D004218163D6
:1021600080F82020012010BD01680B6823F00E03C9
:102170000B6001680B6823F001030B6090F840309E
:10218000C46B012101FA03F3636080F8211080F829
:102190002020104610BD00002DE9F05F90F82110BE
:1021A0000024022903D004218163012485E0016811
:1021B0000A6822F00E020A6001680A6822F0010231
:1021C0000A603F4E3E4FB215DFF8F4C0DFF8F090E2
:1021D000DFF8ECA0DFF8E8B0DFF8E4E00168783F72
:1021E00013011502ACF1640CA9F15009AAF13C0AE3
:1021F000ABF1280BAEF1140E4FF48018B14227D981
:10220000B9420ED0614512D049451DD0514518D074
:10221000594518D0714501D1424615E0294EB142C9
:1022200001D1012210E0274E1436B14201D1102213
:102230000AE0244E2836B14206D0224A3C3291426E
:1022400001D11A4600E02A461E49091F0A602BE008
:10225000B94213D0614517D0494522D051451DD010
:1022600059451DD0714501D142461AE0B14202D113
:102270004FF0807215E0134EB14201D1012210E0FF
:10228000104E1436B14201D110220AE00D4E28360C
:10229000B14206D00B4A3C32914201D11A4600E0CD
:1022A0002A46074980394A60012180F8211000211F
:1022B00080F82010416B01B188472046BDE8F09FAF
:1022C00080000240080402402DE9F05FC16B0A68FB
:1022D00001680B68046C4FF0040808FA04F8844D98
:1022E000844E854FDFF814C2DFF81492DFF814A291
:1022F000DFF814B2DFF814E218EA020F65D05FEAE3
:10230000437862D50A68920603D40A6822F0040270
:102310000A60DFF8F0814FF48062016808F1140868
:1023200013011402414524D9A9420DD0B1420FD066
:10233000B9421AD0614515D0494515D0514501D152
:10234000120312E0594501D104220EE0714501D17A
:1023500040220AE06D4D1435A94206D06B4A28325E
:10236000914201D11A4600E022466749091F0A60DE
:1023700029E0A94213D0B14215D0B94220D061451D
:102380001BD049451BD0514502D14FF4800217E0C4
:10239000414502D14FF0806212E0594501D104223B
:1023A0000EE0714501D140220AE0584D1435A94292
:1023B00006D0564A2832914201D11A4600E0224600
:1023C0004B4908394A60C16A71E04FF0020808FAC7
:1023D00004F818EA020F70D05FEA83786DD50A68B6
:1023E000920606D40A6822F00A020A60012180F8E7
:1023F0002110DFF810814FF40072016808F1140811
:1024000013011402414524D9A9420DD0B1420FD085
:10241000B9421AD0614515D0494515D0514501D171
:10242000120312E0594501D102220EE0714501D19B
:1024300020220AE0354D1435A94206D0334A28320D
:10244000914201D11A4600E022462F49091F0A6035
:1024500029E0A94213D0B14215D0B94220D061453C
:102460001BD049451BD0514502D14FF4001217E053
:10247000414502D14FF0007212E0594501D10222CC
:102480000EE0714501D120220AE0204D1435A94209
:1024900006D01E4A2832914201D11A4600E0224657
:1024A000134908394A60002180F82010816A002908
:1024B0001CD0BDE8F05F0847FFE70825A54015429E
:1024C00014D01A0712D50A6822F00E020A6090F89A
:1024D0004020C36B012101FA02F25A60816380F847
:1024E0002110002180F82010016BE0E7BDE8F09F8B
:1024F000080002401C00024030000240440002403C
:10250000580002406C000240080402401C040240D3
:1025100030B560B11A4B026814219A4209D2194BA6
:102520001344B3FBF1F18900016417490AE001206B
:1025300030BD134B5B421344B3FBF1F189000164DE
:102540000F490839C163022180F82110136843F64E
:10255000F0718B43F0E901142143D0E902452C438B
:102560002143046921434469214384692143194378
:10257000116000214163012242770177084630BD96
:1025800008040240F8FFFDBF0000024070B5044699
:1025900090F82000002501280CD0012084F82000AC
:1025A00094F821600020012E06D084F82000022536
:1025B000284670BD022070BD022684F82160A06309
:1025C0002068066826F0010606602046FEF708FE31
:1025D000E06A00282068016802D041F00E0106E0A0
:1025E00021F0040101602068016841F00A010160E6
:1025F0002068016841F001010160D9E730B585B07C
:102600000020009001900290039017480168002973
:1026100027D1012101601548416941F48071416170
:102620004069022400F48070049041F20100CDE979
:1026300000040325694603950D4800F01FF84FF686
:102640008070CDE90004694603950A4800F016F849
:102650004CF23370CDE9000469460395064800F05A
:102660000DF805B030BD00000C0000200010024045
:102670000020014000180140001401402DE9F84FEE
:10268000DFF8C8910024A9F1040B23460F2709F1B4
:10269000040AABF1040ED1E00125A54006EA0502CB
:1026A000AA4276D1DFF8A8C14E68A6EB0C086645B1
:1026B0002BD00DDC032E34D005DC36B3012E19D01F
:1026C000022E2FD11BE0112E16D0122E2AD119E086
:1026D000B8F5881F19D006DCB8F5803F15D0B8F5DD
:1026E000801F1FD111E0B8F5001F0ED0B8F5041FF0
:1026F00018D10AE0CB6815E0CB681B1D12E0CB684F
:1027000008330FE0CB680C330CE08B682BB1012B46
:102710004FF0080303D0456104E0042302E00561A3
:1027200000E00023FF2A01D8064601E000F104067C
:102730004FEA840501D9A5F12005D6F8008007FAF3
:1027400005FC28EA0C0803FA05F548EA0508C6F86E
:1027500000804D68ED0070D53E4DAE6946F0010633
:10276000AE61AD6924F0030605F0010500953A4D10
:1027700006EB050CDCF80850A607360F07FA06F83A
:1027800025EA0805DFF8D480404503D14FF0000862
:1027900025E052E0DFF8C880404502D14FF0010843
:1027A0001DE0DFF8C080404502D14FF0020816E07E
:1027B000DFF8B480404502D14FF003080FE0DFF8A6
:1027C000AC80404502D14FF0040808E0DFF8A0805B
:1027D000404502D14FF0050801E04FF0060808FA25
:1027E00006F848EA0508CCF808804D68D9F800607A
:1027F000ED024D4601D5164300E096432E604D682C
:10280000DAF80060AD02554601D5164300E0964364
:102810002E604D68DBF80060AD035D4601D51643C0
:1028200000E096432E604D68DEF80060ED037546CB
:1028300001D5164300E096432E60641C0A681646D4
:10284000E2407FF429AFBDE8F88F000008040140A2
:10285000000011100010024000000140000801407B
:10286000000C01400010014000140140001801401C
:10287000001C01408068084000D0012070470AB168
:10288000016170470904FBE7014880687047000058
:10289000240000200248816802781144816070475A
:1028A00024000020074810B5016841F010010160C4
:1028B000032000F06DF80F2000F006F800F024F877
:1028C000002010BD0020024070B50D4D04464FF4AD
:1028D0007A712878B1FBF0F00A490968B1FBF0F091
:1028E00000F0DAFB48B9102C07D200222146501E16
:1028F00000F02EF800206C6070BD012070BD00005B
:102900002400002030000020094808B5816941F00A
:1029100001018161816901F001010091C16941F00A
:102920008051C161C06900F08050009008BD000076
:1029300000100240002809DB00F01F020121914035
:102940004009800000F1E020C0F80011704700004D
:10295000F0B40E4B1B680C46C3F30223C3F107050A
:10296000042D00D90425191D072901D2002300E0F8
:10297000DB1E012606FA05F1491E214099409E40C2
:10298000761E16403143F0BC05F016BD0CED00E09C
:10299000064900F0070208684FF6FF03184040EAB6
:1029A0000220034A10430860704700000CED00E06D
:1029B0000000FA0510B501460020284C04292FD04C
:1029C0000BDC012930D0022929D100F06BF96168B4
:1029D000C1F38131491C49001FE0082920D010298A
:1029E0001DD161682268D20119D51D48C1F3834207
:1029F000C903805C0AD56168194AC1F34041921E3F
:102A0000515C184AB2FBF1F1484301E016494843D2
:102A10006168490203D440000321B0FBF1F010BD0E
:102A2000BDE8104000F04EB9226AC2F3012101292D
:102A300003D1920701D5C80310BD022905D1626AEE
:102A4000920702D549F6404010BD0329FCD1216808
:102A50008903F9D54FF2244010BD00000010024058
:102A60005C8E000800127A0000093D002DE9F84351
:102A700005460078354CC00754D0E0690026C000F8
:102A800008D4E06940F08050E061E069012600F080
:102A9000805000902E480168C90512D40168804614
:102AA00041F480710160FFF7EFFE074605E000BFCB
:102AB000FFF7EAFEC01B642823D8D8F80000C00541
:102AC000F6D5206A10F4407021D0A98801F4407135
:102AD00081421CD0206A1F49012220F440700A6004
:102AE00000220A602062C00711D0FFF7CDFE074622
:102AF00041F2883808E000BFFFF7C6FEC11B414520
:102B000002D90320BDE8F883206A8007F4D5206A43
:102B1000696820F44070084320621EB1E06920F02B
:102B20008050E0612878800705D56068A96820F4A6
:102B30004040084360602878C00605D56068696930
:102B400020F48000084360600020DBE700100240B2
:102B500000700040400442422DE9F0470F46050056
:102B600061D0434E306800F00700B84209D23068A7
:102B700020F0070038433060306800F00700B842AA
:102B800051D128683B4C810712D5400703D56068B6
:102B900040F4E06060602878000703D5606840F486
:102BA000605060606068A96820F0F00008436060D1
:102BB0002878C00728D06868012810D0216802282A
:102BC00010D0890700292EDA616821F00301014342
:102BD0006160FFF759FE804641F288390DE02168B7
:102BE0008903EFE78901EDE7FFF74EFEA0EB08014F
:102BF000494502D90320BDE8F0876068696800F0A4
:102C00000C00B0EB810FEFD1306800F00700B84244
:102C10000BD9306820F0070038433060306800F08E
:102C20000700B84201D00120E5E72878400705D524
:102C30006068E96820F4E060084360602878000775
:102C400006D56068296920F4605040EAC1006060E0
:102C500000F038F86168084AC1F30311515CC840BC
:102C60000649086006480068FFF72EFE0020C2E70C
:102C700000200240001002406C8E0008300000204E
:102C8000280000200448054900684968044AC1F347
:102C90000221515CC8407047300000200010024003
:102CA0007C8E00080448054900684968044AC1F35D
:102CB000C221515CC8407047300000200010024023
:102CC0007C8E00080E4A51680E4801F00C03042B5C
:102CD00011D0082B0FD10C48C1F38343C903C05C4A
:102CE0000AD55168084AC1F34041921E515C054A19
:102CF0005043B0FBF1F0704704494843704700006F
:102D00000010024000127A004A8E000800093D00BF
:102D10002DE9F84F040070D02078C04DC00749D08D
:102D20006868C0F38100012807D06868C0F381009B
:102D3000022809D16868C00306D52868800339D500
:102D400060680028E7D035E06068B0F5803F0BD0C0
:102D500010B1B0F5A02F11D0286820F48030286081
:102D6000286820F4802002E0286840F48030286041
:102D7000606890B1FFF788FD06460AE0286840F4D5
:102D800080202860F0E700BFFFF77EFD801B6428ED
:102D900073D828688003F7D50CE0FFF775FD064669
:102DA00005E000BFFFF770FD801B6428F0D828689D
:102DB0008003F7D420789A4E80074FF001094FF036
:102DC000000839D5686810F00C0F07D06868C0F3A8
:102DD0008100022809D16868C00306D428688007EA
:102DE00014D52069012808D110E02069B0B1C6F8D7
:102DF0000090FFF749FD074605E00AE1FFF744FDB3
:102E0000C01B0228C4D828688007F7D528686169E4
:102E100020F0F80040EAC10028600DE0C6F800800C
:102E2000FFF732FD074604E0FFF72EFDC01B022826
:102E300023D828688007F7D4207800072CD5794854
:102E4000A169D9B1C0F80090FFF71EFD074604E064
:102E5000FFF71AFDC01B02280FD8686A8007F7D554
:102E600071484FF4FA510068B0FBF1F0009000BFD8
:102E70000098411E0091FAD20EE080E0C0F8008078
:102E8000FFF702FD074604E0FFF7FEFCC01B022827
:102E900075D8686A8007F7D42078400760D5E8695C
:102EA0000027C00008D4E86940F08050E861E86974
:102EB000012700F0805000905C480168C90513D4D8
:102EC0000168834641F480710160FFF7DDFC8246B2
:102ED00006E000BFFFF7D8FCA0EB0A0064284ED83C
:102EE000DBF80000C005F5D5E06801280AD008B17C
:102EF000052813D0286A20F001002862286A20F0F3
:102F0000040002E0286A40F001002862E06841F213
:102F1000883B98B1FFF7B8FC82460BE0286A40F086
:102F200004002862EEE700BFFFF7AEFCA0EB0A0149
:102F300059455AD8286A8007F6D50CE0FFF7A4FC5B
:102F4000824605E0FFF7A0FCA0EB0A0159454CD8EA
:102F5000286A8007F6D41FB1E86920F08050E86144
:102F6000E06988B36968C1F38101022944D002286D
:102F7000C6F8608004D0FFF787FC044638E034E0F0
:102F8000FFF782FC074604E0FFF77EFCC01B022827
:102F90002BD828688001F7D4206AB0F5803F05D18E
:102FA0006868A16820F4003008436860D4E908012B
:102FB0000843696821F4741108436860C6F860909A
:102FC000FFF762FC044606E025E000BFFFF75CFC6B
:102FD000001B022809D828688001F7D51BE000BF34
:102FE000FFF752FC001B022802D90320BDE8F88F2E
:102FF00028688001F4D40EE00128F7D06868226ABE
:1030000000F48031914204D1616A00F4701088426A
:1030100001D00120EAE70020E8E7000000100240AC
:103020000000424280044242300000200070004014
:1030300070B515460E46040007D0A069B0F5807F34
:1030400003D094F8410010B107E0012070BD0020CA
:1030500084F84000204600F01DF804F108012068C3
:10306000FEF7F4F83146A2682068FEF723F9D4E9A8
:1030700001022946236BFEF7CBF8A168206850F8BF
:10308000212042F0010240F82120012084F8410073
:10309000002070BDFFF7B2BA10B5401EB0F1807FBE
:1030A00001D3012010BD4FF0E02460610F216017B3
:1030B00005F082F90020A06107202061002010BDEA
:1030C0007047704770B590F83C20012A2CD001243D
:1030D00080F83C40022280F83D2003685A689D68D1
:1030E00022F070060A6832435A60104B02689A4216
:1030F0000ED00F4B9A420BD0B2F1804F08D00D4B3F
:103100009A4205D00C4B9A4202D00C4B9A4204D101
:10311000496825F080031943916080F83D40002103
:1031200080F83C10084670BD022070BD002C0140A4
:10313000003401400004004000080040000C004042
:1031400010B5040003D094F83D0010B107E0012051
:1031500010BD002084F83C00204600F01FF802203B
:1031600084F83D00211D206804F0BCF8012084F89B
:10317000460084F83E0084F83F0084F8400084F85C
:10318000410084F8420084F8430084F8440084F845
:10319000450084F83D00002010BD000008B5174A26
:1031A00001681748914207D1C16941F00201C1612C
:1031B000C06900F002001EE0124A914211D1C169BB
:1031C00041F01001C161C069002200F010000090C0
:1031D00011463620FFF7BCFBBDE808403620FFF75C
:1031E000A9BB094A914207D1C16941F02001C161DF
:1031F000C06900F02000009008BD000000040040FD
:1032000000100240001000400014004090F83D10F3
:10321000012901D001207047022180F83D1000688B
:103220000E4988420ED00E4988420BD0B0F1804F33
:1032300008D00C49884205D00B49884202D00B497E
:10324000884204D1816801F00701062903D0016892
:1032500041F001010160002070470000002C014096
:10326000003401400004004000080040000C004011
:1032700090F83D10012901D001207047022180F80B
:103280003D100168CA6842F00102CA6000680E4938
:1032900088420ED00D4988420BD0B0F1804F08D043
:1032A0000B49884205D00B49884202D00A4988421E
:1032B00004D1816801F00701062903D0016841F0BB
:1032C0000101016000207047002C014000340140E2
:1032D0000004004000080040000C004001680A6A39
:1032E00041F211131A4207D10A6A9B101A4203D104
:1032F0000A6822F001020A60012180F83D100020D6
:10330000704770B5044690F83C000025012817D09E
:10331000012684F83C60022084F83D002068826821
:1033200022F0770222F47F4282600868502838D069
:103330000DDC20284FD005DC90B3102811D14AE0D5
:10334000022070BD302846D040280AD13BE06028DA
:103350002FD070280DD0B0F5805F03D0B0F5005F9E
:1033600012D0012584F83D60002084F83C002846F6
:1033700070BDCB68D1E90121206803F0F9FF206816
:10338000816841F0770109E0CB68D1E9012120682B
:1033900003F0EEFF2068816841F480418160E1E73D
:1033A00019E0CA684968206803F0F4FF50212068DA
:1033B00006E0CA684968206803F0FDFF60212068C4
:1033C00003F0E0FFCEE7CA684968206803F0E2FF37
:1033D00040212068F4E7226801461046F0E7704774
:1033E00070B50446006801694FF00005C9438907BC
:1033F00015D4C168C943890711D4E91E01610120B0
:103400002077206880698007204602D0FFF7E7FF19
:1034100004E000F098F8204600F096F82577206840
:103420000169C943490717D4C168C943490713D47F
:103430006FF004010161022020772068806910F498
:10344000407F204602D0FFF7CAFF04E000F07BF87F
:10345000204600F079F8257720680169C9430907FB
:1034600016D4C168C943090712D46FF0080101617D
:10347000042020772068C0698007204602D0FFF72B
:10348000AEFF04E000F05FF8204600F05DF825771D
:1034900020680169C943C90617D4C168C943C90670
:1034A00013D46FF010010161082020772068C069F3
:1034B00010F4407F204602D0FFF791FF04E000F0B7
:1034C00042F8204600F040F8257720680169C9439A
:1034D000C90708D1C168C943C90704D1891E016160
:1034E000204600F033F820680169C943090609D471
:1034F000C168C943090605D46FF080010161204607
:10350000FFF7DEFD20680169C943490609D4C16897
:10351000C943490605D46FF040010161204600F01F
:10352000A1F820680169C94389060BD4C168C94361
:10353000890607D46FF0200101612046BDE8704084
:10354000FFF7BFBD70BD70477047000070B53549CB
:10355000884265D1344CA088401C80B20A21B0FB5F
:10356000F1F2A08001FB120078B9304D10222946FB
:103570002F4800F00BFC082229462E4800F006FCDC
:1035800001222D492D4800F026FC294800254178CC
:1035900001290ED145706088B0F59B6F07D21030BD
:1035A00083B20022638011462548FEF78FFDFDF7A8
:1035B00079FB2048417801290ED1457060882B465F
:1035C000102801D9103883B20022638011461C48AC
:1035D000FEF77CFDFDF766FB1848417801290FD105
:1035E000184E457030880A3081B2318016A004F040
:1035F000D3FE174831880068FDF7C4FAFDF752FB87
:10360000A088B0F57A7F0BD1A580E088401C81B2FC
:10361000E18010A004F0C0FEBDE87040FDF742BBA1
:1036200070BD0000F80100201800002000180140C3
:1036300002000020040000200008014006000020D5
:103640001001002000000020413A25640000000025
:1036500008000020546869732069732031732028A2
:10366000256429007047704710B50446006840691A
:1036700094F84110C0F3C010212911D180B1206805
:10368000143050E8001F21F0800140E80012002AA9
:10369000F5D1A06B08B1FEF75BFD204604F0E2FC1B
:1036A0002068406994F84210C0F38010222911D19B
:1036B00080B12068143050E8001F21F0400140E83C
:1036C0000012002AF5D1E06B08B1FEF741FD20465B
:1036D00004F0A1FC002010BD70470000F8B501689F
:1036E00004460868CA684B6910F00F0F4FF00005D8
:1036F00059D003F0010602F49077374365D0C10733
:1037000005D0D10503D5616C41F001016164410729
:1037100005D5D90703D0616C41F0020161648107CE
:1037200005D5D90703D0616C41F00401616401073C
:1037300007D502F02001314303D0616C41F008014C
:103740006164616C00293AD0800604D5900602D5E8
:10375000204604F095FC20684069616CC0F380103D
:10376000090700D460B3204604F055FC2068406986
:10377000400621D52068143050E8001F21F0400198
:1037800040E80012002AF5D1E06BA8B16D49416311
:10379000E06BFEF701FD002811D0E06B416B01B03A
:1037A000BDE8F040084783060FD593060DD52046A7
:1037B000BDE8F84004F064BC2046FFF78DFFF8BD7B
:1037C0002046FFF789FF6564F8BD266B2023012E94
:1037D0007CD1C6067AD5D60678D5086848680090A8
:1037E00048694FF00206400640D5E16B0868406822
:1037F0000004000CE8D0A28D8242E5D9E0858869FA
:1038000020282DD020680C3050E8001F21F4807152
:1038100040E80012002AF5D12068143050E8001F5B
:1038200021F0010140E80012002AF5D1206814308F
:1038300050E8001F21F0400140E80012002AF5D1B5
:1038400084F84230256320680C3050E8001F21F0D6
:10385000100140E80012002AF5D1E06BFEF778FC79
:103860006663A08DE18D401A81B22AE0A08DE18DC2
:10387000401A81B2E08D0028A6D00029A4D0226889
:103880000C3252E8000F20F4907042E80007002F3D
:10389000F5D12068143050E8002F22F0010240E8F2
:1038A0000027002FF5D184F84230256320680C30C2
:1038B00050E8002F22F0100240E80023002BF5D141
:1038C00066632046FFF7CFFEF8BDFFE705062BD560
:1038D000150629D594F841002128F5D1A068B0F546
:1038E000805F01D12069B0B1206A411C216221684A
:1038F00000784860E08C401E0004000CE084E3D1B6
:103900002068C16821F08001C1602068C16841F071
:103910004001C160D8E7206A0088C0F30800486011
:10392000206A801C2062E5E74006CDD55006CBD545
:10393000CA68204622F04002CA6084F8413000F094
:10394000EAF8C1E7197F000870B5040004D094F8C4
:103950004100002510B106E0012070BD84F8405000
:10396000204600F023F8242084F841002068C16834
:1039700021F40051C160204604F0E4FB2068016995
:1039800021F4904101612068416921F02A014161DF
:103990002068C16841F40051C1606564202084F84A
:1039A000410084F842006563002070BD70B586B0A8
:1039B0000025064600950195029503950068224969
:1039C00088423FD12149886940F4804088618869F4
:1039D00000F480400490886940F0040088618869A0
:1039E0001B4C00F004000490481500900220019048
:1039F0000320039069462046FEF740FE2015CDE9DE
:103A00000005694620460295FEF738FE124C114823
:103A1000C4E900058020C4E9025020202561C4E9E2
:103A200005502046E561FEF773FD08B1FDF7EEFB9A
:103A3000F4630022114625206662FEF789FF2520E7
:103A4000FEF778FF06B070BD00380140001002405C
:103A500000080140580002403403002090F8423032
:103A6000202B01D00220704721B11AB1002303633B
:103A700004F0C4BB01207047704770472DE9F8433C
:103A8000044690F841001F4616460D46202802D0F5
:103A90000220BDE8F8837DB176B10020606421206A
:103AA00084F84100FEF7F0FEA6848046E684A06814
:103AB000B0F5805F02D003E00120EAE7206910B191
:103AC0002E4600250EE000260CE08021204604F062
:103AD000DDFBA0B9AEB116F8010B21684860E08C9F
:103AE000401EE084E08C43464FF00002009700281F
:103AF000EBD14FF04001204604F0C8FB30B1032069
:103B0000C7E735F8020BC0F30800E6E7202084F889
:103B100041000020BDE77047FEE7000070B50D4C86
:103B20000025C4F898510C48016821F070410160EB
:103B3000016841F040510160C4F89C51022004F535
:103B4000CC7405F0C7F801202060022005F0C2F80F
:103B5000256070BD00802142000C01400E4810B568
:103B6000816986B041F0080181618069012400F01B
:103B700008000490C020CDE900040320CDE90240F4
:103B800069460648FEF77AFD0548C0F89C41C0F832
:103B9000984106B010BD000000100240000C01402A
:103BA0000080214270B50D4C0025C4F898510C4896
:103BB000016821F070410160016841F040510160ED
:103BC0000126C4F89C61022004F5CC7405F082F84B
:103BD0002660022005F07EF8256070BD008021423D
:103BE000000C01402DE9F047814617480024016888
:103BF00021F070410160016841F000410160134E05
:103C0000254627464FF00108C6F89871022005F0B6
:103C100061F8C6F898816006040ED6F81C0108B158
:103C2000641CE4B2012005F055F86D1CEDB2082DBE
:103C3000EAD3B9F1000F04D0FFF770FF2046BDE8CA
:103C4000F087FFF7AFFFF9E7000C01400080214249
:103C50002DE9F04106461448016821F070410160E9
:103C6000016841F040510160104C0027C4F8987180
:103C70003D464FF00108F009C4F89C017006060E9D
:103C8000022005F027F8C4F89881022005F022F8F8
:103C9000C4F89871022005F01DF86D1CEDB2082DD6
:103CA000E9D3BDE8F0810000000C01400080214212
:103CB00070B50D48016821F070410160016841F064
:103CC00040510160094C0120C4F89C01C4F89801DE
:103CD000042004F5CC7404F0FDFF00256560042089
:103CE00004F0F8FF256070BD000C01400080214207
:103CF0000E4810B5016821F070410160016841F083
:103D0000405101600A4C0020C4F89801C4F89C019D
:103D1000042004F5CC7404F0DDFF01202060606015
:103D2000BDE81040042004F0D5BF0000000C0140A5
:103D30000080214270B513480024016821F07041D1
:103D40000160016841F0004101600F4D0126C5F896
:103D50009C61304604F0BEFFC5F89861012004F074
:103D6000B9FF07E0641CE4B2FA2C03D9FFF7C0FFE7
:103D7000012070BDD5F81C010028F3D1C5F89801C9
:103D800070BD0000000C01400080214270B5044667
:103D900000780B46012560B10026012811D00228C9
:103DA0000ED111461846FEF765FD012808D1657051
:103DB0000CE011461846FEF75DFD002800D1257085
:103DC00070BD11461846FEF755FD08B1267070BD4E
:103DD0000220207070BD70B5044600780B460125A6
:103DE00060B10026012811D002280ED111461846D4
:103DF000FEF740FD002808D165700DE01146184619
:103E0000FEF738FD012800D1257070BD1146184617
:103E1000FEF730FD012801D0267070BD0220207011
:103E200070BD000070B509490646002408884D8819
:103E300021464543204602F009FD02F0ABFE04484E
:103E400001E00680641CAC42FBD370BDC0030020BF
:103E50000008006C2DE9F04F2B492C260A4688718A
:103E600092884FF4305A4FF4285B4FF4487541F66E
:103E7000631E2B274FF02A0C4FF0F00845F2105923
:103E80004FF4A0744FF4F073B8B10C80A1F8028025
:103E90004A4532D1A1F808A0A1F80AB038028881B9
:103EA0000D804B80A2F5A640103801D10B804C80CC
:103EB000BDE8F04F002002F009BCA1F800804C8062
:103EC0004A4507D1A1F808A0A1F80AB04FF42C5038
:103ED000888105E072450E8105D14F81A1F80CC0A3
:103EE0000B804D8002E0A1F80AC08F81A2F5A640A8
:103EF0001038DDD10C804B80DAE70E81A1F80AC0C2
:103F000072458F81CCD0CDE7C00300202DE9FE4F54
:103F1000161ACDE900104FF000085D1A47464FF021
:103F2000FF30002E02DD4FF0010102E003D14FF01F
:103F300000018B4602E08346C6F10006002D02DD3B
:103F40004FF0010002E003D14FF00000824602E092
:103F50008246C5F10005AE4201DD344600E02C4644
:103F6000601C4FF00009029018E0009881B201989F
:103F700080B200F019F8B0442F44A04504DD019848
:103F8000A8EB040858440190A74203DD00983F1BAA
:103F90005044009009F101001FFA80F90299894507
:103FA000E3DDBDE8FE8F000000B502F04FFC02F03B
:103FB000F1FD024802490088088000BD340000205D
:103FC0000008006C2DE9FC4F8046002514460320B4
:103FD0000F46A0EB440649E0381B81B208EB050A06
:103FE00001901FFA8AF0FFF7DFFF781B81B208EB20
:103FF000040900901FFA89F0FFF7D6FF07EB050BC5
:104000001FFA8BF11FFA89F0FFF7CEFF07EB0409C7
:104010001FFA89F11FFA8AF0FFF7C6FFA8EB050A1D
:104020001FFA89F11FFA8AF0FFF7BEFFA8EB040917
:104030001FFA8BF11FFA89F0FFF7B6FF019881B2E2
:104040001FFA8AF0FFF7B0FF009881B21FFA89F0DB
:10405000FFF7AAFF6D1C002E03DA06EB8506B61DDE
:1040600004E0281B06EB8006641E0A36A542B3DD79
:10407000BDE8FC8F2DE9F0419046304A0D460446DC
:10408000060A918810462F0A4089A1F5AA43103BE1
:104090000FD0A1F5C853633B24D002F06FFD30462A
:1040A00002F060FDE0B202F05DFD908902F066FD75
:1040B00036E002F063FD304602F054FD5089401CAA
:1040C00080B202F05BFDE0B202F04CFD908902F09C
:1040D00055FD384602F046FD9089401C80B202F042
:1040E0004DFD20E0917919B91188091B491E8CB248
:1040F00002F044FD260A304602F034FDE0B202F040
:1041000031FD304602F02EFDE0B202F02BFD908929
:1041100002F034FD384602F025FDE8B202F022FD3F
:10412000384602F01FFDE8B202F01CFD0449108978
:104130000880891CA1F80080BDE8F081C003002040
:10414000FE07006C2DE9F04FFF488FB04FF0204183
:104150000160FE490622C0E9011200211023C1605E
:10416000C0E9041381611B02C161C0E909139B000E
:10417000C0E90B13416381631A20CDE908100D914A
:104180000792032003918DE8070006916A4607A96C
:10419000ED48FEF74DFF322004F08DFDD32002F0F4
:1041A000EDFC02F063FAE84C4834A08002F05EFABD
:1041B000A08002F05BFA4FF6FF7505EA0020A080B0
:1041C00002F054FAA18849F241370843A08047F22F
:1041D000897645F2103845F2105941F6631A4FF4CA
:1041E000704BB84276D0042002F0C8FC02F03EFAD0
:1041F000A08002F03BFAA08002F038FA05EA002025
:10420000A08002F033FAA1880843A0F50541A08000
:1042100052395BD0B0425DD0D42002F0AFFC02F046
:1042200025FAA08002F022FAA08002F01FFA05EA27
:104230000020A08002F01AFAA1880843A08040451F
:1042400048D05521584602F0AFFCAA214FF2010098
:1042500002F0AAFC52214FF2020002F0A5FC082154
:104260004FF2030002F0A0FC01214FF2040002F023
:104270009BFC4FF4454002F081FC02F0F7F905EA9F
:104280000020A0804CF2015002F078FC02F0EEF920
:10429000A1880843A080322004F00DFDA188494583
:1042A00018D0A12002F06AFC02F0E0F9A08002F030
:1042B000DDF905EA0020A08002F0D8F9A1880843C2
:1042C000A0F5AE41A080613902D003E0A68001E0F4
:1042D000A4F804A0A1889EA004F05EF8A088B842CB
:1042E0007ED1CF2002F04AFC002002F03BFCC1202E
:1042F00002F038FC302002F035FCED2002F03EFCEC
:10430000642002F02FFC032002F02CFC122002F0AB
:1043100029FC812002F026FCE82002F02FFC8520F9
:1043200002F020FC102002F01DFC7A2002F01AFCA2
:10433000CB2002F023FC392002F014FC2C2002F0E8
:1043400011FC002002F00EFC342002F00BFC0220D5
:1043500002F008FCF72002F011FC202002F002FC21
:10436000EA2002F00BFC002002F0FCFB002002F02F
:10437000F9FBC02002F002FC1B2002F0F3FBC1207D
:1043800002F0FCFB012002F0EDFBC52002F0F6FB81
:10439000302002F0E7FB302002F0E4FBC72002F0FF
:1043A000EDFBB72002F0DEFB362002F0E7FB4820F1
:1043B00002F0D8FB3A2002F0E1FB552002F0D2FBDC
:1043C000B12002F0DBFB002002F0CCFB1A2002F04F
:1043D000C9FBB62002F0D2FB0A2002F0C3FB00E0CA
:1043E00093E0A22002F0BEFBF22002F0C7FB002007
:1043F00002F0B8FB262002F0C1FB012002F0B2FB64
:10440000E02002F0BBFB0F2002F0ACFB2A2002F000
:10441000A9FB282002F0A6FB082002F0A3FB0E2037
:1044200002F0A0FB082002F09DFB542002F09AFB52
:10443000A92002F097FB432002F094FB0A2002F02F
:1044400091FB0F2002F08EFB002002F08BFB00207E
:1044500002F088FB002002F085FB002002F082FBC6
:10446000E12002F08BFB002002F07CFB152002F023
:1044700079FB172002F076FB072002F073FB112076
:1044800002F070FB062002F06DFB2B2002F06AFBAD
:10449000562002F067FB3C2002F064FB052002F08E
:1044A00061FB102002F05EFB0F2002F05BFB3F205F
:1044B00002F058FB3F2002F055FB0F2002F052FBA8
:1044C0002B2002F05BFB002002F04CFB002002F0EE
:1044D00049FB012002F046FB3F2002F043FB2A206B
:1044E00002F04CFB002002F03DFB002002F03AFB02
:1044F000002002F037FBEF2002F034FB112002F025
:104500003DFB782004F0D7FBDFE0B0427DD11120E5
:1045100002F034FB782004F0CEFB362002F02EFBB4
:10452000002002F01FFB3A2002F028FB052002F0D9
:1045300019FBB22002F022FB0C2002F013FB0C202E
:1045400002F010FB00200BE078030020040100A023
:10455000204C43442049443A25780D0A00000000CD
:1045600002F000FB332002F0FDFA332002F0FAFAE9
:10457000B72002F003FB352002F0F4FABB2002F072
:10458000FDFA322002F0EEFAC02002F0F7FA0C2019
:1045900002F0E8FAC22002F0F1FA012002F0E2FA99
:1045A000C32002F0EBFA102002F0DCFAC42002F083
:1045B000E5FA202002F0D6FAC62002F0DFFA0F203A
:1045C00002F0D0FAD02002F0D9FAA42002F0CAFA00
:1045D000A12002F0C7FAE02002F0D0FAD02002F0C9
:1045E000C1FA002002F0BEFA022002F0BBFA072056
:1045F00002F0B8FA0A2002F0B5FA282002F0B2FA66
:10460000322002F0AFFA442000E061E002F0AAFAA2
:10461000422002F0A7FA062002F0A4FA0E2002F0CF
:10462000A1FA122002F09EFA142002F09BFA172041
:1046300002F098FAE12002F0A1FAD02002F092FAFA
:10464000002002F08FFA022002F08CFA072002F01C
:1046500089FA0A2002F086FA282002F083FA312033
:1046600002F080FA542002F07DFA472002F07AFA34
:104670000E2002F077FA1C2002F074FA172002F0E4
:1046800071FA1B2002F06EFA1E2002F06BFA2A204B
:1046900002F074FA002002F065FA002002F062FADB
:1046A000002002F05FFAEF2002F05CFA2B2002F00B
:1046B00065FA002002F056FA002002F053FA0120B9
:1046C00002F050FA3F2002F04DFA292001F0FABE24
:1046D00040457CD1ED2002F051FA012002F042FA6F
:1046E000FE2002F03FFAEE2002F048FADE2002F04F
:1046F00039FA212002F036FAF12002F03FFA0120C7
:1047000002F030FADF2002F039FA102002F02AFA23
:10471000C42002F033FA8F2002F024FAC62002F0FF
:104720002DFA002002F01EFAE22002F01BFAE2202D
:1047300002F018FAE22002F015FABF2002F01EFA89
:10474000AA2002F00FFAB02002F018FA0D2002F0B1
:1047500009FA002002F006FA0D2002F003FA002008
:1047600002F000FA112002F0FDF9002002F0FAF93F
:10477000192002F0F7F9002002F0F4F9212002F0EC
:10478000F1F9002002F0EEF92D2002F0EBF9002003
:1047900002F0E8F93D2002F0E5F9002002F0E2F92C
:1047A0005D2002F0DFF9002002F0DCF95D2002F06C
:1047B000D9F9002002F0D6F9B12002F0DFF980200B
:1047C00002F0D0F9002002F0CDF98B2000E0FCE3EC
:1047D00002F0C8F9002002F0C5F9962002F0C2F9F3
:1047E000002002F0BFF9B22002F0C8F9002002F068
:1047F000B9F9002002F0B6F9022002F0B3F9002066
:1048000002F0B0F9032002F0ADF9002002F0AAF99D
:10481000B32002F0B3F9002002F0A4F9002002F066
:10482000A1F9002002F09EF9002002F09BF900207F
:1048300002F098F9002002F095F9002002F092F9B8
:10484000002002F08FF9002002F08CF9002002F025
:1048500089F9002002F086F9002002F083F9002097
:1048600002F080F9002002F07DF9002002F07AF9D0
:10487000002002F077F9002002F074F9002002F025
:1048800071F9002002F06EF9002002F06BF90020AF
:1048900002F068F9002002F065F9002002F062F9E8
:1048A000002002F05FF9B42002F068F98B2002F0DA
:1048B00059F9002002F056F9962002F053F9002031
:1048C00002F050F9A12002F04DF9002002F04AF95F
:1048D000B52002F053F9022002F044F9002002F062
:1048E00041F9032002F03EF9002002F03BF90420D8
:1048F00002F038F9002002F035F9B62002F03EF956
:10490000002002F02FF9002002F02CF9B72002F06D
:1049100035F9002002F026F9002002F023F93F20AB
:1049200002F020F9002002F01DF95E2002F01AF9D1
:10493000002002F017F9642002F014F9002002F0C0
:1049400011F98C2002F00EF9002002F00BF9AC20D6
:1049500002F008F9002002F005F9DC2002F002F96B
:10496000002002F0FFF8702002F0FCF8002002F0B6
:10497000F9F8902002F0F6F8002002F0F3F8EB20AE
:1049800002F0F0F8002002F0EDF8DC2002F0EAF886
:10499000002002F0E7F8B82002F0F0F8002002F062
:1049A000E1F8002002F0DEF8002002F0DBF8002041
:1049B00002F0D8F8002002F0D5F8002002F0D2F87A
:1049C000002002F0CFF8002002F0CCF8BA2002F06C
:1049D000D5F8242002F0C6F8002002F0C3F8002029
:1049E00002F0C0F8002002F0BDF8C12002F0C6F8C5
:1049F000202002F0B7F8002002F0B4F8542002F0B2
:104A0000B1F8002002F0AEF8FF2002F0ABF8002071
:104A100002F0A8F8C22002F0B1F80A2002F0A2F8D1
:104A2000002002F09FF8042002F09CF8002002F021
:104A300099F8C32002F0A2F83C2002F093F800207D
:104A400002F090F83A2002F08DF8002002F08AF887
:104A5000392002F087F8002002F084F8372002F0B5
:104A600081F8002002F07EF83C2002F07BF8002064
:104A700002F078F8362002F075F8002002F072F8A3
:104A8000322002F06FF8002002F06CF82F2002F0C4
:104A900069F8002002F066F82C2002F063F800208C
:104AA00002F060F8292002F05DF8002002F05AF8C8
:104AB000262002F057F8002002F054F8242002F0DB
:104AC00051F8002002F04EF8242002F04BF80020AC
:104AD00002F048F8232002F045F8002002F042F8E6
:104AE0003C2002F03FF8002002F03CF8362002F0B3
:104AF00039F8002002F036F8322002F033F80020B6
:104B000002F030F82F2002F02DF8002002F02AF8F1
:104B10002C2002F027F8002002F024F8292002F0CF
:104B200021F8002002F01EF8262002F01BF80020D9
:104B300002F018F8242002F015F8002002F012F814
:104B4000242002F00FF8002002F00CF8232002F0DD
:104B500009F8002002F006F8C42002F00FF86220E5
:104B600002F000F8002001F0FDFF052001F0FAFF3F
:104B7000002001F0F7FF842001F0F4FF002001F095
:104B8000F1FFF02001F0EEFF002001F0EBFF182014
:104B900001F0E8FF002001F0E5FFA42001F0E2FFB2
:104BA000002001F0DFFF182001F0DCFF002001F001
:104BB000D9FF502001F0D6FF002001F0D3FF0C20D8
:104BC00001F0D0FF002001F0CDFF172001F0CAFF57
:104BD000002001F0C7FF952001F0C4FF002001F084
:104BE000C1FFF32001F0BEFF002001F0BBFFE62073
:104BF00001F0B8FF002001F0B5FFC52001F0BEFFB5
:104C0000322001F0AFFF002001F0ACFF442001F0A2
:104C1000A9FF002001F0A6FF652001F0A3FF0020FE
:104C200001F0A0FF762001F09DFF002001F09AFF27
:104C3000882001F097FF002001F094FFC62001F0CA
:104C40009DFF202001F08EFF002001F08BFF172038
:104C500001F088FF002001F085FF012001F082FFB4
:104C6000002001F07FFFC72001F088FF002001F045
:104C700079FF002001F076FF002001F073FF002093
:104C800001F070FFC82001F079FF002001F06AFFF9
:104C9000002001F067FF002001F064FF002001F018
:104CA00061FFC92001F06AFF002001F05BFF0020D6
:104CB00001F058FF002001F055FF002001F052FFE5
:104CC000002001F04FFF002001F04CFF002001F018
:104CD00049FF002001F046FF002001F043FF0020C3
:104CE00001F040FF002001F03DFF002001F03AFFFD
:104CF000002001F037FF002001F034FF002001F018
:104D000031FF002001F02EFFE02001F037FF1620D8
:104D100001F028FF002001F025FF1C2001F022FFF8
:104D2000002001F01FFF212001F01CFF002001F0F6
:104D300019FF362001F016FF002001F013FF462076
:104D400001F010FF002001F00DFF522001F00AFFDA
:104D5000002001F007FF642001F004FF002001F0B3
:104D600001FF7A2001F0FEFE002001F0FBFE8B2007
:104D700001F0F8FE002001F0F5FE992001F0F2FEAE
:104D8000002001F0EFFEA82001F0ECFE002001F071
:104D9000E9FEB92001F0E6FE002001F0E3FEC420A8
:104DA00001F0E0FE002001F0DDFECA2001F0DAFE95
:104DB000002001F0D7FED22001F0D4FE002001F047
:104DC000D1FED92001F0CEFE002001F0CBFEE02084
:104DD00001F0C8FE002001F0C5FEF32001F0C2FE84
:104DE000002001F0BFFEE12001F0C8FE162001F016
:104DF000B9FE002001F0B6FE1C2001F0B3FE002039
:104E000001F0B0FE222001F0ADFE002001F0AAFE6C
:104E1000362001F0A7FE002001F0A4FE452001F09D
:104E2000A1FE002001F09EFE522001F09BFE00201A
:104E300001F098FE642001F095FE002001F092FE42
:104E40007A2001F08FFE002001F08CFE8B2001F013
:104E500089FE002001F086FE992001F083FE0020EB
:104E600001F080FEA82001F07DFE002001F07AFE16
:104E7000B92001F077FE002001F074FEC42001F09B
:104E800071FE002001F06EFECA2001F06BFE0020D2
:104E900001F068FED22001F065FE002001F062FE04
:104EA000D82001F05FFE002001F05CFEE02001F060
:104EB00059FE002001F056FEF32001F053FE0020C1
:104EC00001F050FEE22001F059FE052001F04AFEFB
:104ED000002001F047FE0B2001F044FE002001F00D
:104EE00041FE1B2001F03EFE002001F03BFE34207D
:104EF00001F038FE002001F035FE442001F032FEC2
:104F0000002001F02FFE4F2001F02CFE002001F0C8
:104F100029FE612001F026FE002001F023FE792009
:104F200001F020FE002001F01DFE882001F01AFE95
:104F3000002001F017FE972001F014FE002001F080
:104F400011FEA62001F00EFE002001F00BFEB7209E
:104F500001F008FE002001F005FEC22001F002FE73
:104F6000002001F0FFFDC72001F0FCFD002001F052
:104F7000F9FDD12001F0F6FD002001F0F3FDD6206F
:104F800001F0F0FD002001F0EDFDDD2001F0EAFD73
:104F9000002001F0E7FDF32001F0E4FD002001F026
:104FA000E1FDE32001F0EAFD052001F0DBFD00203A
:104FB00001F0D8FD0A2001F0D5FD002001F0D2FD5E
:104FC0001C2001F0CFFD002000E0FDE201F0CAFD51
:104FD000332001F0C7FD002001F0C4FD442001F0A2
:104FE000C1FD002001F0BEFD502001F0BBFD0020FE
:104FF00001F0B8FD622001F0B5FD002001F0B2FD26
:10500000782001F0AFFD002001F0ACFD882001F018
:10501000A9FD002001F0A6FD972001F0A3FD0020CE
:1050200001F0A0FDA62001F09DFD002001F09AFDF9
:10503000B72001F097FD002001F094FDC22001F09F
:1050400091FD002001F08EFDC72001F08BFD0020B6
:1050500001F088FDD12001F085FD002001F082FDE6
:10506000D52001F07FFD002001F07CFDDD2001F066
:1050700079FD002001F076FDF32001F073FD0020A2
:1050800001F070FDE42001F079FD012001F06AFDDE
:10509000002001F067FD012001F064FD002001F017
:1050A00061FD022001F05EFD002001F05BFD2A2081
:1050B00001F058FD002001F055FD3C2001F052FDAB
:1050C000002001F04FFD4B2001F04CFD002001F0CD
:1050D00049FD5D2001F046FD002001F043FD7420F4
:1050E00001F040FD002001F03DFD842001F03AFD7B
:1050F000002001F037FD932001F034FD002001F085
:1051000031FDA22001F02EFD002001F02BFDB32087
:1051100001F028FD002001F025FDBE2001F022FD58
:10512000002001F01FFDC42001F01CFD002001F053
:1051300019FDCD2001F016FD002001F013FDD32054
:1051400001F010FD002001F00DFDDD2001F00AFD51
:10515000002001F007FDF32001F004FD002001F024
:1051600001FDE52001F00AFD002001F0FBFC00201C
:1051700001F0F8FC002001F0F5FC002001F0F2FC49
:10518000022001F0EFFC002001F0ECFC292001F0EE
:10519000E9FC002001F0E6FC3C2001F0E3FC0020EB
:1051A00001F0E0FC4B2001F0DDFC002001F0DAFC16
:1051B0005D2001F0D7FC002001F0D4FC742001F048
:1051C000D1FC002001F0CEFC842001F0CBFC0020BB
:1051D00001F0C8FC932001F0C5FC002001F0C2FCE6
:1051E000A22001F0BFFC002001F0BCFCB32001F0C4
:1051F000B9FC002001F0B6FCBE2001F0B3FC002099
:1052000001F0B0FCC42001F0ADFC002001F0AAFCCC
:10521000CD2001F0A7FC002001F0A4FCD32001F078
:10522000A1FC002001F09EFCDC2001F09BFC002092
:1052300001F098FCF32001F095FC002001F092FCB5
:10524000E62001F09BFC112001F08CFC002001F015
:1052500089FC342001F086FC002001F083FC5620FC
:1052600001F080FC002001F07DFC762001F07AFC4A
:10527000002001F077FC772001F074FC002001F0A1
:1052800071FC662001F06EFC002001F06BFC8820B0
:1052900001F068FC002001F065FC992001F062FC3F
:1052A000002001F05FFCBB2001F05CFC002001F05D
:1052B00059FC992001F056FC002001F053FC6620B7
:1052C00001F050FC002001F04DFC552001F04AFC9B
:1052D000002001F047FC552001F044FC002001F0C3
:1052E00041FC452001F03EFC002001F03BFC432046
:1052F00001F038FC002001F035FC442001F032FCC4
:10530000002001F02FFCE72001F038FC322001F0F2
:1053100029FC002001F026FC552001F023FC002090
:1053200001F020FC762001F01DFC002001F01AFCA9
:10533000662001F017FC002001F014FC672001F04A
:1053400011FC002001F00EFC672001F00BFC002096
:1053500001F008FC872001F005FC002001F002FCB0
:10536000992001F0FFFB002001F0FCFBBB2001F0C5
:10537000F9FB002001F0F6FB992001F0F3FB00207F
:1053800001F0F0FB772001F0EDFB002001F0EAFBDB
:10539000442001F0E7FB002001F0E4FB562001F07F
:1053A000E1FB002001F0DEFB232001F0DBFB00200D
:1053B00001F0D8FB332001F0D5FB002001F0D2FB37
:1053C000452001F0CFFB002001F0CCFBE82001F0EC
:1053D000D5FB002001F0C6FB002001F0C3FB9920A3
:1053E00001F0C0FB002001F0BDFB872001F0BAFBFB
:1053F000002001F0B7FB882001F0B4FB002001F091
:10540000B1FB772001F0AEFB002001F0ABFB662082
:1054100001F0A8FB002001F0A5FB882001F0A2FB11
:10542000002001F09FFBAA2001F09CFB002001F06E
:1054300099FBBB2001F096FB002001F093FB992023
:1054400001F090FB002001F08DFB662001F08AFB4B
:10545000002001F087FB552001F084FB002001F0C3
:1054600081FB552001F07EFB002001F07BFB4420F6
:1054700001F078FB002001F075FB442001F072FB85
:10548000002001F06FFB552001F06CFB002001F0C3
:1054900069FBE92001F072FBAA2001F063FB002008
:1054A00001F060FB002001F05DFB002001F05AFBE1
:1054B000002001F063FBAA2001F054FBCF2001F093
:1054C0005DFB002001F04EFB002001F04BFB0020B3
:1054D00001F048FB002001F045FB002001F042FBF9
:1054E000002001F03FFB002001F03CFB002001F018
:1054F00039FB002001F036FB002001F033FB0020D7
:1055000001F030FB002001F02DFB002001F02AFB10
:10551000002001F027FB002001F024FB002001F017
:1055200021FB002001F01EFBF02001F027FB0020F2
:1055300001F018FB502001F015FB002001F012FBD8
:10554000002001F00FFB002001F00CFBF32001F024
:1055500015FB002001F006FBF92001F00FFB0620EF
:1055600001F000FB102001F0FDFA292001F0FAFA09
:10557000002001F0F7FA3A2001F000FB552001F07D
:10558000F1FA112001F0FAFA642003F094FB2920CB
:1055900001F0F4FA352001F0F1FA002001F0E2FA0E
:1055A000512001F0EBFAFF2001F0DCFA532001F06A
:1055B000E5FA2C2001F0D6FA552001F0DFFA82201E
:1055C00001F0D0FA2C20FDE348457DD15521584605
:1055D00001F0EAFA4FF20103AA21184601F0E4FAB9
:1055E0004FF202045221204601F0DEFA661C082127
:1055F000304601F0D9FAA71C0121384601F0D4FA4F
:105600000D214FF4304001F0CFFA0D214BF2010093
:1056100001F0CAFA0D214BF2020001F0C5FA4FF475
:1056200036483421404601F0BFFA34214BF2016084
:1056300001F0BAFA34214BF2026001F0B5FA4FF4EE
:1056400031490D21484601F0AFFA4BF2011A0D2104
:10565000504601F0A9FA0D214BF2021001F0A4FA14
:1056600034214FF4374001F09FFA34214BF201709E
:1056700001F09AFA34214BF2027001F095FA002100
:105680004FF4324001F090FA00214BF2012001F07A
:105690008BFA00214BF2022001F086FA24214FF40C
:1056A000384001F081FA24214BF6010001F07CFA28
:1056B00024214BF6020001F077FA01214FF43F401C
:1056C00001F072FA0F2100E0FEE34FF4334001F0E5
:1056D0006BFA0F214BF2013001F066FA0F214BF209
:1056E000023001F061FA34214FF4394001F05CFAE4
:1056F00034214BF6011001F057FA34214BF6021019
:1057000001F052FA08214FF4354001F04DFA08211A
:105710004BF2015001F048FA08214BF2025001F01F
:1057200043FA03214FF4424001F03EFA24214FF4A2
:105730003A4001F039FA24214BF6012001F034FA05
:1057400024214BF6022001F02FFA00214FF43C40B7
:1057500001F02AFA78214BF6014001F025FA0021E8
:105760004BF6024001F020FA00214FF43D4001F0D9
:105770001BFA78214BF6015001F016FA00214BF686
:10578000025001F011FA00214FF43E4001F00CFAF2
:1057900064214BF6016001F007FA00214FF45140FB
:1057A00001F002FA33214DF2011001F0FDF9002160
:1057B0004DF2021001F0F8F934214DF2031001F01E
:1057C000F3F900214DF2041001F0EEF93A214DF207
:1057D000051001F0E9F900214DF2061001F0E4F99D
:1057E0004A214DF2071001F0DFF900214DF20810B7
:1057F00001F0DAF95C214DF2091001F0D5F9002130
:105800004DF20A1001F0D0F981214DF20B1001F098
:10581000CBF900214DF20C1001F0C6F9A6214DF292
:105820000D1001F0C1F900214DF20E1001F0BCF98C
:10583000E5214DF20F1001F0B7F901214DF21010E2
:1058400001F0B2F913214DF2111001F0ADF901216F
:105850004DF2121001F0A8F954214DF2131001F08D
:10586000A3F901214DF2141001F09EF982214DF2AD
:10587000151001F099F901214DF2161001F094F97B
:10588000CA214DF2171001F08FF902214DF21810C4
:1058900001F08AF900214DF2191001F085F9022179
:1058A0004DF21A1001F080F901214DF21B1001F0A8
:1058B0007BF902214DF21C1001F076F934214DF2F2
:1058C0001D1001F071F902214DF21E1001F06CF96A
:1058D00067214DF21F1001F067F902214DF22010EF
:1058E00001F062F984214DF2211001F05DF90221ED
:1058F0004DF2221001F058F9A4214DF2231001F0CD
:1059000053F902214DF2241001F04EF9B7214DF266
:10591000251001F049F902214DF2261001F044F959
:10592000CF214DF2271001F03FF902214DF228104E
:1059300001F03AF9DE214DF2291001F035F902218A
:105940004DF22A1001F030F9F2214DF22B1001F046
:105950002BF902214DF22C1001F026F9FE214DF217
:105960002D1001F021F903214DF22E1001F01CF948
:1059700010214DF22F1001F017F903214DF23010D4
:1059800001F012F933214DF2311001F00DF903212C
:105990004DF2321001F008F96D214DF2331001F093
:1059A00003F900214FF4524001F0FEF833214DF28B
:1059B000012001F0F9F800214DF2022001F0F4F885
:1059C00034214DF2032001F0EFF800214DF20420C4
:1059D00001F0EAF83A214DF2052001F0E5F8002146
:1059E0004DF2062001F0E0F84A214DF2072001F0C7
:1059F000DBF800214DF2082001F0D6F85C214DF2D1
:105A0000092001F0D1F800214DF20A2001F0CCF874
:105A100081214DF20B2001F0C7F800214DF20C203E
:105A200001F0C2F8A6214DF20D2001F0BDF80021D1
:105A30004DF20E2001F0B8F8E5214DF20F2001F0F3
:105A4000B3F801214DF2102001F0AEF813214DF210
:105A5000112001F0A9F801214DF2122001F0A4F863
:105A600054214DF2132001F09FF801214DF2142032
:105A700001F09AF882214DF2152001F095F80121EC
:105A80004DF2162001F090F8CA214DF2172001F0D6
:105A90008BF802214DF2182001F086F800214DF21A
:105AA000192001F081F802214DF21A2001F07CF852
:105AB00001214DF21B2001F077F802214DF21C204C
:105AC00001F072F834214DF21D2001F06DF8022131
:105AD0004DF21E2001F068F867214DF21F2001F001
