:020000040800F2
:1000000010E5002045010008779A0008BF35000878
:10001000759A0008CB0C00089DAE00080000000097
:10002000000000000000000000000000D39D000858
:10003000950F000800000000D19D0008D59D000824
:100040005F0100085F0100085F0100085F01000810
:100050005F0100085F010008970F00085F010008BA
:100060005F0100089D0F0008A30F00085F01000852
:100070005F0100085F0100085F010008890F0008A8
:100080005F0100085F0100085F0100085F010008D0
:100090005F0100085F0100085F0100085F010008C0
:1000A0005F0100085F0100085F0100085F010008B0
:1000B0005F0100085F0100085F0100085F010008A0
:1000C0005F0100085F0100085F0100085F01000890
:1000D0005F0100080DAE00085F0100085F01000825
:1000E0005F0100085F0100085F0100085F01000870
:1000F0005F0100085F0100085F0100085F01000860
:100100005F0100085F0100085F0100085F0100084F
:100110005F0100085F010008DD9D00085F01000825
:100120005F0100085F0100085F0100085F0100082F
:10013000DFF80CD000F0EAFC00480047A5FC0208FC
:1001400010E500200648804706480047FEE7FEE726
:10015000FEE7FEE7FEE7FEE7FEE7FEE7FEE7FEE777
:10016000D99D0008310100082DE9F05F0546002007
:1001700092469B4688460646814640241BE0284618
:1001800041464746224600F020F853465A46C01AD8
:10019000914110D311461846224600F0D5FA2D1A87
:1001A00067EB01084F4622460120002100F0CCFAFF
:1001B00017EB00094E41201EA4F10104DFDC484684
:1001C00031462A464346BDE8F09F202A04DB203A08
:1001D00021FA02F00021704721FA02F3D040C2F167
:1001E00020029140084319467047421C10F8011B39
:1001F0000029FBD1801A704710B5002200E0521C84
:10020000835C8C5CA34201D1002BF8D1D8B2E1B25F
:10021000401A10BD034611F8012B00F8012B002AEB
:10022000F9D118467047F0B480EA0102D40F4200B9
:10023000B2EB410F02D20246084611464A0042D0B4
:10024000C30DDDB2C1F3C752AD1A202D35DAC1F3AB
:10025000160141F4000204B15242C5F1200602FA2F
:1002600006F12A411044B3EBD05F23D0C4B1012D75
:10027000A0EBC35009DCF0BC4FF0004202EAC352CD
:10028000DBB200F5000000F089BA400000F1807098
:1002900000EBC350A0F1807040EAD170490009E042
:1002A000490841EAC071A0EBC35000F500004008C6
:1002B00000EBC350F0BC00F068BA6142012202EBCF
:1002C0004101001BF6E7F0BC704781F00041AAE74E
:1002D00080F00040A7E780EA010210B502F0004379
:1002E000400022D04A001FD0010E01EB1261C0F382
:1002F0005600C2F3560240F4000042F40002A0FB94
:10030000022000047F39140400D0401C50EA12403F
:1003100001D44000491EC2B20C0604EBD010401CB0
:100320004008802A02D003E0002010BD20F0010028
:10033000002900DA0020184310BD30B480EA010221
:1003400002F0004530F0004221F0004013D090B19F
:10035000C30DD40DC2F31601C0F31600E41A41F424
:10036000000140F400027D34914201D3641C00E09E
:100370004900002C02DA30BC002070474FF4000026
:100380000023914201D3891A034340084FEA4101F7
:10039000F7D151B1914202D14FF0004105E002D2B4
:1003A0004FF0010101E06FF0010103EBC45028445C
:1003B00030BC00F0EAB9420005D0C0F3C752524247
:1003C000914201DC0020704700EBC15070472DE9DD
:1003D000FE4F804681EA0300C00F0C46009021F0DA
:1003E000004123F00045B8EB0200A94105D2404688
:1003F000214690461C460B46024623F0004010431F
:1004000047D0270DC7F30A00C3F30A510290401AE0
:10041000019040286BDAC3F3130040F4801B00986E
:10042000924620B10023D2EB030A63EB0B0B019839
:100430005946C0F14002504600F086F906460D4686
:1004400050465946019A00F08EF910EB08006141C0
:10045000002487EA115284EAE7731A4340D0009AD5
:1004600062B3019A012A4FEA075215DC001B61EBC7
:1004700002014FF0004202EA0752CDE90042001C9F
:1004800041F5801132462B4600F0C5F903B0BDE8B6
:10049000F08F40462146F9E7001B61EB0201001C8A
:1004A00041F5801300185B412018A2F5001747EBB7
:1004B000030140EAD570B6196D4111E06D084FEAAD
:1004C000360645EAC0754FEA0752001B61EB020190
:1004D000001C41F5801149084FEA300000195141D4
:1004E00032462B4603B0BDE8F04F00F085B90098C6
:1004F000012240000023D0EB020263EBE07300987E
:1005000021464FEAE074B8EB000061EB0401E9E733
:1005100083F000435BE781F0004158E72DE9FE4F8F
:1005200081EA030404F0004421F0004100944FF0FC
:10053000000B23F0004350EA01045ED052EA0304AA
:100540005BD0C3F30A54C1F30A552C44A4F2F3342C
:100550000194A0FB0254C1F3130141F48011C3F3D1
:10056000130343F4801301FB024400FB034E840A8F
:10057000970A44EA815447EA8357A4FB0768029527
:100580008D0A05FB07854FEA932C04FB0C542705C5
:10059000029D4FEA065847EA1637B5EB08056EEBA1
:1005A000070C870E920E47EA811742EA8312A7FBD7
:1005B0000201B6EB0B0164EB00042B0D43EA0C3394
:1005C0005E1844EB1C50DA465146E7FB0201C5F3C6
:1005D00013044FEA0B3343EA14534FEA0432019CED
:1005E00043EA0603A4F10C040294009CCDE900B494
:1005F00000F011F903B0BDE8F08F00200146F9E7E3
:10060000C10F80EAE0700844CA079623002100F079
:10061000C5B896230022114600F0C0B80EB540F2CE
:10062000334102910021CDE900110A460B4600F04A
:10063000F2F803B000BD00F0004220F00040C10D10
:10064000C0F3160040F400007F2901DA0020704753
:10065000962903DCC1F19601C84001E09639884033
:10066000002AF4D04042704720F00040C10DC0F392
:10067000160040F400007F2901DA00207047962917
:1006800003DCC1F19601C840704796398840704735
:10069000C1F30A5210B5C1F3130140F2FF3341F424
:1006A00080119A4201DA002010BD40F233439A4291
:1006B000A2F2334203DC5242FFF787FD10BD9040A7
:1006C00010BD00F0004230F000400AD0C10D01F52D
:1006D0006071C0F3160042EA0151C208400711439D
:1006E000704700200146704730B5041E71F10004C8
:1006F00004DB4FF00044404264EB0101141E73F12F
:10070000000405DB1C464FF00043524263EB040338
:100710008B4208BF824230BD30B5041E71F1000427
:1007200004DB4FF00044404264EB0101141E73F1FE
:10073000000405DB1C464FF00043524263EB040308
:10074000994208BF904230BD202A04DB203A00FACB
:1007500002F1002070479140C2F1200320FA03F318
:10076000194390407047202A06DBCB17203A41FA04
:1007700002F043EAE07306E041FA02F3D040C2F12E
:10078000200291400843194670470029A8BF7047CE
:10079000401C490008BF20F00100704710B4B0FAB7
:1007A00080FC00FA0CF050EA010404BF10BC704752
:1007B00049B1CCF1200421FA04F411FA0CF118BF6C
:1007C000012121430843A3EB0C01CB1D4FEA00613B
:1007D0004FEA102042BF002010BC704700EBC3500E
:1007E00010440029A4BF10BC7047401C490008BF3A
:1007F00020F0010010BC704710B5141E73F1000406
:1008000008DA401C41F1000192185B411A4301D102
:1008100020F0010010BD2DE9F04D92469B4611B12C
:10082000B1FA81F202E0B0FA80F220329046FFF78E
:100830008BFF04460F4640EA0A0041EA0B0153468B
:100840005A46084313D0114653EA010019D0C8F1A3
:1008500040025046FFF7B9FC05460E465046594641
:100860004246FFF771FF084305D0012004E020460F
:100870003946BDE8F08D0020054346EAE0762C437A
:1008800037430A986305E40AA0EB08000022FD0A3A
:1008900044EA47540A3002D500200146E9E7010541
:1008A00010196941DDE9084500196941BDE8F04DBD
:1008B000A2E72DE9F04D81EA030404F0004B21F09A
:1008C000004514464FF0000A23F0004150EA0502AB
:1008D00020D054EA01021DD0C5F30A570246C5F3E1
:1008E0001303C1F31300C1F30A5640F4801543F417
:1008F0008013A7EB0608101BD64608F2FD3873EBF1
:10090000050002D308F1010801E092185B41B8F13B
:10091000000F03DA00200146BDE8F08D00204FF4FF
:100920008011064684460EE0171B73EB050705D3BE
:10093000121B63EB050306434CEA010C49084FEA1E
:10094000300092185B4150EA0107EDD152EA0300F2
:1009500012D082EA040083EA0501084305D0101B87
:10096000AB4106D20122002306E000224FF00043F3
:1009700002E06FF0010253101AEB06004CEB085135
:1009800010EB0A0041EB0B01BDE8F04DFFF734BF5F
:1009900070B521F0004303430CD0C1F30A55002485
:1009A000D5EB040564EB0403D617AD1AB34102DBA3
:1009B0000020014670BD201841EB025170BD2DE9A9
:1009C000F04D00231A461B1A8A4103DB0020014622
:1009D000BDE8F08DC1F30A52C1F3130141F4801553
:1009E0004FF0000BD10702D100186D41521E0027B5
:1009F000044640F2FF11384601EB620A3E4680464B
:100A0000024600204FF48011FFF7DFFBC21971414D
:100A1000BB1846EB0100B4EB030C75EB000C04D3E0
:100A2000E41A65EB000517460E46241908F101008B
:100A30006D4180463428E3DDF91946EB0600091BB9
:100A4000A84103D24FF0FF32134601E000221346C3
:100A50001BEB070046EB0A51BDE8F04DFFF7CCBE9B
:100A60002DE9F041054621F000400C46284309D00D
:100A7000C4F30A5040F23341884205DD284621463E
:100A8000BDE8F0812846FBE740F2FE31884210DCE9
:100A90000CDB4FEA043040EA155050EA053105D02E
:100AA000104804F0004101430020E9E7002001461E
:100AB000E6E7A0F233404642C6F14002284621460E
:100AC000FFF742FE07468846284621463246FFF792
:100AD0007CFB43463A46FFF78FFE3246BDE8F041C5
:100AE000FFF732BE0000F03F0EB5C10F80EAE070A4
:100AF0000844CA07002140F233438DE80E000A463D
:100B00000B46FFF788FE03B000BD0000064C074D02
:100B100006E0E06840F0010394E8070098471034CD
:100B2000AC42F6D3FFF708FB98BE0308B8BE030833
:100B300070B58C1810F8015B15F0070301D110F89F
:100B4000013B2A1106D110F8012B03E010F8016BCC
:100B500001F8016B5B1EF9D12B0705D40023521E4F
:100B60000DD401F8013BFAE710F8013BCB1A921CB7
:100B700003E013F8015B01F8015B521EF9D5A142B5
:100B8000D8D3002070BD704702F01ABD002A08BFFC
:100B900070472DE9F04115460E4607464FF0A00874
:100BA0003C46781C87B202F0BFFD200A08EB4000EB
:100BB000C0B202F089FD02F0F9FDE0B202F084FD5E
:100BC00002F0F4FD02F0B0FDA12002F07DFD02F084
:100BD000EDFD002002F018FD044602F0C5FD681E80
:100BE000050406F8014B2D0CDAD1BDE8F08110B5F3
:100BF000044602F099FD200AA02101EB4000C0B29A
:100C000002F062FD02F0D2FDE0B202F05DFD02F002
:100C1000CDFD02F089FDA12002F056FD02F0C6FDD7
:100C2000002002F0F1FC044602F09EFD204610BDBB
:100C30002DE9F0410446501E0E4685B22CBFA02778
:100C4000BDE8F08196F8008002F06EFD200A07EB07
:100C50004000C0B202F038FD02F0A8FDE0B202F0A0
:100C600033FD02F0A3FD404602F02EFD02F09EFD92
:100C700002F07AFD0A200DF059FB601C691E84B257
:100C80008DB206F10106DDD2BDE8F08170B50D46EA
:100C9000044602F049FD200AA02101EB4000C0B249
:100CA00002F012FD02F082FDE0B202F00DFD02F052
:100CB0007DFD284602F008FD02F078FD02F054FDAB
:100CC000BDE870400A200DF031BBFEE7154810B5B5
:100CD000816986B041F008018161816901F00801F4
:100CE0000491816941F0800181618069012400F0F3
:100CF000800004900220CDE900040320CDE90240E9
:100D00006946094801F00AFA6002009069460748FE
:100D100001F004FA0648C0F884410648C0F8A4412E
:100D200006B010BD00100240000C0140001C014044
:100D300000802142008023422DE9F05F2B4E834644
:100D40000024306820F0F0003060306840F080000F
:100D500030601E200DF016FB0025254FDFF894A013
:100D6000A8464FF0010900BFC7F8848105200DF0A7
:100D700009FBC7F884916006040EDAF82401002804
:100D80001CBF601CC4B2681CC5B2082DECD3BBF1FB
:100D9000000FC7F88481306820F0F00030603068C0
:100DA00040F0300030604FF0050010D00DF0EAFA4E
:100DB000CAF8A48105200DF0E5FAC7F88491052052
:100DC0000DF0E0FAC7F884812046BDE8F09F0DF0F1
:100DD000D9FACAF8A49105200DF0D4FAC7F8849185
:100DE00005200DF0CFFAC7F88481EDE7041C01401F
:100DF00000802142008023422DE9F0470646154835
:100E0000016821F0F0010160016841F030010160EA
:100E1000114C4FF00008C4F8848105200DF0B2FA9F
:100E20000025DFF838900127F009C9F8A401700601
:100E3000060EC4F8847105200DF0A4FAC4F884816C
:100E400005200DF09FFA681CC5B2082DECD3BDE853
:100E5000F0870000041C01400080214200802342F2
:100E600070B50F48016821F0F0010160016841F0A0
:100E7000300101600B4C0120C4F8A4010A4DC5F8F3
:100E800084011E2004F5D27405F5C2750DF07AFABE
:100E90000026266005200DF075FA2E6070BD00005A
:100EA000041C0140008023420080214270B50D489F
:100EB000016821F0F0010160016841F0300101603A
:100EC00009480125C0F884511E200DF05BFA074C3B
:100ED0000020C4F8A401052004F5D2740DF052FAE4
:100EE000256070BD041C0140008021420080234227
:100EF0002DE9F0471F4D0024286820F0F0002860FD
:100F0000286840F0800028601B4E0127C6F8A471B5
:100F1000DFF86880C8F8847105200DF033FAD6F840
:100F20002401A14608B3601CC4B2FA2C16D9286863
:100F300020F0F0002860286840F030002860C8F8F1
:100F400084711E200DF01EFAC6F8A49105200DF044
:100F500019FAC6F8A4710120BDE8F08705200DF04C
:100F600011FAD6F824010028DDD1C8F884910020B8
:100F7000BDE8F087041C014000802342008021422C
:100F80007047704770477047014800F0D5BE0000B9
:100F9000580400207047012001F0B4B8082001F087
:100FA000B1B8102001F0AEB872B6FEE710B4B3F5D8
:100FB000804F18BF6FF0704105D000BF40F822107D
:100FC00010BC00207047D1F818C00B688C6843EA49
:100FD0000C03D1F804C089894FEA0C1C4CEA042C9C
:100FE00043EA0C0343EA014150F82230DFF808C01D
:100FF00003EA0C031943E1E70000F0CF0A6850F858
:10100000223023F0010340F822308B68082B0CBFFC
:1010100040220022D1F804C04CEA0303D1F80CC0EE
:101020004CEA02021A430B691A434B691A43CB6913
:101030001A430B6A1A434B6A1A438B6A1A43CB6AE8
:101040001A430B6B1A438B691A434B6B09681A439B
:10105000044B50F821C02CEA03031A4340F8212026
:10106000002070477FFF0F0010B4D1E9003C43EA35
:101070000C13D1F808C08C894FEA0C2C4CEA044CB4
:1010800043EA0C03B1F810C00B4C00EB820004EBF8
:101090000C5C43EA0C0391F814C0640104EB0C6C83
:1010A000896943EA0C034268194302F04042114344
:1010B000416010BC002070470000F0FF2DE9F041B6
:1010C00082488AB0816941F0800181618069012490
:1010D00000F0800000904FF40060CDE9040403208C
:1010E000CDE906407A4D04A9284601F017F8A00280
:1010F0000026CDE9040604A9284601F00FF8FFF701
:10110000E5FD744DC5F8AC61142005F5D6750DF0FC
:101110000DF92C6032200DF009F98DF8046001AF53
:101120000125FFF79DFE7020FFF766FEFFF7E0FE4A
:101130003046FFF761FEFFF7DBFE0024385DFFF766
:101140005BFEFFF7D5FE18B9601CC4B2AC42F5D304
:10115000FFF7ACFE01AD0127FFF782FE7020FFF71D
:101160004BFEFFF7C5FEA420FFF746FEFFF7C0FECB
:101170000024285DFFF740FEFFF7BAFE18B9601C97
:10118000C4B2BC42F5D3FFF791FE16208DF80400DF
:1011900001AF0125FFF764FE7020FFF72DFEFFF77A
:1011A000A7FE8020FFF728FEFFF7A2FE0024385D8F
:1011B000FFF722FEFFF79CFE18B9601CC4B2AC42D8
:1011C000F5D3FFF773FE0C208DF8040001AF012565
:1011D000FFF746FE7020FFF70FFEFFF789FE88201D
:1011E000FFF70AFEFFF784FE0024385DFFF704FED8
:1011F000FFF77EFE18B9601CC4B2AC42F5D3FFF70E
:1012000055FE01AD0227FFF72BFE7020FFF7F4FD1E
:10121000FFF76EFEA120FFF7EFFDFFF769FEFFF776
:101220001FFE7120FFF7E8FDFFF762FE0024A7F123
:10123000010803E0444508BF002000D00120FFF76B
:101240007BFD2855601CC4B2BC42F3D3FFF72EFED1
:101250009DF80400302804BF9DF8050003282ED017
:101260004FF0040201A948F2401000F0B5FA8DF8E1
:10127000086001A918A009F013FE1A48019901227B
:10128000C0F8021002208DF8040001A948F24000C5
:1012900000F064FC012201A948F2470000F09CFA2A
:1012A0000A200DF043F88DF80460012201A948F2EC
:1012B000400000F053FC0AB00020BDE8F08143F28A
:1012C000030109A009F0ECFDF5E700000010024061
:1012D000001C0140008023424354502049443A25D9
:1012E000730D0A00640000204354502049443A25FD
:1012F000780D0A002DE9F14F82B00026DFF82C931B
:101300008DF80460CA4999F80100DFF82883401C71
:10131000C0B2A1FB0021C908494201EB8101354659
:1013200089F8010010EB410102D00A2880F04981C0
:10133000C1A1C248FEF760FFC8B10DF1080A01273C
:10134000FFF78EFD7020FFF757FDFFF7D1FD02205C
:10135000FFF752FDFFF7CCFDFFF782FD7120FFF78D
:101360004BFDFFF7C5FD0024A7F1010B1DE0012295
:1013700002A948F24E1000F02FFA9DF8080010F074
:10138000800F1DD099F8001000F00F00884217D888
:101390008DF80460012201A948F24E1000F0DEFB36
:1013A0000EE05C4518BF012000D10020FFF7C4FC0F
:1013B0000AF80400601CC4B2BC42F2D3FFF776FD09
:1013C0009DF8080010F00F0F00F0FB8099F8001056
:1013D00000F00F00884200F2F480FF2202FA00F0D1
:1013E000C04398F820B040F0C00088F8200008EB17
:1013F0004100B8F80C204281B8F816108182042010
:101400000CF094FF00208DF8040099F80010814240
:1014100088BF4FF0010A7CD998F82010C0B20AFAB0
:1014200000F0014241D084A18448FEF7E5FEE0B11E
:1014300083489DF804106E46042510F81140FFF70C
:101440000FFD7020FFF7D8FCFFF752FDE0B2FFF769
:10145000D3FCFFF74DFDFFF703FD7120FFF7CCFC38
:10146000FFF746FD00246F1E36E076489DF8041015
:10147000042230F81100694600F0AEF998F8300007
:101480009DF8011010F0010F9DF800000ED000EB48
:1014900001219DF8040008EB400081819DF80210B5
:1014A0009DF8032001EB0221C1824EE000EB0120F8
:1014B0009DF8041008EB4101C8829DF802009DF8D8
:1014C000032000EB022260480088801A88813CE0FB
:1014D000BC4208BF002000D00120FFF72DFC305592
:1014E000601CC4B2AC42F3D3FFF7E0FC98F83000C4
:1014F0009DF8001010F0010F9DF8010001F00F01A0
:1015000000EB012110D09DF8040008EB4000C182DF
:1015100000E025E09DF802209DF8031002F00F0284
:1015200001EB0221818110E047480088411A9DF8B3
:10153000040008EB400081819DF802209DF8031013
:1015400002F00F0201EB0221C1829DF80400401C51
:10155000C0B28DF8040099F800108842FFF45CAF27
:101560003948B8F80C10012502888A4208D3B8F827
:1015700016104088884224BF002089F8010020D23C
:101580009DF8080000F00F0001280BD9B8F80E00F4
:10159000A8F80C00B8F81800A8F81600002089F880
:1015A00001000EE099F8000008EB40004189A8F81E
:1015B0000C10808AA8F8160080208DF8080088F8A2
:1015C00020B01DA11D48FEF717FE01009DF8081070
:1015D0004FF6FF7003D011F01F0F18D00CE001F090
:1015E0008F01802908D198F8201011F0800F13D1B5
:1015F00015E000BF88F8200099F80100F02884BFAA
:101600000A2089F80100284603B0BDE8F08F98F859
:10161000201011F0800F02D021F08000EAE7A8F836
:101620000C00A8F8160001F0E000E3E764000020D9
:10163000CDCCCCCC30000020393131006600002008
:10164000107603081A7603082C0500202DE9F041D6
:1016500054488AB0816941F0800181618069012428
:1016600000F0800000904FF40060CDE904040320F6
:10167000CDE90640DFF8308104A9404600F04EFD78
:10168000A7020026CDE9047604A9404600F046FDF5
:10169000FFF71CFB454DC5F8AC610A2005F5D67572
:1016A0000CF044FE2C600A200CF040FE022404974B
:1016B000CDE9056404A9404600F030FD64200CF03B
:1016C00035FE042201A948F2401000F085F88DF89B
:1016D000086001A936A009F0E3FB38A101A8FEF7D4
:1016E0008BFD00281EBF00200AB0BDE8F0818DF8F8
:1016F000044001AD0127FFF7B3FB2820FFF77CFB77
:10170000FFF7F6FB8020FFF777FBFFF7F1FB4020A8
:10171000FFF772FBFFF7ECFB0024285DFFF76CFB83
:10172000FFF7E6FB18B9601CC4B2BC42F5D3FFF763
:10173000BDFB012201A948F2470000F04DF89DF8D9
:101740000410602905D21FA009F0AAFB012000F0B7
:1017500099F90A200CF0EAFD8DF8046001AD01262C
:10176000FFF77EFB2820FFF747FBFFF7C1FB802038
:10177000FFF742FBFFF7BCFB4020FFF73DFBFFF705
:10178000B7FB0024285DFFF737FBFFF7B1FB18B963
:10179000601CC4B2B442F5D3FFF788FB0AB0002046
:1017A000BDE8F08100100240001C0140008023428F
:1017B0004354502049443A25730D0A0039313437D7
:1017C0000000000044656661756C74205665723ACD
:1017D00025640D0A000000002DE9F04115460F4672
:1017E0000446FFF73DFB2820FFF706FBFFF780FBD1
:1017F000200AFFF701FBFFF77BFBE0B2FFF7FCFAE3
:10180000FFF776FBFFF72CFB2920FFF7F5FAFFF730
:101810006FFB0024002D88BF6E1E0AD9B44214BF8E
:1018200001200020FFF788FA3855601CC4B2AC4292
:10183000F4D3BDE8F041FFF739BB00002DE9F14FCB
:10184000DFF82CA28B4984B09AF800000025401CD8
:10185000C0B2A1FB0021C908494201EB8101DFF8B8
:1018600018928AF8000010EB410102D00A2880F09B
:10187000DB80012204A948F24E10FFF7ADFF9DF86E
:10188000100010F0800F26D000F00F00062822D2A2
:1018900000208DF8040001AE0127FFF7E1FA2820AF
:1018A000FFF7AAFAFFF724FB8120FFF7A5FAFFF75D
:1018B0001FFB4E20FFF7A0FAFFF71AFB0024305D54
:1018C000FFF79AFAFFF714FB18B9601CC4B2BC42C8
:1018D000F5D3FFF7EBFA9DF8100010F00F0F7DD055
:1018E00000F00F00062879D2FF2101FA00F08DF8F0
:1018F000040099F82010C04340F0C000029189F81C
:101900002000B9F80C00A9F81400B9F81600A9F8DD
:101910001E004FF000084FF0010B00BF99F8201097
:101920000BFA08F001424DD054486E46042530F8B9
:101930001840FFF795FA2820FFF75EFAFFF7D8FA6C
:10194000200AFFF759FAFFF7D3FAE0B2FFF754FA8B
:10195000FFF7CEFAFFF784FA2920FFF74DFAFFF7D9
:10196000C7FA00246F1E03E0BC4208BF002000D06D
:101970000120FFF7E1F93055601CC4B2AC42F3D34B
:10198000FFF794FA99F830009DF8011010F0010F5C
:101990009DF8000000EB012109EB48000AD0C1824C
:1019A0009DF802109DF8032001EB0221C1F548715A
:1019B000818107E081819DF802109DF8032001EBF1
:1019C0000221C18208F1010000F0FF08B8F1050F03
:1019D000A4D301254846B9F80C2000E024E02849AA
:1019E0000B88934207D3C28A4988914224BF0020C2
:1019F0008AF8000018D29DF8101001F00F0101299B
:101A000008D9C1898181018BA9F8161000208AF8B4
:101A1000000009E0818A8181C18BC18280218DF81B
:101A20001010029989F820109DF8100000F08F0026
:101A3000802811D199F8200010F0800F18BF20F0F5
:101A4000800007D14FF6FF71A9F80C10A9F8161005
:101A500000F0E00089F820009AF80000F02884BF28
:101A60000A208AF80000284605B0BDE8F08F000083
:101A70006B000020CDCCCCCC30000020DC760308FD
:101A80002C050020F8B500218DF80010DFF8C8C043
:101A90008DF8010060469CF800108DF800109CF84D
:101AA000013000215FF05B029DF8005010F8024FFA
:101AB0002B448DF8003043782144C9B2521EF3D133
:101AC0009DF80000244D08449CF8B710B82608443F
:101AD000C043401C8DF80000FFF7C2F92820FFF733
:101AE0008BF9FFF705FA8020FFF786F9FFF700FA78
:101AF0004720FFF781F9FFF7FBF90024285DFFF786
:101B00007BF9FFF7F5F918B9601CC4B2B442F5D3FC
:101B1000FFF7CCF96D460226FFF7A2F92820FFF760
:101B20006BF9FFF7E5F98020FFF766F9FFF7E0F9B9
:101B3000FF20FFF761F9FFF7DBF90024285DFFF7CD
:101B40005BF9FFF7D5F918B9601CC4B2B442F5D3FC
:101B5000FFF7ACF90020F8BD247603082DE9F04129
:101B600016460F4604460025FFF77AF92820FFF7AE
:101B700043F9FFF7BDF9200AFFF73EF9FFF7B8F97F
:101B8000E0B2FFF739F9FFF7B3F90024002E0AD9C4
:101B9000385DFFF731F9FFF7ABF9050003D1601CA1
:101BA000C4B2B442F4D3FFF781F92846BDE8F0810E
:101BB00090F821200021022A05D00422826380F8B7
:101BC0002010012070470268136823F00E03136091
:101BD0000268136823F00103136090F84030D0F8D6
:101BE0003CC0012202FA03F3CCF8043080F8212033
:101BF00080F82010084670472DE9F05F90F821101A
:101C00000024022903D004218163012477E00168C4
:101C10000A6822F00E020A6001680A6822F00102D6
:101C20000A60384A0168384BDFF8E0C0384D394E59
:101C3000394FDFF8E880DFF8E890DFF8E8A0DFF858
:101C4000E8B0DFF8E8E0914225D999420ED061452D
:101C500010D0A94212D0B14215D0B94216D0414598
:101C600008BF4FF4801113D0494501D101210FE085
:101C7000514501D110210BE0594502D14FF480713B
:101C800006E0714502D14FF4805101E04FF48031FC
:101C9000274A116029E0994213D0614515D0A94225
:101CA00017D0B1421AD0B9421BD0414508BF4FF4FA
:101CB000801118D0914208BF4FF0807113D0494570
:101CC00001D101210FE0514501D110210BE059450F
:101CD00002D14FF4807106E0714502D14FF480517A
:101CE00001E04FF48031134A5160012180F8211046
:101CF000002180F82010416B002918BF884720463A
:101D0000BDE8F09F80000240080002401C00024035
:101D10003000024044000240580002406C00024083
:101D2000080402401C040240300402404404024003
:101D300004040240000002402DE9F05FC16B0E6810
:101D400001680D68D0F840B0042202FA0BF232426A
:101D5000864A874FDFF81C82DFF81C92DFF81CA24E
:101D6000874BDFF820C2884C18BF15F0040F64D0F1
:101D70000D6815F0200F03D10D6825F004050D60E6
:101D8000824D0168A94227D991420ED0B94210D0A4
:101D9000414513D0494517D0514518D0994208BF45
:101DA0004FF4800115D0614501D1042111E0A14219
:101DB00001D140210DE0764A914202D14FF4806179
:101DC00007E0744A914202D14FF4804101E04FF4A0
:101DD0008021714A11602BE0914213D0B94215D095
:101DE000414518D049451CD051451DD0994208BFE6
:101DF0004FF480011AD0A94208BF4FF0806115D07E
:101E0000614501D1042111E0A14201D140210DE041
:101E10005F4A914202D14FF4806107E05D4A9142EE
:101E200002D14FF4804101E04FF480215B4A5160C0
:101E3000C16A002975D1BDE8F09F4FF0020E0EFA7D
:101E40000BFE1EEA060F18BF15F0020F6BD00D68CF
:101E500015F0200F06D10D6825F00A050D6001214F
:101E600080F82110494D0168A94227D991420ED02E
:101E7000B94210D0414513D0494517D0514518D02B
:101E8000994208BF4FF4001115D0614501D10221DC
:101E900011E0A14201D120210DE03D4A914202D141
:101EA0004FF4007107E03B4A914202D14FF40051D8
:101EB00001E04FF40031384A11602BE0914213D019
:101EC000B94215D0414518D049451CD051451DD0C7
:101ED000994208BF4FF400111AD0A94208BF4FF031
:101EE000007115D0614501D1022111E0A14201D15B
:101EF00020210DE0264A914202D14FF4007107E003
:101F0000244A914202D14FF4005101E04FF40031D4
:101F1000224A5160002180F82010816A09B9BDE889
:101F2000F09F1FE0FFE7082202FA0BF2324214BFD3
:101F300015F0080FBDE8F09F0A6822F00E020A6053
:101F400090F84020C36B012101FA02F25A608163CC
:101F500080F82110002180F82010016B002908BFB3
:101F6000BDE8F09FBDE8F05F0847000008000240B0
:101F70001C00024030000240440002405800024071
:101F80006C000240080402401C0402408000024031
:101F900030040240440402400404024000000240B5
:101FA000002804BF012070471F4B01681F4A994257
:101FB00008D21F4B0B44A2FB0332120992000264A9
:101FC0001C4A07E01C4B0B44A2FB0332120992008F
:101FD00002641A4AC26310B4022280F821200A68FF
:101FE000D0E9013C43EA0C03D0E903C44CEA040CF9
:101FF00043EA0C03D0F814C06FF30D1243EA0C034C
:10200000D0F818C043EA0C03D0F81CC043EA0C0314
:102010001A430A6000218163012280F8212080F8A0
:10202000201010BC0846704708040240CDCCCCCC30
:10203000F8FFFDBF00000240F8FBFDBF00040240B6
:1020400070B490F820404FF0000C012C02BF022029
:1020500070BC7047012480F8204090F82160002572
:10206000012E1CBF80F820504FF0020C02D070BC33
:1020700060467047022680F82160856305682E68F7
:1020800026F001062E6090F84050AC40C56B6C60A5
:10209000046863604368102B036803BF9A6002689A
:1020A000D16099601CBF0168CA60C16A00290168DB
:1020B0000A6818BF42F00E0206D122F004020A603C
:1020C00001680A6842F00A020A600068016841F08B
:1020D00001010160CBE7000070B5094D044610F026
:1020E000080F03D02021284600F01AF914F0100F31
:1020F00008BF70BD20212846BDE8704000F010B92F
:10210000000C014004490A68024208BF704710B53C
:102110000860FFF7E1FF10BD1404014000230A68C6
:102120009C46002A08BF70472DE9F84F784EDFF82B
:10213000DC914FF001080F2706F1040E0A6808FA37
:1021400003F42240A2427CD14D68A5F1805AAAF541
:10215000881A4D4500F0C98074DC032D08BF4FF08C
:10216000000C1BD00DDC002D6DD0012D08BFD1F867
:102170000CC013D0022D04BFD1F80CC00CF1080C18
:102180000CE0112D04BFD1F80CC00CF1040C05D0EB
:10219000122D04BFD1F80CC00CF10C0CB2F5807FED
:1021A00034BF0546051D4FEA830428BF203CD5F8FF
:1021B00000A007FA04FB2AEA0B0A0CFA04F44AEA24
:1021C00004042C604C6814F0805F74D0514CA569F5
:1021D00045F00105A561A46904F00104009423F011
:1021E000030404F1804505F58035D5F808A04FEAD1
:1021F00083744FEA147407FA04FB2AEA0B0AA0F16D
:10220000804BBBF5843B2CD0A0F1804BBBF5863BCB
:1022100008BF4FF0010B24D0A0F1804BBBF5883BE9
:1022200008BF4FF0020B1CD0A0F1804BBBF58A3BDE
:1022300008BF4FF0030B14D0A0F1804BBBF58C3BD3
:1022400002E038E03EE050E008BF4FF0040B08D059
:10225000A0F1804BBBF58E3B0CBF4FF0050B4FF050
:10226000060B0BFA04F444EA0A04AC604C6814F45C
:10227000801F346814BF1443944334604C6814F4D2
:10228000001FDEF8004014BF14439443CEF8004012
:102290004C6814F4003F204C256814BF1543954347
:1022A00025604C6814F4803F1C4C256814BF2A43F9
:1022B00025EA020222600A685B1CDA407FF43EAF26
:1022C000BDE8F88FBAF5881F0FD007DCBAF5803F5C
:1022D00018BFBAF5801F7FF461AF06E0BAF5001FA2
:1022E00018BFBAF5041F7FF459AFD1F808C0BCF18C
:1022F000000F08BF4FF0040C3FF450AFBCF1010FCA
:102300004FF0080C0CBF0461446147E70000111056
:102310000804014000100240040401400004014090
:10232000C26821EA0203114043EA0141016170479A
:10233000002A08BF09040161704700000148806855
:1023400070470000140000200248816802781144A0
:102350008160704714000020074810B5016841F003
:1023600010010160032000F081F80F2000F006F852
:1023700000F024F8002010BD0020024070B50D4D83
:1023800004464FF47A712878B1FBF0F00A490968E5
:10239000B1FBF0F000F0CAFB48B9102C07D20022C4
:1023A0002146501E00F030F800206C6070BD012006
:1023B00070BD00001400002020000020094881B0FA
:1023C000816941F001018161816901F001010091A0
:1023D000C16941F08051C161C06900F08050009036
:1023E00001B07047001002400028B8BF704700F0ED
:1023F0001F01012202FA01F14009800000F1E020F2
:10240000C0F8001170470000174B10B41B68C3F3ED
:102410000223C3F1070CBCF1040F88BF4FF0040C7A
:102420001C1D072C34BF0023DB1E012404FA0CFC06
:10243000ACF1010C0CEA0101994004FA03F35B1EB4
:102440001A40114300284FEA0111A1BF00F1E0201A
:1024500080F8001410BC704700F00F0000F1E0207D
:1024600080F8141D10BC70470CED00E0074900F027
:1024700007000A684FF6FF031A4042EA002040F0C6
:10248000FD7040F080600860704700000CED00E0D7
:10249000002804BF012070472DE9F047DFF878815C
:1024A00005460E46D8F8000000F00700B0420CD2F6
:1024B000D8F8000020F007003043C8F80000D8F832
:1024C000000000F00700B04263D12868534C10F0C0
:1024D000020F14D010F0040F03D0606840F4E060E5
:1024E0006060287810F0080F03D0606840F46050F6
:1024F00060606068A96820F0F00008436060287898
:1025000010F0010F32D0686801281FD0216802281E
:1025100021D011F0020F3CD0616821F00301084383
:102520006060FFF70BFF07466068696800F00C0009
:10253000B0EB810F18BF41F2883917D0FFF7FEFECC
:10254000C01B48450BD90320BDE8F087216811F472
:10255000003FE1D11DE011F0007FDDD119E060689E
:10256000696800F00C00B0EB810FE7D1D8F80000EB
:1025700000F00700B0420FD9D8F8000020F00700A3
:102580003043C8F80000D8F8000000F00700B0425F
:1025900002D00120BDE8F087287810F0040F05D0A4
:1025A0006068E96820F4E06008436060287810F013
:1025B000080F06D06068296920F4605040EAC10025
:1025C00060606168164801F00C02042A14D0082AE1
:1025D00012D11448C1F3834211F4803F805C04BFE0
:1025E0001149484308D06168104AC1F34041515C29
:1025F0000B4A5043B0FBF1F061680D4AC1F303117F
:10260000515CC8400B4908600B480068FFF7B6FEF4
:102610000020BDE8F08700000020024000100240CA
:1026200000127A00245E030800093D00225E0308C0
:10263000345E0308200000201800002004480549EB
:1026400000684968044AC1F30221515CC8407047E0
:102650002000002000100240445E030804480549A1
:1026600000684968044AC1F3C221515CC840704700
:102670002000002000100240445E0308002804BF30
:10268000012070472DE9F84F04460078E84D10F01E
:10269000010F59D0686800F00C00042808D0686861
:1026A00000F00C0008280CD1686810F4803F08D0B6
:1026B000286810F4003F47D06068002800F0B2811D
:1026C00042E06068B0F5803F04BF286840F4803085
:1026D0000AD010B1B0F5A02F11D0286820F48030B6
:1026E0002860286820F4802028606068D0B1FFF757
:1026F00025FE0646286810F4003F08D024E028682C
:1027000040F480202860286840F48030ECE7FFF730
:1027100015FE801B642800F23681286810F4003F03
:10272000F5D011E0FFF70AFE0646286810F4003FD6
:102730000AD000BFFFF702FE801B642800F223814D
:10274000286810F4003FF5D12078BA4E10F0020F3F
:102750004FF0010B4FF0000845D0686810F00C0FE7
:1027600014D0686800F00C00082804BF686810F4F2
:10277000803F0BD0206918B3C6F800B0FFF7DEFD2C
:102780000746286810F0020F09D011E0286810F001
:10279000020F1CBF206901280AD000F043B9FFF7DF
:1027A000CDFDC01B02287DD8286810F0020FF6D09E
:1027B0002868616920F0F80040EAC100286012E052
:1027C000C6F80080FFF7BAFD0746286810F0020F30
:1027D00009D000BFFFF7B2FDC01B022862D82868ED
:1027E00010F0020FF6D1207810F0080F35D0924883
:1027F000A169F9B1C0F800B0FFF7A0FD0746686A0B
:1028000010F0020F09D100BFFFF798FDC01B02288E
:1028100048D8686A10F0020FF6D0884801684FF473
:10282000FA50B1FBF0F0009000BF0098411E0091FB
:10283000FAD212E0C0F80080FFF780FD0746686A10
:1028400010F0020F09D000BFFFF778FDC01B02286F
:1028500028D8686A10F0020FF6D1207810F0040F23
:1028600079D0E8694FF0000A10F0805F09D1E8697B
:1028700040F08050E861E8694FF0010A00F08050B4
:102880000090DFF8BC91D9F8000010F4807F19D1D6
:10289000D9F8000040F48070C9F80000FFF74EFD41
:1028A000074600E06FE0D9F8000010F4807F09D1FE
:1028B000FFF744FDC01B642865D8D9F8000010F468
:1028C000807FF5D0E068012804BF286A40F001004D
:1028D00009D008B1052813D0286A20F00100286229
:1028E000286A20F004002862E06841F28837D0B1FD
:1028F000FFF724FD8146286A10F0020F08D023E07C
:10290000286A40F004002862286A40F00100EAE7E3
:10291000FFF714FDA0EB0900B84234D8286A10F084
:10292000020FF5D010E0FFF709FD8146286A10F08C
:10293000020F09D0FFF702FDA0EB0900B84222D830
:10294000286A10F0020FF5D1BAF1000F03D0E86940
:1029500020F08050E861E069F0B3696801F00C0193
:10296000082950D00228C6F860800FD0FFF7E6FC97
:102970000446286810F0007F57D000BFFFF7DEFC48
:10298000001B02283AD90320BDE8F88FFFF7D6FCD8
:102990000746286810F0007F09D000BFFFF7CEFC83
:1029A000C01B0228EFD8286810F0007FF6D1206AFB
:1029B000B0F5803F05D16868A16820F40030084375
:1029C0006860D4E908010843696821F47411084378
:1029D0006860C6F860B000E027E0FFF7AFFC04468F
:1029E000286810F0007F20D1FFF7A8FC001B022808
:1029F000C9D8286810F0007FF6D016E0286810F0DB
:102A0000007FBBD111E0012808BFBDE8F88F6868DE
:102A1000226A00F48031914204D1616A00F470109E
:102A2000884202D00120BDE8F88F0020BDE8F88F71
:102A30000010024000004242800442422000002078
:102A40000070004070B515460E46040019BFA0691D
:102A5000B0F5807F012070BD94F8410030B94FF08F
:102A6000000084F84000204600F01EF804F1080140
:102A70002068FEF7C3FA3146A2682068FEF7F4FA30
:102A8000D4E901022946236BFEF790FAA168206879
:102A900050F8212042F0010240F82120012084F862
:102AA0004100002070BD000030B585B000200090CE
:102AB0000190029003901848016800291CBF05B0DE
:102AC00030BD012101601548416941F480714161C7
:102AD0004069022400F48070049041F20100CDE9C5
:102AE00000040325694603950D48FFF717FB4FF6D1
:102AF0008070CDE90004694603950A48FFF70EFB94
:102B00004CF23370CDE90004694603950648FFF79F
:102B100005FB05B030BD00000000002000100240A1
:102B2000002001400018014000140140411EB1F195
:102B3000807F24BF012070474FF0E0204161054AAB
:102B4000F02182F8141D002181610721016100201C
:102B5000704700000FE000E07047704790F83C209D
:102B6000012A04BF0220704730B4012380F83C30B2
:102B7000022280F83D2002685468D2F808C00D682F
:102B800024F070042C4354600268A2F18044B4F530
:102B900096341CBFA2F18044B4F59A3411D0B2F13E
:102BA000804F1CBFA2F18044B4F5806409D0A2F12B
:102BB0008044B4F500641CBFA2F18044B4F54064C5
:102BC00005D149682CF0800C41EA0C01916080F835
:102BD0003D30002180F83C1030BC0846704700288A
:102BE00004BF0120704710B5044690F83D0028B995
:102BF000002084F83C00204600F01EF8022084F8F3
:102C00003D00211D206807F0EFF8012084F8460000
:102C100084F83E0084F83F0084F8400084F84100C6
:102C200084F8420084F8430084F8440084F84500A6
:102C300084F83D00002010BD08B501681348A1F1DB
:102C40008042B2F580520ED0A1F18042B2F5A0527E
:102C500018BF08BDC16941F02001C161C06900F021
:102C60002000009008BDC16941F01001C161C06938
:102C7000002200F01000009011463620FFF7C4FB40
:102C8000BDE808403620FFF7AFBB0000001002404F
:102C900090F83D1001291CBF01207047022180F8E7
:102CA0003D100068A0F18041B1F596311CBFA0F144
:102CB0008041B1F59A3111D0B0F1804F1CBFA0F125
:102CC0008041B1F5806109D0A0F18041B1F500618A
:102CD0001CBFA0F18041B1F5406104D1816801F0D1
:102CE0000701062903D0016841F0010101600020BD
:102CF000704790F83D1001291CBF01207047022148
:102D000080F83D100168CA6842F00102CA6000689C
:102D1000A0F18041B1F596311CBFA0F18041B1F521
:102D20009A3111D0B0F1804F1CBFA0F18041B1F5B4
:102D3000806109D0A0F18041B1F500611CBFA0F114
:102D40008041B1F5406104D1816801F00701062995
:102D500003D0016841F00101016000207047016863
:102D60000A6A41F211131A4207D10A6A9B101A42E9
:102D700003D10A6822F001020A60012180F83D10A7
:102D800000207047704770B50446006801694FF035
:102D9000000511F0020F1CBFC16811F0020F13D023
:102DA0006FF002010161012020772068806910F036
:102DB000030F204602D0FFF7E5FF04E000F099F88A
:102DC000204600F097F825772068016911F0040F7C
:102DD0001CBFC16811F0040F13D06FF00401016132
:102DE000022020772068806910F4407F204602D0BE
:102DF000FFF7C8FF04E000F07CF8204600F07AF806
:102E000025772068016911F0080F1CBFC16811F017
:102E1000080F13D06FF008010161042020772068AB
:102E2000C06910F0030F204602D0FFF7ABFF04E0AB
:102E300000F05FF8204600F05DF825772068016912
:102E400011F0100F1CBFC16811F0100F13D06FF0FC
:102E500010010161082020772068C06910F4407FCC
:102E6000204602D0FFF78EFF04E000F042F8204633
:102E700000F040F825772068016911F0010F1CBFB0
:102E8000C16811F0010F05D06FF00101016120460A
:102E900000F032F82068016911F0800F1CBFC16892
:102EA00011F0800F05D06FF0800101612046FFF71F
:102EB00053FE2068016911F0400F1CBFC16811F07A
:102EC000400F05D06FF040010161204600F03CF852
:102ED0002068016911F0200F1ABFC16811F0200F9E
:102EE00070BD6FF0200101612046BDE87040FFF722
:102EF00034BE7047704700000D49884218BF7047C4
:102F000010B50C4C6088401C608001202CF0F2F859
:102F10006088B0F57A7F18BF10BD00206080A0885F
:102F2000401C81B2A180BDE8104003A007F0B8BFEB
:102F30001C0300200C000020546869732069732072
:102F400031732028256429007047704770B5044606
:102F50000068406994F84110C0F3C0102025212971
:102F60001CD1D8B12068143050E8001F21F0800136
:102F700040E80012002AF5D1A06B002818BFFEF728
:102F800017FE206800F10C0151E8000F20F0C0008E
:102F900041E80002002AF4D184F8415020684069D9
:102FA00094F84210C0F38010222937D1B0B32068C2
:102FB00000F1140151E8000F20F0400041E8000248
:102FC000002AF4D1E06B002818BFFEF7F1FD20685D
:102FD00000F10C0151E8000F20F4907041E800026C
:102FE000002AF4D12068143050E8001F21F00101BC
:102FF00040E80012002AF5D1206B01280AD1206890
:1030000000F10C0151E8000F20F0100041E800022F
:10301000002AF4D184F8425000202063002070BDC3
:1030200070470000F8B5016804460868CA684B6933
:1030300010F00F0F4FF020064FF0000560D003F0A6
:10304000010C02F490775CEA07077CD010F0010FC6
:1030500018BF12F4807F03D0616C41F001016164FC
:1030600010F0040F18BF13F0010F03D0616C41F092
:103070000201616410F0020F18BF13F0010F03D0BA
:10308000616C41F00401616410F0080F1CBF02F094
:10309000200151EA0C0103D0616C41F00801616428
:1030A000616C002908BFF8BD10F0200F1EBF12F0A0
:1030B000200F204607F08CFD20684069616CC0F34A
:1030C000801011F0080F08BF002857D0206800F1C9
:1030D0000C0151E8000F20F4907041E80002002A32
:1030E000F4D1206800F1140151E8000F20F0010034
:1030F00041E80002002AF4D1206B012815D10AE032
:1031000010F0200F18BF12F0200F3CD02046BDE871
:10311000F84007F05DBD20680C3050E8001F21F03A
:10312000100140E80012002AF5D184F842602563BE
:103130002068406910F0400F1CD0206800F1140195
:1031400051E8000F00E01EE020F0400041E80002DE
:10315000002AF2D1E06B68B173494163E06BFEF77E
:103160004BFD002808BFF8BDE06B416B01B0BDE826
:10317000F04008472046FFF753FFF8BD2046FFF711
:103180004FFF6564F8BD236B012B7CD110F0100F4D
:1031900018BF12F0100F76D0086848680090486990
:1031A0004FF0020710F0400F45D0E16B086840680F
:1031B0000004000C1CBFA28D824298BFF8BDE085C0
:1031C000886920282ED020680C3050E8001F21F498
:1031D000807140E80012002AF5D12068143050E8D0
:1031E000001F21F0010140E80012002AF5D12068FB
:1031F00000F1140151E8000F20F0400041E8000206
:10320000002AF4D184F84260256320680C3050E82D
:10321000001F21F0100140E80012002AF5D1E06BF8
:10322000FEF7C6FC6763A08DE18D401A81B220468F
:10323000FFF78BFEF8BDA08DE18D401A81B2E08DC5
:10324000002814BF0029F8BD206800F10C0252E8E4
:10325000000F20F4907042E80003002BF4D12068A6
:1032600000F1140050E8002F22F0010240E8002392
:10327000002BF4D184F842602563206800F10C0231
:1032800052E8000F00E00AE020F0100042E80003DE
:10329000002BF2D167632046FFF757FEF8BD10F010
:1032A000800F18BF12F0800F2DD094F84100212814
:1032B00018BFF8BDA068B0F5805F04BF2069002882
:1032C000206A18D000F1010121622168007848606D
:1032D000E08CA0F101000004000CE08418BFF8BDF0
:1032E0002068C16821F08001C1602068C16841F098
:1032F0004001C160F8BD0088C0F308004860206A42
:10330000801C2062E4E710F0400F14BF12F0400F61
:10331000F8BD2046CA6822F04002CA6084F84160C5
:1033200000F04CF9F8BD00005DAA0008002804BFB9
:103330000120704770B5044690F84100002520B97F
:1033400084F84050204600F023F8242084F84100FF
:103350002068C16821F40051C160204607F0A0FC3C
:103360002068016921F4904101612068416921F0E0
:103370002A0141612068C16841F40051C16065645F
:10338000202084F8410084F842006563002070BD6D
:1033900070B586B000250646009501950295039507
:1033A0000068A0F18041B1F59C311CBF06B070BD32
:1033B0002149886940F480408861886900F4804030
:1033C0000490886940F00400886188691B4C00F013
:1033D00004000490481500900220019003200390FF
:1033E00069462046FEF79AFE2015CDE9000569469C
:1033F00020460295FEF792FE124C1148C4E90005E2
:103400008020C4E9025020202561C4E905502046EF
:10341000E561FEF7C5FD002818BFFDF7C5FDF463A3
:103420000022114625206662FEF7EEFF2520FEF7FA
:10343000DBFF06B070BD0000001002400008014034
:10344000580002405804002090F84230202B1CBF46
:1034500002207047002912BF002A012070474FF058
:103460000003036307F082BC704770472DE9F05FEB
:10347000044690F841001D461646884620281CBF89
:103480000220BDE8F09FB8F1000F12BF002E01200E
:10349000BDE8F09F4FF0000BC4F844B04FF021009E
:1034A00084F84100FEF74AFFA6848146E684A068BE
:1034B000B0F5805F07BF2069002846464FF000083E
:1034C00008BF0026E08C4FF0200AB0B320684FF010
:1034D0008007006837EA000024D000BFB5F1FF3F45
:1034E0001BD02DB1FEF72AFFA0EB0901A94214D988
:1034F00020680C3050E8001F21F4D07140E8001221
:10350000002AF5D12068143050E8001F21F0010195
:1035100040E80012002AF5D135E02068006837EA5B
:103520000000DBD1C6B3206816F8011B4160E08CB7
:10353000401EE084E08C0028C8D120684026006846
:1035400036EA000035D000BFB5F1FF3F2CD02DB1D9
:10355000FEF7F4FEA0EB0900A84225D920680C3044
:1035600050E8001F21F4D07140E80012002AF5D184
:10357000206800F1140151E8000F20F0010041E83B
:103580000002002AF4D184F841A084F842A084F813
:1035900040B00320BDE8F09FFFE738F8020B216838
:1035A000C0F308004860C2E72068006836EA0000FF
:1035B000CAD184F841A00020BDE8F09F7047FEE723
:1035C0000E4810B5816986B041F0080181618069BB
:1035D000012400F008000490C020CDE9000403207D
:1035E000CDE9024069460648FEF798FD0548C0F857
:1035F0009C41C0F8984106B010BD00000010024088
:10360000000C0140008021422DE9F047DFF8B09026
:1036100082460024D9F8000020F07040C9F800006C
:10362000D9F8000040F00040C9F80000254E2546BA
:1036300027464FF0010800BFC6F8987102200AF033
:10364000A1FEC6F898816006040ED6F81C01002879
:103650001CBF601CC4B201200AF094FE681CC5B2F5
:10366000082DE9D3BAF1000FC6F89871D9F8000017
:1036700020F07040C9F80000D9F8000040F0405038
:10368000C9F800000ED0C6F89C7102200AF07AFE3C
:10369000C6F8988102200AF075FEC6F89871204697
:1036A000BDE8F087C6F89C8102200AF06BFEC6F8E0
:1036B000988102200AF066FEC6F89871EFE70000D4
:1036C000000C0140008021422DE9F04106461448DB
:1036D000016821F070410160016841F040510160D2
:1036E000104C4FF00008C4F8988145460127F009B6
:1036F000C4F89C017006060E02200AF043FEC4F8CE
:10370000987102200AF03EFEC4F8988102200AF067
:1037100039FE681CC5B2082DE9D3BDE8F081000070
:10372000000C01400080214270B50D48016821F075
:1037300070410160016841F040510160094C012075
:10374000C4F89C01C4F89801042004F5CC740AF074
:1037500019FE0025656004200AF014FE256070BD86
:10376000000C0140008021420E4810B5016821F094
:1037700070410160016841F0405101600A4C002035
:10378000C4F89801C4F89C01042004F5CC740AF034
:10379000F9FD012020606060BDE8104004200AF0BF
:1037A000F1BD0000000C0140008021422DE9F041F4
:1037B0001F4E0024306820F070403060306840F0C8
:1037C000004030601B4D0127C5F89C7138460AF057
:1037D000D9FDC5F8987101200AF0D4FDD5F81C0177
:1037E000002100B3601CC4B2FA2C18D9306820F054
:1037F00070403060306840F040503060C5F898113B
:10380000C5F89C1104200AF0BDFDC5F89871C5F8F3
:103810009C7104200AF0B6FD0120BDE8F081D5F8C6
:103820001C010028DED1C5F898110020BDE8F08108
:10383000000C01400080214270B50F4E05463088D3
:10384000718801FB00F40021084605F059FD0B4981
:1038500030890880002C08BF70BD14F00101084AAF
:1038600018BF1580A14228BF70BD15801580891C26
:10387000A142FAD370BD00002C050020FE07006CA9
:103880000008006C2DE9FF4F884600980D9E101A25
:10389000401C84B2A3EB0800401C07043F0C4FF00F
:1038A000000504BF04B0BDE8F08FDFF864A0DFF8C6
:1038B00064B00BF1020900BF08EB050081B200986B
:1038C00005F01EFDBAF80800ABF80000CCB114F00A
:1038D000010005D005FB04F136F81110A9F800101D
:1038E000A0420ED205FB040136F81120A9F80020F1
:1038F00006EB41014988A9F80010801C80B2A04263
:10390000F0D3681C85B2BD42D6D304B0BDE8F08FB9
:103910002C050020FE07006C2DE9F04F2E492C25C8
:103920000A4688712B2692884FF430584FF4285954
:103930004FF4487441F6631A2A274FF0F00E45F20F
:10394000105B4FF4A07C4FF4F073C8B1A1F800C035
:10395000A1F802E05A4536D1A1F80880A1F80A90F2
:10396000300288810C804B80A2F5A640103804BF3D
:103970000B80A1F802C00020BDE8F04F05F054BB59
:10398000A1F800E0A1F802C05A4511D1A1F80880C1
:10399000A1F80A904FF42C5088810B80A1F80240C6
:1039A000A2F5A640103804BFA1F800C04B80E2E7A2
:1039B00052450D8101BF4E818F810B804C801CBF11
:1039C0004F818E81ECE70D814F8152458E8104BF7E
:1039D0000C804B80C8E700002C0500202DE9F04F3B
:1039E0004FF0000A161A5D1A83B0D14680460F4682
:1039F000002EC8BF012006DC0FBF00204FF0FF30B3
:103A00000190764200D10190002DC8BF012006DC54
:103A10000FBF00204FF0FF3000906D4200D10090AA
:103A2000AE42CCBF34462C464FF0000B601C52BF58
:103A3000029003B0BDE8F08F1FFA88F0B9B205F02C
:103A40005FFC104801891048018010481049008827
:103A50000880B244A944A24503DD0198AAEB040AF8
:103A60008044A14503DD0098A9EB040907440BF14C
:103A700001001FFA80FB02988345DDDD03B0BDE83D
:103A8000F08F00002C050020FE07006C24000020B1
:103A90000008006C00B505F033FC044804490089B7
:103AA00008800448891C0088088000BD2C0500207F
:103AB000FE07006C240000202DE9F04F834600250E
:103AC00086B014004FF00300A0EB44008A4600903B
:103AD00044BF06B0BDE8F08F454E464FDFF8188171
:103AE00007F102090BEB0500AAEB04010190049118
:103AF00080B289B205F004FC30893880B8F8000043
:103B0000A9F800000BEB0400AAEB05010290039159
:103B100080B289B205F0F4FB30893880B8F8000033
:103B2000A9F8000002980AEB0501029180B289B25F
:103B300005F0E6FB30893880B8F80000A9F80000ED
:103B400001980AEB0401059180B289B205F0D8FB17
:103B500030893880B8F80000A9F80000ABEB050008
:103B60000599019080B289B205F0CAFB308938808E
:103B7000B8F80000A9F80000ABEB0400029905902A
:103B800080B289B205F0BCFB30893880B8F80000FB
:103B9000A9F800000198049980B289B205F0B0FB41
:103BA00030893880B8F80000A9F80000059803991A
:103BB00080B289B205F0A4FB30893880B8F80000E3
:103BC000A9F8000000986D1C002804DA00EB8500BD
:103BD000801D009005E0291B00EB81000A30641E67
:103BE0000090A5427FF77EAF06B0BDE8F08F0000E1
:103BF0002C050020FE07006C240000202DE9F80FA2
:103C00008A4CCDB20F0A2146B4F804A0DFF820C2D6
:103C10008E894989AAF5A04B0CF1020300F0FF0838
:103C20004FEA1029BBF5A26B43D0AAF5C85BBBF1E4
:103C3000630B7CD0ADF80010BDF80000ADF80000BB
:103C4000BDF80000ACF80000ADF80090BDF8000031
:103C5000ADF80000BDF800001880ADF80080BDF898
:103C60000000ADF80000BDF800001880ADF800605D
:103C7000BDF80000ADF80000BDF80000ACF8000091
:103C8000ADF80070BDF80000ADF80000BDF8000010
:103C90001880ADF80050BDF80000ADF80000BDF888
:103CA000000018802089ACF800001A80BDE8F80FE9
:103CB0007047ADF80010BDF80000ADF80000BDF889
:103CC0000000ACF80000ADF80090BDF80000ADF8C1
:103CD0000000BDF800001880481CADF80000BDF8D9
:103CE0000000ADF80000BDF80000ACF80000ADF831
:103CF0000080BDF80000ADF80000BDF8000018809D
:103D0000ADF80060BDF80000ADF80000BDF800009F
:103D1000ACF80000ADF80070BDF80000ADF8000090
:103D2000BDF800001880701CADF8000000E011E044
:103D3000BDF80000ADF80000BDF80000ACF80000D0
:103D4000ADF80050BDF80000ADF80000BDF800006F
:103D50001880A7E794F80680B8F1000F05D1B4F8F1
:103D60000080A8EB0000401E80B2ADF80010BDF846
:103D70000010ADF80010BDF80010ACF80010010AFA
:103D8000ADF80010BDF80080ADF80080BDF80080EF
:103D9000A3F80080C0B2ADF80000BDF80080ADF817
:103DA0000080BDF80080A3F80080ADF80010BDF8D9
:103DB0000010ADF80010BDF800101980ADF800003B
:103DC000BDF80000ADF80000BDF800001880ADF8A7
:103DD0000060BDF80000ADF80000BDF80000ACF8D0
:103DE0000000ADF80070BDF80000ADF80000BDF8AF
:103DF00000001880ADF80050BDF80000ADF80000DC
:103E0000BDF800001880ADF80070BDF80000ADF8F6
:103E10000000BDF800001880ADF80050BDF80000AB
:103E2000ADF80000BDF8000018803BE72C0500202D
:103E3000FE07006C2DE9F04FFF4891B04FF0204194
:103E40000160FE49416006210025C0E902151027E6
:103E5000C0E9045785613902C561C0E9095189008B
:103E6000C0E90B51456385630620CDE909051A2099
:103E70000F954FF003080B90CDF8008003950620B6
:103E8000CDE901506A4609A9EB480695FEF7DAFD2F
:103E900032200AF04BFAD320ADF81C00BDF81C000C
:103EA000ADF81C00BDF81C00E5490880881C00889E
:103EB000ADF81C00BDF81C00881C0088ADF81C0083
:103EC000BDF81C00881C0088ADF81C00BDF81C0063
:103ED000891C4FF6FF7B09880BEA0020ADF81C1007
:103EE000BDF81C1047F289740843D6498880A0F5B4
:103EF000134141397ED00420ADF81C00BDF81C00F0
:103F0000ADF81C00BDF81C00DFF834A3AAF80000CF
:103F10000AF102063088ADF81C00BDF81C00DFF87D
:103F200024933088ADF81C00BDF81C003088ADF833
:103F30001C00BDF81C0031880BEA0020ADF81C10F5
:103F4000BDF81C100843A0F50541A9F8040052393A
:103F50000CBFA9F80440A0424CD04FF0D400ADF8FB
:103F60001C00BDF81C00ADF81C00BDF81C00AAF830
:103F700000003088ADF81C00BDF81C003088ADF89A
:103F80001C00BDF81C003088ADF81C00BDF81C00FA
:103F900031880BEA0020ADF81C10BDF81C1041EA76
:103FA0000000A0F5A641A9F80400103972D04FF422
:103FB00070415520AAF800103080481CAA21AAF8A8
:103FC00000003180411C5220AAF800103080481CAB
:103FD0000821AAF800003180411C0120AAF8001035
:103FE00030804FF44540ADF81C00BDF81C00ADF822
:103FF0001C0000E04EE0BDF81C00AAF8000030886C
:10400000ADF81C00BDF81C004CF201510BEA002079
:10401000ADF82010BDF82010ADF82010BDF820102C
:10402000AAF800103188ADF82010BDF82010084320
:10403000A9F8040032200AF079F9B9F80410A1F5C2
:10404000AA40103826D0A120ADF81C00BDF81C00F5
:10405000ADF81C00BDF81C00AAF800003088ADF8CF
:104060001C00BDF81C003088ADF81C00BDF81C0019
:1040700031880BEA0020ADF81C10BDF81C10084375
:10408000A0F5AE41A9F80400613904BF41F6631000
:10409000A9F804006B4881886BA006F001FF69480D
:1040A0001121012680884FF0E00AA0F513424FF05D
:1040B000020B4FF02909413A00F0BE82A04240F0C5
:1040C0007F86ADF81C10BDF81C00ADF81C00BDF8D3
:1040D0001C005B4C208078200AF028F93620ADF8CF
:1040E0001C00BDF81C00ADF81C00BDF81C002080B1
:1040F000ADF81C50BDF81C00ADF81C00BDF81C103C
:10410000A01C01803A21ADF81C10BDF81C10ADF8C0
:104110001C10BDF81C1021800521ADF81C10BDF845
:104120001C10ADF81C10BDF81C100180B221ADF8B8
:104130001C10BDF81C10ADF81C10BDF81C1021801F
:104140000C22ADF81C20BDF81C10ADF81C10BDF8F9
:104150001C100180ADF81C20BDF81C10ADF81C101F
:10416000BDF81C100180ADF81C50BDF81C10ADF856
:104170001C10BDF81C1001803321ADF81C10BDF8D7
:104180001C30ADF81C30BDF81C300380ADF81C109D
:10419000BDF81C10ADF81C10BDF81C100180B72133
:1041A000ADF81C10BDF81C10ADF81C10BDF81C10AB
:1041B00021803521ADF81C10BDF81C10ADF81C1085
:1041C000BDF81C100180BB21ADF81C10BDF81C10FF
:1041D000ADF81C10BDF81C1021803221ADF81C1068
:1041E000BDF81C30ADF81C30BDF81C300380C02376
:1041F000ADF81C30BDF81C30ADF81C30BDF81C30DB
:104200002380ADF81C20BDF81C20ADF81C20BDF8A3
:104210001C200280C222ADF81C20BDF81C20ADF885
:104220001C20BDF81C202280ADF81C60BDF81C20AD
:10423000ADF81C2010E00000E4040020040100A000
:10424000FE07006C2C050020204C43442049443AD2
:1042500025780D0A00000000BDF81C200280C32252
:10426000ADF81C20BDF81C20ADF81C20BDF81C20AA
:104270002280ADF81C70BDF81C20ADF81C20BDF8E4
:104280001C200280C422ADF81C20BDF81C20ADF813
:104290001C20BDF81C2022802022ADF81C20BDF877
:1042A0001C20ADF81C20BDF81C200280C622ADF8F1
:1042B0001C20BDF81C20ADF81C20BDF81C2022805D
:1042C0000F22ADF81C20BDF81C20ADF81C20BDF855
:1042D0001C200280D023ADF81C30BDF81C20ADF8A6
:1042E0001C20BDF81C202280A422ADF81C20BDF8A3
:1042F0001C20ADF81C20BDF81C200280A122ADF8C6
:104300001C20BDF81C20ADF81C20BDF81C2002802C
:10431000ADF81CA0BDF81C20ADF81C20BDF81C2079
:104320002280ADF81C30BDF81C20ADF81C20BDF873
:104330001C200280ADF81C50BDF81C20ADF81C20DC
:10434000BDF81C200280ADF81CB0BDF81C20ADF8F3
:104350001C20BDF81C2002800727ADF81C70BDF89A
:104360001C20ADF81C20BDF81C2002800A22ADF8EC
:104370001C20BDF81CC0ADF81CC0BDF81CC0A0F8C6
:1043800000C04FF02808ADF81C80BDF81CC0ADF887
:104390001CC0BDF81CC0A0F800C0ADF81C10BDF8D2
:1043A0001C10ADF81C10BDF81C1001804421ADF8A4
:1043B0001C10BDF81C10ADF81C10BDF81C100180BD
:1043C0004221ADF81C10BDF81C10ADF81C10BDF852
:1043D0001C1001800621ADF81C10BDF81C10ADF8B2
:1043E0001C10BDF81C1001800E21ADF81C10BDF88A
:1043F0001CC0ADF81CC0BDF81CC0A0F800C04FF038
:10440000120CADF81CC0BDF81CC0ADF81CC0BDF846
:104410001CC0A0F800C04FF0140CADF81CC0BDF8D3
:104420001CC0ADF81CC0BDF81CC0A0F800C04FF007
:10443000170CADF81CC0BDF81CA0ADF81CA0BDF851
:104440001CA0A0F800A04FF0E10AADF81CA0BDF838
:104450001CA0ADF81CA0BDF81CA0A4F800A0ADF8ED
:104460001C30BDF81C30ADF81C30BDF81C3003808A
:10447000ADF81C50BDF81C30ADF81C30BDF81C3038
:104480000380ADF81CB0BDF81C30ADF81C30BDF891
:104490001C300380ADF81C70BDF81C30ADF81C302A
:1044A000BDF81C300380ADF81C20BDF81C20ADF811
:1044B0001C20BDF81C200280ADF81C80BDF81C201B
:1044C000ADF81C20BDF81C2002803122ADF81C2064
:1044D000BDF81C20ADF81C20BDF81C200280542221
:1044E000ADF81C20BDF81C20ADF81C20BDF81C2028
:1044F00002804722ADF81C20BDF81C20ADF81C201E
:10450000BDF81C200280ADF81C10BDF81C10ADF8E1
:104510001C10BDF81C1001801C21ADF81C10BDF84A
:104520001C10ADF81C10BDF81C100180ADF81CC0AB
:10453000BDF81C10ADF81C10BDF81C1001801B212B
:10454000ADF81C10BDF81C10ADF81C10BDF81C1007
:1045500001801E21ADF81C10BDF81C10ADF81C1018
:10456000BDF81C1001802A21ADF81C10BDF81C10EC
:10457000ADF81C10BDF81C102180ADF81C50BDF822
:104580001C10ADF81C10BDF81C100180ADF81C50BB
:10459000BDF81C10ADF81C10BDF81C100180ADF862
:1045A0001C50BDF81C10ADF81C10BDF81C1001808B
:1045B000EF21ADF81C10BDF81C10ADF81C10BDF8B3
:1045C0001C1001802B21ADF81C10BDF81C10ADF89B
:1045D0001C10BDF81C102180ADF81C50BDF81C103B
:1045E000ADF81C10BDF81C100180ADF81C50BDF8D2
:1045F0001C10ADF81C10BDF81C100180ADF81C603B
:10460000BDF81C10ADF81C10BDF81C1001803F2136
:10461000ADF81C10BDF81C10ADF81C10BDF81C1036
:104620000180ADF81C90BDF81C00ADF81C00BDF871
:104630001C00208004F0C1BCCF20ADF81C00BDF8E8
:104640001C00ADF81C00BDF81C00FE4C2080ADF82D
:104650001C50BDF81C00ADF81C00BDF81C20A01CAF
:104660000280C123ADF81C30BDF81C20ADF81C2021
:10467000BDF81C2002803022ADF81C20BDF81CC003
:10468000ADF81CC0BDF81CC0A0F800C04FF0ED0C88
:10469000ADF81CC0BDF81CC0ADF81CC0BDF81CC0F6
:1046A000A4F800C04FF0640CADF81CC0BDF81CC0ED
:1046B000ADF81CC0BDF81CC0A0F800C0ADF81C804F
:1046C000BDF81CC0ADF81CC0BDF81CC0A0F800C0EF
:1046D0004FF0120CADF81CC0BDF81CC0ADF81CC0EA
:1046E000BDF81CC0A0F800C04FF0810CADF81CC094
:1046F000BDF81CC0ADF81CC0BDF81CC0A0F800C0BF
:104700004FF0E80CADF81CC0BDF81CC0ADF81CC0E3
:10471000BDF81CC0A4F800C04FF0850CADF81CC05B
:10472000BDF81CC0ADF81CC0BDF81CC0A0F800C08E
:10473000ADF81C70BDF81CC0ADF81CC0BDF81CC0A5
:10474000A0F800C04FF07A0CADF81CC0BDF81CC03A
:10475000ADF81CC0BDF81CC0A0F800C04FF0CB0CD9
:10476000ADF81CC0BDF81CC0ADF81CC0BDF81CC025
:10477000A4F800C04FF0390CADF81CC0BDF81CC047
:10478000ADF81CC0BDF81CC0A0F800C04FF02C0C48
:10479000ADF81CC0BDF81CC0ADF81CC0BDF81CC0F5
:1047A000A0F800C0ADF81C50BDF81CC0ADF81CC08E
:1047B000BDF81CC0A0F800C04FF0340CADF81CC010
:1047C000BDF81CC0ADF81CC0BDF81CC0A0F800C0EE
:1047D000ADF81CB0BDF81CC0ADF81CC0BDF81CC0C5
:1047E000A0F800C04FF0F70CADF81CC0BDF81CC01D
:1047F000ADF81CC0BDF81CC0A4F800C04FF0200CE0
:10480000ADF81CC0BDF81CC0ADF81CC0BDF81CC084
:10481000A0F800C04FF0EA0CADF81CC0BDF81CC0F9
:10482000ADF81CC0BDF81CC0A4F800C0ADF81C5009
:10483000BDF81CC0ADF81CC0BDF81CC0A0F800C07D
:10484000ADF81C50BDF81CC0ADF81CC0BDF81CC0B4
:10485000A0F800C04FF0C00CADF81CC0BDF81CC0E3
:10486000ADF81CC0BDF81CC0A4F800C04FF01B0C74
:10487000ADF81CC0BDF81CC0ADF81CC0BDF81CC014
:10488000A0F800C0ADF81C30BDF81C30ADF81C30ED
:10489000BDF81C302380ADF81C60BDF81C30ADF8AD
:1048A0001C30BDF81C300380C523ADF81C30BDF8AA
:1048B0001C30ADF81C30BDF81C302380ADF81C2036
:1048C000BDF81C30ADF81C30BDF81C300380ADF8CD
:1048D0001C20BDF81C20ADF81C20BDF81C20028057
:1048E000C722ADF81C20BDF81C20ADF81C20BDF877
:1048F0001C202280B722ADF81C20BDF81C20ADF88A
:104900001C20BDF81C2002803622ADF81C20BDF80A
:104910001C20ADF81C20BDF81C2022804822ADF8D8
:104920001C20BDF81C20ADF81C20BDF81C20028006
:104930003A22ADF81C20BDF81C20ADF81C20BDF8B3
:104940001C2022805522ADF81C20BDF81C20ADF89B
:104950001C20BDF81C200280B122ADF81C20BDF83F
:104960001C20ADF81C20BDF81C202280ADF81C5086
:10497000BDF81C20ADF81C20BDF81C2002801A22B6
:10498000ADF81C20BDF81C20ADF81C20BDF81C2083
:104990000280B622ADF81C20BDF81C20ADF81C200A
:1049A000BDF81C2022804FF00A0CADF81CC0BDF8E9
:1049B0001C20ADF81C20BDF81C200280A222ADF8FE
:1049C0001C20BDF81C20ADF81C20BDF81C20028066
:1049D000F222ADF81C20BDF81C20ADF81C20BDF85B
:1049E0001C202280ADF81C50BDF81C20ADF81C2006
:1049F000BDF81C2002802622ADF81C20BDF81C202A
:104A0000ADF81C20BDF81C202280ADF81C60BDF85C
:104A10001C20ADF81C20BDF81C200280ADF81CA0A5
:104A2000BDF81C20ADF81C20BDF81C2022800F23EF
:104A3000ADF81C30BDF81C20ADF81C20BDF81C20C2
:104A4000028001E0FE07006C2A22ADF81C20BDF8B0
:104A50001C80ADF81C80BDF81C80A0F800804FF0D1
:104A60002808ADF81C80BDF81C80ADF81C80BDF88E
:104A70001C80A0F800804FF00808ADF81C80BDF83D
:104A80001CA0ADF81CA0BDF81CA0A0F800A04FF021
:104A90000E0AADF81CA0BDF81CA0ADF81CA0BDF816
:104AA0001CA0A0F800A0ADF81C80BDF81C80ADF8DB
:104AB0001C80BDF81C80A0F800804FF05408ADF8B1
:104AC0001C80BDF81C80ADF81C80BDF81C80A0F8CF
:104AD00000804FF0A908ADF81C80BDF81C80ADF82F
:104AE0001C80BDF81C80A0F800804FF04308ADF892
:104AF0001C80BDF81C80ADF81C80BDF81C80A0F89F
:104B00000080ADF81CC0BDF81CC0ADF81CC0BDF8DD
:104B10001CC0A0F800C0ADF81C30BDF81CC0ADF83A
:104B20001CC0BDF81CC0A0F800C0ADF81C50BDF8FA
:104B30001CC0ADF81CC0BDF81CC0A0F800C0ADF88A
:104B40001C50BDF81CC0ADF81CC0BDF81CC0A0F8BE
:104B500000C0ADF81C50BDF81CC0ADF81CC0BDF8BD
:104B60001CC0A0F800C0ADF81C50BDF81CC0ADF8CA
:104B70001CC0BDF81CC0A0F800C04FF0E10CADF89F
:104B80001CC0BDF81CC0ADF81CC0BDF81CC0A4F80A
:104B900000C0ADF81C50BDF81CC0ADF81CC0BDF87D
:104BA0001CC0A0F800C04FF0150CADF81CC0BDF83B
:104BB0001CC0ADF81CC0BDF81CC0A0F800C04FF070
:104BC000170CADF81CC0BDF81CC0ADF81CC0BDF87A
:104BD0001CC0A0F800C04FF0070CADF81CC0BDF819
:104BE0001CC0ADF81CC0BDF81CC0A0F800C0ADF8DA
:104BF0001C10BDF81CC0ADF81CC0BDF81CC0A0F84E
:104C000000C04FF0060CADF81CC0BDF81CC0ADF8DC
:104C10001CC0BDF81CC0A0F800C04FF02B08ADF8B8
:104C20001C80BDF81CC0ADF81CC0BDF81CC0A0F8AD
:104C300000C04FF0560CADF81CC0BDF81CC0ADF85C
:104C40001CC0BDF81CC0A0F800C04FF03C0CADF873
:104C50001CC0BDF81CC0ADF81CC0BDF81CC0A0F83D
:104C600000C04FF0050CADF81CC0BDF81CC0ADF87D
:104C70001CC0BDF81CC0A0F800C0ADF81C70BDF889
:104C80001CC0ADF81CC0BDF81CC0A0F800C0ADF839
:104C90001C30BDF81CC0ADF81CC0BDF81CC0A0F88D
:104CA00000C04FF03F0CADF81CC0BDF81C70ADF853
:104CB0001C70BDF81C700780ADF81CC0BDF81C70DE
:104CC000ADF81C70BDF81C700780ADF81C30BDF845
:104CD0001C30ADF81C30BDF81C300380ADF81C80D2
:104CE000BDF81C30ADF81C30BDF81C302380ADF889
:104CF0001C50BDF81C30ADF81C30BDF81C300380D2
:104D0000ADF81C50BDF81C30ADF81C30BDF81C309F
:104D10000380ADF81C60BDF81C30ADF81C30BDF848
:104D20001C300380ADF81CC0BDF81C30ADF81C3041
:104D3000BDF81C300380ADF81C20BDF81C20ADF878
:104D40001C20BDF81C202280ADF81C50BDF81C2092
:104D5000ADF81C20BDF81C200280ADF81C50BDF839
:104D60001C20ADF81C20BDF81C200280ADF81C50A2
:104D7000BDF81C20ADF81C20BDF81C200280EF22DD
:104D8000ADF81C20BDF81C20ADF81C20BDF81C207F
:104D90000280ADF81C10BDF81C00ADF81C00BDF879
:104DA0001C002080782009F0C1FAADF81C90BDF8F5
:104DB0001C00ADF81C00BDF81C00208004F0FDB8FC
:104DC000E222A0F5A643103B0BD0A0F5AA41103972
:104DD00003F06880A0F5C851633903F08D8604F0B4
:104DE000ECB8ED20ADF81C00BDF81C00ADF81C00BF
:104DF000BDF81C00FE4B1880ADF81C60BDF81C000F
:104E0000ADF81C00BDF81CC0981CA0F800C04FF005
:104E1000FE0CADF81CC0BDF81CC0ADF81CC0BDF840
:104E20001CC0A0F800C04FF0EE0CADF81CC0BDF8DF
:104E30001CC0ADF81CC0BDF81CC0A3F800C04FF0EA
:104E4000DE0CADF81CC0BDF81CC0ADF81CC0BDF830
:104E50001CC0A0F800C04FF0210CADF81CC0BDF87C
:104E60001C40ADF81C40BDF81C400480F124ADF896
:104E70001C40BDF81C40ADF81C40BDF81C401C8017
:104E80000124ADF81C40BDF81C40ADF81C40BDF835
:104E90001C400480DF24ADF81C40BDF81C40ADF878
:104EA0001C40BDF81C401C801024ADF81C40BDF80F
:104EB0001C40ADF81C40BDF81C400480C424ADF873
:104EC0001C40BDF81C40ADF81C40BDF81C401C80C7
:104ED0008F24ADF81C40BDF81C40ADF81C40BDF857
:104EE0001C400480C624ADF81C40BDF81C40ADF841
:104EF0001C40BDF81C401C80ADF81C50BDF81C4087
:104F0000ADF81C40BDF81C400480E222ADF81C2026
:104F1000BDF81C40ADF81C40BDF81C400480ADF845
:104F20001C20BDF81C40ADF81C40BDF81C4004809E
:104F3000ADF81C20BDF81C20ADF81C20BDF81C20CD
:104F40000280BF22ADF81C20BDF81C20ADF81C204B
:104F5000BDF81C201A80AA22ADF81C20BDF81C2028
:104F6000ADF81C20BDF81C200280B022ADF81C203A
:104F7000BDF81C20ADF81C20BDF81C201A800D22A5
:104F8000ADF81C20BDF81C20ADF81C20BDF81C207D
:104F90000280ADF81C50BDF81C20ADF81C20BDF8F7
:104FA0001C2002800D22ADF81C20BDF81C20ADF89D
:104FB0001C20BDF81C200280ADF81C50BDF81C2040
:104FC000ADF81C20BDF81C2002801121ADF81C108A
:104FD000BDF81C10ADF81C10BDF81C100180ADF818
:104FE0001C50BDF81C10ADF81C10BDF81C10018041
:104FF0001921ADF81C10BDF81C10ADF81C10BDF83F
:105000001C100180ADF81C50BDF81C10ADF81C1030
:10501000BDF81C100180ADF81CC0BDF81C10ADF827
:105020001C10BDF81C100180ADF81C50BDF81C1000
:10503000ADF81C10BDF81C1001802D21ADF81C101E
:10504000BDF81C10ADF81C10BDF81C100180ADF8A7
:105050001C50BDF81C10ADF81C10BDF81C100180D0
:105060003D21ADF81C10BDF81C10ADF81C10BDF8AA
:105070001C100180ADF81C50BDF81C10ADF81C10C0
:10508000BDF81C1001805D21ADF81C10BDF81C207E
:10509000ADF81C20BDF81C200280ADF81C50BDF8F6
:1050A0001C20ADF81C20BDF81C200280ADF81C109F
:1050B000BDF81C10ADF81C10BDF81C100180ADF837
:1050C0001C50BDF81C10ADF81C10BDF81C10018060
:1050D000B121ADF81C10BDF81C10ADF81C10BDF8C6
:1050E0001C1019808021ADF81C10BDF81C10ADF803
:1050F0001C10BDF81C100180ADF81C50BDF81C1030
:10510000ADF81C10BDF81C1001808B21ADF81C10EF
:10511000BDF81C20ADF81C20BDF81C200280ADF8A5
:105120001C50BDF81C20ADF81C20BDF81C200280CE
:105130009622ADF81C20BDF81CC0ADF81CC0BDF80F
:105140001CC0A0F800C0ADF81C50BDF81CC0ADF8E4
:105150001CC0BDF81CC0A0F800C04FF0B20CADF8E8
:105160001CC0BDF81CC0ADF81CC0BDF81CC0A3F825
:1051700000C0ADF81C50BDF81C30ADF81C30BDF8B7
:105180001C300380ADF81C50BDF81C00ADF81C00AD
:10519000BDF81C30174803800223ADF81C30BDF861
:1051A0001CC0ADF81CC0BDF81CC0A0F800C0ADF814
:1051B0001C50BDF81CC0ADF81CC0BDF81CC0A0F848
:1051C00000C0ADF81C80BDF81CC0ADF81CC0BDF817
:1051D0001CC0A0F800C0ADF81C50BDF81CC0ADF854
:1051E0001CC0BDF81CC0A0F800C04FF0B30C03E019
:1051F000FE07006C0008006CADF81CC0BDF81CC0B8
:10520000ADF81CC0BDF81CC0871EA7F800C0ADF8E3
:105210001C50BDF81CC0ADF81CC0BDF81CC0A0F8E7
:1052200000C0ADF81C50BDF81CC0ADF81CC0BDF8E6
:105230001CC0A0F800C0ADF81C50BDF81CC0ADF8F3
:105240001CC0BDF81CC0A0F800C0ADF81C50BDF8D3
:105250001CC0ADF81CC0BDF81CC0A0F800C0ADF863
:105260001C50BDF81CC0ADF81CC0BDF81CC0A0F897
:1052700000C0ADF81C50BDF81CC0ADF81CC0BDF896
:105280001CC0A0F800C0ADF81C50BDF81CC0ADF8A3
:105290001CC0BDF81CC0A0F800C0ADF81C50BDF883
:1052A0001CC0ADF81CC0BDF81CC0A0F800C0ADF813
:1052B0001C50BDF81CC0ADF81CC0BDF81CC0A0F847
:1052C00000C0ADF81C50BDF81CC0ADF81CC0BDF846
:1052D0001CC0A0F800C0ADF81C50BDF81CC0ADF853
:1052E0001CC0BDF81CC0A0F800C0ADF81C50BDF833
:1052F0001CC0ADF81CC0BDF81CC0A0F800C0ADF8C3
:105300001C50BDF81CC0ADF81CC0BDF81CC0A0F8F6
:1053100000C0ADF81C50BDF81CC0ADF81CC0BDF8F5
:105320001CC0A0F800C0ADF81C50BDF81CC0ADF802
:105330001CC0BDF81CC0A0F800C0ADF81C50BDF8E2
:105340001CC0ADF81CC0BDF81CC0A0F800C0ADF872
:105350001C50BDF81CC0ADF81CC0BDF81CC0A0F8A6
:1053600000C0ADF81C50BDF81CC0ADF81CC0BDF8A5
:105370001CC0A0F800C0ADF81C50BDF81CC0ADF8B2
:105380001CC0BDF81CC0A0F800C0ADF81C50BDF892
:105390001CC0ADF81CC0BDF81CC0A0F800C0ADF822
:1053A0001C50BDF81CC0ADF81CC0BDF81CC0A0F856
:1053B00000C0ADF81C50BDF81CC0ADF81CC0BDF855
:1053C0001CC0A0F800C0ADF81C50BDF81CC0ADF862
:1053D0001CC0BDF81CC0A0F800C0ADF81C50BDF842
:1053E0001CC0ADF81CC0BDF81CC0A0F800C04FF038
:1053F000B40CADF81CC0BDF81CC0ADF81CC0BDF8A5
:105400001CC0A7F800C0ADF81C10BDF81C10ADF80A
:105410001C10BDF81C100180ADF81C50BDF81C100C
:10542000ADF81C10BDF81C100180ADF81C20BDF8B3
:105430001C10ADF81C10BDF81C100180ADF81C50FC
:10544000BDF81C10ADF81C10BDF81C100180A12186
:10545000ADF81C10BDF81C10ADF81C10BDF81C10E8
:105460000180ADF81C50BDF81C10ADF81C10BDF843
:105470001C100180B521ADF81C10BDF81C10ADF852
:105480001C10BDF81C103980ADF81C30BDF81C1084
:10549000ADF81C10BDF81C100180ADF81C50BDF813
:1054A0001C10ADF81C10BDF81C100180ADF81C805C
:1054B000BDF81C10ADF81C10BDF81C100180ADF833
:1054C0001C50BDF81C10ADF81C10BDF81C1001805C
:1054D0000422ADF81C20BDF81C10ADF81C10BDF85E
:1054E0001C100180ADF81C50BDF81C10ADF81C104C
:1054F000BDF81C100180B621ADF81C10BDF81C10C1
:10550000ADF81C10BDF81C103980ADF81C50BDF86A
:105510001C10ADF81C10BDF81C100180ADF81C501B
:10552000BDF81C10ADF81C10BDF81C100180B7218F
:10553000ADF81C10BDF81C10ADF81C10BDF81C1007
:105540003980ADF81C50BDF81C10ADF81C10BDF82A
:105550001C100180ADF81C50BDF81C10ADF81C10DB
:10556000BDF81C1001803F21ADF81C10BDF81C10C7
:10557000ADF81C10BDF81C100180ADF81C50BDF832
:105580001C10ADF81C10BDF81C1001805E21ADF898
:105590001C10BDF81C10ADF81C10BDF81C100180CB
:1055A000ADF81C50BDF81C10ADF81C10BDF81C1057
:1055B00001806421ADF81C10BDF81C10ADF81C1062
:1055C000BDF81C100180ADF81C50BDF81C10ADF8E2
:1055D0001C10BDF81C1001808C21ADF81C10BDF80A
:1055E0001C10ADF81C10BDF81C100180ADF81C504B
:1055F000BDF81C10ADF81C10BDF81C100180AC21CA
:10560000ADF81C10BDF81C10ADF81C10BDF81C1036
:105610000180ADF81C50BDF81C10ADF81C10BDF891
:105620001C100180DC21ADF81C10BDF81C30ADF859
:105630001C30BDF81C300380ADF81C50BDF81C3088
:10564000ADF81C30BDF81C3003807023ADF81C3061
:10565000BDF81C30ADF81C30BDF81C300380ADF82F
:105660001C50BDF81C30ADF81C30BDF81C30038058
:105670009023ADF81C30BDF81C30ADF81C30BDF8DF
:105680001C300380ADF81C50BDF81C30ADF81C3048
:10569000BDF81C300380EB23ADF81C30BDF81C3086
:1056A000ADF81C30BDF81C300380ADF81C50BDF8BF
:1056B0001C30ADF81C30BDF81C300380ADF81C1058
:1056C000BDF81C10ADF81C10BDF81C100180ADF821
:1056D0001C50BDF81C10ADF81C10BDF81C1001804A
:1056E000B821ADF81C10BDF81C10ADF81C10BDF8A9
:1056F0001C103980ADF81C50BDF81C10ADF81C1002
:10570000BDF81C100180ADF81C50BDF81C10ADF8A0
:105710001C10BDF81C100180ADF81C50BDF81C1009
:10572000ADF81C10BDF81C100180ADF81C50BDF880
:105730001C10ADF81C10BDF81C100180ADF81C50F9
:10574000BDF81C10ADF81C10BDF81C100180ADF8A0
:105750001C50BDF81C10ADF81C10BDF81C100180C9
:10576000ADF81C50BDF81C10ADF81C10BDF81C1095
:105770000180ADF81C50BDF81C10ADF81C10BDF830
:105780001C100180BA21ADF81C10BDF81C10ADF83A
:105790001C10BDF81C1039802421ADF81C10BDF878
:1057A0001C30ADF81C30BDF81C300380ADF81C5027
:1057B000BDF81C30ADF81C30BDF81C300380ADF8CE
:1057C0001C50BDF81C30ADF81C30BDF81C300380F7
:1057D000ADF81C50BDF81C30ADF81C30BDF81C30C5
:1057E0000380C123ADF81C30BDF81C30ADF81C306F
:1057F000BDF81C303B802023ADF81C30BDF81C30B8
:10580000ADF81C30BDF81C300380ADF81C50BDF85D
:105810001C30ADF81C30BDF81C3003805423ADF8AB
:105820001C30BDF81C30ADF81C30BDF81C300380B6
:10583000ADF81C50BDF81C30ADF81C30BDF81C3064
:105840000380FF23ADF81C30BDF81C30ADF81C30D0
:10585000BDF81C300380ADF81C50BDF81C30ADF80D
:105860001C30BDF81C300380C223ADF81C30BDF8DD
:105870001C30ADF81C30BDF81C303B800A23ADF85D
:105880001C30BDF81C30ADF81C30BDF81C30038056
:10589000ADF81C50BDF81C30ADF81C30BDF81C3004
:1058A0000380ADF81C20BDF81C20ADF81C20BDF80D
:1058B0001C200280ADF81C50BDF81C20ADF81C2047
:1058C000BDF81C200280C322ADF81C20BDF81C20AE
:1058D000ADF81C20BDF81C203A804FF03C0CADF810
:1058E0001CC0BDF81C20ADF81C20BDF81C20028097
:1058F000ADF81C50BDF81C20ADF81C20BDF81C20D4
:1059000002803A22ADF81C20BDF81C20ADF81C2006
:10591000BDF81C200280ADF81C50BDF81C20ADF86D
:105920001C20BDF81C2002803922ADF81C20BDF8D7
:105930001C20ADF81C20BDF81C200280ADF81C50C6
:10594000BDF81C20ADF81C20BDF81C2002803722B9
:10595000ADF81C20BDF81C20ADF81C20BDF81C20A3
:105960000280ADF81C50BDF81C20ADF81C20BDF81D
:105970001C200280ADF81CC0BDF81C20ADF81C2016
:10598000BDF81C200280ADF81C50BDF81C20ADF8FD
:105990001C20BDF81C2002803622ADF81C20BDF86A
:1059A0001C20ADF81C20BDF81C200280ADF81C5056
:1059B000BDF81C20ADF81C20BDF81C20028032234D
:1059C000ADF81C30BDF81C20ADF81C20BDF81C2023
:1059D0000280ADF81C50BDF81C20ADF81C20BDF8AD
:1059E0001C2002804FF02F08ADF81C80BDF81C2051
:1059F000ADF81C20BDF81C200280ADF81C50BDF88D
:105A00001C20ADF81C20BDF81C2002804FF02C0B90
:105A1000ADF81CB0BDF81C20ADF81C20BDF81C2052
:105A20000280ADF81C50BDF81C20ADF81C20BDF85C
:105A30001C200280ADF81C90BDF81C20ADF81C2085
:105A4000BDF81C200280ADF81C50BDF81C20ADF83C
:105A50001C20BDF81C2002804FF0260EADF81CE083
:105A6000BDF81C20ADF81C20BDF81C200280ADF84C
:105A70001C50BDF81C20ADF81C20BDF81C20028075
:105A8000ADF81C10BDF81C20ADF81C20BDF81C2082
:105A90000280ADF81C50BDF81C20ADF81C20BDF8EC
:105AA0001C200280ADF81C10BDF81C20ADF81C2095
:105AB000BDF81C200280ADF81C50BDF81C20ADF8CC
:105AC0001C20BDF81C2002802322ADF81C20BDF84C
:105AD0001C40ADF81C40BDF81C400480ADF81C50C3
