:020000040800F2
:1000000048F8002045010008CBB600087F500008E2
:10001000C9B600082317000871CB000800000000D3
:1000200000000000000000000000000027BA0008E7
:100030008D1B00080000000025BA0008A9BA0008BE
:100040005F0100085F0100085F0100085F01000810
:100050005F0100085F0100085F0100085F01000800
:100060005F0100085F0100085F010008691B0008CC
:100070005F0100085F0100085F010008751B0008B0
:100080005F0100085F0100085F0100085F010008D0
:100090005F0100085F0100085F0100085F010008C0
:1000A0005F0100085F0100085F0100085F010008B0
:1000B0005F0100085F0100085F0100085F010008A0
:1000C0005F0100085F0100085F0100085F01000890
:1000D0005F010008E1CA00085F0100085F01000835
:1000E0005F0100085F0100085F0100085F01000870
:1000F0005F0100085F0100085F0100085F01000860
:100100005F0100085F0100085F0100085F0100084F
:100110005F0100085F010008B1BA00085F01000834
:100120005F0100085F010008811B00085F010008F3
:10013000DFF80CD001F024F8004800471D22030826
:1001400048F800200648804706480047FEE7FEE7DB
:10015000FEE7FEE7FEE7FEE7FEE7FEE7FEE7FEE777
:10016000ADBA0008310100082DE9F04F4FF0000C46
:100170004FF0000301EB1C6EBEF90250BEF90040C7
:100180000EF5807EBEF90290BEF900800EF5807EED
:10019000BEF90270BEF900600EF5807EBEF902B0B5
:1001A000BEF900A00EF5807ED044D944A8EB4A0ADF
:1001B000A9EB4B0B4FEAA4044FEAA50504EBA604F8
:1001C00005EBA705A4EB6606A5EB670704EBA804FF
:1001D00005EBA905A4EB6808A5EB690906EBAB06DE
:1001E000A7EBAA07A6EB6B0B07EB6A0A458020F882
:1001F000044B478020F8046BA0F8029020F8048B91
:10020000A0F802A020F804BB03F1010393FAA3FCB9
:10021000402BAFD1A0EB82014FF0100312090FF277
:10022000361000F1000006B403EB430C6144A2F564
:10023000803202EB8332B1F90250B1F90040A1EBF8
:100240000301B0F902B0B0F900A000F10400A5EB81
:10025000040E0EFB0BFC0AEB4B0E05FB0ACB04FB5A
:100260000ECAB1F90250B1F90040A1EB0301B0F997
:100270000290B0F9008000F10400A5EB040E0EFB23
:1002800009FC08EB490E05FB08C904FB0EC8B1F9CF
:100290000250B1F90040A1EB0301B0F90270B0F9CE
:1002A000006000F10400A5EB040E0EFB07FC06EB5A
:1002B000470E05FB06C704FB0EC6B1F90250B1F9A3
:1002C000004001F10001D044D944A8EB4A0AA9EB4F
:1002D0004B0B4FEAA4044FEAA50504EB264405EBBB
:1002E0002745A4EBE636A5EBE73704EB284405EBFE
:1002F0002945A4EBE838A5EBE93906EB2B46A7EB3B
:100300002A47A6EBEB3B07EBEA3A4D800C801944F9
:100310004F800E801944A1F80290A1F80080194482
:10032000A1F802A021F804BBB2F5803283DA03EB16
:10033000430C6144A2F101025FEA024E18BFA0EB38
:100340000C007FF476AF06BC4FEA830392087FF47B
:100350006AAFBDE8F08F00400000004000000040A0
:1003600000005DDD213BA3227E180000412D7EA50B
:10037000412D0000412D00C000405DDD82E75DDDC4
:10038000213B7EA5412D00400000004000000040C0
:100390000000AA2A94126B39460649327C0CA81137
:1003A0008E2349327C0CA3227E1821F77931AA2AA8
:1003B0009412A8118E235DDD213BA3227E1800003C
:1003C000412D95C6B13F461A2B1E58EE3735BEB4A7
:1003D000C53EA8118E235DDD213B63A97138DF087E
:1003E0009A28B7CDC53E7EA5412D0000412D00C005
:1003F000004063A92B1E21F77931BEB4C53EBEB4BF
:100400007C0C58EE373561AC213B95C6BAF9BAE59C
:1004100071383BA737355DDD82E75DDD213B7EA589
:10042000412D21F766D756D53F3D3BA78E23A81116
:10043000C9CAB7CDC53E61AC7E18AA2AC1C295C64D
:10044000B13FBEB47C0C0040000000400000004002
:1004500000001E3BB504693E9201C83C2403EB3505
:100460006409C83C24036B3946066C30060E1E3BFB
:10047000B504EB356409AA2A94126B394606493251
:100480007C0CAE240917AF37D607882E8D0F7E1E41
:100490005D1BEB356409AA2A941224188C1F1E34A4
:1004A000F10AB3269015A8118E2349327C0CA322A1
:1004B0007E18140B60276C30060E7E1E5D1B7104C7
:1004C000FB2A882E8D0F461A2B1EC7FD5A2E9D2CF7
:1004D0001211FE15E72021F77931AA2A9412A811EA
:1004E0008E2387F05334B2281314480D202602EAD5
:1004F000E536B3269015DF089A289CE32B39AE2405
:1005000009177104FB2A5DDD213BA3227E18000040
:10051000412D4ED7C53C9320EF198FFB6C2F78D11E
:10052000153E7E1E5D1B21F77931E2CB0F3F641C27
:10053000C61CB8F2683395C6B13F461A2B1E58EE5A
:10054000373597C1FB3F24188C1F02EAE536F0BC13
:10055000EC3FFE15E720BAE57138A6B8853FD51304
:100560003D2282E1DB39BEB4C53EA8118E235DDD9C
:10057000213B40B1AF3D790FDA244DD9423C2EAE3C
:10058000423C480D202656D53F3D8EAB823A140B97
:10059000602778D1153E63A97138DF089A28B7CD56
:1005A000C53EB1A71236A906CE2915CA4F3F78A677
:1005B00068337104FB2A95C6B13FBCA57630390279
:1005C000212C38C3EC3F7EA5412D0000412D00C0F9
:1005D0000040BCA5CE29C7FD5A2EF0BCEC3F78A642
:1005E00020268FFB6C2F09BAB13FB1A73D2257F9E6
:1005F00076304DB74F3F63A92B1E21F77931BEB43A
:10060000C53E8EABEF19ECF474325EB2153E2EAEE1
:100610009015B8F268332DB03F3D40B1121187F00C
:1006200053342EAE423CBEB47C0C58EE373561AC30
:10063000213BA6B8D6072BEC1236C8AADB39F0BC92
:10064000240302EAE53663A9713897C16EFEDCE740
:10065000B03734A8E53695C6BAF9BAE571383BA784
:100660003735E2CB0FF59CE32B3978A6683378D188
:1006700073F082E1DB39EDA579314ED7EDEB6DDF1B
:10068000823A99A56C2F5DDD82E75DDD213B7EA579
:10069000412D9CE33AE352DBB63B99A5FB2A02EAE3
:1006A00019DF4DD9423CEDA59A2887F026DB4ED7BD
:1006B000C53C78A6202621F766D756D53F3D3BA7F7
:1006C0008E23C7FDDFD363D3AF3D34A8E720710489
:1006D00094D078D1153E63A92B1E140B8CCD94CFEA
:1006E000723EC8AA5D1BA811C9CAB7CDC53E61AC90
:1006F0007E18241850C8E2CB0F3F2EAE90157E1EF8
:1007000025C615CA4F3F2DB09412AE244AC451C815
:10071000853F5EB28D0FAA2AC1C295C6B13FBEB455
:100720007C0C6C308EC1E2C4D43F4DB76409EB350C
:10073000B1C038C3EC3F09BA46061E3B2CC097C176
:10074000FB3FF0BC24032DE9F05F054600209246F4
:100750009B4688460646814640241BE02846414683
:100760004746224600F020F853465A46C01A9141A7
:1007700010D311461846224600F01EFB2D1A67EBD7
:1007800001084F4622460120002100F015FB17EB1F
:1007900000094E41201EA4F10104DFDC4846314629
:1007A0002A464346BDE8F09F202A04DB203A21FA7E
:1007B00002F00021704721FA02F3D040C2F120027A
:1007C0009140084319467047421C10F8011B00294C
:1007D000FBD1801A704710B5002200E0521C835CE8
:1007E0008C5CA34201D1002BF8D1D8B2E1B2401AFF
:1007F00010BD034611F8012B00F8012B002AF9D196
:1008000018467047F0B480EA0102D40F4200B2EB00
:10081000410F02D20246084611464A0042D0C30D9B
:10082000DDB2C1F3C752AD1A202D35DAC1F316017E
:1008300041F4000204B15242C5F1200602FA06F169
:100840002A411044B3EBD05F23D0C4B1012DA0EBFB
:10085000C35009DCF0BC4FF0004202EAC352DBB2E5
:1008600000F5000000F0D2BA400000F1807000EB0B
:10087000C350A0F1807040EAD170490009E04908F6
:1008800041EAC071A0EBC35000F50000400800EB46
:10089000C350F0BC00F0B1BA6142012202EB410149
:1008A000001BF6E7F0BC704781F00041AAE780F03A
:1008B0000040A7E780EA010210B502F000434000C3
:1008C00022D04A001FD0010E01EB1261C0F3560086
:1008D000C2F3560240F4000042F40002A0FB0220E2
:1008E00000047F39140400D0401C50EA124001D4A7
:1008F0004000491EC2B20C0604EBD010401C400858
:10090000802A02D003E0002010BD20F00100002961
:1009100000DA0020184310BD30B480EA010202F072
:10092000004530F0004221F0004013D090B1C30DDB
:10093000D40DC2F31601C0F31600E41A41F400010D
:1009400040F400027D34914201D3641C00E0490070
:10095000002C02DA30BC002070474FF40000002366
:10096000914201D3891A034340084FEA4101F7D16C
:1009700051B1914202D14FF0004105E002D24FF057
:10098000010101E06FF0010103EBC450284430BCC9
:1009900000F033BA420005D0C0F3C7525242914230
:1009A00001DC0020704700EBC15070472DE9FE4F7D
:1009B000804681EA0300C00F0C46009021F0004100
:1009C00023F00045B8EB0200A94105D2404621467C
:1009D00090461C460B46024623F00040104347D089
:1009E000270DC7F30A00C3F30A510290401A019081
:1009F00040286BDAC3F3130040F4801B0098924642
:100A000020B10023D2EB030A63EB0B0B019859468C
:100A1000C0F14002504600F0CFF906460D46504660
:100A20005946019A00F0D7F910EB08006141002403
:100A300087EA115284EAE7731A4340D0009A62B3FE
:100A4000019A012A4FEA075215DC001B61EB0201F3
:100A50004FF0004202EA0752CDE90042001C41F586
:100A6000801132462B4600F00EFA03B0BDE8F08F3D
:100A700040462146F9E7001B61EB0201001C41F5ED
:100A8000801300185B412018A2F5001747EB030103
:100A900040EAD570B6196D4111E06D084FEA36068F
:100AA00045EAC0754FEA0752001B61EB0201001CCA
:100AB00041F5801149084FEA300000195141324692
:100AC0002B4603B0BDE8F04F00F0CEB900980122EC
:100AD00040000023D0EB020263EBE0730098214654
:100AE0004FEAE074B8EB000061EB0401E9E783F042
:100AF00000435BE781F0004158E72DE9FE4F81EAB2
:100B0000030404F0004421F0004100944FF0000B76
:100B100023F0004350EA01045ED052EA03045BD0A4
:100B2000C3F30A54C1F30A552C44A4F2F3340194DC
:100B3000A0FB0254C1F3130141F48011C3F313036A
:100B400043F4801301FB024400FB034E840A970A1E
:100B500044EA815447EA8357A4FB076802958D0A4B
:100B600005FB07854FEA932C04FB0C542705029DD7
:100B70004FEA065847EA1637B5EB08056EEB070C47
:100B8000870E920E47EA811742EA8312A7FB020101
:100B9000B6EB0B0164EB00042B0D43EA0C335E183B
:100BA00044EB1C50DA465146E7FB0201C5F313043F
:100BB0004FEA0B3343EA14534FEA0432019C43EAF1
:100BC0000603A4F10C040294009CCDE900B400F0EB
:100BD0005AF903B0BDE8F08F00200146F9E770B57F
:100BE00021F0004303430CD0C1F30A550024D5EB98
:100BF000040564EB0403D617AD1AB34102DB0020F1
:100C0000014670BD201841EB025170BDC10F80EA52
:100C1000E0700844CA079623002100F0F7B8962335
:100C20000022114600F0F2B80EB540F233410291B5
:100C30000021CDE900110A460B4600F024F903B06B
:100C400000BD00F0004220F00040C10DC0F31600CE
:100C500040F400007F2901DA00207047962903DC68
:100C6000C1F19601C84001E096398840002AF4D0CD
:100C70004042704720F00040C10DC0F3160040F420
:100C800000007F2901DA00207047962903DCC1F1BA
:100C90009601C8407047963988407047C1F30A52A0
:100CA00010B5C1F3130140F2FF3341F480119A42B1
:100CB00001DA002010BD40F233439A42A2F23342DF
:100CC00003DC5242FFF770FD10BD904010BD00F0F4
:100CD000004230F000400AD0C10D01F56071C0F350
:100CE000160042EA0151C208400711437047002034
:100CF0000146704730B5041E71F1000404DB4FF06B
:100D00000044404264EB0101141E73F1000405DB52
:100D10001C464FF00043524263EB04038B4208BF72
:100D2000824230BD30B5041E71F1000404DB4FF087
:100D30000044404264EB0101141E73F1000405DB22
:100D40001C464FF00043524263EB0403994208BF34
:100D5000904230BD01F0004330B421F0004150EA30
:100D6000010206D00A0DA2F56072C1F31301002A38
:100D700002DC30BC00207047440F44EAC104C100CB
:100D8000E01830BC00EBC25000F037B830B50B466D
:100D9000014600202022012409E021FA02F59D42AB
:100DA00005D303FA02F5491B04FA02F52844151E7F
:100DB000A2F10102F1DC30BD202A04DB203A00FA66
:100DC00002F1002070479140C2F1200320FA03F3A2
:100DD000194390407047202A06DBCB17203A41FA8E
:100DE00002F043EAE07306E041FA02F3D040C2F1B8
:100DF000200291400843194670470029A8BF704758
:100E0000401C490008BF20F00100704710B4B0FA40
:100E100080FC00FA0CF050EA010404BF10BC7047DB
:100E200049B1CCF1200421FA04F411FA0CF118BFF5
:100E3000012121430843A3EB0C01CB1D4FEA0061C4
:100E40004FEA102042BF002010BC704700EBC35097
:100E500010440029A4BF10BC7047401C490008BFC3
:100E600020F0010010BC704710B5141E73F100048F
:100E700008DA401C41F1000192185B411A4301D18C
:100E800020F0010010BD2DE9F04D92469B4611B1B6
:100E9000B1FA81F202E0B0FA80F220329046FFF718
:100EA0008BFF04460F4640EA0A0041EA0B01534615
:100EB0005A46084313D0114653EA010019D0C8F12D
:100EC00040025046FFF770FC05460E465046594614
:100ED0004246FFF771FF084305D0012004E0204699
:100EE0003946BDE8F08D0020054346EAE0762C4304
:100EF00037430A986305E40AA0EB08000022FD0AC4
:100F000044EA47540A3002D500200146E9E70105CA
:100F100010196941DDE9084500196941BDE8F04D46
:100F2000A2E72DE9F04D81EA030404F0004B21F023
:100F3000004514464FF0000A23F0004150EA050234
:100F400020D054EA01021DD0C5F30A570246C5F36A
:100F50001303C1F31300C1F30A5640F4801543F4A0
:100F60008013A7EB0608101BD64608F2FD3873EB7A
:100F7000050002D308F1010801E092185B41B8F1C5
:100F8000000F03DA00200146BDE8F08D00204FF489
:100F90008011064684460EE0171B73EB050705D348
:100FA000121B63EB050306434CEA010C49084FEAA8
:100FB000300092185B4150EA0107EDD152EA03007C
:100FC00012D082EA040083EA0501084305D0101B11
:100FD000AB4106D20122002306E000224FF000437D
:100FE00002E06FF0010253101AEB06004CEB0851BF
:100FF00010EB0A0041EB0B01BDE8F04DFFF734BFE9
:101000002DE9F04D00231A461B1A8A4103DB00200C
:101010000146BDE8F08DC1F30A52C1F3130141F45A
:1010200080154FF0000BD10702D100186D41521E00
:101030000027044640F2FF11384601EB620A3E46A3
:101040008046024600204FF48011FFF7ADFBC21925
:101050007141BB1846EB0100B4EB030C75EB000CBF
:1010600004D3E41A65EB000517460E46241908F16F
:1010700001006D4180463428E3DDF91946EB060096
:10108000091BA84103D24FF0FF32134601E00022B2
:1010900013461BEB070046EB0A51BDE8F04DFFF786
:1010A000E3BE00002DE9F041054621F000400C466A
:1010B000284309D0C4F30A5040F23341884205DD89
:1010C00028462146BDE8F0812846FBE740F2FE3184
:1010D000884210DC0CDB4FEA043040EA155050EA3D
:1010E000053105D0104804F0004101430020E9E734
:1010F00000200146E6E7A0F233404642C6F1400236
:1011000028462146FFF758FE0746884628462146CE
:101110003246FFF749FB43463A46FFF7A5FE324603
:10112000BDE8F041FFF748BE0000F03F0EB5C10F2B
:1011300080EAE0700844CA07002140F233438DE89A
:101140000E000A460B46FFF79EFE03B000BDC1F33A
:101150000A52C1F3130140F2FF3341F480119A4265
:1011600002DA00200146704740F233439A42A2F26D
:10117000334202DC5242FFF717BBFFF71DBE0000EF
:10118000064C074D06E0E06840F0010394E80700D4
:1011900098471034AC42F6D3FEF7CEFFE8E60308DA
:1011A00008E7030870B58C1810F8015B15F0070309
:1011B00001D110F8013B2A1106D110F8012B03E0F0
:1011C00010F8016B01F8016B5B1EF9D12B0705D4F8
:1011D0000023521E0DD401F8013BFAE710F8013B41
:1011E000CB1A921C03E013F8015B01F8015B521E5D
:1011F000F9D5A142D8D3002070BD000010B5214C14
:1012000000224FF48051204602F091FB002261152C
:10121000204602F08CFB00222115204602F087FBBD
:101220000122D102204602F082FB64200FF0F8F97F
:101230000022E114204602F07AFB002280211248AD
:1012400002F075FB0022A115204602F070FB07207A
:1012500000F07AF8002000F077F80A2000F074F827
:10126000002000F071F8602000F06EF80122910279
:10127000204602F05CFB002221152046BDE810400C
:1012800002F055BB00100140000801402DE9F0417B
:101290000F462B49C6B2C0F307230E704B70C0F344
:1012A00007428A704FEA106CA1F1080481F803C06C
:1012B0002068002506FB00F104F10C063170090AD4
:1012C00000FB03117170090A00FB0211B170090AD9
:1012D00000FB0C10F070000A60603071000A707141
:1012E000062400E015B9022000F02EF8601EC4B2FA
:1012F000305D00F029F8681CC5B2002CF2D108203E
:1013000000F022F83C0A204600F01EF8F8B200F087
:101310001BF8092000F018F8204600F015F8F8B284
:1013200000F012F8074C01229102204602F0FFFA69
:10133000002221152046BDE8F04102F0F8BA000075
:1013400088000020001001402DE9F041124F134E9B
:101350000546082415F0800F05D0012220213846CB
:1013600002F0E5FA04E000222021384602F0DFFA1C
:101370006806050E00224FF40071304602F0D7FADD
:1013800001225102304602F0D2FA601E10F0FF0432
:10139000E0D1BDE8F08100000008014000100140EC
:1013A00070B504460068816811F0010F25D081688E
:1013B00021F00101816002F0BFFA054620688068D3
:1013C00010F0010F19D000BF02F0B6FA401B02283E
:1013D0000ED92068806810F0010F09D0A06A40F093
:1013E0001000A062E06A40F00100E062012070BDE0
:1013F0002068806810F0010FE6D1002070BD000069
:1014000070B50021184801F03EFE184C81B218A0BA
:1014100061810BF0AFFB6089FFF706FC184D4FF0C0
:1014200066322B46FFF769FBFFF794FCFFF74FFC92
:1014300002460B4613A00BF09DFB164801F008FC7A
:1014400080B26081FFF7F0FB4FF066322B46FFF76A
:1014500054FBFFF77FFCFFF73AFCBDE87040024603
:101460000B460DA00BF086BB840700201400002063
:101470004441435F7265673A2025640D0A0000000D
:1014800066664A3F4441435F6F75743A2025660D96
:101490000A000000100700204144435F6F75743A52
:1014A0002025660D0A00000010B50246406A816AD8
:1014B00011F0500F05D0006A016BBDE810401046D6
:1014C0000847816A41F400718162016889684FF4BC
:1014D000602232EA010104BF017B00290BD1816A3D
:1014E00021F480718162816A11F4805F03D1816A85
:1014F00041F00101816201F057FB10BD10B5406A57
:10150000816A41F040018162C16A41F00401C16217
:1015100001F09DFB10BD10B5406A01F097FB10BDB6
:1015200070B582B00026044601960068816811F00B
:10153000010F3CD1816841F00101816026482749B3
:101540000068B0FBF1F001900090C0B1B0F1004F25
:101550003DD20028D8BF002005DD10F0010002D0E8
:101560000199491E01910099401C491C884206DAE4
:10157000019A801C521E521E01928842F8DB02F032
:10158000DBF905462068806810F0010F0FD100BF1D
:1015900002F0D2F9401B022804D92068806810F0BC
:1015A000010F07D02068806810F0010FF0D002B062
:1015B000002070BDA06A40F01000A062E06A40F018
:1015C0000100E06284F8246002B0012070BD01983F
:1015D000401E0190FCD1D2E73000002040420F00B5
:1015E00003F04EBD002A08BF70472DE9F0411546B3
:1015F0000E4607464FF0A0083C46781C87B203F021
:10160000F3FD200A08EB4000C0B203F0BDFD03F07B
:101610002DFEE0B203F0B8FD03F028FE03F0E4FD78
:10162000A12003F0B1FD03F021FE002003F04CFDEA
:10163000044603F0F9FD681E050406F8014B2D0C65
:10164000DAD1BDE8F08110B5044603F0CDFD200AE3
:10165000A02101EB4000C0B203F096FD03F006FEAE
:10166000E0B203F091FD03F001FE03F0BDFDA12007
:1016700003F08AFD03F0FAFD002003F025FD044687
:1016800003F0D2FD204610BD2DE9F0410446501E66
:101690000E4685B22CBFA027BDE8F08196F80080E9
:1016A00003F0A2FD200A07EB4000C0B203F06CFD7E
:1016B00003F0DCFDE0B203F067FD03F0D7FD404628
:1016C00003F062FD03F0D2FD03F0AEFD0A200EF040
:1016D0007BFF601C691E84B28DB206F10106DDD26B
:1016E000BDE8F08170B50D46044603F07DFD200A8B
:1016F000A02101EB4000C0B203F046FD03F0B6FDAF
:10170000E0B203F041FD03F0B1FD284603F03CFDDB
:1017100003F0ACFD03F088FDBDE870400A200EF038
:1017200053BFFEE7154810B5816986B041F0080146
:101730008161816901F008010491816941F08001B2
:1017400081618069012400F0800004900220CDE9CD
:1017500000040320CDE902406946094801F0E0FF9A
:10176000600200906946074801F0DAFF0648C0F8B9
:1017700084410648C0F8A44106B010BD00100240E4
:10178000000C0140001C01400080214200802342E7
:101790002DE9F05F2B4E83460024306820F0F000E6
:1017A0003060306840F0800030601E200EF038FF5E
:1017B0000025254FDFF894A0A8464FF0010900BF8F
:1017C000C7F8848105200EF02BFFC7F884916006CE
:1017D000040EDAF8240100281CBF601CC4B2681C87
:1017E000C5B2082DECD3BBF1000FC7F88481306877
:1017F00020F0F0003060306840F0300030604FF092
:10180000050010D00EF00CFFCAF8A48105200EF0E0
:1018100007FFC7F8849105200EF002FFC7F8848106
:101820002046BDE8F09F0EF0FBFECAF8A49105200B
:101830000EF0F6FEC7F8849105200EF0F1FEC7F811
:101840008481EDE7041C0140008021420080234296
:101850002DE9F04706461548016821F0F0010160C6
:10186000016841F030010160114C4FF00008C4F8EC
:10187000848105200EF0D4FE0025DFF83890012782
:10188000F009C9F8A4017006060EC4F88471052099
:101890000EF0C6FEC4F8848105200EF0C1FE681C5F
:1018A000C5B2082DECD3BDE8F0870000041C014050
:1018B000008021420080234270B50F48016821F06A
:1018C000F0010160016841F0300101600B4C012022
:1018D000C4F8A4010A4DC5F884011E2004F5D27491
:1018E00005F5C2750EF09CFE0026266005200EF060
:1018F00097FE2E6070BD0000041C01400080234252
:101900000080214270B50D48016821F0F0010160AE
:10191000016841F03001016009480125C0F8845197
:101920001E200EF07DFE074C0020C4F8A401052007
:1019300004F5D2740EF074FE256070BD041C0140E5
:1019400000802142008023422DE9F0471F4D0024F2
:10195000286820F0F0002860286840F080002860A7
:101960001B4E0127C6F8A471DFF86880C8F884719F
:1019700005200EF055FED6F82401A14608B3601CE0
:10198000C4B2FA2C16D9286820F0F0002860286824
:1019900040F030002860C8F884711E200EF040FE30
:1019A000C6F8A49105200EF03BFEC6F8A4710120F4
:1019B000BDE8F08705200EF033FED6F8240100289C
:1019C000DDD1C8F884910020BDE8F087041C0140F7
:1019D000008023420080214210B521F070F916F0FA
:1019E00023FA83B200221146034801F0B5FBBDE89B
:1019F0001040FFF705BD0000840700202DE9F041ED
:101A0000264D286820F011FE254E264F264C08B39F
:101A1000286820F00AFE012832D0286820F005FE50
:101A2000022818BFBDE8F0810A20A06030682DF0C0
:101A300095FB1E4981FB00108110A1EBE0706060F6
:101A40003978002918BFBDE8F0812188BDE8F04150
:101A5000FFF71CBC1648A06030682DF07FFBA16822
:101A6000484360603978002918BFBDE8F0812188BB
:101A7000FFF70CFC6168BDE8F0410EA00BF07AB8EE
:101A80006420A06030682DF069FBA1684843606065
:101A900039780029D9D0BDE8F0810000C4020020C7
:101AA000A802002014000020FC0200206766666681
:101AB000A08601004444535F4672653A25640000E5
:101AC000094810B500682DF049FB08498A68504361
:101AD000074A48601278002A18BF10BD0988BDE87F
:101AE0001040FFF7D3BB0000A8020020FC0200203A
:101AF00014000020084810B5006816F095F981B26E
:101B00000648074A01801278002A18BF10BD4068B5
:101B1000BDE81040FFF7BABBC8020020FC0200205D
:101B2000140000200D4810B50121006829F06AF961
:101B30000B4930B101200870BDE8104005200EF0BF
:101B400043BD0020087005200EF03EFD05480188C9
:101B50004068BDE81040FFF799BB0000E00200209C
:101B600014000020FC020020014801F009BC000024
:101B700040070020014801F003BC0000A809002034
:101B8000014801F0FDBB000098070020704772B6C5
:101B9000FEE7000010B4B3F5804F18BF6FF070413E
:101BA00005D000BF40F8221010BC00207047D1F8CB
:101BB00018C00B688C6843EA0C03D1F804C089890B
:101BC0004FEA0C1C4CEA042C43EA0C0343EA0141A3
:101BD00050F82230DFF808C003EA0C031943E1E7AC
:101BE0000000F0CF0A6850F8223023F0010340F8DB
:101BF00022308B68082B0CBF40220022D1F804C091
:101C00004CEA0303D1F80CC04CEA02021A430B69F8
:101C10001A434B691A43CB691A430B6A1A434B6A3E
:101C20001A438B6A1A43CB6A1A430B6B1A438B69AC
:101C30001A434B6B09681A43044B50F821C02CEA35
:101C400003031A4340F82120002070477FFF0F0054
:101C500010B4D1E9003C43EA0C13D1F808C08C89D8
:101C60004FEA0C2C4CEA044C43EA0C03B1F810C0C8
:101C70000B4C00EB820004EB0C5C43EA0C0391F884
:101C800014C0640104EB0C6C896943EA0C034268DC
:101C9000194302F040421143416010BC00207047DC
:101CA0000000F0FF2DE9F04182488AB0816941F0DF
:101CB000800181618069012400F0800000904FF470
:101CC0000060CDE904040320CDE906407A4D04A963
:101CD000284601F025FDA0020026CDE9040604A94E
:101CE000284601F01DFDFFF71DFD744DC5F8AC61E0
:101CF000142005F5D6750EF067FC2C6032200EF02E
:101D000063FC8DF8046001AF0125FFF7D5FD70205D
:101D1000FFF79EFDFFF718FE3046FFF799FDFFF72E
:101D200013FE0024385DFFF793FDFFF70DFE18B991
:101D3000601CC4B2AC42F5D3FFF7E4FD01AD01274E
:101D4000FFF7BAFD7020FFF783FDFFF7FDFDA4202C
:101D5000FFF77EFDFFF7F8FD0024285DFFF778FD13
:101D6000FFF7F2FD18B9601CC4B2BC42F5D3FFF70F
:101D7000C9FD16208DF8040001AF0125FFF79CFD79
:101D80007020FFF765FDFFF7DFFD8020FFF760FDA6
:101D9000FFF7DAFD0024385DFFF75AFDFFF7D4FDA9
:101DA00018B9601CC4B2AC42F5D3FFF7ABFD0C20F0
:101DB0008DF8040001AF0125FFF77EFD7020FFF7CD
:101DC00047FDFFF7C1FD8820FFF742FDFFF7BCFD8F
:101DD0000024385DFFF73CFDFFF7B6FD18B9601C25
:101DE000C4B2AC42F5D3FFF78DFD01AD0227FFF77A
:101DF00063FD7020FFF72CFDFFF7A6FDA120FFF784
:101E000027FDFFF7A1FDFFF757FD7120FFF720FD2C
:101E1000FFF79AFD0024A7F1010803E0444508BF3D
:101E2000002000D00120FFF7B3FC2855601CC4B28D
:101E3000BC42F3D3FFF766FD9DF80400302804BFD1
:101E40009DF8050003282ED04FF0040201A948F2A6
:101E5000401000F0E5FA8DF8086001A918A00AF01A
:101E600089FE1A4801990122C0F8021002208DF85B
:101E7000040001A948F2400000F094FC012201A9ED
:101E800048F2470000F0CCFA0A200EF09DFB8DF8D6
:101E90000460012201A948F2400000F083FC0AB06E
:101EA0000020BDE8F08143F2030109A00AF062FEC0
:101EB000F5E7000000100240001C014000802342B2
:101EC0004354502049443A25730D0A007400002001
:101ED0004354502049443A25780D0A002DE9F14F2A
:101EE00082B00026DFF82C938DF80460CA4999F877
:101EF0000100DFF82883401CC0B2A1FB0021C90803
:101F0000494201EB8101354689F8010010EB41019E
:101F100002D00A2880F04981C1A1C248FEF75BFCCB
:101F2000C8B10DF1080A0127FFF7C6FC7020FFF7C2
:101F30008FFCFFF709FD0220FFF78AFCFFF704FD85
:101F4000FFF7BAFC7120FFF783FCFFF7FDFC0024CC
:101F5000A7F1010B1DE0012202A948F24E1000F08A
:101F60005FFA9DF8080010F0800F1DD099F800105E
:101F700000F00F00884217D88DF80460012201A9F3
:101F800048F24E1000F00EFC0EE05C4518BF012038
:101F900000D10020FFF7FCFB0AF80400601CC4B26B
:101FA000BC42F2D3FFF7AEFC9DF8080010F00F0F13
:101FB00000F0FB8099F8001000F00F00884200F25A
:101FC000F480FF2202FA00F0C04398F820B040F0FD
:101FD000C00088F8200008EB4100B8F80C204281CE
:101FE000B8F81610818204200EF0EEFA00208DF869
:101FF000040099F80010814288BF4FF0010A7CD993
:1020000098F82010C0B20AFA00F0014241D084A131
:102010008448FEF7E0FBE0B183489DF804106E466B
:10202000042510F81140FFF747FC7020FFF710FC63
:10203000FFF78AFCE0B2FFF70BFCFFF785FCFFF728
:102040003BFC7120FFF704FCFFF77EFC00246F1EB1
:1020500036E076489DF80410042230F811006946F5
:1020600000F0DEF998F830009DF8011010F0010F33
:102070009DF800000ED000EB01219DF8040008EB54
:10208000400081819DF802109DF8032001EB0221A0
:10209000C1824EE000EB01209DF8041008EB4101E5
:1020A000C8829DF802009DF8032000EB02226048E0
:1020B0000088801A88813CE0BC4208BF002000D024
:1020C0000120FFF765FB3055601CC4B2AC42F3D36E
:1020D000FFF718FC98F830009DF8001010F0010F81
:1020E0009DF8010001F00F0100EB012110D09DF8D7
:1020F000040008EB4000C18200E025E09DF80220CA
:102100009DF8031002F00F0201EB0221818110E023
:1021100047480088411A9DF8040008EB400081817F
:102120009DF802209DF8031002F00F0201EB02213E
:10213000C1829DF80400401CC0B28DF8040099F8DB
:1021400000108842FFF45CAF3948B8F80C10012544
:1021500002888A4208D3B8F816104088884224BF03
:10216000002089F8010020D29DF8080000F00F003F
:1021700001280BD9B8F80E00A8F80C00B8F8180020
:10218000A8F81600002089F801000EE099F8000078
:1021900008EB40004189A8F80C10808AA8F81600C6
:1021A00080208DF8080088F820B01DA11D48FEF79A
:1021B00012FB01009DF808104FF6FF7003D011F0DC
:1021C0001F0F18D00CE001F08F01802908D198F87A
:1021D000201011F0800F13D115E000BF88F8200007
:1021E00099F80100F02884BF0A2089F801002846E8
:1021F00003B0BDE8F08F98F8201011F0800F02D0E6
:1022000021F08000EAE7A8F80C00A8F8160001F019
:10221000E000E3E774000020CDCCCCCC40000020EF
:102220003931310076000020649E03086E9E030859
:102230003416002030B585B0002002901248816924
:1022400041F010018161816901F0100104918169FF
:1022500041F0040181618069012500F004000490CF
:10226000E020CDE90005032469460394074801F006
:1022700057FA4FF4FE40CDE900056946039404483F
:1022800001F04EFA05B030BD0010024000080140D8
:10229000001001402DE9F04154488AB0816941F0B5
:1022A000800181618069012400F0800000904FF47A
:1022B0000060CDE904040320CDE90640DFF8308159
:1022C00004A9404601F02CFAA7020026CDE90476C5
:1022D00004A9404601F024FAFFF724FA454DC5F859
:1022E000AC610A2005F5D6750EF06EF92C600A2057
:1022F0000EF06AF902240497CDE9056404A940466A
:1023000001F00EFA64200EF05FF9042201A948F2F0
:10231000401000F085F88DF8086001A936A00AF099
:1023200029FC38A101A8FEF756FA00281EBF00209C
:102330000AB0BDE8F0818DF8044001AD0127FFF738
:10234000BBFA2820FFF784FAFFF7FEFA8020FFF798
:102350007FFAFFF7F9FA4020FFF77AFAFFF7F4FA6D
:102360000024285DFFF774FAFFF7EEFA18B9601C35
:10237000C4B2BC42F5D3FFF7C5FA012201A948F265
:10238000470000F04DF89DF80410602905D21FA009
:102390000AF0F0FB012000F099F90A200EF014F980
:1023A0008DF8046001AD0126FFF786FA2820FFF7BB
:1023B0004FFAFFF7C9FA8020FFF74AFAFFF7C4FA8D
:1023C0004020FFF745FAFFF7BFFA0024285DFFF72A
:1023D0003FFAFFF7B9FA18B9601CC4B2B442F5D39A
:1023E000FFF790FA0AB00020BDE8F081001002402B
:1023F000001C0140008023424354502049443A25A8
:10240000730D0A00393134370000000044656661FD
:10241000756C74205665723A25640D0A0000000040
:102420002DE9F04115460F460446FFF745FA2820EE
:10243000FFF70EFAFFF788FA200AFFF709FAFFF70D
:1024400083FAE0B2FFF704FAFFF77EFAFFF734FAF7
:102450002920FFF7FDF9FFF777FA0024002D88BF48
:102460006E1E0AD9B44214BF01200020FFF790F974
:102470003855601CC4B2AC42F4D3BDE8F041FFF75C
:1024800041BA00002DE9F14FDFF82CA28B4984B04E
:102490009AF800000025401CC0B2A1FB0021C90829
:1024A000494201EB8101DFF818928AF8000010EB35
:1024B000410102D00A2880F0DB80012204A948F201
:1024C0004E10FFF7ADFF9DF8100010F0800F26D0E2
:1024D00000F00F00062822D200208DF8040001AE83
:1024E0000127FFF7E9F92820FFF7B2F9FFF72CFAE7
:1024F0008120FFF7ADF9FFF727FA4E20FFF7A8F983
:10250000FFF722FA0024305DFFF7A2F9FFF71CFA6B
:1025100018B9601CC4B2BC42F5D3FFF7F3F99DF8BB
:10252000100010F00F0F7DD000F00F00062879D2B8
:10253000FF2101FA00F08DF8040099F82010C04343
:1025400040F0C000029189F82000B9F80C00A9F809
:102550001400B9F81600A9F81E004FF000084FF05B
:10256000010B00BF99F820100BFA08F001424DD082
:1025700054486E46042530F81840FFF79DF928208E
:10258000FFF766F9FFF7E0F9200AFFF761F9FFF7B7
:10259000DBF9E0B2FFF75CF9FFF7D6F9FFF78CF94A
:1025A0002920FFF755F9FFF7CFF900246F1E03E04C
:1025B000BC4208BF002000D00120FFF7E9F83055E9
:1025C000601CC4B2AC42F3D3FFF79CF999F8300019
:1025D0009DF8011010F0010F9DF8000000EB0121A3
:1025E00009EB48000AD0C1829DF802109DF8032033
:1025F00001EB0221C1F54871818107E081819DF8DD
:1026000002109DF8032001EB0221C18208F10100B4
:1026100000F0FF08B8F1050FA4D301254846B9F82A
:102620000C2000E024E028490B88934207D3C28A9B
:102630004988914224BF00208AF8000018D29DF8F2
:10264000101001F00F01012908D9C1898181018B86
:10265000A9F8161000208AF8000009E0818A81811B
:10266000C18BC18280218DF81010029989F8201049
:102670009DF8100000F08F00802811D199F82000FB
:1026800010F0800F18BF20F0800007D14FF6FF71C7
:10269000A9F80C10A9F8161000F0E00089F8200045
:1026A0009AF80000F02884BF0A208AF80000284623
:1026B00005B0BDE8F08F00007B000020CDCCCCCC75
:1026C00040000020309F030834160020F8B5002198
:1026D0008DF80010DFF8C8C08DF8010060469CF846
:1026E00000108DF800109CF8013000215FF05B02B3
:1026F0009DF8005010F8024F2B448DF800304378BD
:102700002144C9B2521EF3D19DF80000244D084463
:102710009CF8B710B8260844C043401C8DF8000050
:10272000FFF7CAF82820FFF793F8FFF70DF980208C
:10273000FFF78EF8FFF708F94720FFF789F8FFF752
:1027400003F90024285DFFF783F8FFF7FDF818B9B7
:10275000601CC4B2B442F5D3FFF7D4F86D4602262C
:10276000FFF7AAF82820FFF773F8FFF7EDF88020AD
:10277000FFF76EF8FFF7E8F8FF20FFF769F8FFF7BB
:10278000E3F80024285DFFF763F8FFF7DDF818B9D8
:10279000601CC4B2B442F5D3FFF7B4F80020F8BD12
:1027A000789E03082DE9F04116460F4604460025A1
:1027B000FFF782F82820FFF74BF8FFF7C5F8200A4B
:1027C000FFF746F8FFF7C0F8E0B2FFF741F8FFF770
:1027D000BBF80024002E0AD9385DFFF739F8FFF75F
:1027E000B3F8050003D1601CC4B2B442F4D3FFF7C0
:1027F00089F82846BDE8F0812DE9F047DFF8F4803C
:10280000DFF8F4900024A8F5006500BF58F8241004
:1028100008140EB2FEF7FAF90821FEF7BBF86FF0C4
:102820000E01FEF7B7F807463046FEF7EFF908212C
:10283000FEF7B0F86FF00E01FEF7ACF80646014661
:10284000FEF738F8824639460846FEF733F8514617
:10285000FDF7D8FFFEF73BFA32F032F96FF00702CE
:10286000FEF7BDF9FEF776FA002C3BD01021FEF7FB
:1028700091F8FEF7FFF945F82400611C1FA00AF04B
:1028800079F92046FEF7CBF94946FEF713F8FEF733
:102890001EFA02460B461CA00AF06CF955F82410EB
:1028A00016A00AF067F93846FEF711FA02460B4601
:1028B00015A00AF05FF93046FEF709FA02460B460A
:1028C00014A00AF057F9601C84B2802C9ED3002417
:1028D00055F8240009F0A8F8601C84B2802CF7D3C6
:1028E000BDE8F0870F21FEF755F8FEF7C3F9286021
:1028F000C3E70000EC110020DBB620412564202056
:1029000020202020000000002566202020202020FC
:102910000000000025662020202020200D0A000055
:10292000F0B583B000250446029590F824000128F4
:1029300002BF022003B0F0BD012084F8240020462D
:10294000FEF72EFD2046FEF7EBFD070072D1A06AD0
:1029500020F4885040F00200A062022001F096F8B6
:1029600039490968B1FBF0F040000290009018D09E
:10297000B0F1004F63D20028D8BF002005DD10F071
:10298000010002D00299491E02910099401C491C85
:10299000884206DA029A801C521E521E0292884217
:1029A000F8DB2068816841F00801816000F0C4FF15
:1029B00006462068806810F0080F0ED000F0BCFFBB
:1029C000801B0A2804D92068806810F0080F1BD1EA
:1029D0002068806810F0080FF0D12068816841F00D
:1029E0000401816000F0A8FF06462068806810F0AE
:1029F000040F19D000F0A0FF801B0A280FD920680F
:102A0000806810F0040F0AD0A06A20F0020040F0A5
:102A10001000A06284F8245003B00120F0BD2068AB
:102A2000806810F0040FE5D1A06A20F0020040F0A9
:102A30000100A06284F8245003B03846F0BD02982B
:102A4000401E0290FCD1ACE73000002070B483B08F
:102A50004FF0000CCDF808C090F824206446012AFD
:102A600001BF022003B070BC7047012280F824200F
:102A70004A681F23072A0DD205686E6B521E02EBAF
:102A80008202934026EA03030E6806FA02F21A4312
:102A90006A631BE005680D2A0CD22E6BD21F02EB75
:102AA0008202934026EA03030E6806FA02F21A43F2
:102AB0002A630BE0EE6A0D3A02EB8202934026EAAB
:102AC00003030E6806FA02F21A43EA620A6807254F
:102AD00003680A2A0CD3DE680A3A02EB42029540E8
:102AE00026EA05058E6806FA02F22A43DA600AE051
:102AF0001E6902EB4202954026EA05058E6806FA39
:102B000002F22A431A610A68102A18BF112A0BD14F
:102B10000268A2F18043B3F592330BD0816A41F091
:102B2000200181624FF0010C80F8244003B0604620
:102B300070BC7047936813F4000FF5D1936843F4A9
:102B40000003936009681029EED11549154A0968F8
:102B5000B1FBF2F101EB8101490002910091E3D058
:102B6000B1F1004F16D20029D8BF002105DD11F0C8
:102B7000010102D0029A521E0292009A491C521C74
:102B80009142D1DA029B891C5B1E5B1E029391422B
:102B9000F8DBC9E70299491E0291FCD1C4E70000A5
:102BA0003000002040420F0038B51E4C002220218A
:102BB000204600F0BCFE1CA009F0DCFF1F49204AA3
:102BC000002000BF51F820301B0442F8203001EBF8
:102BD00080035B6802EB800C1B04801CCCF8043083
:102BE000B0F5807FEEDB16494FF4807201F580600E
:102BF000FDF7BAFAFFF700FE40F2DF60114DADF8C5
:102C0000000001460022286816F032FB01460E4AF9
:102C1000286817F0A2FD2046BDE838400122202197
:102C200000F085BE0018014041444320444D41203E
:102C3000636F6D706C657465210D0A0010030020D0
:102C4000EC0D0020F0020020EC09002070477047D6
:102C50000068C06C704700002DE9F04104004FF09F
:102C6000000604BF0120BDE8F081A06A002528B954
:102C7000E56284F82450204600F090F82046FEF7E4
:102C80008FFB0146A06A10F0100F08BF002904D086
:102C9000A06A40F01000A06276E0A06A20F488509C
:102CA00040F00200A0622268A2F18040B0F59E30A0
:102CB000E06904BFB0F5402F4FF4002094F80CC039
:102CC00040EA4C03606843EA0003A068B0F5807FE7
:102CD00016BF01284FF480700020277D012F0ED1F0
:102CE000BCF1000F21D0D4F828C04CF0200CC4F85F
:102CF00028C0D4F82CC04CF0010CC4F82CC0D2F879
:102D000004C02CF4694C4CEA0000506020688268D2
:102D1000DFF87CC002EA0C021A438260A068B0F5BA
:102D2000807F18BF01280FD109E01A4FD4F818C0CE
:102D300007EB4C3C4CEA000040F40060DFE7208ADF
:102D40004FEA0050A0F580162068C26A22F4700293
:102D500042EA0602C262206880680F4A00EA020066
:102D6000984207D1E562A06A20F0020040F001001D
:102D7000A0620AE0A06A20F0020040F01000A06209
:102D8000E06A40F00100E06201210846BDE8F08100
:102D9000FDF7E1FF00E0FFFFFE0E1FFF70B586B0FC
:102DA0000026054600960196029603960068A0F15B
:102DB0008041B1F592311CBF06B070BD19498869D8
:102DC00040F400708861886900F40070049088699C
:102DD00040F0040088618869694600F004000490AE
:102DE00002200090032001900F4800F099FC104C45
:102DF0000E48C4E900068020C4E90260400020615A
:102E0000C000C4E905064FF44050E061204600F0E0
:102E1000EBFB002818BFFEF7BAFE2C62656206B015
:102E200070BD000000100240000801400800024090
:102E30004007002070B5044690F82400012804BF24
:102E4000022070BD012084F824002046FEF768FBB4
:102E500002004FF0000018BF84F8240001D0104693
:102E600070BDA16A21F0010121F4007141F480716B
:102E7000A162DFF88CC023682249634528D10D6820
:102E800015F4702F24D0A56A45F48015A5620D684D
:102E900015F4806F05D0A56A25F4005545F48055DA
:102EA000A562A56A15F4805F08BFE06203D0E56AF9
:102EB00025F00605E56284F824006FF00200186032
:102EC000206883684FF4602434EA030309D00EE0DD
:102ED000A56A25F48015A5625D6815F4806FE0D0C1
:102EE000D9E7604508D1096811F4702F04D08168D2
:102EF00041F480118160B2E7816841F4A001F9E7F3
:102F000000280140042401402DE9F04704460068F0
:102F10008946404F404EA0F180419046B1F5923134
:102F200018BFB84208D1306810F4702F18BF0125BF
:102F300002D02846BDE8F08794F82400012804BF99
:102F40000220BDE8F087012084F824002046FEF727
:102F5000E7FA05004FF0000018BF84F82400E8D11C
:102F6000A16A21F0010121F4606141F48071A16244
:102F70002168B94245D1326812F4702F41D0A16A5C
:102F800041F48011A162316811F4806F05D0A16A0B
:102F900021F4005141F48051A162A16A11F4805FD3
:102FA00008BFE06203D0E16A21F00601E16284F823
:102FB0002400216A19488862216A1948C862216A76
:102FC0001848086321686FF0020008602068816873
:102FD00041F4807181602068434600F14C014A460B
:102FE000206A00F051FB206881684FF4602232EAC9
:102FF000010181680CBF41F4A00141F4801181609E
:1030000097E7A26A22F48012A262496811F4806FE5
:10301000C3D0BCE70028014004240140A9140008E3
:1030200017150008FD140008002812BF0029012010
:1030300070474379012B04BF0220704730B401244C
:103040004471022303710368D3F800C002F0100238
:1030500040F6FE7595402CEA050CD1E90051294354
:10306000914041EA0C01196001680B684FF0C00CF7
:103070000CFA02F223EA02020A6004710021417193
:1030800030BC08467047002804BF01207047002963
:1030900000680CBFC06A006B7047002804BF0120A5
:1030A000704770B504460079002518B9657120464F
:1030B00000F008F802202071256101202071002015
:1030C00070BD0000F0B585B000260546009601965B
:1030D000029603960068A0F18041B1F5E8411CBF5B
:1030E00005B0F0BD1849C86940F00050C861C86912
:1030F00000F000500490886940F0040088618869FD
:10310000102700F0040004900320CDE90070694608
:103110000E4800F005FB0F4C0D48C4E90007802065
:10312000C4E9026040002061800060612020C4E9A1
:103130000606204600F058FA002818BFFEF727FDC3
:10314000AC60656205B0F0BD0010024000080140AF
:10315000300402409807002081B04FF0000CCDF8F9
:1031600000C0002802BF012001B070470068009035
:10317000002910440CBF0830143000900360002078
:1031800001B07047002804BF012070474279012A2E
:1031900004BF0220704730B4012242710223037140
:1031A000D0F800C0DCF8004001F0100302FA03F58B
:1031B0002C43CCF80040002901684FF03C0C11D0A2
:1031C0000C680CFA03F304F470149C4204BF4B68BF
:1031D00043F0020300D14B6002710021417130BC09
:1031E000084670470B683CEA030304BF4B6843F092
:1031F0000103F1D1EFE790F821200021022A05D048
:103200000422826380F8201001207047026813684E
:1032100023F00E0313600268136823F001031360A8
:1032200090F84030D0F83CC0012202FA03F3CCF809
:10323000043080F8212080F82010084670470000F4
:103240002DE9F05F90F821100024022903D0042119
:103250008163012477E001680A6822F00E020A60A7
:1032600001680A6822F001020A60384A0168384B96
:10327000DFF8E0C0384D394E394FDFF8E880DFF82D
:10328000E890DFF8E8A0DFF8E8B0DFF8E8E0914286
:1032900025D999420ED0614510D0A94212D0B14231
:1032A00015D0B94216D0414508BF4FF4801113D054
:1032B000494501D101210FE0514501D110210BE019
:1032C000594502D14FF4807106E0714502D14FF4A7
:1032D000805101E04FF48031274A116029E0994282
:1032E00013D0614515D0A94217D0B1421AD0B942C6
:1032F0001BD0414508BF4FF4801118D0914208BF40
:103300004FF0807113D0494501D101210FE05145A3
:1033100001D110210BE0594502D14FF4807106E034
:10332000714502D14FF4805101E04FF48031134ACE
:103330005160012180F82110002180F82010416B9C
:10334000002918BF88472046BDE8F09F8000024052
:10335000080002401C0002403000024044000240CD
:10336000580002406C000240080402401C04024065
:1033700030040240440402400404024000000240C1
:103380002DE9F05FC16B0E6801680D68D0F840B0A0
:10339000042202FA0BF23242864A874FDFF81C827F
:1033A000DFF81C92DFF81CA2874BDFF820C2884CA4
:1033B00018BF15F0040F64D00D6815F0200F03D16D
:1033C0000D6825F004050D60824D0168A94227D9DA
:1033D00091420ED0B94210D0414513D0494517D083
:1033E000514518D0994208BF4FF4800115D061456E
:1033F00001D1042111E0A14201D140210DE0764A22
:10340000914202D14FF4806107E0744A914202D1A7
:103410004FF4804101E04FF48021714A11602BE0AC
:10342000914213D0B94215D0414518D049451CD01E
:1034300051451DD0994208BF4FF480011AD0A942CE
:1034400008BF4FF0806115D0614501D1042111E022
:10345000A14201D140210DE05F4A914202D14FF4D7
:10346000806107E05D4A914202D14FF4804101E062
:103470004FF480215B4A5160C16A002975D1BDE8D3
:10348000F09F4FF0020E0EFA0BFE1EEA060F18BF59
:1034900015F0020F6BD00D6815F0200F06D10D68E6
:1034A00025F00A050D60012180F82110494D0168C1
:1034B000A94227D991420ED0B94210D0414513D02C
:1034C000494517D0514518D0994208BF4FF4001113
:1034D00015D0614501D1022111E0A14201D1202185
:1034E0000DE03D4A914202D14FF4007107E03B4AA2
:1034F000914202D14FF4005101E04FF40031384ABB
:1035000011602BE0914213D0B94215D0414518D03B
:1035100049451CD051451DD0994208BF4FF40011B8
:103520001AD0A94208BF4FF0007115D0614501D1F2
:10353000022111E0A14201D120210DE0264A914251
:1035400002D14FF4007107E0244A914202D14FF4B6
:10355000005101E04FF40031224A5160002180F80F
:103560002010816A09B9BDE8F09F1FE0FFE708223B
:1035700002FA0BF2324214BF15F0080FBDE8F09FBB
:103580000A6822F00E020A6090F84020C36B012105
:1035900001FA02F25A60816380F82110002180F85C
:1035A0002010016B002908BFBDE8F09FBDE8F05F67
:1035B00008470000080002401C00024030000240A2
:1035C00044000240580002406C00024008040240DF
:1035D0001C040240800002403004024044040240C7
:1035E0000404024000000240002804BF012070478C
:1035F0001F4B01681F4A994208D21F4B0B44A2FB84
:1036000003321209920002641C4A07E01C4B0B446F
:10361000A2FB03321209920002641A4AC26310B478
:10362000022280F821200A68D0E9013C43EA0C0319
:10363000D0E903C44CEA040C43EA0C03D0F814C0EC
:103640006FF30D1243EA0C03D0F818C043EA0C03E1
:10365000D0F81CC043EA0C031A430A6000218163BE
:10366000012280F8212080F8201010BC0846704705
:1036700008040240CDCCCCCCF8FFFDBF00000240D6
:10368000F8FBFDBF0004024070B490F820404FF0FA
:10369000000C012C02BF022070BC7047012480F88E
:1036A000204090F821600025012E1CBF80F820509A
:1036B0004FF0020C02D070BC60467047022680F8C2
:1036C0002160856305682E6826F001062E6090F85B
:1036D0004050AC40C56B6C60046863604368102B5D
:1036E000036803BF9A600268D16099601CBF0168DB
:1036F000CA60C16A002901680A6818BF42F00E0258
:1037000006D122F004020A6001680A6842F00A0247
:103710000A600068016841F001010160CBE7000028
:1037200000230A689C46002A08BF70472DE9F84F1D
:10373000784EDFF8DC914FF001080F2706F1040EF8
:103740000A6808FA03F42240A2427CD14D68A5F130
:10375000805AAAF5881A4D4500F0C98074DC032D03
:1037600008BF4FF0000C1BD00DDC002D6DD0012DDB
:1037700008BFD1F80CC013D0022D04BFD1F80CC083
:103780000CF1080C0CE0112D04BFD1F80CC00CF1A9
:10379000040C05D0122D04BFD1F80CC00CF10C0C98
:1037A000B2F5807F34BF0546051D4FEA830428BF6C
:1037B000203CD5F800A007FA04FB2AEA0B0A0CFA11
:1037C00004F44AEA04042C604C6814F0805F74D05E
:1037D000514CA56945F00105A561A46904F00104F7
:1037E000009423F0030404F1804505F58035D5F8F5
:1037F00008A04FEA83744FEA147407FA04FB2AEA1C
:103800000B0AA0F1804BBBF5843B2CD0A0F1804B80
:10381000BBF5863B08BF4FF0010B24D0A0F1804BD5
:10382000BBF5883B08BF4FF0020B1CD0A0F1804BCA
:10383000BBF58A3B08BF4FF0030B14D0A0F1804BBF
:10384000BBF58C3B02E038E03EE050E008BF4FF0B3
:10385000040B08D0A0F1804BBBF58E3B0CBF4FF0A2
:10386000050B4FF0060B0BFA04F444EA0A04AC60B3
:103870004C6814F4801F346814BF144394433460BC
:103880004C6814F4001FDEF8004014BF1443944346
:10389000CEF800404C6814F4003F204C256814BF5B
:1038A0001543954325604C6814F4803F1C4C2568F3
:1038B00014BF2A4325EA020222600A685B1CDA4030
:1038C0007FF43EAFBDE8F88FBAF5881F0FD007DC54
:1038D000BAF5803F18BFBAF5801F7FF461AF06E0EC
:1038E000BAF5001F18BFBAF5041F7FF459AFD1F81D
:1038F00008C0BCF1000F08BF4FF0040C3FF450AFFC
:10390000BCF1010F4FF0080C0CBF0461446147E7A4
:10391000000011100804014000100240040401409E
:10392000000401408068084018BF01207047002A49
:1039300008BF0904016170470148806870470000B2
:103940002400002002488168027811448160704799
:1039500024000020074810B5016841F01001016003
:10396000032000F081F80F2000F006F800F024F8A2
:10397000002010BD0020024070B50D4D04464FF4EC
:103980007A712878B1FBF0F00A490968B1FBF0F0D0
:1039900000F0FCFC48B9102C07D200222146501E32
:1039A00000F030F800206C6070BD012070BD000098
:1039B0002400002030000020094881B0816941F0D6
:1039C00001018161816901F001010091C16941F04A
:1039D0008051C161C06900F08050009001B0704713
:1039E000001002400028B8BF704700F01F010122FC
:1039F00002FA01F14009800000F1E020C0F8001156
:103A000070470000174B10B41B68C3F30223C3F1C7
:103A1000070CBCF1040F88BF4FF0040C1C1D072CD1
:103A200034BF0023DB1E012404FA0CFCACF1010CB2
:103A30000CEA0101994004FA03F35B1E1A4011439A
:103A400000284FEA0111A1BF00F1E02080F8001426
:103A500010BC704700F00F0000F1E02080F8141D4A
:103A600010BC70470CED00E0074900F007000A6841
:103A70004FF6FF031A4042EA002040F0FD7040F08C
:103A800080600860704700000CED00E010B5014652
:103A90000020314C042938D00EDC012939D002290C
:103AA00018BF10BD00F0E0F96168C1F38131491C15
:103AB0004900B0FBF1F010BD082926D0102918BF2D
:103AC00010BD6168226812F0807F08BF10BD2348D6
:103AD000C1F3834211F4803F805C04BF2049484316
:103AE00008D061681F4AC1F34041515C1E4AB2FBD5
:103AF000F1F14843616811F4800F18BF10BD400018
:103B00001A49A1FB0010400810BDBDE8104000F0AC
:103B1000BBB9216A01F44072B2F5807F05D111F082
:103B2000020F1CBF4FF4004010BDB2F5007F06D15C
:103B3000626A12F0020F1CBF49F6404010BD4FF4FC
:103B4000407232EA010118BF10BD216811F4003F34
:103B500018BF4FF2244010BD0010024076860308C3
:103B600000093D007486030800127A00ABAAAAAAD5
:103B70002DE9F84304460078DFF8148110F0010FB6
:103B80006AD0D8F81C00002710F0805F0BD1D8F85D
:103B90001C0040F08050C8F81C00D8F81C00012719
:103BA00000F0805000903B4E306810F4807F14D1BC
:103BB000306840F480703060FFF7BEFE0546306824
:103BC00010F4807F09D100BFFFF7B6FE401B6428C8
:103BD0002BD8306810F4807FF6D0D8F8200010F48D
:103BE00040702AD0A18801F44071814225D0D8F8D4
:103BF0002000012220F44071274802600022026068
:103C0000C8F8201011F0010F17D0FFF795FE0546F8
:103C1000D8F8200010F0020F08BF41F288360CD10E
:103C2000FFF78AFE401BB04202D90320BDE8F883AB
:103C3000D8F8200010F0020FF2D0D8F82000616808
:103C400020F440700843C8F820002FB1D8F81C00B9
:103C500020F08050C8F81C00207810F0020F07D028
:103C6000D8F80400A16820F440400843C8F80400D4
:103C7000207810F0100F07D0D8F80400616920F404
:103C800080000843C8F804000020BDE8F883000065
:103C9000001002400070004040044242002804BF6F
:103CA000012070472DE9F047DFF8788105460E4680
:103CB000D8F8000000F00700B0420CD2D8F800009D
:103CC00020F007003043C8F80000D8F8000000F0EA
:103CD0000700B04263D12868534C10F0020F14D093
:103CE00010F0040F03D0606840F4E0606060287852
:103CF00010F0080F03D0606840F4605060606068A6
:103D0000A96820F0F00008436060287810F0010FE7
:103D100032D0686801281FD02168022821D011F014
:103D2000020F3CD0616821F0030108436060FFF797
:103D300003FE07466068696800F00C00B0EB810F75
:103D400018BF41F2883917D0FFF7F6FDC01B484570
:103D50000BD90320BDE8F087216811F4003FE1D1C1
:103D60001DE011F0007FDDD119E06068696800F0A6
:103D70000C00B0EB810FE7D1D8F8000000F007008D
:103D8000B0420FD9D8F8000020F007003043C8F83F
:103D90000000D8F8000000F00700B04202D0012077
:103DA000BDE8F087287810F0040F05D06068E96856
:103DB00020F4E06008436060287810F0080F06D017
:103DC0006068296920F4605040EAC1006060616861
:103DD000164801F00C02042A14D0082A12D1144803
:103DE000C1F3834211F4803F805C04BF1149484312
:103DF00008D06168104AC1F34041515C0B4A5043FE
:103E0000B0FBF1F061680D4AC1F30311515CC84089
:103E10000B4908600B480068FFF7AEFD0020BDE8C5
:103E2000F0870000002002400010024000127A00DB
:103E30006486030800093D0062860308868603083D
:103E40003000002028000020044805490068496827
:103E5000044AC1F30221515CC84070473000002081
:103E60000010024096860308044805490068496826
:103E7000044AC1F3C221515CC840704730000020A1
:103E800000100240968603080F4A51680F4801F05F
:103E90000C03042B08BF7047082B18BF70470C4851
:103EA000C1F3834311F4803FC05C02BF094948431A
:103EB00070475168C1F34041074A515C034A50437F
:103EC000B0FBF1F0704700000010024000127A00D1
:103ED0006486030800093D0062860308002804BFC9
:103EE000012070472DE9F84F04460078E84D10F0A6
:103EF000010F59D0686800F00C00042808D06868E9
:103F000000F00C0008280CD1686810F4803F08D03D
:103F1000286810F4003F47D06068002800F0B281A4
:103F200042E06068B0F5803F04BF286840F480300C
:103F30000AD010B1B0F5A02F11D0286820F480303D
:103F40002860286820F4802028606068D0B1FFF7DE
:103F5000F3FC0646286810F4003F08D024E02868E7
:103F600040F480202860286840F48030ECE7FFF7B8
:103F7000E3FC801B642800F23681286810F4003FBF
:103F8000F5D011E0FFF7D8FC0646286810F4003F92
:103F90000AD000BFFFF7D0FC801B642800F2238109
:103FA000286810F4003FF5D12078BA4E10F0020FC7
:103FB0004FF0010B4FF0000845D0686810F00C0F6F
:103FC00014D0686800F00C00082804BF686810F47A
:103FD000803F0BD0206918B3C6F800B0FFF7ACFCE7
:103FE0000746286810F0020F09D011E0286810F089
:103FF000020F1CBF206901280AD000F043B9FFF767
:104000009BFCC01B02287DD8286810F0020FF6D058
:104010002868616920F0F80040EAC100286012E0D9
:10402000C6F80080FFF788FC0746286810F0020FEA
:1040300009D000BFFFF780FCC01B022862D82868A7
:1040400010F0020FF6D1207810F0080F35D092480A
:10405000A169F9B1C0F800B0FFF76EFC0746686AC5
:1040600010F0020F09D100BFFFF766FCC01B022849
:1040700048D8686A10F0020FF6D0884801684FF4FB
:10408000FA50B1FBF0F0009000BF0098411E009183
:10409000FAD212E0C0F80080FFF74EFC0746686ACB
:1040A00010F0020F09D000BFFFF746FCC01B02282A
:1040B00028D8686A10F0020FF6D1207810F0040FAB
:1040C00079D0E8694FF0000A10F0805F09D1E86903
:1040D00040F08050E861E8694FF0010A00F080503C
:1040E0000090DFF8BC91D9F8000010F4807F19D15E
:1040F000D9F8000040F48070C9F80000FFF71CFCFC
:10410000074600E06FE0D9F8000010F4807F09D185
:10411000FFF712FCC01B642865D8D9F8000010F422
:10412000807FF5D0E068012804BF286A40F00100D4
:1041300009D008B1052813D0286A20F001002862B0
:10414000286A20F004002862E06841F28837D0B184
:10415000FFF7F2FB8146286A10F0020F08D023E037
:10416000286A40F004002862286A40F00100EAE76B
:10417000FFF7E2FBA0EB0900B84234D8286A10F040
:10418000020FF5D010E0FFF7D7FB8146286A10F048
:10419000020F09D0FFF7D0FBA0EB0900B84222D8EC
:1041A000286A10F0020FF5D1BAF1000F03D0E869C8
:1041B00020F08050E861E069F0B3696801F00C011B
:1041C000082950D00228C6F860800FD0FFF7B4FB52
:1041D0000446286810F0007F57D000BFFFF7ACFB03
:1041E000001B02283AD90320BDE8F88FFFF7A4FB93
:1041F0000746286810F0007F09D000BFFFF79CFB3E
:10420000C01B0228EFD8286810F0007FF6D1206A82
:10421000B0F5803F05D16868A16820F400300843FC
:104220006860D4E908010843696821F474110843FF
:104230006860C6F860B000E027E0FFF77DFB044649
:10424000286810F0007F20D1FFF776FB001B0228C2
:10425000C9D8286810F0007FF6D016E0286810F062
:10426000007FBBD111E0012808BFBDE8F88F686866
:10427000226A00F48031914204D1616A00F4701026
:10428000884202D00120BDE8F88F0020BDE8F88FF9
:1042900000100240000042428004424230000020F0
:1042A0000070004070B515460E46040019BFA069A5
:1042B000B0F5807F012070BD94F8410030B94FF017
:1042C000000084F84000204600F01EF804F10801C8
:1042D0002068FDF787FC3146A2682068FDF7B8FC2E
:1042E000D4E901022946236BFDF754FCA16820683C
:1042F00050F8212042F0010240F82120012084F8EA
:104300004100002070BD000030B585B00020009055
:104310000190029003901848016800291CBF05B065
:1043200030BD012101601548416941F4807141614E
:104330004069022400F48070049041F20100CDE94C
:1043400000040325694603950D48FFF7E9F94FF688
:104350008070CDE90004694603950A48FFF7E0F94B
:104360004CF23370CDE90004694603950648FFF727
:10437000D7F905B030BD0000080000200010024051
:10438000002001400018014000140140411EB1F11D
:10439000807F24BF012070474FF0E0204161054A33
:1043A000F02182F8141D00218161072101610020A4
:1043B000704700000FE000E07047704790F83C2025
:1043C000012A04BF0220704730B4012380F83C303A
:1043D000022280F83D2002685468D2F808C00D68B7
:1043E00024F070042C4354600268A2F18044B4F5B8
:1043F00096341CBFA2F18044B4F59A3411D0B2F1C6
:10440000804F1CBFA2F18044B4F5806409D0A2F1B2
:104410008044B4F500641CBFA2F18044B4F540644C
:1044200005D149682CF0800C41EA0C01916080F8BC
:104430003D30002180F83C1030BC08467047002811
:1044400004BF0120704710B5044690F83D0028B91C
:10445000002084F83C00204600F01EF8022084F87A
:104460003D00211D206807F029FB012084F846004B
:1044700084F83E0084F83F0084F8400084F841004E
:1044800084F8420084F8430084F8440084F845002E
:1044900084F83D00002010BD08B501681948A1F15D
:1044A0008042B2F5806213D0A1F18042B2F5805211
:1044B00016D0A1F18042B2F5A05218BF08BDC16963
:1044C00041F02001C161C06900F02000009008BDEA
:1044D000C16941F00201C161C06900F00200F5E765
:1044E000C16941F01001C161C069002200F01000F3
:1044F000009011463620FFF785FABDE808403620C7
:10450000FFF770BA0010024090F83D1001291CBF5F
:1045100001207047022180F83D100068A0F1804121
:10452000B1F596311CBFA0F18041B1F59A3111D09F
:10453000B0F1804F1CBFA0F18041B1F5806109D07E
:10454000A0F18041B1F500611CBFA0F18041B1F53F
:10455000406104D1816801F00701062903D0016898
:1045600041F0010101600020704790F83D100129E1
:104570001CBF01207047022180F83D100168CA6805
:1045800042F00102CA600068A0F18041B1F59631A5
:104590001CBFA0F18041B1F59A3111D0B0F1804F2C
:1045A0001CBFA0F18041B1F5806109D0A0F180412C
:1045B000B1F500611CBFA0F18041B1F5406104D1AB
:1045C000816801F00701062903D0016841F001016B
:1045D00001600020704701680A6A41F211131A4213
:1045E00007D10A6A9B101A4203D10A6822F001021D
:1045F0000A60012180F83D100020704790F83C20AF
:104600000023012A0DBF02204FF0010C80F83CC0AE
:10461000704770B4022280F83D200268946824F04C
:10462000770424F47F4494600A68502A43D00CDC59
:10463000202A75D004DC002A18BF102A0FD18BE085
:10464000302A6DD0402A6DD009E0602A4DD0702A02
:104650000ED0B2F5805F03D0B2F5005F19D0012310
:1046600080F83DC0002180F83C1070BC18467047AF
:10467000D1E901450268C968966844EA012126F437
:104680007F4629433143916001688A6842F077028E
:104690000FE0D1E901450268C968966844EA012142
:1046A00026F47F4629433143916001688A6842F4C9
:1046B00080428A60D4E702684C68C968156A166A45
:1046C00026F001061662966925F00A0526F0F00626
:1046D00046EA01112C439161146201688A6822F054
:1046E000700242F057028A60BAE702684C68C968F3
:1046F000156A166A26F010061662966925F0A0055E
:1047000026F4704646EA013145EA041491611462C8
:1047100001688A6822F0700242F067028A609FE7AF
:104720001AE0FFE702684C68C968156A166A26F045
:1047300001061662966925F00A0526F0F00646EA9B
:1047400001112C439161146201688A6822F07002A1
:1047500042F047028A6083E701688C6824F07004A5
:10476000224342F007028A607AE7704770B5044638
:10477000006801694FF0000511F0020F1CBFC1680D
:1047800011F0020F13D06FF00201016101202077B8
:104790002068806910F0030F204602D0FFF7E5FF84
:1047A00004E000F099F8204600F097F8257720689B
:1047B000016911F0040F1CBFC16811F0040F13D080
:1047C0006FF004010161022020772068806910F4F5
:1047D000407F204602D0FFF7C8FF04E000F07CF8DD
:1047E000204600F07AF825772068016911F0080F5B
:1047F0001CBFC16811F0080F13D06FF008010161F0
:10480000042020772068C06910F0030F204602D0F2
:10481000FFF7ABFF04E000F05FF8204600F05DF822
:1048200025772068016911F0100F1CBFC16811F0D5
:10483000100F13D06FF0100101610820207720685D
:10484000C06910F4407F204602D0FFF78EFF04E0DD
:1048500000F042F8204600F040F825772068016912
:1048600011F0010F1CBFC16811F0010F05D06FF0EE
:1048700001010161204600F031F82068016911F062
:10488000800F1CBFC16811F0800F05D06FF0800150
:1048900001612046FFF790FD2068016911F0400F8B
:1048A0001CBFC16811F0400F05D06FF040010161DD
:1048B000204600F0A9F82068016911F0200F1ABF06
:1048C000C16811F0200F70BD6FF02001016120461A
:1048D000BDE87040FFF771BD704770473D498842A1
:1048E00018BF704770B53C4CE088401CE080012048
:1048F0002CF0BCFE394D3A4E207850B140F22F31A9
:10490000E068FCF7C3FCE0682844E060B04203D2F2
:1049100003E0E068A84200D0E560E0883149A1FBEF
:104920000021C908494201EB810110EB41000FD180
:104930002D4D102229462D4800F0DEFC0822294684
:104940002B4800F0D9FC01222A492B4800F0FBFC3F
:1049500026480025417801290ED14570A088B0F580
:104960009B6F07D2103083B20022A38011462348E8
:10497000FEF7F2FBFCF744FD1D484178012915D1F3
:104980004570A088102808D9103883B20022A3806F
:1049900011461A48FEF7E0FB06E000222B46A580F0
:1049A00011461648FEF7D8FBFCF72AFD124841785D
:1049B000012905D145700A0211491248FEF7A4FAEF
:1049C000E088B0F57A7F18BF70BDE5802089401C73
:1049D000208170BD6C0800201400002040420F00B0
:1049E00000E1F505CDCCCCCC001801400000002042
:1049F000020000200008014004000020840700207D
:104A000010030020100700207047704770B504465F
:104A10000068406994F84110C0F3C0102025212996
:104A20001CD1D8B12068143050E8001F21F080015B
:104A300040E80012002AF5D1A06B002818BFFEF74D
:104A4000DAFB206800F10C0151E8000F20F0C000F3
:104A500041E80002002AF4D184F8415020684069FE
:104A600094F84210C0F38010222937D1B0B32068E7
:104A700000F1140151E8000F20F0400041E800026D
:104A8000002AF4D1E06B002818BFFEF7B4FB2068C1
:104A900000F10C0151E8000F20F4907041E8000291
:104AA000002AF4D12068143050E8001F21F00101E1
:104AB00040E80012002AF5D1206B01280AD12068B5
:104AC00000F10C0151E8000F20F0100041E8000255
:104AD000002AF4D184F8425000202063002070BDE9
:104AE00070470000F8B5016804460868CA684B6959
:104AF00010F00F0F4FF020064FF0000560D003F0CC
:104B0000010C02F490775CEA07077CD010F0010FEB
:104B100018BF12F4807F03D0616C41F00101616421
:104B200010F0040F18BF13F0010F03D0616C41F0B7
:104B30000201616410F0020F18BF13F0010F03D0DF
:104B4000616C41F00401616410F0080F1CBF02F0B9
:104B5000200151EA0C0103D0616C41F0080161644D
:104B6000616C002908BFF8BD10F0200F1EBF12F0C5
:104B7000200F204607F096FE20684069616CC0F364
:104B8000801011F0080F08BF002857D0206800F1EE
:104B90000C0151E8000F20F4907041E80002002A57
:104BA000F4D1206800F1140151E8000F20F0010059
:104BB00041E80002002AF4D1206B012815D10AE057
:104BC00010F0200F18BF12F0200F3CD02046BDE897
:104BD000F84007F067BE20680C3050E8001F21F055
:104BE000100140E80012002AF5D184F842602563E4
:104BF0002068406910F0400F1CD0206800F11401BB
:104C000051E8000F00E01EE020F0400041E8000203
:104C1000002AF2D1E06B68B173494163E06BFEF7A3
:104C20000FFB002808BFF8BDE06B416B01B0BDE889
:104C3000F04008472046FFF753FFF8BD2046FFF736
:104C40004FFF6564F8BD236B012B7CD110F0100F72
:104C500018BF12F0100F76D00868486800904869B5
:104C60004FF0020710F0400F45D0E16B0868406834
:104C70000004000C1CBFA28D824298BFF8BDE085E5
:104C8000886920282ED020680C3050E8001F21F4BD
:104C9000807140E80012002AF5D12068143050E8F5
:104CA000001F21F0010140E80012002AF5D1206820
:104CB00000F1140151E8000F20F0400041E800022B
:104CC000002AF4D184F84260256320680C3050E853
:104CD000001F21F0100140E80012002AF5D1E06B1E
:104CE000FEF789FA6763A08DE18D401A81B22046F4
:104CF000FFF78BFEF8BDA08DE18D401A81B2E08DEB
:104D0000002814BF0029F8BD206800F10C0252E809
:104D1000000F20F4907042E80003002BF4D12068CB
:104D200000F1140050E8002F22F0010240E80023B7
:104D3000002BF4D184F842602563206800F10C0256
:104D400052E8000F00E00AE020F0100042E8000303
:104D5000002BF2D167632046FFF757FEF8BD10F035
:104D6000800F18BF12F0800F2DD094F84100212839
:104D700018BFF8BDA068B0F5805F04BF20690028A7
:104D8000206A18D000F10101216221680078486092
:104D9000E08CA0F101000004000CE08418BFF8BD15
:104DA0002068C16821F08001C1602068C16841F0BD
:104DB0004001C160F8BD0088C0F308004860206A67
:104DC000801C2062E4E710F0400F14BF12F0400F87
:104DD000F8BD2046CA6822F04002CA6084F84160EB
:104DE00000F04CF9F8BD000031C70008002804BFEE
:104DF0000120704770B5044690F84100002520B9A5
:104E000084F84050204600F023F8242084F8410024
:104E10002068C16821F40051C160204607F0AAFD56
:104E20002068016921F4904101612068416921F005
:104E30002A0141612068C16841F40051C160656484
:104E4000202084F8410084F842006563002070BD92
:104E500070B586B00025064600950195029503952C
:104E60000068A0F18041B1F59C311CBF06B070BD57
:104E70002149886940F480408861886900F4804055
:104E80000490886940F00400886188691B4C00F038
:104E90000400049048150090022001900320039024
:104EA00069462046FEF73CFC2015CDE90005694621
:104EB00020460295FEF734FC124C1148C4E9000567
:104EC0008020C4E9025020202561C4E90550204615
:104ED000E561FEF789FB002818BFFCF758FEF46374
:104EE0000022114625206662FEF78CFD2520FEF784
:104EF00079FD06B070BD00000010024000080140BE
:104F000058000240A809002090F84230202B1CBF16
:104F100002207047002912BF002A012070474FF07D
:104F20000003036307F08CBD704770472DE9F05F05
:104F3000044690F841001D461646884620281CBFAE
:104F40000220BDE8F09FB8F1000F12BF002E012033
:104F5000BDE8F09F4FF0000BC4F844B04FF02100C3
:104F600084F84100FEF7E8FCA6848146E684A06848
:104F7000B0F5805F07BF2069002846464FF0000863
:104F800008BF0026E08C4FF0200AB0B320684FF035
:104F90008007006837EA000024D000BFB5F1FF3F6A
:104FA0001BD02DB1FEF7C8FCA0EB0901A94214D912
:104FB00020680C3050E8001F21F4D07140E8001246
:104FC000002AF5D12068143050E8001F21F00101BB
:104FD00040E80012002AF5D135E02068006837EA81
:104FE0000000DBD1C6B3206816F8011B4160E08CDD
:104FF000401EE084E08C0028C8D12068402600686C
:1050000036EA000035D000BFB5F1FF3F2CD02DB1FE
:10501000FEF792FCA0EB0900A84225D920680C30CD
:1050200050E8001F21F4D07140E80012002AF5D1A9
:10503000206800F1140151E8000F20F0010041E860
:105040000002002AF4D184F841A084F842A084F838
:1050500040B00320BDE8F09FFFE738F8020B21685D
:10506000C0F308004860C2E72068006836EA000024
:10507000CAD184F841A00020BDE8F09F7047FEE748
:105080000E4810B5816986B041F0080181618069E0
:10509000012400F008000490C020CDE900040320A2
:1050A000CDE9024069460648FEF73AFB0548C0F8DC
:1050B0009C41C0F8984106B010BD000000100240AD
:1050C000000C0140008021422DE9F047DFF8B0904C
:1050D00082460024D9F8000020F07040C9F8000092
:1050E000D9F8000040F00040C9F80000254E2546E0
:1050F00027464FF0010800BFC6F8987102200BF058
:105100008FFAC6F898816006040ED6F81C010028B4
:105110001CBF601CC4B201200BF082FA681CC5B22F
:10512000082DE9D3BAF1000FC6F89871D9F800003C
:1051300020F07040C9F80000D9F8000040F040505D
:10514000C9F800000ED0C6F89C7102200BF068FA76
:10515000C6F8988102200BF063FAC6F898712046D1
:10516000BDE8F087C6F89C8102200BF059FAC6F81A
:10517000988102200BF054FAC6F89871EFE700000E
:10518000000C0140008021422DE9F0410646144800
:10519000016821F070410160016841F040510160F7
:1051A000104C4FF00008C4F8988145460127F009DB
:1051B000C4F89C017006060E02200BF031FAC4F808
:1051C000987102200BF02CFAC4F8988102200BF0A1
:1051D00027FA681CC5B2082DE9D3BDE8F0810000AC
:1051E000000C01400080214270B50D48016821F09B
:1051F00070410160016841F040510160094C01209B
:10520000C4F89C01C4F89801042004F5CC740BF098
:1052100007FA0025656004200BF002FA256070BDD6
:10522000000C0140008021420E4810B5016821F0B9
:1052300070410160016841F0405101600A4C00205A
:10524000C4F89801C4F89C01042004F5CC740BF058
:10525000E7F9012020606060BDE8104004200BF0F9
:10526000DFB90000000C0140008021422DE9F0412F
:105270001F4E0024306820F070403060306840F0ED
:10528000004030601B4D0127C5F89C7138460BF07B
:10529000C7F9C5F8987101200BF0C2F9D5F81C01C7
:1052A000002100B3601CC4B2FA2C18D9306820F079
:1052B00070403060306840F040503060C5F8981160
:1052C000C5F89C1104200BF0ABF9C5F89871C5F82E
:1052D0009C7104200BF0A4F90120BDE8F081D5F801
:1052E0001C010028DED1C5F898110020BDE8F0812E
:1052F000000C01400080214270B5044600780B4646
:10530000012570B10026012813D0022818BF70BDF6
:1053100011461846FEF706FB012804BF657026708B
:1053200070BD11461846FEF7FDFA002808BF25702B
:1053300070BD11461846FEF7F5FA002812BF267018
:105340000220207070BD70B5044600780B46012520
:1053500070B10026012813D0022818BF70BD114675
:105360001846FEF7DFFA002804BF6570267070BD8E
:1053700011461846FEF7D6FA012808BF257070BD01
:1053800011461846FEF7CEFA012812BF26700220F9
:10539000207070BD70B50F4E05463088718801FBD6
:1053A00000F40021084605F059FD0B4930890880BA
:1053B000002C08BF70BD14F00101084A18BF158009
:1053C000A14228BF70BD15801580891CA142FAD367
:1053D00070BD000034160020FE07006C0008006C51
:1053E0002DE9FF4F884600980D9E101A401C84B28C
:1053F000A3EB0800401C07043F0C4FF0000504BF5E
:1054000004B0BDE8F08FDFF864A0DFF864B00BF102
:10541000020900BF08EB050081B2009805F01EFDEF
:10542000BAF80800ABF80000CCB114F0010005D0C8
:1054300005FB04F136F81110A9F80010A0420ED2B5
:1054400005FB040136F81120A9F8002006EB410104
:105450004988A9F80010801C80B2A042F0D3681CD3
:1054600085B2BD42D6D304B0BDE8F08F341600201B
:10547000FE07006C2DE9F04F2E492C250A46887155
:105480002B2692884FF430584FF428594FF4487423
:1054900041F6631A2A274FF0F00E45F2105B4FF4E5
:1054A000A07C4FF4F073C8B1A1F800C0A1F802E0ED
:1054B0005A4536D1A1F80880A1F80A9030028881B7
:1054C0000C804B80A2F5A640103804BF0B80A1F8D9
:1054D00002C00020BDE8F04F05F054BBA1F800E089
:1054E000A1F802C05A4511D1A1F80880A1F80A908C
:1054F0004FF42C5088810B80A1F80240A2F5A64001
:10550000103804BFA1F800C04B80E2E752450D817E
:1055100001BF4E818F810B804C801CBF4F818E81DB
:10552000ECE70D814F8152458E8104BF0C804B808A
:10553000C8E70000341600202DE9F04F4FF0000AB4
:10554000161A5D1A83B0D14680460F46002EC8BF9A
:10555000012006DC0FBF00204FF0FF3001907642A3
:1055600000D10190002DC8BF012006DC0FBF002034
:105570004FF0FF3000906D4200D10090AE42CCBFA2
:1055800034462C464FF0000B601C52BF029003B013
:10559000BDE8F08F1FFA88F0B9B205F05FFC104843
:1055A0000189104801801048104900880880B244E1
:1055B000A944A24503DD0198AAEB040A8044A14551
:1055C00003DD0098A9EB040907440BF101001FFA61
:1055D00080FB02988345DDDD03B0BDE8F08F00005D
:1055E00034160020FE07006C340000200008006C18
:1055F00000B505F033FC04480449008908800448DC
:10560000891C0088088000BD34160020FE07006C4D
:10561000340000202DE9F04F8346002586B01400A9
:105620004FF00300A0EB44008A46009044BF06B050
:10563000BDE8F08F454E464FDFF8188107F10209AB
:105640000BEB0500AAEB04010190049180B289B232
:1056500005F004FC30893880B8F80000A9F8000093
:105660000BEB0400AAEB05010290039180B289B212
:1056700005F0F4FB30893880B8F80000A9F8000084
:1056800002980AEB0501029180B289B205F0E6FBAF
:1056900030893880B8F80000A9F8000001980AEBBA
:1056A0000401059180B289B205F0D8FB30893880B9
:1056B000B8F80000A9F80000ABEB050005990190CF
:1056C00080B289B205F0CAFB30893880B8F8000092
:1056D000A9F80000ABEB04000299059080B289B2F2
:1056E00005F0BCFB30893880B8F80000A9F800004C
:1056F0000198049980B289B205F0B0FB30893880F6
:10570000B8F80000A9F800000598039980B289B2A2
:1057100005F0A4FB30893880B8F80000A9F8000033
:1057200000986D1C002804DA00EB8500801D0090B5
:1057300005E0291B00EB81000A30641E0090A542A1
:105740007FF77EAF06B0BDE8F08F00003416002072
:10575000FE07006C340000202DE9F80F8A4CCDB212
:105760000F0A2146B4F804A0DFF820C28E894989C7
:10577000AAF5A04B0CF1020300F0FF084FEA102934
:10578000BBF5A26B43D0AAF5C85BBBF1630B7CD021
:10579000ADF80010BDF80000ADF80000BDF8000045
:1057A000ACF80000ADF80090BDF80000ADF80000C6
:1057B000BDF800001880ADF80080BDF80000ADF81D
:1057C0000000BDF800001880ADF80060BDF80000D2
:1057D000ADF80000BDF80000ACF80000ADF80070B6
:1057E000BDF80000ADF80000BDF800001880ADF86D
:1057F0000050BDF80000ADF80000BDF800001880B2
:105800002089ACF800001A80BDE8F80F7047ADF8A9
:105810000010BDF80000ADF80000BDF80000ACF8C5
:105820000000ADF80090BDF80000ADF80000BDF834
:1058300000001880481CADF80000BDF80000ADF86D
:105840000000BDF80000ACF80000ADF80080BDF825
:105850000000ADF80000BDF800001880ADF8006051
:10586000BDF80000ADF80000BDF80000ACF8000085
:10587000ADF80070BDF80000ADF80000BDF8000004
:105880001880701CADF8000000E011E0BDF80000C9
:10589000ADF80000BDF80000ACF80000ADF8005015
:1058A000BDF80000ADF80000BDF800001880A7E7C3
:1058B00094F80680B8F1000F05D1B4F80080A8EB89
:1058C0000000401E80B2ADF80010BDF80010ADF829
:1058D0000010BDF80010ACF80010010AADF800107F
:1058E000BDF80080ADF80080BDF80080A3F800800E
:1058F000C0B2ADF80000BDF80080ADF80080BDF882
:105900000080A3F80080ADF80010BDF80010ADF8DD
:105910000010BDF800101980ADF80000BDF80000BF
:10592000ADF80000BDF800001880ADF80060BDF8CB
:105930000000ADF80000BDF80000ACF80000ADF8C4
:105940000070BDF80000ADF80000BDF80000188040
:10595000ADF80050BDF80000ADF80000BDF8000043
:105960001880ADF80070BDF80000ADF80000BDF87B
:1059700000001880ADF80050BDF80000ADF8000040
:10598000BDF8000018803BE734160020FE07006CCD
:105990002DE9F04FFF4891B04FF020410160FE49E2
:1059A000416006210025C0E902151027C0E904570F
:1059B00085613902C561C0E909518900C0E90B510F
:1059C000456385630620CDE909051A200F954FF040
:1059D00003080B90CDF8008003950620CDE9015017
:1059E0006A4609A9EB480695FEF75CFC32200AF0EE
:1059F000EBFDD320ADF81C00BDF81C00ADF81C0079
:105A0000BDF81C00E5490880881C0088ADF81C0022
:105A1000BDF81C00881C0088ADF81C00BDF81C00F7
:105A2000881C0088ADF81C00BDF81C00891C4FF6CE
:105A3000FF7B09880BEA0020ADF81C10BDF81C1094
:105A400047F289740843D6498880A0F5134141394B
:105A50007ED00420ADF81C00BDF81C00ADF81C0081
:105A6000BDF81C00DFF834A3AAF800000AF1020612
:105A70003088ADF81C00BDF81C00DFF82493308896
:105A8000ADF81C00BDF81C003088ADF81C00BDF856
:105A90001C0031880BEA0020ADF81C10BDF81C106A
:105AA0000843A0F50541A9F8040052390CBFA9F834
:105AB0000440A0424CD04FF0D400ADF81C00BDF81B
:105AC0001C00ADF81C00BDF81C00AAF800003088CE
:105AD000ADF81C00BDF81C003088ADF81C00BDF806
