:020000040800F2
:100000003013002049010008CF300008E52A00081D
:10001000CD300008390B00086936000800000000E8
:10002000000000000000000000000000D3300008C5
:100030008B0B000800000000D1300008D53000080C
:100040006301000863010008630100086301000800
:100050006301000863010008E10B00086301000868
:1000600063010008E70B0008ED0B00083D0B0008DA
:10007000630100086301000863010008490B0008E0
:1000800063010008630100086301000863010008C0
:1000900063010008630100086301000863010008B0
:1000A00063010008630100086301000863010008A0
:1000B0006301000863010008630100086301000890
:1000C0006301000863010008630100086301000880
:1000D00063010008D93500086301000863010008C6
:1000E0006301000863010008630100086301000860
:1000F0006301000863010008630100086301000850
:10010000630100086301000863010008630100083F
:10011000630100086301000855310008630100080D
:100120006301000863010008550B00086301000823
:10013000DFF810D000F0D0FB00480047713F000806
:10014000AFF3008030130020064880470648004780
:10015000FEE7FEE7FEE7FEE7FEE7FEE7FEE7FEE777
:10016000FEE7FEE753310008310100082DE9F05F9A
:100170000546002092469B46884606468146402416
:100180001BE0284641464746224600F02FF85346DA
:100190005A46C01A914110D311461846224600F023
:1001A00016F82D1A67EB01084F4622460120002160
:1001B00000F00DF817EB00094E41201EA4F10104D8
:1001C000DFDC484631462A464346BDE8F09F202AF8
:1001D00004DB203A00FA02F1002070479140C2F19E
:1001E000200320FA03F3194390407047202A04DBD0
:1001F000203A21FA02F00021704721FA02F3D040A0
:10020000C2F120029140084319467047202A06DBBC
:10021000CB17203A41FA02F043EAE07306E041FAD4
:1002200002F3D040C2F120029140084319467047C2
:10023000D2B201E000F8012B491EFBD27047002228
:10024000F6E710B513460A4604461946FFF7F0FFD5
:10025000204610BDF0B480EA0102D40F4200B2EB98
:10026000410F02D20246084611464A0042D0C30D51
:10027000DDB2C1F3C752AD1A202D35DAC1F3160134
:1002800041F4000204B15242C5F1200602FA06F11F
:100290002A411044B3EBD05F23D0C4B1012DA0EBB1
:1002A000C35009DCF0BC4FF0004202EAC352DBB29B
:1002B00000F5000000F06DBA400000F1807000EB26
:1002C000C350A0F1807040EAD170490009E04908AC
:1002D00041EAC071A0EBC35000F50000400800EBFC
:1002E000C350F0BC00F04CBA6142012202EB410164
:1002F000001BF6E7F0BC704781F00041AAE780F0F0
:100300000040A7E780EA010210B502F00043400078
:1003100022D04A001FD0010E01EB1261C0F356003B
:10032000C2F3560240F4000042F40002A0FB022097
:1003300000047F39140400D0401C50EA124001D45C
:100340004000491EC2B20C0604EBD010401C40080D
:10035000802A02D003E0002010BD20F00100002917
:1003600000DA0020184310BD2DE9FE4F804681EAD7
:100370000300C00F0C46009021F0004123F000451F
:10038000B8EB0200A94105D24046214690461C46E2
:100390000B46024623F00040104347D0270DC7F319
:1003A0000A00C3F30A510290401A019040286BDA08
:1003B000C3F3130040F4801B0098924620B1002341
:1003C000D2EB030A63EB0B0B01985946C0F14002D4
:1003D0005046FFF7FCFE06460D4650465946019A28
:1003E000FFF714FF10EB08006141002487EA115267
:1003F00084EAE7731A4340D0009A62B3019A012A53
:100400004FEA075215DC001B61EB02014FF000427E
:1004100002EA0752CDE90042001C41F58011324644
:100420002B4600F0F3F903B0BDE8F08F40462146BB
:10043000F9E7001B61EB0201001C41F58013001875
:100440005B412018A2F5001747EB030140EAD57085
:10045000B6196D4111E06D084FEA360645EAC075E0
:100460004FEA0752001B61EB0201001C41F58011AD
:1004700049084FEA30000019514132462B4603B07B
:10048000BDE8F04F00F0B3B900980122400000230E
:10049000D0EB020263EBE073009821464FEAE07470
:1004A000B8EB000061EB0401E9E783F000435BE790
:1004B00081F0004158E72DE9FE4F81EA030404F082
:1004C000004421F0004100944FF0000B23F0004362
:1004D00050EA01045ED052EA03045BD0C3F30A542D
:1004E000C1F30A552C44A4F2F3340194A0FB025446
:1004F000C1F3130141F48011C3F3130343F48013D8
:1005000001FB024400FB034E840A970A44EA81542B
:1005100047EA8357A4FB076802958D0A05FB078508
:100520004FEA932C04FB0C542705029D4FEA065812
:1005300047EA1637B5EB08056EEB070C870E920EEF
:1005400047EA811742EA8312A7FB0201B6EB0B01CF
:1005500064EB00042B0D43EA0C335E1844EB1C5093
:10056000DA465146E7FB0201C5F313044FEA0B33A9
:1005700043EA14534FEA0432019C43EA0603A4F110
:100580000C040294009CCDE900B400F03FF903B0E4
:10059000BDE8F08F00200146F9E72DE9F04D81EA32
:1005A000030404F0004B21F0004514464FF0000A0C
:1005B00023F0004150EA050220D054EA01021DD088
:1005C000C5F30A570246C5F31303C1F31300C1F381
:1005D0000A5640F4801543F48013A7EB0608101B5D
:1005E000D64608F2FD3873EB050002D308F1010886
:1005F00001E092185B41B8F1000F03DA00200146D8
:10060000BDE8F08D00204FF48011064684460EE0D0
:10061000171B73EB050705D3121B63EB050306439A
:100620004CEA010C49084FEA300092185B4150EA4D
:100630000107EDD152EA030012D082EA040083EAF6
:100640000501084305D0101BAB4106D2012200234F
:1006500006E000224FF0004302E06FF00102531069
:100660001AEB06004CEB085110EB0A0041EB0B01B2
:10067000BDE8F04D00F0BBB896230022114600F013
:1006800088B80EB540F2334102910021CDE9001146
:100690000A460B4600F0BAF803B000BD20F0004057
:1006A000C10DC0F3160040F400007F2901DA0020DC
:1006B0007047962903DCC1F19601C840704796390E
:1006C0008840704700F0004230F000400AD0C10D71
:1006D00001F56071C0F3160042EA0151C2084007FB
:1006E00011437047002001467047000030B5041EDA
:1006F00071F1000404DB4FF00044404264EB01015F
:10070000141E73F1000405DB1C464FF000435242F7
:1007100063EB0403994208BF904230BD01F00043EF
:1007200030B421F0004150EA010206D00A0DA2F5D2
:100730006072C1F31301002A02DC30BC0020704754
:10074000440F44EAC104C100E01830BC00EBC250C1
:1007500000F016B830B50B460146002020220124D7
:1007600009E021FA02F59D4205D303FA02F5491B7F
:1007700004FA02F52844151EA2F10102F1DC30BD95
:100780000029A8BF7047401C490008BF20F00100A5
:10079000704710B4B0FA80FC00FA0CF050EA010483
:1007A00004BF10BC704749B1CCF1200421FA04F415
:1007B00011FA0CF118BF012121430843A3EB0C01EE
:1007C000CB1D4FEA00614FEA102042BF002010BC51
:1007D000704700EBC35010440029A4BF10BC704701
:1007E000401C490008BF20F0010010BC704710B544
:1007F000141E73F1000408DA401C41F10001921844
:100800005B411A4301D120F0010010BD2DE9F04DEC
:1008100092469B4611B1B1FA81F202E0B0FA80F241
:1008200020329046FFF7D3FC04460F4640EA0A0008
:1008300041EA0B0153465A46084313D0114653EA86
:10084000010019D0C8F140025046FFF7CFFC054621
:100850000E46504659464246FFF7B9FC084305D0BC
:10086000012004E020463946BDE8F08D0020054314
:1008700046EAE0762C4337430A986305E40AA0EB86
:1008800008000022FD0A44EA47540A3002D500203D
:100890000146E9E7010510196941DDE9084500193C
:1008A0006941BDE8F04DA2E7C1F30A52C1F313015B
:1008B00040F2FF3341F480119A4202DA00200146EF
:1008C000704740F233439A42A2F2334202DC524272
:1008D000FFF78CBCFFF77BBC064C074D06E0E068D9
:1008E00040F0010394E8070098471034AC42F6D377
:1008F000FFF722FCD4570008F457000870B50446EF
:1009000000688168C943C90717D1816821F00101D6
:10091000816001F0A3F805460AE000BF01F09EF8EF
:10092000401B022804D920688068C043C00706D055
:1009300020688068C043C007F0D0002070BDA06A66
:1009400040F01000A062E06A40F00100E062012087
:1009500070BD00002DE9FC5F0021364800F035FC39
:10096000354C82B20026E2801025CDE900560423E2
:1009700096215E2002F092F9E088FFF782FEDFF810
:10098000BCB04FF066394A465B46FFF794FDFFF76F
:10099000C5FE0746FFF782FEE080CDE9005602461D
:1009A0000123AA215E2002F079F9E088FFF764FEB6
:1009B0003946FFF7A4FCDFF888A05146FFF7A2FCF8
:1009C000FFF76CFE4FF08008CDE900580246032384
:1009D000AA216E2002F062F91A4800F06EFA80B285
:1009E000FFF74FFE4A465B46FFF765FDFFF796FEB1
:1009F0000746FFF753FEE080CDE90056024601238B
:100A0000BE215E2002F04AF9E088FFF735FE394644
:100A1000FFF775FC5146FFF775FCFFF73FFECDE988
:100A2000005802460323BE216E2002F037F9BDE8CC
:100A3000FC9F0000B80000201000002066664A3FBE
:100A400000007A444400002010B50146406A826AE2
:100A500012F0500F05D0006A026BBDE81040084646
:100A60001047816A41F40071816201688968C1F3AD
:100A7000424107290CD1017B51B9816A21F480716F
:100A80008162816AC90403D4816A41F001018162F3
:100A900000F010FA10BD10B5406A816A41F04001C3
:100AA0008162C16A41F00401C16200F005FA10BD23
:100AB00010B5406A00F0FFF910BD0000F8B500263F
:100AC0000446009600688168C943C9072DD0816833
:100AD00041F001018160164816490068B0FBF1F051
:100AE00000E0401E00900028FBD100F0B7FF054653
:100AF00016E000BF00F0B2FF401B022810D92068AA
:100B00008068C043C0070BD0A06A40F01000A0620C
:100B1000E06A40F00100E06284F824600120F8BD42
:100B200020688068C043C007E4D10020F8BD000001
:100B30002C00002040420F00FEE70000014800F0BA
:100B400075BC000074000020014800F06FBC00007C
:100B500094020020014800F069BC0000CC00002095
:100B600030B590F840500124AC40C56B6C6004680F
:100B700063604368102B036803D099600068C2600B
:100B800030BD9A600068C16030BD704770B50546E1
:100B900000244FF47A7603E0304600F005F8641C38
:100BA000AC42F9D370BD000070B54FF0E0235D6931
:100BB0000A4A9C69116848439969A142FCD002D253
:100BC000A4EB010402E0A5EB01063444566834446A
:100BD00054600C4651688142EED370BD380000204D
:100BE000012000F025BE082000F022BE102000F0F9
:100BF0001FBE72B6FEE7000030B5B3F5804F05D0DA
:100C00006FF0704140F82210002030BD8C690B68F5
:100C10008D6823434C688989240144EA05242343D1
:100C200043EA014150F82230014C23401943E9E7DF
:100C30000000F0CF10B50A6850F8223023F001030D
:100C400040F822308C68082C23D000234A682243C5
:100C5000CC681C430B6922431A434B690E4C1A4360
:100C6000CB691A430B6A1A434B6A1A438B6A1A43BD
:100C7000CB6A1A430B6B1A438B6913434A6B09689F
:100C80001A4350F82130A343134340F82130002089
:100C900010BD4023DAE700007FFF0F0030B5D1E937
:100CA000003443EA04138C688D89240244EA054425
:100CB00023430C8A094D00EB820005EB04542343C7
:100CC0000C7D6D0105EB0464896923430B43416886
:100CD00001F040410B434360002030BD0000F0FFB5
:100CE000F8B500250446009590F8240001280BD0A3
:100CF000012084F824002046FFF700FE2046FFF77D
:100D0000DDFE060002D050E00220F8BDA06A20F40B
:100D1000885040F00200A062022000F035FF254913
:100D20000968B1FBF0F0400000E0401E0090002890
:100D3000FBD12068816841F00801816000F08EFEDF
:100D4000074608E000F08AFEC01B0A2803D9206885
:100D50008068000715D4206880680007F2D42068F6
:100D6000816841F00401816000F078FE074612E0DE
:100D700000F074FEC01B0A280DD920688068400767
:100D800009D5A06A20F0020040F01000A06284F8AB
:100D900024500120F8BD206880684007E8D4A06A8C
:100DA00020F0020040F00100A06284F82450304698
:100DB000F8BD00002C000020F8B50024009490F845
:100DC00024202546012A12D0012280F824204A68D6
:100DD0001F23072A0DD20668776B521E02EB820290
:100DE00093409F430B6893401F43776319E00220B1
:100DF000F8BD06680D2A0AD2376BD21F02EB8202B9
:100E000093409F430B6893401F43376309E0F76AA1
:100E10000D3A02EB820293409F430B6893401F43BD
:100E2000F7620A68072306680A2A0AD3F7680A3AAB
:100E300002EB420293409F438B6893401F43F7604D
:100E400008E0376902EB420293409F438B6893406E
:100E50001F4337610A68102A01D0112A20D1124B92
:100E600002689A4217D193681B0219D4936843F41D
:100E7000000393600968102912D10C490C4A0968D3
:100E8000B1FBF2F101EB8101490000E0491E009144
:100E90000029FBD104E0816A41F020018162012434
:100EA00080F824502046F8BD002401402C0000208A
:100EB00040420F007047704770470068C06C704731
:100EC0002DE9F04104004FF000057FD0A06A002614
:100ED00028B9E66284F82460204600F081F82046B4
:100EE000FFF70CFDA16AC90600D420B1A06A40F04A
:100EF0001000A0626AE0A16A21F4885141F0020169
:100F0000A162334923688B42E16904D1B1F5402FD6
:100F100001D14FF40021277B4FF4807C41EA470246
:100F200061680A43A168614508D0012906D0002103
:100F300094F814E0BEF1010F02D00AE06146F7E731
:100F4000C7B1A76A47F02007A762E76A47F0010721
:100F5000E7625F6827F469470F435F602368996819
:100F60001C4F394011439960A16861450BD001299C
:100F700009D00CE0DFF860E0A7690EEB47370F43BC
:100F800047F40061E5E7218A0D05A5F58015216884
:100F9000CB6A23F470032B43CB62216889680F4B23
:100FA0001940914208D1E662A16A21F0020141F0A4
:100FB0000101A162BDE8F081A06A20F0020040F0CA
:100FC0001000A062E06A40F00100E0620120F1E759
:100FD000003C0140FDF7E1FF00E0FFFFFE0E1FFFB8
:100FE00070B586B0002506460095019502950395DB
:100FF00000681A4988422ED11949886940F4007066
:101000008861886900F400700490886940F00400E9
:1010100088618869694600F004000490022000900D
:10102000032001900F4800F00FFC104C0E48C4E95B
:1010300000058020C4E9025040002061800060610A
:101040002020C4E90605204600F014FB08B1FFF794
:10105000D0FD3462666206B070BD0000002401401D
:101060000010024000080140080002407400002007
:101070002DE9F047894604463B4900683B4F0E1D69
:101080009046884201D0B84207D1306810F4702FE2
:1010900003D001252846BDE8F08794F824000128F4
:1010A0000CD0012084F824002046FFF707FD05003E
:1010B0004FF0000004D084F82400EBE70220EAE7B8
:1010C000A16A40F60162914341F48071A1622168F6
:1010D000B94218D1326812F4702F14D0A16A41F4C9
:1010E0008011A1623168490505D5A16A21F400513A
:1010F00041F48051A162A16AC9040AD5E16A21F0D4
:101100000601E16206E0A26A22F48012A262496846
:10111000E9E7E06284F82400216A15488862216AC0
:101120001448C862216A1448086321686FF00200FD
:1011300008602068816841F48071816021684346BD
:101140004A464C31206A00F0D3FA20688168C1F326
:1011500042410729816803D041F48011816099E7F9
:1011600041F4A001FAE700000024014000280140FA
:10117000490A0008B10A0008970A000870B500B3D0
:10118000F9B14379012B1ED0012646710223037168
:1011900005682C6802F0100340F6FE729A409443F2
:1011A000D1E900210A439A4022432A6001680A6873
:1011B000C0249C40A2430A60067100214171084688
:1011C00070BD012070BD022070BD18B1006819B15A
:1011D000006B704701207047C06A704770B504000B
:1011E00003D02079002510B105E0012070BD6571A4
:1011F000204600F007F802202071256101202071AF
:10120000002070BDF0B585B0002605460096019619
:101210000296039600681A4988422ED11949C86976
:1012200040F00050C861C86900F00050049088691F
:1012300040F0040088618869102700F004000490E1
:101240000320CDE9007069460F4800F0FDFA104C0C
:101250000E48C4E900078020C4E902604000206114
:10126000800060612020C4E90606204600F002FAF2
:1012700008B1FFF7BEFCAC60656205B0F0BD0000D0
:101280000074004000100240000801403004024099
:10129000CC00002018B50024009440B100680090F4
:1012A000104431B1143000900360002018BD0120BB
:1012B00018BD0830F7E710B590F821100022022978
:1012C00005D00421816380F82020012010BD016831
:1012D0000B6823F00E030B6001680B6823F0010319
:1012E0000B6090F84030C46B012101FA03F3636096
:1012F00080F8211080F82020104610BD2DE9F05F05
:1013000090F821100024022903D0042181630124D4
:1013100085E001680A6822F00E020A6001680A6826
:1013200022F001020A603F4E3E4FB215DFF8F4C0D2
:10133000DFF8F090DFF8ECA0DFF8E8B0DFF8E4E0E9
:101340000168783F13011502ACF1640CA9F1500952
:10135000AAF13C0AABF1280BAEF1140E4FF4801841
:10136000B14227D9B9420ED0614512D049451DD0AE
:10137000514518D0594518D0714501D1424615E064
:10138000294EB14201D1012210E0274E1436B1425C
:1013900001D110220AE0244E2836B14206D0224A5A
:1013A0003C32914201D11A4600E02A461E49091FEB
:1013B0000A602BE0B94213D0614517D0494522D0CD
:1013C00051451DD059451DD0714501D142461AE005
:1013D000B14202D14FF0807215E0134EB14201D1FB
:1013E000012210E0104E1436B14201D110220AE061
:1013F0000D4E2836B14206D00B4A3C32914201D103
:101400001A4600E02A46074980394A60012180F8DF
:101410002110002180F82010416B01B1884720463F
:10142000BDE8F09F80000240080402402DE9F05F13
:10143000C16B0A6801680B68046C4FF0040808FA75
:1014400004F8844D844E854FDFF814C2DFF81492FF
:10145000DFF814A2DFF814B2DFF814E218EA020F82
:1014600065D05FEA437862D50A68920603D40A68B9
:1014700022F004020A60DFF8F0814FF48062016814
:1014800008F1140813011402414524D9A9420DD0D2
:10149000B1420FD0B9421AD0614515D0494515D097
:1014A000514501D1120312E0594501D104220EE049
:1014B000714501D140220AE06D4D1435A94206D094
:1014C0006B4A2832914201D11A4600E02246674910
:1014D000091F0A6029E0A94213D0B14215D0B942D0
:1014E00020D061451BD049451BD0514502D14FF456
:1014F000800217E0414502D14FF0806212E0594569
:1015000001D104220EE0714501D140220AE0584D7C
:101510001435A94206D0564A2832914201D11A46C2
:1015200000E022464B4908394A60C16A71E04FF039
:10153000020808FA04F818EA020F70D05FEA83780C
:101540006DD50A68920606D40A6822F00A020A607B
:10155000012180F82110DFF810814FF4007201683A
:1015600008F1140813011402414524D9A9420DD0F1
:10157000B1420FD0B9421AD0614515D0494515D0B6
:10158000514501D1120312E0594501D102220EE06A
:10159000714501D120220AE0354D1435A94206D00B
:1015A000334A2832914201D11A4600E022462F499F
:1015B000091F0A6029E0A94213D0B14215D0B942EF
:1015C00020D061451BD049451BD0514502D14FF475
:1015D000001217E0414502D14FF0007212E0594568
:1015E00001D102220EE0714501D120220AE0204DF6
:1015F0001435A94206D01E4A2832914201D11A461A
:1016000000E02246134908394A60002180F8201082
:10161000816A00291CD0BDE8F05F0847FFE7082574
:10162000A540154214D01A0712D50A6822F00E02FE
:101630000A6090F84020C36B012101FA02F25A605F
:10164000816380F82110002180F82010016BE0E711
:10165000BDE8F09F080002401C000240300002403C
:1016600044000240580002406C000240080402405E
:101670001C04024030B560B11A4B026814219A4232
:1016800009D2194B1344B3FBF1F1890001641749E6
:101690000AE0012030BD134B5B421344B3FBF1F170
:1016A000890001640F490839C163022180F82110C3
:1016B000136843F6F0718B43F0E901142143D0E93C
:1016C00002452C4321430469214344692143846931
:1016D00021431943116000214163012242770177C0
:1016E000084630BD08040240F8FFFDBF000002407C
:1016F00070B5044690F82000002501280CD0012088
:1017000084F8200094F821600020012E06D084F88F
:1017100020000225284670BD022070BD022684F8F4
:101720002160A0632068066826F001060660204656
:10173000FFF716FAE06A00282068016802D041F03D
:101740000E0106E021F0040101602068016841F00B
:101750000A0101602068016841F001010160D9E7D8
:1017600030B585B00020009001900290039017489A
:101770000168002927D1012101601548416941F420
:10178000807141614069022400F48070049041F24C
:101790000100CDE900040325694603950D4800F0DA
:1017A00053F84FF68070CDE90004694603950A4866
:1017B00000F04AF84CF23370CDE900046946039515
:1017C000064800F041F805B030BD000004000020DC
:1017D00000100240002001400018014000140140A8
:1017E00070B50546104C00070BD56188B1F57A6FCE
:1017F00001D2C83161808BB2002211460B48FFF73D
:1018000049FDE8060CD56088C82801D9C83800E031
:101810000020608083B2002211460448FFF73AFDA1
:10182000BDE87040FFF796B810000020B800002017
:10183000044910B50A68024202D00860FFF7D0FFE1
:1018400010BD0000140401402DE9F84FDFF8C891E5
:101850000024A9F1040B23460F2709F1040AABF178
:10186000040ED1E00125A54006EA0502AA4276D180
:10187000DFF8A8C14E68A6EB0C0866452BD00DDC3E
:10188000032E34D005DC36B3012E19D0022E2FD111
:101890001BE0112E16D0122E2AD119E0B8F5881FA0
:1018A00019D006DCB8F5803F15D0B8F5801F1FD1E0
:1018B00011E0B8F5001F0ED0B8F5041F18D10AE0EA
:1018C000CB6815E0CB681B1D12E0CB6808330FE036
:1018D000CB680C330CE08B682BB1012B4FF0080365
:1018E00003D0456104E0042302E0056100E0002329
:1018F000FF2A01D8064601E000F104064FEA8405FC
:1019000001D9A5F12005D6F8008007FA05FC28EAE0
:101910000C0803FA05F548EA0508C6F800804D688A
:10192000ED0070D53E4DAE6946F00106AE61AD6981
:1019300024F0030605F0010500953A4D06EB050C71
:10194000DCF80850A607360F07FA06F825EA08055E
:10195000DFF8D480404503D14FF0000825E052E085
:10196000DFF8C880404502D14FF001081DE0DFF8E4
:10197000C080404502D14FF0020816E0DFF8B48085
:10198000404502D14FF003080FE0DFF8AC8040453E
:1019900002D14FF0040808E0DFF8A080404502D1F2
:1019A0004FF0050801E04FF0060808FA06F848EA8B
:1019B0000508CCF808804D68D9F80060ED024D4666
:1019C00001D5164300E096432E604D68DAF80060BA
:1019D000AD02554601D5164300E096432E604D6892
:1019E000DBF80060AD035D4601D5164300E0964389
:1019F0002E604D68DEF80060ED03754601D5164394
:101A000000E096432E60641C0A681646E2407FF4AC
:101A100029AFBDE8F88F0000080401400000111054
:101A2000001002400000014000080140000C01408D
:101A3000001001400014014000180140001C01404A
:101A4000C26821EA02030A4043EA02410161704789
:101A50000AB1016170470904FBE700000148806892
:101A6000704700002000002002488168027811447D
:101A70008160704720000020074810B5016841F0E0
:101A800010010160032000F06DF80F2000F006F84F
:101A900000F024F8002010BD0020024070B50D4D6C
:101AA00004464FF47A712878B1FBF0F00A490968CE
:101AB000B1FBF0F000F0DAFB48B9102C07D200229D
:101AC0002146501E00F02EF800206C6070BD0120F1
:101AD00070BD0000200000202C000020094808B53F
:101AE000816941F001018161816901F00101009189
:101AF000C16941F08051C161C06900F0805000901F
:101B000008BD000000100240002809DB00F01F02A1
:101B1000012191404009800000F1E020C0F800114F
:101B200070470000F0B40E4B1B680C46C3F3022351
:101B3000C3F10705042D00D90425191D072901D279
:101B4000002300E0DB1E012606FA05F1491E2140B4
:101B500099409E40761E16403143F0BC01F096BD80
:101B60000CED00E0064900F0070208684FF6FF039D
:101B7000184040EA0220034A104308607047000002
:101B80000CED00E00000FA0510B501460020284CDD
:101B900004292FD00BDC012930D0022929D100F0F3
:101BA0006BF96168C1F38131491C49001FE00829C4
:101BB00020D010291DD161682268D20119D51D4895
:101BC000C1F38342C903805C0AD56168194AC1F335
:101BD0004041921E515C184AB2FBF1F1484301E0CA
:101BE000164948436168490203D440000321B0FB11
:101BF000F1F010BDBDE8104000F04EB9226AC2F30A
:101C00000121012903D1920701D5C80310BD022982
:101C100005D1626A920702D549F6404010BD0329FA
:101C2000FCD121688903F9D54FF2244010BD000092
:101C300000100240EC3F000800127A0000093D004D
:101C40002DE9F84305460078354CC00754D0E069CB
:101C50000026C00008D4E06940F08050E061E069EF
:101C6000012600F0805000902E480168C90512D46A
:101C70000168804641F480710160FFF7EFFE07467E
:101C800005E000BFFFF7EAFEC01B642823D8D8F8A0
:101C90000000C005F6D5206A10F4407021D0A98854
:101CA00001F4407181421CD0206A1F49012220F4B6
:101CB00040700A6000220A602062C00711D0FFF75E
:101CC000CDFE074641F2883808E000BFFFF7C6FEA8
:101CD000C11B414502D90320BDE8F883206A800773
:101CE000F4D5206A696820F44070084320621EB170
:101CF000E06920F08050E0612878800705D56068B1
:101D0000A96820F44040084360602878C00605D5E3
:101D10006068696920F48000084360600020DBE7A8
:101D20000010024000700040400442422DE9F0479C
:101D30000F46050061D0434E306800F00700B842FE
:101D400009D2306820F0070038433060306800F076
:101D50000700B84251D128683B4C810712D5400793
:101D600003D5606840F4E06060602878000703D520
:101D7000606840F4605060606068A96820F0F0001E
:101D8000084360602878C00728D06868012810D010
:101D90002168022810D0890700292EDA616821F015
:101DA000030101436160FFF759FE804641F2883923
:101DB0000DE021688903EFE78901EDE7FFF74EFEAB
:101DC000A0EB0801494502D90320BDE8F08760680F
:101DD000696800F00C00B0EB810FEFD1306800F0C3
:101DE0000700B8420BD9306820F007003843306054
:101DF000306800F00700B84201D00120E5E72878FC
:101E0000400705D56068E96820F4E0600843606039
:101E10002878000706D56068296920F4605040EAF8
:101E2000C100606000F038F86168084AC1F303112E
:101E3000515CC8400649086006480068FFF72EFE5E
:101E40000020C2E70020024000100240FC3F0008D2
:101E50002C0000202400002004480549006849683F
:101E6000044AC1F30221515CC84070472C00002095
:101E7000001002400C400008044805490068496809
:101E8000044AC1F3C221515CC84070472C000020B5
:101E9000001002400C4000080E4A51680E4801F044
:101EA0000C03042B11D0082B0FD10C48C1F3834332
:101EB000C903C05C0AD55168084AC1F34041921E6B
:101EC000515C054A5043B0FBF1F070470449484368
:101ED000704700000010024000127A00DA3F00084C
:101EE00000093D002DE9F84F040070D02078C04D66
:101EF000C00749D06868C0F38100012807D068682E
:101F0000C0F38100022809D16868C00306D528689B
:101F1000800339D560680028E7D035E06068B0F507
:101F2000803F0BD010B1B0F5A02F11D0286820F45D
:101F300080302860286820F4802002E0286840F47F
:101F400080302860606890B1FFF788FD06460AE09F
:101F5000286840F480202860F0E700BFFFF77EFD8E
:101F6000801B642873D828688003F7D50CE0FFF73E
:101F700075FD064605E000BFFFF770FD801B642875
:101F8000F0D828688003F7D420789A4E80074FF065
:101F900001094FF0000839D5686810F00C0F07D020
:101FA0006868C0F38100022809D16868C00306D4BC
:101FB0002868800714D52069012808D110E020691D
:101FC000B0B1C6F80090FFF749FD074605E00AE109
:101FD000FFF744FDC01B0228C4D828688007F7D546
:101FE0002868616920F0F80040EAC10028600DE02F
:101FF000C6F80080FFF732FD074604E0FFF72EFD2C
:10200000C01B022823D828688007F7D4207800074F
:102010002CD57948A169D9B1C0F80090FFF71EFD11
:10202000074604E0FFF71AFDC01B02280FD8686AB4
:102030008007F7D571484FF4FA510068B0FBF1F012
:10204000009000BF0098411E0091FAD20EE080E09F
:10205000C0F80080FFF702FD074604E0FFF7FEFC32
:10206000C01B022875D8686A8007F7D4207840071B
:1020700060D5E8690027C00008D4E86940F08050C6
:10208000E861E869012700F0805000905C48016831
:10209000C90513D40168834641F480710160FFF7DC
:1020A000DDFC824606E000BFFFF7D8FCA0EB0A008B
:1020B00064284ED8DBF80000C005F5D5E06801289B
:1020C0000AD008B1052813D0286A20F00100286240
:1020D000286A20F0040002E0286A40F0010028622B
:1020E000E06841F2883B98B1FFF7B8FC82460BE00C
:1020F000286A40F004002862EEE700BFFFF7AEFC5C
:10210000A0EB0A0159455AD8286A8007F6D50CE099
:10211000FFF7A4FC824605E0FFF7A0FCA0EB0A0154
:1021200059454CD8286A8007F6D41FB1E86920F0D9
:102130008050E861E06988B36968C1F381010229D0
:1021400044D00228C6F8608004D0FFF787FC04461C
:1021500038E034E0FFF782FC074604E0FFF77EFC3E
:10216000C01B02282BD828688001F7D4206AB0F55C
:10217000803F05D16868A16820F40030084368609A
:10218000D4E908010843696821F4741108436860C0
:10219000C6F86090FFF762FC044606E025E000BF49
:1021A000FFF75CFC001B022809D828688001F7D5DE
:1021B0001BE000BFFFF752FC001B022802D90320DE
:1021C000BDE8F88F28688001F4D40EE00128F7D02C
:1021D0006868226A00F48031914204D1616A00F497
:1021E0007010884201D00120EAE70020E8E70000F3
:1021F0000010024000004242800442422C000020B5
:102200000070004070B515460E46040007D0A06966
:10221000B0F5807F03D094F8410010B107E00120B1
:1022200070BD002084F84000204600F01DF804F145
:1022300008012068FEF7FEFC3146A2682068FEF720
:102240002DFDD4E901022946236BFEF7D5FCA168D8
:10225000206850F8212042F0010240F8212001209E
:1022600084F84100002070BDFFF77ABA10B5401E17
:10227000B0F1807F01D3012010BD4FF0E0246061F8
:102280000F21601701F002FA0020A06107202061F1
:10229000002010BD7047704770B590F83C20012AAF
:1022A0002CD0012480F83C40022280F83D200368B5
:1022B0005A689D6822F070060A6832435A60104BD3
:1022C00002689A420ED00F4B9A420BD0B2F1804F67
:1022D00008D00D4B9A4205D00C4B9A4202D00C4BC1
:1022E0009A4204D1496825F080031943916080F82F
:1022F0003D40002180F83C10084670BD022070BDB2
:10230000002C01400034014000040040000800405F
:10231000000C004010B5040003D094F83D0010B14B
:1023200007E0012010BD002084F83C00204600F0AA
:102330001FF8022084F83D00211D206800F010FFE6
:10234000012084F8460084F83E0084F83F0084F8B9
:10235000400084F8410084F8420084F8430084F887
:10236000440084F8450084F83D00002010BD0000C2
:1023700008B5114A01681148914211D1C16941F073
:102380001001C161C069002200F0100000901146E8
:102390003620FFF7C7FBBDE808403620FFF7B4BB87
:1023A000074A914207D1C16941F02001C161C0696A
:1023B00000F02000009008BD001000400010024016
:1023C0000014004090F83D10012901D00120704711
:1023D000022180F83D100168CA6842F00102CA601B
:1023E00000680E4988420ED00D4988420BD0B0F1EA
:1023F000804F08D00B49884205D00B49884202D053
:102400000A49884204D1816801F00701062903D0F6
:10241000016841F00101016000207047002C01407B
:10242000003401400004004000080040000C00405F
:1024300001680A6A41F211131A4207D10A6A9B1015
:102440001A4203D10A6822F001020A60012180F8D1
:102450003D1000207047704770B504460068016960
:102460004FF00005C943890715D4C168C9438907DE
:1024700011D4E91E0161012020772068806980075E
:10248000204602D0FFF7E7FF04E000F098F820466E
:1024900000F096F8257720680169C943490717D4E9
:1024A000C168C943490713D46FF0040101610220D8
:1024B00020772068806910F4407F204602D0FFF723
:1024C000CAFF04E000F07BF8204600F079F8257799
:1024D00020680169C943090716D4C168C9430907BF
:1024E00012D46FF008010161042020772068C069D0
:1024F0008007204602D0FFF7AEFF04E000F05FF84F
:10250000204600F05DF8257720680169C943C906B7
:1025100017D4C168C943C90613D46FF01001016113
:10252000082020772068C06910F4407F204602D040
:10253000FFF791FF04E000F042F8204600F040F879
:10254000257720680169C943C90708D1C168C94313
:10255000C90704D1891E0161204600F033F82068C4
:102560000169C943090609D4C168C943090605D4EC
:102570006FF0800101612046FFF78CFE2068016941
:10258000C943490609D4C168C943490605D46FF057
:1025900040010161204600F04BF820680169C94301
:1025A00089060BD4C168C943890607D46FF020019E
:1025B00001612046BDE87040FFF76DBE70BD7047F9
:1025C00070470000114910B588421ED1104C1149C6
:1025D000A068401CA060884217D10020A060A0889D
:1025E000401CA080E068FEF76DF80B4A0B4BFDF72E
:1025F000BBFEFEF793F8E06009A001F037F8BDE8F4
:10260000104020210948FFF71BBA10BD58010020D7
:102610001000002020A107009A9999999999B93F33
:1026200068656C6C6F20776F726C6400000C014001
:102630007047704710B504460068406994F841102F
:10264000C0F3C010212911D180B12068143050E8A6
:10265000001F21F0800140E80012002AF5D1A06B94
:1026600008B1FEF728FE204600F066FE20684069AB
:1026700094F84210C0F38010222911D180B1206853
:10268000143050E8001F21F0400140E80012002AF9
:10269000F5D1E06B08B1FEF70EFE204600F025FEF6
:1026A000002010BD70470000F8B5016804460868B6
:1026B000CA684B6910F00F0F4FF0000559D003F0B6
:1026C000010602F49077374365D0C10705D0D105E4
:1026D00003D5616C41F001016164410705D5D9075B
:1026E00003D0616C41F002016164810705D5D9070F
:1026F00003D0616C41F004016164010707D502F069
:102700002001314303D0616C41F008016164616CC8
:1027100000293AD0800604D5900602D5204600F064
:1027200019FE20684069616CC0F38010090700D46D
:1027300060B3204600F0D9FD20684069400621D5ED
:102740002068143050E8001F21F0400140E80012DA
:10275000002AF5D1E06BA8B16D494163E06BFEF74B
:10276000CDFD002811D0E06B416B01B0BDE8F04019
:10277000084783060FD593060DD52046BDE8F840DF
:1027800000F0E8BD2046FFF78DFFF8BD2046FFF7BB
:1027900089FF6564F8BD266B2023012E7CD1C60617
:1027A0007AD5D60678D508684868009048694FF011
:1027B0000206400640D5E16B086840680004000C42
:1027C000E8D0A28D8242E5D9E085886920282DD005
:1027D00020680C3050E8001F21F4807140E800129E
:1027E000002AF5D12068143050E8001F21F00101C3
:1027F00040E80012002AF5D12068143050E8001F8C
:1028000021F0400140E80012002AF5D184F842305E
:10281000256320680C3050E8001F21F0100140E8CB
:102820000012002AF5D1E06BFEF745FD6663A08D2E
:10283000E18D401A81B22AE0A08DE18D401A81B26B
:10284000E08D0028A6D00029A4D022680C3252E8DE
:10285000000F20F4907042E80007002FF5D12068A7
:10286000143050E8002F22F0010240E80027002F2A
:10287000F5D184F84230256320680C3050E8002FF1
:1028800022F0100240E80023002BF5D166632046B9
:10289000FFF7CFFEF8BDFFE705062BD5150629D5B6
:1028A00094F841002128F5D1A068B0F5805F01D1EE
:1028B0002069B0B1206A411C21622168007848601B
:1028C000E08C401E0004000CE084E3D12068C16865
:1028D00021F08001C1602068C16841F04001C16001
:1028E000D8E7206A0088C0F308004860206A801C8E
:1028F0002062E5E74006CDD55006CBD5CA68204614
:1029000022F04002CA6084F8413000F0EAF8C1E7E2
:10291000ED31000870B5040004D094F841000025A2
:1029200010B106E0012070BD84F84050204600F050
:1029300023F8242084F841002068C16821F4005164
:10294000C160204600F068FD2068016921F49041D3
:1029500001612068416921F02A0141612068C16854
:1029600041F40051C1606564202084F8410084F87E
:1029700042006563002070BD70B586B00025064634
:1029800000950195029503950068224988423FD140
:102990002149886940F480408861886900F480405A
:1029A0000490886940F00400886188691B4C00F03D
:1029B0000400049048150090022001900320039029
:1029C00069462046FEF740FF2015CDE9000569461F
:1029D00020460295FEF738FF124C1148C4E9000565
:1029E0008020C4E9025020202561C4E9055020461A
:1029F000E561FEF73FFE08B1FEF7FBF8F463002245
:102A0000114625206662FFF78DF82520FFF77CF838
:102A100006B070BD003801400010024000080140BF
:102A2000580002409402002090F84230202B01D040
:102A30000220704721B11AB10023036300F048BDA2
:102A400001207047704770472DE9F843044690F81D
:102A500041001F4616460D46202802D00220BDE840
:102A6000F8837DB176B100206064212084F84100B4
:102A7000FEF7F4FFA6848046E684A068B0F5805F88
:102A800002D003E00120EAE7206910B12E460025BC
:102A90000EE000260CE08021204600F061FDA0B988
:102AA000AEB116F8010B21684860E08C401EE0844E
:102AB000E08C43464FF0000200970028EBD14FF026
:102AC0004001204600F04CFD30B10320C7E735F847
:102AD000020BC0F30800E6E7202084F84100002044
:102AE000BDE77047FEE700002DE9F0419046304A0F
:102AF0000D460446060A918810462F0A4089A1F522
:102B0000AA43103B0FD0A1F5C853633B24D000F07B
:102B100015F9304600F006F9E0B200F003F99089AB
:102B200000F00CF936E000F009F9304600F0FAF850
:102B30005089401C80B200F001F9E0B200F0F2F8D8
:102B4000908900F0FBF8384600F0ECF89089401CC2
:102B500080B200F0F3F820E0917919B91188091BCF
:102B6000491E8CB200F0EAF8260A304600F0DAF886
:102B7000E0B200F0D7F8304600F0D4F8E0B200F050
:102B8000D1F8908900F0DAF8384600F0CBF8E8B2D6
:102B900000F0C8F8384600F0C5F8E8B200F0C2F816
:102BA000044910890880891CA1F80080BDE8F081E3
:102BB00020030020FE07006C0246012000E0504385
:102BC000491EC9B2FBD270472DE9FF4F1D460C4686
:102BD0008A46580700D0012000EBD5006908484319
:102BE000203A00F0FF09D0B20026DFF89CB0029036
:102BF00046E00C2D12D0102D15D0182D42D1029880
:102C0000224900EBC00000BF01EB80004FF000083C
:102C1000875D38060CD51E4800880DE002981D49D6
:102C200000EB4000F0E71C49029801EB0010EDE7D3
:102C30000D9830B916488088214682B20098FFF777
:102C400053FF7806070E641CBBF80200A4B2A04232
:102C500018D9A4EB0A00A84209D100985446401C98
:102C600080B20090BBF8001081420BD906E008F159
:102C7000010000F0FF08B8F1080FCAD3761CF6B2C5
:102C80004E45B6D3BDE8FF8F20030020784A0008E8
:102C90003000002014400008884400082DE9FF4F50
:102CA00081B04FF00008DDE90EBA1E468146444669
:102CB0000AF001054FEA5B072CE0301B401EC1B251
:102CC0000A20FFF779FF0399B1FBF0F00A21B0FB6E
:102CD000F1F201FB1200B8F1000F05D1711E8C4218
:102CE00002DA48B14FF001083030C2B207FB04905D
:102CF00080B25B46009508E05FEA0A6007FB04903B
:102D000080B25B4600950AD530220299FFF75CFF3E
:102D1000641CE4B2B442D0D305B0BDE8F08F2022E9
:102D2000F3E7000001B5BDF80000ADF80000BDF804
:102D300000000149088008BD0008006C01B5BDF81D
:102D40000000ADF80000BDF800000149088008BD92
:102D5000FE07006C3EB50021124800910191104A17
:102D60000291026001248160047301754FF46022B6
:102D70000461C2614160FEF7A3F808B1FDF739FFB5
:102D800007200094CDE9014069460648FEF714F893
:102D900008B1FDF72EFF0348FDF7A2FF3EBD00007E
:102DA00000240140440000201CB500240C4900947C
:102DB0000A48019408600846FEF710FA08B1FDF7CA
:102DC00018FF00940022694605480194FEF7D6F9E1
:102DD000002801D0FDF70DFF1CBD0000007400406D
:102DE000B8000020154808B5416941F00101416172
:102DF000416901F001010091416941F00201416125
:102E00004069002200F00200009011460B20FEF7FE
:102E100089FE0B20FEF778FE002211460F20FEF7F8
:102E200081FE0F20FEF770FE002211463A20FEF7C9
:102E300079FEBDE808403A20FEF766BE0010024069
:102E400030B58FB01C216846FDF7F9F91C2107A8A1
:102E5000FDF7F5F91C484FF02041062201601B499F
:102E6000C0E9011200211023C160C0E9041381618F
:102E7000C1611C020162C0E909149C02C0E90B1483
:102E8000416381630F201A240092CDE9010403AD50
:102E9000112485E81A000325CDE906150AAD85E859
:102EA0001A000D91CDE9080207AA69460648FFF706
:102EB000A9F908B1FDF79DFE0548C16941F480619B
:102EC000C1610FB030BD000010010020040100A05E
:102ED000000001402DE9F04186B0002000900190F3
:102EE000029003903E48816941F04001816181690F
:102EF00001F040010491816941F010018161816913
:102F000001F010010491816941F00401816181693E
:102F100001F004010491816941F008018161816936
:102F200001F008010491816941F480718161816936
:102F300001F480710491816941F02001816180690F
:102F4000284F00F020000490002220213846FEF790
:102F50007FFDDFF89480002221214046FEF778FDB6
:102F6000224D1820CDE90005012469460294384617
:102F7000FEF76AFC2020CDE900040326CDE90246D5
:102F800069463846FEF760FC02200094CDE9015006
:102F900069461748FEF758FC2120CDE90004CDE929
:102FA000024669464046FEF74FFC002211460620C5
:102FB000FEF7B8FD0620FEF7A7FD00221146092006
:102FC000FEF7B0FD0920FEF79FFD002211460A2002
:102FD000FEF7A8FD0A20FEF797FD06B0BDE8F081D8
:102FE0000010024000180140000C014000001110C8
:102FF000000801401CB500240E4800940C490194BF
:1030000001604721C0E901140121C1608021816173
:10301000FFF780F908B1FDF7ECFD0094694605481B
:103020000194FFF739F9002801D0FDF7E2FD1CBD3E
:1030300000100040580100201CB500240F480094E7
:103040000D49019401604721C0E901144FF6FF7159
:103050008461C160FFF75EF908B1FDF7CAFD009415
:10306000694606480194FFF717F908B1FDF7C1FD5D
:103070000248FFF7DDF91CBD00140040A00100204C
:1030800010B5114C0F480C2120604FF4E130606006
:103090000020A060E060C4E90401A061E061204676
:1030A000FFF738FC08B1FDF7A4FD2068C16841F0C6
:1030B0001001C16004496422BDE81040643902482F
:1030C000FFF7B2BC003801404C020020FEE7FEE7EB
:1030D00070477047FEF7C8BC30B595B028216846E8
:1030E000FDF7ADF814210AA8FDF7A9F818210FA8DB
:1030F000FDF7A5F801210804CDE90010002502958F
:1031000002240491CDE907404FF4E010099068468D
:10311000FEF7E8FE08B172B6FEE70AA90F2081E8C3
:1031200031004FF48060CDE90D0502210AA8FEF7B9
:10313000FDFD08B172B6FEE74FF4004011900F9408
:103140000FA8FEF77DFD002801D072B6FEE715B08E
:1031500030BD70470148FFF77FB9000058010020DB
:10316000F0B502681C4B1D4D1D4E1E4F1E4C4FF0FE
:10317000804C984209D0A04207D0604505D0A842B3
:1031800003D0B04201D0B84204D122F0700E4A6898
:1031900042EA0E02984209D0A04207D0604505D00D
:1031A000A84203D0B04201D0B84203D122F4407506
:1031B000CA682A434D6922F080022A4302608A6865
:1031C000C2620A688262984201D0A04201D10969B4
:1031D000016301214161F0BD002C01400004004069
:1031E00000080040000C00400034014010B5406A67
:1031F0000021C185C184FFF755FA10BD70B5446A3E
:103200002068406994F84110C0F3C01000252129BE
:1032100004D118B1E584204600F08EF8206840699A
:1032200094F84210C0F38010222904D118B1E5852A
:10323000204600F05AF8606C40F0100060642046B0
:10324000FFF730FA70BD10B50146406A0968096899
:103250004FF0000289062ED4C28501680C3151E876
:10326000003F23F4807341E80034002CF5D101685D
:10327000143151E8003F23F0010341E80034002CF1
:10328000F5D10168143151E8003F23F0400341E8D3
:103290000034002CF5D1202180F84210016B012967
:1032A00009D101680C3151E8003F23F0100341E8D7
:1032B0000034002CF5D14263016B012902D0FFF7E5
:1032C000C1FB10BD818DFFF7B4F910BD10B5406A88
:1032D00001214163016B012902D0FFF7B4FB10BD4E
:1032E000818D4908FFF7A5F910BD01680C3151E83F
:1032F000002F22F4907241E80023002BF5D10168E1
:10330000143151E8002F22F0010241E80023002B84
:10331000F5D1016B012909D101680C3151E8002F69
:1033200022F0100241E80023002BF5D1202180F883
:10333000421000210163704701680C3151E8002FF1
:1033400022F0C00241E80023002BF5D1202180F8B3
:103350004110704708B590F84210222901D0022090
:1033600008BD82684FF480539A4201D1016921B1AE
:10337000816A9A421BD04AB10AE00268816A5268A7
:10338000C2F308020A80816A891C08E0026972B1EE
:103390000268526802F07F020A70816A491C8162E9
:1033A000C18D491E0904090CC18503D01BE00268C8
:1033B0005268F1E70168CA6822F02002CA60016819
:1033C000CA6822F48072CA6001684A6922F0010268
:1033D0004A61202180F8421000214163026B012ADA
:1033E00003D0FFF72FFB002008BD016301680C31FB
:1033F00051E8002F22F0100241E80023002BF5D104
:1034000001680A68D20602D50A6849680091818D70
:10341000FFF70FF9E7E7000070B50446006801699F
:10342000E26821F44051114301612169A068084319
:10343000616908432168CA6841F20C639A430243F8
:10344000CA6020684169A26921F440711143416159
:103450001E492068884202D1FEF70EFD01E0FEF70A
:10346000FBFC00EBC00101EB0012606864218000EE
:10347000B2FBF0F3B3FBF1F36FF018067343B2FB4A
:10348000F0F5B2FBF0F605EB8305322303EB0515EF
:10349000B5FBF1F5B6FBF1F605F0F00505EB061509
:1034A000B2FBF0F6B2FBF0F0B0FBF1F06FF01802F7
:1034B000504306EB800003EB0010B0FBF1F02168F5
:1034C00000F00F002844886070BD00000038014003
:1034D00038B581620446828500201346606422224A
:1034E00084F84220E56B1B4AAA62E56B1A4AEA623D
:1034F000E56B1A4A2A63E26B50630A462168E06B67
:10350000091DFEF7F5F82068016840680090206901
:1035100048B120680C3050E8001F41F4807140E849
:103520000012002AF5D12068143050E8001F41F045
:10353000010140E80012002AF5D12068143050E85B
:10354000001F41F0400140E80012002AF5D10020A0
:1035500038BD000047320008CD320008FD310008B8
:103560002DE9F041984617460E460446069D27E091
:10357000681C25D02DB1FEF771FAA0EB0800A84217
:103580001ED920680C3050E8001F21F4D07140E8AB
:103590000012002AF5D12068143050E8001F21F0F5
:1035A000010140E80012002AF5D1202084F84100F2
:1035B00084F84200002084F840000320BDE8F08138
:1035C0002068006836EA000004D00020B842CFD05E
:1035D0000020F3E70120F9E738B51948FFF764F850
:1035E000174C20680168C1F30011002926D0154A44
:1035F000012111700168406800902046FFF71AF819
:10360000114800684068E06B104900684068104C41
:1036100080B20880C0F16400208021880DA000F0F5
:1036200025F822880A230F490548FFF70DFABDE85F
:10363000384064220B490248FFF7F6B938BD000054
:103640004C0200200E0000209402002010000020F8
:103650000C000020B4ABCAE4B3A4B6C83A25640D8C
:103660000D0A0000E8010020FEE700000FB4054B42
:1036700010B503A9044A029800F0EAF810BC5DF8FE
:1036800014FB0000593F0008400000200907090E04
:10369000002804DB00F1E02080F80014704700F0FF
:1036A0000F0000F1E02080F8141D704702E008C808
:1036B000121F08C1002AFAD170477047002001E0AC
:1036C00001C1121F002AFBD1704700002DE9FF5FE6
:1036D00082B00021DDE90430020DDDF840B0034383
:1036E00018D044F61050A2F2FF324243151411983C
:1036F00001281FD0A5EB0B00401C5FEA000A4FF029
:1037000000064E4FDFF83891B046504615D5CAF145
:10371000000413E0119801244AA3012801D16FEAA3
:103720000B010298119AC0E90031C0E9024206B0CB
:10373000BDE8F09FCBF10000DFE704460021404ADE
:10374000491842EB0450CDE9001012E0E00707D021
:1037500032463B4640464946FCF7ADFE8046894628
:1037600032463B4610461946FCF7A5FE06460F4674
:103770006410002CEAD1DDE90401DDE90023BAF18F
:10378000000F06DAFCF797FE42464B46FCF793FE25
:1037900005E0FCF702FF42464B46FCF7FEFE0446FE
:1037A0000E460022284BFCF7A1FF03D84FF0FF3054
:1037B000014607E00022254B20463146FCF7D4FDA8
:1037C000FDF772F8102409E0002C0ADB0A2200231E
:1037D000FCF7CCFC039B30321A55641E50EA010200
:1037E000F2D1641C039AC4F111031444119A012A02
:1037F00003D0012208430DD10AE0084304D0002081
:103800004FF0110B119072E7A3EB0B056D1E0DE04D
:103810005B4504DD4FF0000205F1010504E003DA29
:103820004FF00002A5F10105002AECD00298119991
:10383000C0E90231C0E9004579E70000000014400A
:103840000000F03F300000000000F0430000E03FC7
:103850002DE9FF4F95B09A46884606460025EEE1D1
:10386000252877D100242746F94A0121039400E056
:10387000044316F8013F203B01FA03F01042F7D150
:1038800030782A2811D06FF02F033078A0F1300261
:10389000092A16D8039A44F0020402EB820203EBD1
:1038A00042021044761C0390EFE758F8042B039271
:1038B000002A03DA504244F40054039044F0020416
:1038C000761C30782E2816D116F8010F44F0040427
:1038D0002A280DD06FF02F023078A0F13003092B89
:1038E00009D807EB870302EB4303C718761CF3E7FD
:1038F00058F8047B761C30786C280FD006DC4C28F6
:1039000017D068280DD06A2814D104E0742810D08C
:103910007A280FD10DE044F400140AE044F4801436
:1039200001E044F440147278824202D104F580141C
:10393000761C761C307866280BD013DC582877D09C
:1039400009DC002875D04528F6D04628F4D0472851
:103950001AD193E118E0632835D0642879D065281E
:1039600012D18BE1702873D008DC6728F1D0692868
:103970006FD06E280DD06F2806D1ACE073282CD004
:10398000752874D0782853D05246179990476D1CEB
:1039900054E1C4F30250022809D003280DD0D8F80E
:1039A000001004280DD00D6008F1040846E1D8F895
:1039B0000010EA17C1E90052F6E7D8F800100D80B0
:1039C000F2E70D70F0E718F8041B8DF800100020E6
:1039D0008DF80100EB46012003E058F804BB4FF0DE
:1039E000FF3061074FF0000102D40DE009F1010141
:1039F0008946B9420FDA8145F8DB1BF80910002926
:103A0000F4D108E009F1010189468142FADB1BF893
:103A100009100029F6D103985346A0EB0907214667
:103A20003846179A00F080FA284400EB090507E0B1
:103A300044E008E10DE01BF8010B5246179990474E
:103A4000B9F10109F7D2534621463846179AF2E0F8
:103A500039E00A21C4F302524FF0000B0091022A10
:103A600006D058F8040BC117032A09D00AE023E056
:103A700008F1070020F00702F2E80201904605E095
:103A800000B2C117042A01D140B2C117002906DAD9
:103A90000A460021404261EB02012D2202E022058C
:103AA00004D52B228DF80420012203E0E20701D087
:103AB0002022F7E7914657E00A2100E010214FF05D
:103AC000000B00910BE010214FF0000B44F00404B8
:103AD0000827009103E008204FF0000B0090C4F38A
:103AE0000252022A05D058F8040B0021032A08D0FC
:103AF00008E008F1070020F00702F2E80201904612
:103B000003E080B2042A00D1C0B24FF000092207BE
:103B10002AD53278702A07D0DDF800C08CF0100C5E
:103B20005CEA0B0C05D00EE040228DF80420012247
:103B300008E050EA010306D030238DF804308DF8F8
:103B4000052002229146009B83F0080353EA0B03F1
:103B50000AD150EA010201D1620705D530228DF861
:103B600004204FF001097F1E3278582A04D039A270
:103B70000C920CAA02920BE03BA2F9E75B46009A7A
:103B8000FCF7F4FA0C9B9B5C029A521E0292137093
:103B900050EA0102F2D1029804A9081A00F1200BA0
:103BA000600702D524F4803400E001275F4502DD80
:103BB000A7EB0B0000E0002000EB0B010090039846
:103BC0004944401A0390E00306D453462146179A0D
:103BD000039800F0A9F90544002706E001A8524621
:103BE000C05D179990476D1C7F1C4F45F6DBE003C5
:103BF0000CD553462146179A039800F095F90544D1
:103C000004E030205246179990476D1C0099481ED9
:103C100000900029F5DC08E00298029952460078ED
:103C2000491C0291179990476D1CBBF10001ABF143
:103C3000010BF1DC5BE100F065F90544761C30789E
:103C400000287FF40DAE19B02846BDE8F08F0000C3
:103C50000928010030313233343536373839616262
:103C60006364656600000000303132333435363726
:103C7000383941424344454600000000600700D403
:103C8000062708F1070020F00700F0E8022380462D
:103C900003F0004C5FEA0C0001D097A009E020057A
:103CA00001D596A005E0E00701D095A001E0AFF2B4
:103CB0004C001390307823F0004365280CD006DCCC
:103CC000452809D046281DD047287FD13BE06628EB
:103CD00018D067287AD136E00021112F01DB11209E
:103CE00000E0781CCDE9000104A90CA8FFF7EEFC68
:103CF000DDE90D010C9A4FF0000B07F1010910925C
:103D000000914EE04FF000400097CDE9011004A96A
:103D10000CA8FFF7DBFCDDE90D020C9B0F994FF0BF
:103D2000000B91461093009211B9791C00EB010928
:103D3000B7EB090003D4C0F1FF3B07F10109A9EB80
:103D40000700019042E0012F00DA01270021112F26
:103D500001DD112000E03846CDE9000104A90CA8DE
:103D6000FFF7B4FCDDE90D010C9A00914FF0000B58
:103D7000B946109221070FD4009A4A4503DA9146BA
:103D800001E0A9F10109B9F1010F05DD109AA9F1CE
:103D90000101515C3029F4D0B84202DA10F1040F6D
:103DA00003DA0121CDE9011010E0002803DC83448F
:103DB000A9EB000102E0411C494500DD8946A0EB6A
:103DC0000B00401C01904FF000400290200705D4EA
:103DD0000198484502DB4FF0FF30019000208DF83C
:103DE0004B0002980DF14B07B0F1004F25D0022097
:103DF0000C902B200D90029800280CDA4042029083
:103E00002D200D9007E00A210298FCF7A3FC303129
:103E1000029007F8011D0C99481E0C900029F2DC55
:103E200002980028EFD1791E0D980870307800F0C4
:103E3000200040F0450007F8020D11A8C01BC01D6E
:103E400002901398007800B1012000EB090101985D
:103E500001EBE071029801440398401A401E039060
:103E6000E00306D453462146179A039800F05CF805
:103E700005441398007818B15246179990476D1C65
:103E8000E00323D553462146179A039800F04CF8D7
:103E900005441BE0BBF1000F07DB0098584504DD2B
:103EA0001098179910F80B0001E01799302052462E
:103EB000904701980BF1010B401E05F1010501909F
:103EC00004D12E205246179990476D1CB9F100017C
:103ED000A9F10109DEDC05E017F8010B524617993C
:103EE00090476D1C0299481E02900029F4DC53464D
:103EF0002146179A03989EE62D0000002B00000033
:103F0000200000002DE9F041044600251E4617461A
:103F1000880404D405E039462020B0476D1C641E97
:103F2000F9D52846BDE8F0812DE9F0410446002589
:103F30001E469046C80301D5302700E0202788049C
:103F400004D505E041463846B0476D1C641EF9D5DE
:103F50002846BDE8F081000013B50A230122694616
:103F60000248FEF771FD00981CBD00004C020020C5
:103F7000FDF782FDFFF7B0F8FEF7ACFFFEF732FF6A
:103F8000FFF738F8FFF758F8FFF77AF8FEF758FF11
:103F9000FEF7E0FEFEF708FF01220A490A48FDF796
:103FA00067F8012220210948FDF752FD0122212155
:103FB0000748FDF74DFD0748FEF704FA0520FCF71A
:103FC000E5FDFBE700000020440000200018014050
:103FD000000C0140580100200102020304050607FD
:103FE00008090A0B0C0D0E0F101001020203040544
:103FF000060708090A0B0C0D0E0F10100000000038
:104000000000000001020304060708090000000088
:104010000102030400000000000000000000000096
:10402000000000003F4000000000000000003000E1
:10403000400030004000000009000BC03D000BC0F4
:104040003D00090018C024407FE02240318000007C
:10405000180024C01B000D803240018003801C40EA
:1040600027401C8007400040100060000000000056
:10407000000000000000000000001F8020404020E1
:104080000000402020401F800000000009000600C2
:104090001F80060009000000040004003F800400A7
:1040A000040000000010006000000000000000009C
:1040B00004000400040004000400000000000040AC
:1040C0000000000000000000002001C006003800D1
:1040D000400000001F802040204020401F80000042
:1040E000000010403FC000400000000018C0214008
:1040F00022402440184000001080204024402440EA
:104100001B80000002000D0011003FC001400000B4
:104110003C80244024402440238000001F80244011
:1041200024403440038000003000200027C03800C5
:10413000200000001B802440244024401B800000FD
:104140001C0022C0224022401F800000000000000E
:1041500008400000000000000000000004600000B3
:1041600000000000000004000A0011002080404010
:104170000900090009000900090000000000404092
:10418000208011000A0004001800200023402400B1
:10419000180000001F802040274029401F400000D9
:1041A000004007C039000F0001C0004020403FC060
:1041B000244024401B8000001F80204020402040DD
:1041C0003080000020403FC0204020401F80000081
:1041D00020403FC024402E4030C0000020403FC05F
:1041E00024402E00300000000F00108020402240AC
:1041F0003380020020403FC0040004003FC0204044
:10420000204020403FC0204020400000006020208F
:1042100020203FC02000200020403FC024400B0051
:1042200030C0204020403FC020400040004000C03F
:104230003FC03C0003C03C003FC0000020403FC0E6
:104240000C4023003FC020001F8020402040204021
:104250001F80000020403FC02440240018000000C0
:104260001F802140214020E01FA0000020403FC0CF
:104270002440260019C0004018C024402440224099
:1042800031800000300020403FC02040300000005E
:1042900020003F80004000403F80200020003E0082
:1042A00001C0070038002000380007C03C0007C0EC
:1042B00038000000204039C0060039C0204000000E
:1042C0002000384007C0384020000000304021C0A6
:1042D0002640384020C00000000000007FE0402061
:1042E00040200000000070000C000380004000002F
:1042F0000000402040207FE000000000000020007F
:10430000400020000000000000100010001000100D
:10431000001000100000000040000000000000003D
:10432000000002800540054003C0004020003FC05F
:104330000440044003800000000003800440044067
:104340000640000000000380044024403FC00040BD
:1043500000000380054005400340000000000440C9
:104360001FC0244024402000000002E005500550FA
:104370000650042020403FC00440040003C0004019
:104380000000044027C000400000000000100010A2
:10439000041027E00000000020403FC0014007005B
:1043A00004C00440204020403FC0004000400000C6
:1043B00007C0040007C0040003C00000044007C099
:1043C0000440040003C00040000003800440044097
:1043D00003800000041007F0045004400380000034
:1043E000000003800440045007F00010044007C0A0
:1043F00002400400040000000000064005400540A3
:1044000004C00000000004001F80044000400000C1
:10441000040007800040044007C00040040007007B
:1044200004C0018006000400060001C0070001C0AE
:1044300006000000044006C0010006C00440000061
:104440000410071004E0018006000400000004408E
:1044500005C00640044000000000000004007BE0AE
:1044600040200000000000000000FFF000000000FD
:10447000000040207BE004000000000040008000BD
:10448000400020002000400000000000000000006C
:1044900000000000000000000000000000001FCC31
:1044A000000C000000000000000008003000600068
:1044B0000800300060000000022003FC1E200220E3
:1044C00003FC1E200220000000000E1811043FFF14
:1044D00010840C78000000000F0010840F3800C01A
:1044E000077818840078000000780F8410C4112425
:1044F0000E9800E4008400080800680070000000C6
:10450000000000000000000000000000000007E0C4
:10451000181820044002000000004002200418186F
:1045200007E00000000000000240024001800FF0A0
:1045300001800240024000000080008000800FF8EF
:1045400000800080008000000001000D000E0000CF
:1045500000000000000000000000008000800080DB
:1045600000800080008000800000000C000C000033
:1045700000000000000000000000000600180060BD
:104580000180060018002000000007F00808100451
:104590001004080807F000000000080408041FFCCD
:1045A000000400040000000000000E0C1014102491
:1045B000104411840E0C000000000C1810041104AB
:1045C000110412880C700000000000E00320042495
:1045D00008241FFC0024000000001F981084110410
:1045E0001104108810700000000007F00888110402
:1045F000110418880070000000001C00100010FC5E
:1046000013001C001000000000000E38114410843C
:10461000108411440E38000000000700088C10447C
:104620001044088807F00000000000000000030CA0
:10463000030C000000000000000000000001010663
:104640000000000000000000000000800140022087
:10465000041008081004000002200220022002209A
:1046600002200220022000000000100408080410AC
:10467000022001400080000000000E001200100C1B
:10468000106C10800F00000003E00C1813E41424D9
:1046900017C4082807D000000004003C03C41C40D5
:1046A000074000E4001C000410041FFC1104110466
:1046B00011040E880070000003E00C1810041004B0
:1046C000100410081C10000010041FFC100410043B
:1046D0001004080807F0000010041FFC1104110466
:1046E00017C410040818000010041FFC1104110066
:1046F00017C010000800000003E00C18100410049C
:1047000010441C780040000010041FFC108400803E
:10471000008010841FFC10040000100410041FFC13
:10472000100410040000000000030001100110013B
:104730001FFE10001000000010041FFC1104038075
:104740001464181C1004000010041FFC1004000462
:1047500000040004000C000010041FFC1F0000FCFB
:104760001F001FFC1004000010041FFC0C040300B9
:1047700000E010181FFC100007F0080810041004D7
:104780001004080807F0000010041FFC10841080BB
:10479000108010800F00000007F00818102410246B
:1047A000101C080A07F2000010041FFC110411007D
:1047B00011C011300E0C000400000E1C11041084F6
:1047C000108410441C3800001800100010041FFC56
:1047D000100410001800000010001FF8100400045E
:1047E000000410041FF8100010001E0011E0001C4F
:1047F000007013801C0010001FC0103C00E01F0060
:1048000000E0103C1FC000001004180C163401C05A
:1048100001C01634180C100410001C00130400FC16
:1048200013041C00100000000804101C1064108405
:1048300013041C04101800000000000000007FFE9C
:104840004002400240020000000030000C000380E3
:104850000060001C00030000000040024002400213
:104860007FFE00000000000000000000200040006B
:104870004000400020000000000100010001000194
:104880000001000100010001000040004000200084
:104890000000000000000000000000980124014416
:1048A0000144014400FC000410001FFC00880104C6
:1048B00001040088007000000000007000880104FE
:1048C0000104010400880000000000700088010459
:1048D000010411081FFC0004000000F80144014419
:1048E0000144014400C800000000010401040FFC61
:1048F0001104110411001800000000D6012901293B
:10490000012901C90106000010041FFC00840100F8
:104910000100010400FC000400000104190419FC5A
:104920000004000400000000000000030001010179
:10493000190119FE0000000010041FFC00240040B3
:1049400001B4010C010400000000100410041FFC5D
:104950000004000400000000010401FC0104010047
:1049600001FC0104010000FC010401FC00840100C1
:104970000100010400FC0004000000F8010401042F
:104980000104010400F80000010101FF0085010499
:10499000010400880070000000000070008801041D
:1049A0000104010501FF00010104010401FC008470
:1049B0000104010001800000000000CC012401245A
:1049C000012401240198000000000100010007F803
:1049D0000104010400000000010001F800040004CB
:1049E0000004010801FC0004010001800170000CBA
:1049F000001001600180010001F0010C003001C0D5
:104A00000030010C01F0010000000104018C007471
:104A10000170018C01040000010101810171000E8F
:104A2000001801600180010000000184010C0134C4
:104A300001440184010C000000000000000000009F
:104A400001003EFC400240020000000000000000A7
:104A5000FFFF0000000000000000400240023EFC9A
:104A600001000000000000000000600080008000E5
:104A70004000400020002000000000000000000076
:104A80000000000000000000000000000000000026
:104A90000000000000000000000000000000000016
:104AA00000000000000000000000000F80380FFE32
:104AB000380F8038000000000000000000000000F7
:104AC0000000000000000100000600000C0000389B
:104AD00000003100000600000C000038000030002B
:104AE000000000000000000061800067F807F98006
:104AF0000061800061800061800061800067F807CC
:104B0000F98000618000000000000000000001C08A
:104B1000E003E0F00630080418081FFFFE040E084A
:104B20000787F00381E000000000000001F00006AC
:104B30000C00040408060C7001F9C0000E00003BD4
:104B4000E000EC18070808040C180003E00000005F
:104B50000001E00007F003F818041C080417080718
:104B6000E1D003C0E00023B0003C080020080000B2
:104B700010000000000000010000310000320000C1
:104B80001C00000000000000000000000000000009
:104B90000000000000000000000000000000000015
:104BA00000000000000000007F0001FFC00780F04F
:104BB0000C0018100004200002000000000000207B
:104BC00000021000040C00180780F001FFC0007FF5
:104BD00000000000000000000000000000000000D5
:104BE000000000004200006600006600003C00007B
:104BF000180003FFC0001800003C000066000066BB
:104C0000000042000000000008000008000008004A
:104C100000080000080001FFC000080000080000B4
:104C2000080000080000080000000000000100006B
:104C30003100003200001C000000000000000000F5
:104C40000000000000000000000000000000000064
:104C50000800000800000800000800000800000824
:104C60000000080000080000080000080000000024
:104C7000000000000000000038000038000038008C
:104C80000000000000000000000000000000000024
:104C90000000000000000000000600001C00007082
:104CA000000180000E0000380000C0000700001C5A
:104CB0000000300000000000000000007F8001FFC5
:104CC000E0038070060018040008040008060018BD
:104CD00003807001FFE0007F800000000000000002
:104CE000000001000801000801000803FFF807FFA9
:104CF000F8000008000008000008000000000000A4
:104D000000000001C03802C05804009804011804D3
:104D10000218040418061C1803F81801E0F8000033
:104D20000000000000000001C0E003C0F004000823
:104D300004080804080806180803F41801E7F0003E
:104D400001E0000000000000000000000300000D72
:104D50000000110000610000810803010807FFF84E
:104D60000FFFF8000108000108000000000000002B
:104D700000E007FCD0060808061008061008061018
:104D800008061838060FF00607C0000000000000F3
:104D9000000000003F8001FFE00384300208180497
:104DA0001008041008041008071810030FF000077B
:104DB000C000000000000000000003C00007000069
:104DC0000600000600F80607F806180006E00007CF
:104DD000000006000000000000000001E1E003F711
:104DE000F0063410041808041808040C08040C0811
:104DF00006161803F3F001C1E000000000000000F7
:104E0000F80003FC30030638040208040208040218
:104E1000080404100308F001FFC0007F0000000038
:104E20000000000000000000000000000000000082
:104E3000703800703800703800000000000000007A
:104E40000000000000000000000000000000000062
:104E500000000000301A00301C00000000000000BC
:104E6000000000000000000000000000000000083A
:104E7000000014000022000041000080800100407A
:104E800002002004001008000800000000000000DC
:104E9000210000210000210000210000210000214C
:104EA000000021000021000021000021000000007E
:104EB00000000000000008000804001002002001AB
:104EC0000040008080004100002200001400000823
:104ED0000000000000000003C00004C00004000047
:104EE000080038080F380808380810000C30000790
:104EF000E00003C000000000000000003F8000FF51
:104F0000E0038070020F1006708804C088048308D4
:104F1000047F8802C09003012000FE4000000800CA
:104F200000180001F8003E0801C20007020007E275
:104F30000000FE00001FC80001F800003800000853
:104F400004000807FFF807FFF8040808040808042D
:104F5000080804080806180803F41801E7F000011F
:104F6000E0000000000000003F8001FFE0038070CF
:104F700002001804000804000804000804001006D9
:104F800000200780C000000004000807FFF807FFAA
:104F9000F8040008040008040008040018020010C7
:104FA00003807001FFE0007F80000000040008071C
:104FB000FFF807FFF80408080408080408080408B4
:104FC00008043E0804000806001801006000000004
:104FD00004000807FFF807FFF804080804080004A5
:104FE0000800040800043E000600000600000180DE
:104FF00000000000000000003F8001FFE00380701F
:105000000600180400080402080402080203F0075E
:1050100083F000020000020004000807FFF807FF09
:10502000F804080800080000080000080000080054
:1050300004080807FFF807FFF80400080000000054
:10504000000004000804000804000807FFF807FF38
:10505000F804000804000804000800000000000034
:105060000000000000060000070000010400010429
:10507000000104000307FFFE07FFFC04000004001A
:105080000004000004000807FFF807FFF8040C08FC
:10509000001800003E0004C7800503C80600F8049D
:1050A000003804001800000804000807FFF807FF94
:1050B000F8040008000008000008000008000008CC
:1050C000000008000018000060000000040008074D
:1050D000FFF807800807FC00007FC00003F8000706
:1050E000C000780007800807FFF807FFF8040008F1
:1050F00004000807FFF807000803C00000E00000F4
:105100003800001E000007000001C00400F007FF87
:10511000F8040000000000007F8001FFE0038070C1
:1051200006001804000804000806001803003001F7
:10513000FFE0007F8000000004000807FFF807FF81
:10514000F804040804040004040004040004040037
:10515000060C0003F80001F0000000000000000051
:105160007F8001FFE003807006008804008804004F
:10517000C806003C03003E01FFE6007F84000000FB
:1051800004000807FFF807FFF804080804080004F3
:105190000C00040F00040BC00610F003F03801E00F
:1051A0000800000800000001E0F803F030063010AD
:1051B000041808041808040C08040C080206180255
:1051C00007F00781E00000000180000600000400F5
:1051D0000004000004000807FFF807FFF8040008B7
:1051E0000400000400000600000180000400000725
:1051F000FFE007FFF00400180000080000080000AE
:105200000800000800000804001007FFE004000088
:1052100004000006000007E00007FE00041FE00095
:1052200001F80000380001E0043E0007C00006005D
:105230000004000004000007E00007FFC0041FF89E
:105240000007C007F80007FF80043FF80007C0040C
:10525000F800070000040000000000040008060039
:105260001807C07805F1C8003E00001F800463E8FD
:105270000780F8060018040008000000040000067B
:10528000000007800007E008047C08001FF8000702
:10529000F800180804E008070000060000040000F9
:1052A0000000000100080600380400F80403E804C8
:1052B0000F08047C0805F00807C008070018040060
:1052C000600000000000000000000000000000007E
:1052D0000000003FFFFE200002200002200002200C
:1052E0000002200002000000000000000000080092
:1052F0000007000000C0000038000006000001C0E8
:1053000000003000000E000001000000000000005E
:1053100000002000022000022000022000022000E5
:10532000023FFFFE0000000000000000000000003F
:105330000000000000000000000800001000003025
:1053400000002000003000001000000800000000F5
:105350000000000000000100000100000100000149
:105360000000010000010000010000010000010038
:10537000000100000100000100000000000000002A
:1053800000200000200000100000100000000000BD
:10539000000000000000000000000000000000000D
:1053A00000F00019F8001B1800220800260800244D
:1053B00008002410003FF8001FF800000800001843
:1053C00000000004000007FFF80FFFF000181800AD
:1053D0001008002008002008003018001FF0000FFF
:1053E000C00000000000000007C0001FF0001830DF
:1053F000002008002008002008003C08001C1000C5
:1054000000600000000000000000000007C0001F56
:10541000F0003818002008002008002008041010B0
:1054200007FFF80FFFF00000100000000000000070
:1054300000000007C0001FF00012300022180022F8
:1054400008002208003208001E10000E2000000094
:1054500000000000200000200800200801FFF803E1
:10546000FFF8062008042008042008072000030095
:105470000000000000000000000E000E6E001FF390
:105480000031B10020B10020B1003191001F1300A4
:105490002E1E00200E00300000000004000807FF50
:1054A000F80FFFF80010080020000020000020087E
:1054B000003FF8001FF80000080000000000000096
:1054C0000000002008002008002008063FF8063FE2
:1054D000F8000008000008000008000000000000BC
:1054E0000000000000000000030000030020010095
:1054F0002001002003063FFE063FFC0000000000E4
:105500000000000000000004000807FFF80FFFF88B
:10551000000188000300002FC00038F80020380088
:105520002008000008000000000000000000040047
:105530000804000804000807FFF80FFFF80000083F
:105540000000080000080000000000000020080023
:105550003FF8003FF8001008002000003FF8003F2F
:10556000F8001008002000003FF8003FF800000895
:10557000000000002008003FF8003FF8001008007D
:105580001000002000002008003FF8001FF8000075
:10559000080000000000000007C0000FF0001830F5
:1055A00000300800200800200800300800183000F3
:1055B0000FF00007C0000000000000002001003FC5
:1055C000FF003FFF00101100200900200800200804
:1055D000003038001FF0000FC00000000000000085
:1055E00007C0001FF0003818002008002008002025
:1055F00009001011001FFF003FFF00000100000024
:10560000002008002008002008003FF8003FF800B4
:1056100008080010080020080020000030000030BA
:1056200000000000000000000000000C78001E18C0
:105630000033080023080021080021880021980079
:1056400030F0003860000000000000002000002062
:105650000000200000FFF003FFF8002008002008F1
:1056600000200800003000000000000000000000E2
:105670002000003FF0007FF8000018000008000044
:1056800008002010003FF8007FF00000100000002C
:10569000000000002000003000003C00003F8000BF
:1056A00023F0000078000070002380003C000030F0
:1056B00000002000002000003C00003FE00023F834
:1056C0000000E0002700003E00003FE00021F8005D
:1056D00001E0003E00002000000000002008002043
:1056E00008003838003E680027800003C8002CF806
:1056F00000383800201800200800000000000000DA
:105700002000003003003C01003F830023EC000038
:1057100070002380003C00002000002000000000FA
:105720000000000000000038080020380020F800C9
:1057300023E8002F88003E080038080020180000E9
:1057400070000000000000000000000000000000E9
:105750000000000008000014001FF7FC30000620C5
:105760000002000000000000000000000000000037
:1057700000000000000000000000FFFFFF0000002C
:105780000000000000000000000000000000000019
:1057900000002000023000061FF7FC001400000883
:1057A00000000000000000000000000000000000F9
:1057B00000000018000060000040000040000020D1
:1057C00000001000000800000400000400000C00AD
:1057D00000100000F4570008000000204400000002
:1057E000AC3600083858000844000020EC120000D5
:1057F000BC360008000000000000000000000000AF
:105800000000000000000000000000000000000098
:10581000CDCCCC3D010000001000000000000000D5
:105820000024F400000000FFFFFFFFFF0000000065
:08583000000000000000000070
:0400000508000131BD
:00000001FF
