:020000040800F2
:100000002824002045010008EF78000899440008E2
:10001000ED7800086F150008498D00080000000009
:10002000000000000000000000000000D77B000876
:10003000CD18000800000000D57B0008F97B0008FF
:100040005F0100085F0100085F0100085F01000810
:100050005F0100085F0100085F0100085F01000800
:100060005F0100085F0100085F0100083D180008FB
:100070005F0100085F0100085F01000849180008DF
:100080005F0100085F0100085F0100085F010008D0
:100090005F0100085F0100085F0100085F010008C0
:1000A0005F0100085F0100085F0100085F010008B0
:1000B0005F0100085F0100085F0100085F010008A0
:1000C0005F0100085F0100085F0100085F01000890
:1000D0005F010008A58C00085F0100085F010008AF
:1000E0005F0100085F0100085F0100085F01000870
:1000F0005F0100085F0100085F0100085F01000860
:100100005F0100085F0100085F0100085F0100084F
:100110005F0100085F010008797C00085F010008AA
:100120005F0100085F010008551800085F01000822
:10013000DFF80CD000F0D0FF00480047D59600084B
:10014000282400200648804706480047FEE7FEE7CF
:10015000FEE7FEE7FEE7FEE7FEE7FEE7FEE7FEE777
:10016000777C0008310100082DE9F04F4FF0000CBA
:100170004FF0000301EB1C6EBEF90250BEF90040C7
:100180000EF5807EBEF90290BEF900800EF5807EED
:10019000BEF90270BEF900600EF5807EBEF902B0B5
:1001A000BEF900A00EF5807ED044D944A8EB4A0ADF
:1001B000A9EB4B0B4FEAA4044FEAA50504EBA604F8
:1001C00005EBA705A4EB6606A5EB670704EBA804FF
:1001D00005EBA905A4EB6808A5EB690906EBAB06DE
:1001E000A7EBAA07A6EB6B0B07EB6A0A458020F882
:1001F000044B478020F8046BA0F8029020F8048B91
:10020000A0F802A020F804BB03F1010393FAA3FCB9
:10021000402BAFD1A0EB82014FF0100312090FF277
:10022000361000F1000006B403EB430C6144A2F564
:10023000803202EB8332B1F90250B1F90040A1EBF8
:100240000301B0F902B0B0F900A000F10400A5EB81
:10025000040E0EFB0BFC0AEB4B0E05FB0ACB04FB5A
:100260000ECAB1F90250B1F90040A1EB0301B0F997
:100270000290B0F9008000F10400A5EB040E0EFB23
:1002800009FC08EB490E05FB08C904FB0EC8B1F9CF
:100290000250B1F90040A1EB0301B0F90270B0F9CE
:1002A000006000F10400A5EB040E0EFB07FC06EB5A
:1002B000470E05FB06C704FB0EC6B1F90250B1F9A3
:1002C000004001F10001D044D944A8EB4A0AA9EB4F
:1002D0004B0B4FEAA4044FEAA50504EB264405EBBB
:1002E0002745A4EBE636A5EBE73704EB284405EBFE
:1002F0002945A4EBE838A5EBE93906EB2B46A7EB3B
:100300002A47A6EBEB3B07EBEA3A4D800C801944F9
:100310004F800E801944A1F80290A1F80080194482
:10032000A1F802A021F804BBB2F5803283DA03EB16
:10033000430C6144A2F101025FEA024E18BFA0EB38
:100340000C007FF476AF06BC4FEA830392087FF47B
:100350006AAFBDE8F08F00400000004000000040A0
:1003600000005DDD213BA3227E180000412D7EA50B
:10037000412D0000412D00C000405DDD82E75DDDC4
:10038000213B7EA5412D00400000004000000040C0
:100390000000AA2A94126B39460649327C0CA81137
:1003A0008E2349327C0CA3227E1821F77931AA2AA8
:1003B0009412A8118E235DDD213BA3227E1800003C
:1003C000412D95C6B13F461A2B1E58EE3735BEB4A7
:1003D000C53EA8118E235DDD213B63A97138DF087E
:1003E0009A28B7CDC53E7EA5412D0000412D00C005
:1003F000004063A92B1E21F77931BEB4C53EBEB4BF
:100400007C0C58EE373561AC213B95C6BAF9BAE59C
:1004100071383BA737355DDD82E75DDD213B7EA589
:10042000412D21F766D756D53F3D3BA78E23A81116
:10043000C9CAB7CDC53E61AC7E18AA2AC1C295C64D
:10044000B13FBEB47C0C0040000000400000004002
:1004500000001E3BB504693E9201C83C2403EB3505
:100460006409C83C24036B3946066C30060E1E3BFB
:10047000B504EB356409AA2A94126B394606493251
:100480007C0CAE240917AF37D607882E8D0F7E1E41
:100490005D1BEB356409AA2A941224188C1F1E34A4
:1004A000F10AB3269015A8118E2349327C0CA322A1
:1004B0007E18140B60276C30060E7E1E5D1B7104C7
:1004C000FB2A882E8D0F461A2B1EC7FD5A2E9D2CF7
:1004D0001211FE15E72021F77931AA2A9412A811EA
:1004E0008E2387F05334B2281314480D202602EAD5
:1004F000E536B3269015DF089A289CE32B39AE2405
:1005000009177104FB2A5DDD213BA3227E18000040
:10051000412D4ED7C53C9320EF198FFB6C2F78D11E
:10052000153E7E1E5D1B21F77931E2CB0F3F641C27
:10053000C61CB8F2683395C6B13F461A2B1E58EE5A
:10054000373597C1FB3F24188C1F02EAE536F0BC13
:10055000EC3FFE15E720BAE57138A6B8853FD51304
:100560003D2282E1DB39BEB4C53EA8118E235DDD9C
:10057000213B40B1AF3D790FDA244DD9423C2EAE3C
:10058000423C480D202656D53F3D8EAB823A140B97
:10059000602778D1153E63A97138DF089A28B7CD56
:1005A000C53EB1A71236A906CE2915CA4F3F78A677
:1005B00068337104FB2A95C6B13FBCA57630390279
:1005C000212C38C3EC3F7EA5412D0000412D00C0F9
:1005D0000040BCA5CE29C7FD5A2EF0BCEC3F78A642
:1005E00020268FFB6C2F09BAB13FB1A73D2257F9E6
:1005F00076304DB74F3F63A92B1E21F77931BEB43A
:10060000C53E8EABEF19ECF474325EB2153E2EAEE1
:100610009015B8F268332DB03F3D40B1121187F00C
:1006200053342EAE423CBEB47C0C58EE373561AC30
:10063000213BA6B8D6072BEC1236C8AADB39F0BC92
:10064000240302EAE53663A9713897C16EFEDCE740
:10065000B03734A8E53695C6BAF9BAE571383BA784
:100660003735E2CB0FF59CE32B3978A6683378D188
:1006700073F082E1DB39EDA579314ED7EDEB6DDF1B
:10068000823A99A56C2F5DDD82E75DDD213B7EA579
:10069000412D9CE33AE352DBB63B99A5FB2A02EAE3
:1006A00019DF4DD9423CEDA59A2887F026DB4ED7BD
:1006B000C53C78A6202621F766D756D53F3D3BA7F7
:1006C0008E23C7FDDFD363D3AF3D34A8E720710489
:1006D00094D078D1153E63A92B1E140B8CCD94CFEA
:1006E000723EC8AA5D1BA811C9CAB7CDC53E61AC90
:1006F0007E18241850C8E2CB0F3F2EAE90157E1EF8
:1007000025C615CA4F3F2DB09412AE244AC451C815
:10071000853F5EB28D0FAA2AC1C295C6B13FBEB455
:100720007C0C6C308EC1E2C4D43F4DB76409EB350C
:10073000B1C038C3EC3F09BA46061E3B2CC097C176
:10074000FB3FF0BC24032DE9F05F054600209246F4
:100750009B4688460646814640241BE02846414683
:100760004746224600F02FF853465A46C01A914198
:1007700010D311461846224600F016F82D1A67EBE2
:1007800001084F4622460120002100F00DF817EB2A
:1007900000094E41201EA4F10104DFDC4846314629
:1007A0002A464346BDE8F09F202A04DB203A00FA9F
:1007B00002F1002070479140C2F1200320FA03F3B8
:1007C000194390407047202A04DB203A21FA02F0B6
:1007D0000021704721FA02F3D040C2F1200291407B
:1007E000084319467047202A06DBCB17203A41FA06
:1007F00002F043EAE07306E041FA02F3D040C2F1AE
:1008000020029140084319467047D2B201E000F837
:10081000012B491EFBD270470022F6E710B51346A4
:100820000A4604461946FFF7F0FF204610BD10B5F2
:10083000002200E0521C835C8C5CA34201D1002B9F
:10084000F8D1D8B2E1B2401A10BDF0B480EA01028A
:10085000D40F4200B2EB410F02D2024608461146C5
:100860004A0042D0C30DDDB2C1F3C752AD1A202DEC
:1008700035DAC1F3160141F4000204B15242C5F168
:10088000200602FA06F12A411044B3EBD05F23D0D0
:10089000C4B1012DA0EBC35009DCF0BC4FF0004205
:1008A00002EAC352DBB200F5000000F020BB4000BA
:1008B00000F1807000EBC350A0F1807040EAD1706D
:1008C000490009E0490841EAC071A0EBC35000F5B6
:1008D0000000400800EBC350F0BC00F0FFBA6142DA
:1008E000012202EB4101001BF6E7F0BC704781F0EA
:1008F0000041AAE780F00040A7E780EA010210B5B6
:1009000002F00043400022D04A001FD0010E01EB4C
:100910001261C0F35600C2F3560240F4000042F4E4
:100920000002A0FB022000047F39140400D0401C08
:1009300050EA124001D44000491EC2B20C0604EB3A
:10094000D010401C4008802A02D003E0002010BDD7
:1009500020F00100002900DA0020184310BD30B457
:1009600080EA010202F0004530F0004221F0004030
:1009700013D090B1C30DD40DC2F31601C0F316000D
:10098000E41A41F4000140F400027D34914201D3A5
:10099000641C00E04900002C02DA30BC00207047E3
:1009A0004FF400000023914201D3891A0343400809
:1009B0004FEA4101F7D151B1914202D14FF00041CC
:1009C00005E002D24FF0010101E06FF0010103EBFD
:1009D000C450284430BC00F081BA420005D0C0F3B6
:1009E000C7525242914201DC0020704700EBC150D7
:1009F00070472DE9FE4F804681EA0300C00F0C4688
:100A0000009021F0004123F00045B8EB0200A9411D
:100A100005D24046214690461C460B46024623F02E
:100A20000040104347D0270DC7F30A00C3F30A5113
:100A30000290401A019040286BDAC3F3130040F48F
:100A4000801B0098924620B10023D2EB030A63EB8F
:100A50000B0B01985946C0F140025046FFF7A4FE27
:100A600006460D4650465946019AFFF7BCFE10EB6C
:100A700008006141002487EA115284EAE7731A43AF
:100A800040D0009A62B3019A012A4FEA075215DC5E
:100A9000001B61EB02014FF0004202EA0752CDE970
:100AA0000042001C41F5801132462B4600F05CFAF2
:100AB00003B0BDE8F08F40462146F9E7001B61EB2B
:100AC0000201001C41F5801300185B412018A2F5BB
:100AD000001747EB030140EAD570B6196D4111E0EC
:100AE0006D084FEA360645EAC0754FEA0752001B0B
:100AF00061EB0201001C41F5801149084FEA30000A
:100B00000019514132462B4603B0BDE8F04F00F0CA
:100B10001CBA0098012240000023D0EB020263EBD4
:100B2000E073009821464FEAE074B8EB000061EBF7
:100B30000401E9E783F000435BE781F0004158E7F7
:100B40002DE9FE4F81EA030404F0004421F0004146
:100B500000944FF0000B23F0004350EA01045ED0F4
:100B600052EA03045BD0C3F30A54C1F30A552C4480
:100B7000A4F2F3340194A0FB0254C1F3130141F435
:100B80008011C3F3130343F4801301FB024400FB01
:100B9000034E840A970A44EA815447EA8357A4FB28
:100BA000076802958D0A05FB07854FEA932C04FB25
:100BB0000C542705029D4FEA065847EA1637B5EB55
:100BC00008056EEB070C870E920E47EA811742EA82
:100BD0008312A7FB0201B6EB0B0164EB00042B0DA3
:100BE00043EA0C335E1844EB1C50DA465146E7FBEF
:100BF0000201C5F313044FEA0B3343EA14534FEADF
:100C00000432019C43EA0603A4F10C040294009C04
:100C1000CDE900B400F0A8F903B0BDE8F08F0020E2
:100C20000146F9E72DE9F04D81EA030404F0004B99
:100C300021F0004514464FF0000A23F0004150EA2D
:100C4000050220D054EA01021DD0C5F30A5702461E
:100C5000C5F31303C1F31300C1F30A5640F4801522
:100C600043F48013A7EB0608101BD64608F2FD38A4
:100C700073EB050002D308F1010801E092185B4113
:100C8000B8F1000F03DA00200146BDE8F08D002026
:100C90004FF48011064684460EE0171B73EB0507E0
:100CA00005D3121B63EB050306434CEA010C49080C
:100CB0004FEA300092185B4150EA0107EDD152EA49
:100CC000030012D082EA040083EA0501084305D03C
:100CD000101BAB4106D20122002306E000224FF098
:100CE000004302E06FF0010253101AEB06004CEBD8
:100CF000085110EB0A0041EB0B01BDE8F04D00F08C
:100D000024B970B521F0004303430CD0C1F30A5558
:100D10000024D5EB040564EB0403D617AD1AB341E8
:100D200002DB0020014670BD201841EB025170BD6E
:100D3000C10F80EAE0700844CA079623002100F042
:100D4000D6B896230022114600F0D1B80EB540F275
:100D5000334102910021CDE900110A460B4600F013
:100D600003F903B000BD00F0004220F00040C10DC7
:100D7000C0F3160040F400007F2901DA002070471C
:100D8000962903DCC1F19601C84001E096398840FC
:100D9000002AF4D04042704720F00040C10DC0F35B
:100DA000160040F400007F2901DA002070479629E0
:100DB00003DCC1F19601C8407047963988407047FE
:100DC000C1F30A5210B5C1F3130140F2FF3341F4ED
:100DD00080119A4201DA002010BD40F233439A425A
:100DE000A2F2334203DC5242FFF7EDFC10BD90400B
:100DF00010BD00F0004230F000400AD0C10D01F5F6
:100E00006071C0F3160042EA0151C2084007114365
:100E1000704700200146704730B5041E71F1000490
:100E200004DB4FF00044404264EB0101141E73F1F7
:100E3000000405DB1C464FF00043524263EB040301
:100E40008B4208BF824230BD30B5041E71F10004F0
:100E500004DB4FF00044404264EB0101141E73F1C7
:100E6000000405DB1C464FF00043524263EB0403D1
:100E7000994208BF904230BD01F0004330B421F0E8
:100E8000004150EA010206D00A0DA2F56072C1F3DA
:100E90001301002A02DC30BC00207047440F44EAF2
:100EA000C104C100E01830BC00EBC25000F016B81D
:100EB00030B50B46014600202022012409E021FA2A
:100EC00002F59D4205D303FA02F5491B04FA02F527
:100ED0002844151EA2F10102F1DC30BD0029A8BF93
:100EE0007047401C490008BF20F00100704710B453
:100EF000B0FA80FC00FA0CF050EA010404BF10BC08
:100F0000704749B1CCF1200421FA04F411FA0CF134
:100F100018BF012121430843A3EB0C01CB1D4FEA6D
:100F200000614FEA102042BF002010BC704700EB68
:100F3000C35010440029A4BF10BC7047401C490096
:100F400008BF20F0010010BC704710B5141E73F1EB
:100F5000000408DA401C41F1000192185B411A4379
:100F600001D120F0010010BD2DE9F04D92469B46C5
:100F700011B1B1FA81F202E0B0FA80F2203290466B
:100F8000FFF712FC04460F4640EA0A0041EA0B0153
:100F900053465A46084313D0114653EA010019D06C
:100FA000C8F140025046FFF70EFC05460E4650467B
:100FB00059464246FFF7F8FB084305D0012004E0FC
:100FC00020463946BDE8F08D0020054346EAE0762C
:100FD0002C4337430A986305E40AA0EB080000227B
:100FE000FD0A44EA47540A3002D500200146E9E7E9
:100FF000010510196941DDE9084500196941BDE89D
:10100000F04DA2E72DE9F04D00231A461B1A8A4144
:1010100003DB00200146BDE8F08DC1F30A52C1F3A5
:10102000130141F480154FF0000BD10702D10018D5
:101030006D41521E0027044640F2FF11384601EB75
:10104000620A3E468046024600204FF48011FFF7B8
:10105000BAFBC2197141BB1846EB0100B4EB030C9B
:1010600075EB000C04D3E41A65EB000517460E4639
:10107000241908F101006D4180463428E3DDF91997
:1010800046EB0600091BA84103D24FF0FF3213467E
:1010900001E0002213461BEB070046EB0A51BDE8B6
:1010A000F04DFFF752BFC1F30A52C1F3130140F2F2
:1010B000FF3341F480119A4202DA00200146704762
:1010C00040F233439A42A2F2334202DC5242FFF72B
:1010D0007ABBFFF769BB0000064C074D06E0E068ED
:1010E00040F0010394E8070098471034AC42F6D36F
:1010F000FFF722F858B1000878B1000870B5224C0B
:1011000000224FF48051204602F081F80022611540
:10111000204602F07CF8251500222946204602F0E0
:1011200076F80122D6023146204602F070F864209B
:1011300008F0AAFA00223146204602F068F80022A0
:101140008021124802F063F80022A115204602F027
:101150005EF8072000F058F8002000F055F80A204B
:1011600000F052F8002000F04FF8602000F04CF83A
:1011700001222946204602F04AF829462046BDE8C9
:101180007040002202F043B8001001400008014006
:101190002DE9F0410E46002500F024FE0624184FEC
:1011A00000E015B9022000F02FF8641EE4B2385DAB
:1011B00000F02AF86D1CEDB2002CF2D1082000F0EE
:1011C00023F8340A204600F01FF8F0B200F01CF8B3
:1011D000092000F019F8204600F016F8F0B200F0EF
:1011E00013F80122074D94022146284602F00FF819
:1011F00021462846BDE8F041002202F008B8000070
:101200008C000020001001402DE9F0410824DFF897
:101210004080104F0546A601280601D5012200E0B6
:1012200000222021404601F0F2FF6806050E002250
:101230003146384601F0EBFF01223146384601F0D5
:10124000E6FF641E14F0FF04E6D1BDE8F081000063
:10125000000801400010014070B504460068816834
:10126000C943C90717D1816821F00101816001F0EC
:10127000D3FF05460AE000BF01F0CEFF401B022865
:1012800004D920688068C043C00706D02068806801
:10129000C043C007F0D0002070BDA06A40F010002D
:1012A000A062E06A40F00100E062012070BD000031
:1012B0002DE9FC4700213A4801F06BFB394C82B222
:1012C000002622811025CDE90056042378215E20D6
:1012D00006F0C5F82089FFF739FDDFF8CCA04FF004
:1012E000663842465346FFF72BFCFFF7C5FD07461D
:1012F000FFF752FD2081CDE90056024601238C21E3
:101300005E2006F0ACF82089FFF71BFD3946FFF799
:10131000F1FADFF898904946FFF7EFFAFFF73CFD46
:101320008027CDE90057024603238C216E2006F06A
:1013300096F81F4801F044F980B2FFF707FD4246D6
:101340005346FFF7FDFBFFF797FD8046FFF724FDAF
:101350002081CDE9005602460123A0215E2006F03F
:101360007EF82089FFF7EDFC4146FFF7C3FA4946B6
:10137000FFF7C3FAFFF710FDCDE90057024603233C
:10138000A0216E2006F06BF80A48CDE900570288CC
:101390000323B4216E2006F062F8BDE8FC8700004C
:1013A000100500201800002066664A3F00007A44BD
:1013B0009C0400200000002010B50146406A826AAB
:1013C00012F0500F05D0006A026BBDE810400846CD
:1013D0001047816A41F40071816201688968C1F334
:1013E000424107290CD1017B51B9816A21F48071F6
:1013F0008162816AC90403D4816A41F0010181627A
:1014000001F0A6F810BD10B5406A816A41F04001B4
:101410008162C16A41F00401C16201F0D0F810BDDF
:1014200010B5406A01F0CAF810BD0000F8B50026FA
:101430000446009600688168C943C9072DD08168B9
:1014400041F001018160164816490068B0FBF1F0D7
:1014500000E0401E00900028FBD101F0DDFE0546B3
:1014600016E000BF01F0D8FE401B022810D920680A
:101470008068C043C0070BD0A06A40F01000A06293
:10148000E06A40F00100E06284F824600120F8BDC9
:1014900020688068C043C007E4D10020F8BD000088
:1014A0003000002040420F0003F018B870B5144619
:1014B0000D46064608E03046711C8EB200F007F873
:1014C000641E05F8010BA4B2002CF4D170BD10B558
:1014D000044603F0ADF8200AA02101EB4000C0B2A1
:1014E00003F076F803F0E6F8E0B203F071F803F0E9
:1014F000E1F803F09DF8A12003F06AF803F0DAF8B0
:10150000002003F02FF8044603F0B2F8204610BD87
:1015100070B516460C46054606E02178284600F0D0
:1015200007F86D1CADB2641C761EB6B2F5D270BD64
:1015300070B50D46044603F07BF8200AA02101EBAC
:101540004000C0B203F044F803F0B4F8E0B203F096
:101550003FF803F0AFF8284603F03AF803F0AAF892
:1015600003F086F8BDE870400A2008F07EB8FEE778
:1015700070B50F4C0025C4F884510E48016821F065
:10158000F0010160016841F030010160052004F5BF
:10159000C27408F079F80848C0F8A451052008F092
:1015A00073F801202060052008F06EF8256070BDFA
:1015B00000802142041C014000802342154810B5E0
:1015C000816986B041F008018161816901F00801FB
:1015D0000491816941F0800181618069012400F0FA
:1015E000800004900220CDE900040320CDE90240F0
:1015F0006946094801F00AFD600200906946074803
:1016000001F004FD0648C0F884410648C0F8A44132
:1016100006B010BD00100240000C0140001C01404B
:10162000008021420080234270B50F4C0025C4F891
:1016300084510E48016821F0F0010160016841F019
:1016400030010160052004F5C27408F01DF8084857
:101650000126C0F8A461052008F016F826600520D0
:1016600008F012F8256070BD00802142041C014082
:10167000008023422DE9F047824619480024016882
:1016800021F0F0010160016841F0800101601E203D
:1016900007F0FAFF0025134EDFF84C902F464FF06D
:1016A000010800BFC6F88471052007F0EDFFC6F8F9
:1016B00084816006040ED9F8240108B1641CE4B2E8
:1016C0006D1CEDB2082DEDD3BAF1000F04D0FFF779
:1016D0004FFF2046BDE8F087FFF7A6FFF9E70000BF
:1016E000041C014000802142008023422DE9F04784
:1016F00006461548016821F0F0010160016841F0DB
:1017000030010160114D0027C5F88471052007F0F4
:10171000BBFFDFF83C8000244FF00109F109C8F855
:10172000A4117006060EC5F88491052007F0ACFFE1
:10173000C5F88471052007F0A7FF641CE4B2082CEB
:10174000ECD3BDE8F0870000041C0140008021427A
:101750000080234270B50F48016821F0F00101605C
:10176000016841F0300101600B4C0120C4F8A40174
:101770000A4DC5F884011E2004F5D27405F5C27522
:1017800007F082FF00262660052007F07DFF2E600F
:1017900070BD0000041C01400080234200802142F3
:1017A00070B50D48016821F0F0010160016841F059
:1017B0003001016009480125C0F884511E2007F05E
:1017C00063FF074C0020C4F8A401052004F5D2747F
:1017D00007F05AFF256070BD041C014000802142C3
:1017E0000080234270B512480024016821F0F00106
:1017F0000160016841F0800101600E4E0120C6F8D1
:10180000A4010D4DC5F8840107E0641CE4B2FA2C74
:1018100003D9FFF7C5FF012070BD052007F034FF95
:10182000D6F824010028F0D1C5F8840170BD00006D
:10183000041C01400080234200802142014801F045
:101840000BBA0000CC040020014801F005BA0000EA
:1018500034070020014801F0FFB9000024050020F2
:1018600030B590F840500124AC40C56B6C60046802
:1018700063604368102B036803D099600068C260FE
:1018800030BD9A600068C16030BD000011B50D4CDC
:10189000AB200622207001206070FE20A070F22094
:1018A000E07004202071002060712146684607F036
:1018B00041FA204600F04EFD03480178A1724078BD
:1018C000E07218BD181400207D000020704772B629
:1018D000FEE7000030B5B3F5804F05D06FF07041E2
:1018E00040F82210002030BD8C690B688D682343BE
:1018F0004C688989240144EA0524234343EA0141D1
:1019000050F82230014C23401943E9E70000F0CFA2
:1019100010B50A6850F8223023F0010340F8223055
:101920008C68082C23D000234A682243CC681C43CF
:101930000B6922431A434B690E4C1A43CB691A4375
:101940000B6A1A434B6A1A438B6A1A43CB6A1A43CF
:101950000B6B1A438B6913434A6B09681A4350F89F
:101960002130A343134340F82130002010BD402311
:10197000DAE700007FFF0F0030B5D1E9003443EA19
:1019800004138C688D89240244EA054423430C8A9D
:10199000094D00EB820005EB045423430C7D6D01DF
:1019A00005EB0464896923430B43416801F040411E
:1019B0000B434360002030BD0000F0FF70B5444889
:1019C00088B0816941F0800181618069012500F062
:1019D000800006904FF40060CDE902050320CDE9B8
:1019E00004503C4E02A9304601F010FBA80200242E
:1019F000CDE9020402A9304601F008FBFFF7DEFD45
:101A0000354EC6F8AC41142006F5D67607F02DFE0B
:101A10003560322007F029FE8DF80040012269462A
:101A2000002000F0BBF901226946A42000F0B6F9BD
:101A300016208DF8000001226946802000F0AEF9E2
:101A40000C208DF8000001226946882000F0A6F9DC
:101A500002226946A12000F04FF89DF800003028CE
:101A600003D19DF8010003282BD00422694648F2D7
:101A7000401000F09BFA8DF80440694617A007F06B
:101A800065F91948009948F24005C0F80210022093
:101A90008DF8000001226946284600F09DFB0122D6
:101AA0006946E81D00F082FA0A2007F0DEFD8DF895
:101AB000004001226946284600F08EFB08B0002055
:101AC00070BD43F2030109A007F040F9F6E70000FA
:101AD00000100240001C014000802342435450206B
:101AE00049443A25730D0A007400002043545020E5
:101AF00049443A25780D0A002DE9F04115460E4675
:101B00000446FFF727FE7020FFF7F0FDFFF76AFE9F
:101B1000E0B2FFF7EBFDFFF765FEFFF71BFE71205C
:101B2000FFF7E4FDFFF75EFE00246F1E09E0BC42F4
:101B300001D0012000E00020FFF79CFD3055641C1F
:101B4000E4B2AC42F3D3BDE8F041FFF729BE000098
:101B50002DE9F14783B000268B4D8DF804604FF0DE
:101B60000A096878894C401CC0B2B0FBF9F209FB45
:101B700012013746687009B10A2871D2824884A1DF
:101B8000801CFEF754FE4FF0010203A910B302209F
:101B9000FFF7B2FF9DF80C00010761D0297800F033
:101BA0000F028A425CD8FF209040C04394F8208006
:101BB00040F0C00084F8200004EB4100A28942817B
:101BC000E18A8182042007F050FD8DF80460DFF87F
:101BD000C4A185E048F24E18404600F0E7F99DF8B0
:101BE0000C000106D6D5297800F00F008842D1D824
:101BF0008DF80460012201A9404600F0EDFAC9E722
:101C000094F8201001228240114264D05E4860A105
:101C1000801CFEF70CFE20B35F489DF804100422E0
:101C200030F811006946FFF767FF94F830009DF81F
:101C30000010C0079DF8010001F00F0100EB012129
:101C400038D09DF8040004EB4000C1829DF80220CA
:101C50009DF8031002F00F0201EB022181813AE0AE
:101C600059E04D489DF804100A30042230F8110064
:101C7000694600F09BF994F830009DF80110C00708
:101C80009DF8000000EB01219DF8040004EB4000EA
:101C900005D081819DF802109DF8032018E0C182D3
:101CA0009DF802109DF8032001EB0222BAF8001003
:101CB000891AD3E7BAF80000411A9DF8040004EB32
:101CC000400081819DF802209DF8031002F00F0270
:101CD00001EB0221C1829DF80400401C8DF8040034
:101CE0009DF80400297888428AD3A189BAF8002097
:101CF0000127914204D8E18ABAF80200814209D949
:101D00009DF80C0000F00F00012812D9E089A08195
:101D1000208BE0826E701C481DA1801CFEF787FDA1
:101D200001009DF80C104FF6FF700FD0C90625D0AA
:101D30001BE0287804EB40004189A181808AE08281
:101D400080208DF80C0084F82080E4E701F08F01FA
:101D5000802913D009E000BF21F0800003E0A081BA
:101D6000E08201F0E00084F820006878F02801D9D2
:101D700085F8019004B03846BDE8F08794F820104B
:101D80000A06ECD5E8E700007400002040000020BF
:101D900039313100C0130020FCAF00082DE9F041BB
:101DA00016460F4604460025FFF7D4FC7020FFF7C7
:101DB0009DFCFFF717FDE0B2FFF798FCFFF712FD5F
:101DC000002408E0385DFFF791FCFFF70BFD0500EC
:101DD00003D1641CE4B2B442F4D3FFF7E1FC28461B
:101DE000BDE8F08170B5124AC1B2C0F30726117088
:101DF0005670C0F307439370040EA2F10805D47027
:101E00002A6805F10C0051430170090A02FB061112
:101E10004170090A02FB03118170090A02FB0411D7
:101E2000C170090A69600171090A417170BD000041
:101E30008800002030B585B00020029012488169EA
:101E400041F010018161816901F010010491816903
:101E500041F0040181618069012500F004000490D3
:101E6000E020CDE90005032469460394074801F00A
:101E7000CDF84FF4FE40CDE90005694603940448CF
:101E800001F0C4F805B030BD001002400008014068
:101E9000001001402DE9F041374888B0816941F0D8
:101EA000800181618069012500F0800006904FF477
:101EB0000060CDE900050320CDE90250DFF8BC80C9
:101EC0006946404601F0A2F8AE020024CDE9006464
:101ED0006946404601F09AF8FFF770FB284FC7F8B3
:101EE000AC410A2007F5D67707F0BFFB3D600A201A
:101EF00007F0BBFB0225009669464046CDE9014547
:101F000001F084F8642007F0B0FB042204A948F231
:101F1000401000F04BF88DF8144004A919A006F009
:101F200015FF1BA104A8FEF782FC08BB8DF810501A
:101F300048F24005012204A9284600F04DF901228B
:101F400004A9E81D00F032F89DF81010602905D2B0
:101F500011A006F0FBFE012000F016F90A2007F0A0
:101F600084FB8DF81040012204A9284600F034F9C2
:101F700008B00020BDE8F08100100240001C0140C4
:101F8000008023424354502049443A25730D0A00EF
:101F9000393134370000000044656661756C742087
:101FA0005665723A25640D0A000000002DE9F041E3
:101FB00015460E460446FFF7CDFB2820FFF796FB9B
:101FC000FFF710FC200AFFF791FBFFF70BFCE0B2D4
:101FD000FFF78CFBFFF706FCFFF7BCFB2920FFF7A0
:101FE00085FBFFF7FFFB00246F1E09E0BC4201D018
:101FF000012000E00020FFF73DFB3055641CE4B2F7
:10200000AC42F3D3BDE8F041FFF7CABB2DE9F1477D
:10201000594E00244FF00A0A307885B0401CC0B2F7
:10202000B0FBFAF20AFB1201544DA046307009B120
:102030000A2878D248F24E19012205A94846FFF72E
:10204000B5FF9DF814004FF0000701060AD500F017
:102050000F00062806D28DF8007001226946484616
:1020600000F0BAF89DF8140001075CD000F00F01F1
:10207000062958D2FF2088408DF80000C04395F80B
:10208000209040F0C00085F82000A889A882E88A46
:10209000E8834FF0010800BF95F8201008FA04F01B
:1020A000014225D03648042202A930F81400FFF777
:1020B0007DFF95F830009DF80910C0079DF80800D5
:1020C00000EB012105EB44000AD0C1829DF80A1003
:1020D0009DF80B2001EB0221C1F54871818107E0D9
:1020E00081819DF80A109DF80B2001EB0221C1822D
:1020F000641CE4B2052CCFD32249AA894FF0010811
:102100000B8828469A4203D8C28A49888A4209D94C
:102110009DF8141001F00F0101290BD9C1898181AB
:10212000018BE98237709DF8140000F08F00802841
:102130000AD018E0818A8181C18BC18280218DF80B
:10214000141085F82090EEE795F82000010602D5DE
:1021500020F0800005E04FF6FF71A981E98200F0D0
:10216000E00085F820003078F02801D986F800A03A
:1021700006B04046BDE8F0877B000020400000200C
:10218000C8B00008C013002008B500218DF8001069
:102190008DF801000F4800BF435C9DF80020491CEA
:1021A0001A44C9B28DF80020B829F5D3D0B2C04383
:1021B000401C8DF80000B822064948F2470000F0A4
:1021C0000BF80222694648F2FF0000F005F80020F3
:1021D00008BD000010B000082DE9F04116460F467A
:1021E00004460025FFF7B6FA2820FFF77FFAFFF72D
:1021F000F9FA200AFFF77AFAFFF7F4FAE0B2FFF7EC
:1022000075FAFFF7EFFA002408E0385DFFF76EFA81
:10221000FFF7E8FA050003D1641CE4B2B442F4D33A
:10222000FFF7BEFA2846BDE8F08100002DE9F05F17
:10223000DFF8F49000246FF00E0A6FF0070BA9F599
:10224000006500BF59F8241008140EB2FEF770FDA7
:102250000821FEF7C2FB57465146FEF7BEFB8046FB
:102260003046FEF765FD0821FEF7B7FB3946FEF75D
:10227000B4FB06460146FEF740FB074641460846CA
:10228000FEF73BFB3946FEF7E0FAFEF7B2FD07F03A
:102290008FFA5A46FEF735FDFEF7EEFD002C3BD0D7
:1022A0001021FEF79AFBFEF777FD45F82400611C2C
:1022B0001EA006F04BFD2046FEF743FD1E49FEF72B
:1022C0001CFBFEF796FD02460B461CA006F03EFDE9
:1022D00055F8241015A006F039FD4046FEF789FD9B
:1022E00002460B4615A006F031FD3046FEF781FD93
:1022F00002460B4614A006F029FD641CA4B2802CF3
:10230000A0D3002455F8240005F066FC641CA4B298
:10231000802CF7D3BDE8F09F0F21FEF75EFBFEF7A0
:102320003BFD2860C3E70000780F002025642020D3
:102330002020202000000000B61DFB442566202040
:1023400020202020000000002566202020202020C2
:102350000D0A0000084910B500220A704A70835C1B
:102360000C78521C23440B704C78D2B223444B702F
:102370000A2AF4D310BD00007D000020F8B5002526
:102380000446009590F8240001280BD0012084F821
:1023900024002046FEF760FF2046FFF747F80600BE
:1023A00002D050E00220F8BDA06A20F4885040F02E
:1023B0000200A062022000F0C5FF25490968B1FBB8
:1023C000F0F0400000E0401E00900028FBD12068A3
:1023D000816841F00801816000F01EFF074608E0B7
:1023E00000F01AFFC01B0A2803D920688068000784
:1023F00015D4206880680007F2D42068816841F015
:102400000401816000F008FF074612E000F004FFBD
:10241000C01B0A280DD920688068400709D5A06A2A
:1024200020F0020040F01000A06284F82450012047
:10243000F8BD206880684007E8D4A06A20F0020058
:1024400040F00100A06284F824503046F8BD00003E
:1024500030000020F8B50024009490F82420254690
:10246000012A12D0012280F824204A681F23072A5B
:102470000DD20668776B521E02EB820293409F4397
:102480000B6893401F43776319E00220F8BD06688C
:102490000D2A0AD2376BD21F02EB820293409F4370
:1024A0000B6893401F43376309E0F76A0D3A02EB6C
:1024B000820293409F430B6893401F43F7620A6870
:1024C000072306680A2A0AD3F7680A3A02EB42028F
:1024D00093409F438B6893401F43F76008E0376940
:1024E00002EB420293409F438B6893401F43376146
:1024F0000A68102A01D0112A20D1124B02689A4290
:1025000017D193681B0219D4936843F400039360B6
:102510000968102912D10C490C4A0968B1FBF2F183
:1025200001EB8101490000E0491E00910029FBD127
:1025300004E0816A41F020018162012480F8245086
:102540002046F8BD002401403000002040420F002A
:1025500010B5124C00222021204600F058FE10A099
:1025600006F0F4FB1348144A002100BF50F8213054
:102570001B0442F82130491CFF29F7DD0E494FF4B6
:10258000807201F58060FDF7EFFDFFF74FFE2046FA
:102590000122BDE81040202100F039BE00180140A2
:1025A00041444320444D4120636F6D706C657465F8
:1025B000210D0A009C000020780B00207047704716
:1025C0000068C06C704700002DE9F04104004FF036
:1025D00000057FD0A06A002628B9E66284F824604E
:1025E000204600F081F82046FEF736FEA16AC906B3
:1025F00000D420B1A06A40F01000A0626AE0A16A95
:1026000021F4885141F00201A162334923688B42D1
:10261000E16904D1B1F5402F01D14FF40021277BAE
:102620004FF4807C41EA470261680A43A168614532
:1026300008D0012906D0002194F814E0BEF1010F62
:1026400002D00AE06146F7E7C7B1A76A47F0200762
:10265000A762E76A47F00107E7625F6827F4694706
:102660000F435F60236899681C4F3940114399609C
:10267000A16861450BD0012909D00CE0DFF860E0CA
:10268000A7690EEB47370F4347F40061E5E7218A5E
:102690000D05A5F580152168CB6A23F470032B4343
:1026A000CB62216889680F4B1940914208D1E662DC
:1026B000A16A21F0020141F00101A162BDE8F081AF
:1026C000A06A20F0020040F01000A062E06A40F032
:1026D0000100E0620120F1E7003C0140FDF7E1FF6D
:1026E00000E0FFFFFE0E1FFF70B586B00025064616
:1026F000009501950295039500681A4988422FD1EB
:102700001949886940F400708861886900F4007094
:102710000490886940F0040088618869694600F087
:102720000400049002200090032001900F4800F064
:102730006DFC104C0E48C4E900058020C4E902502D
:1027400040002061C000C4E905054FF44050E0613D
:10275000204600F0A5FB08B1FFF7B9F834626662C5
:1027600006B070BD00240140001002400008014086
:1027700008000240CC04002070B5044690F8240004
:1027800001280DD0012084F824002046FEF74EFEDB
:1027900002004FF0000005D084F82400104670BD00
:1027A000022070BDA16A40F20123994341F4807177
:1027B000A1621F4D23681F49AB4218D10E6816F461
:1027C000702F14D0A66A46F48016A6620E687605AD
:1027D00005D5A66A26F4005646F48056A662A66A77
:1027E000F6040AD5E66A26F00606E66206E0A66A60
:1027F00026F48016A6625E68E9E7E06284F82400A9
:102800006FF00200186020688368C3F34243072B0F
:1028100005D1A84208D1096811F4702F04D081684D
:1028200041F480118160B9E7816841F4A001F9E7C2
:1028300000280140042401402DE9F0478946044660
:102840003B4900683B4F0E1D9046884201D0B8427C
:1028500007D1306810F4702F03D001252846BDE859
:10286000F08794F8240001280CD0012084F824007B
:102870002046FEF7DBFD05004FF0000004D084F891
:102880002400EBE70220EAE7A16A40F601629143E7
:1028900041F48071A1622168B94218D1326812F402
:1028A000702F14D0A16A41F48011A16231684905EA
:1028B00005D5A16A21F4005141F48051A162A16AB9
:1028C000C9040AD5E16A21F00601E16206E0A26AC4
:1028D00022F48012A2624968E9E7E06284F82400E9
:1028E000216A15488862216A1448C862216A14481E
:1028F000086321686FF0020008602068816841F475
:1029000080718160216843464A464C31206A00F05C
:1029100005FB20688168C1F342410729816803D023
:1029200041F48011816099E741F4A001FAE70000C9
:102930000024014000280140B913000821140008B8
:102940000714000870B500B3F9B14379012B1ED00C
:10295000012646710223037105682C6802F01003FA
:1029600040F6FE729A409443D1E900210A439A400E
:1029700022432A6001680A68C0249C40A2430A607E
:10298000067100214171084670BD012070BD022012
:1029900070BD18B1006819B1006B70470120704715
:1029A000C06A704770B5040003D02079002510B1CB
:1029B00005E0012070BD6571204600F007F8022097
:1029C0002071256101202071002070BDF0B585B017
:1029D00000260546009601960296039600681A495D
:1029E00088422ED11949C86940F00050C861C869B1
:1029F00000F000500490886940F004008861886904
:102A0000102700F0040004900320CDE9007069460F
:102A10000F4800F0FBFA104C0E48C4E90007802074
:102A2000C4E9026040002061800060612020C4E9A8
:102A30000606204600F034FA08B1FEF748FFAC6005
:102A4000656205B0F0BD0000007400400010024057
:102A500000080140300402402405002018B500247D
:102A6000009440B100680090104431B114300090DF
:102A70000360002018BD012018BD0830F7E770B5CD
:102A800008B34279012A20D0012242710223037146
:102A90000468266801F0100302FA03F52E4326604D
:102AA0000029016813D00C6804F470153C249C4084
:102AB000A54203D14B6843F002034B600271002131
:102AC0004171084670BD012070BD022070BD0B68C9
:102AD000C3F383030F2BF1D14B6843F00103ECE701
:102AE00010B590F821100022022905D0042181633D
:102AF00080F82020012010BD01680B6823F00E0330
:102B00000B6001680B6823F001030B6090F8403004
:102B1000C46B012101FA03F3636080F8211080F88F
:102B20002020104610BD00002DE9F05F90F8211024
:102B30000024022903D004218163012485E0016877
:102B40000A6822F00E020A6001680A6822F0010297
:102B50000A603F4E3E4FB215DFF8F4C0DFF8F09048
:102B6000DFF8ECA0DFF8E8B0DFF8E4E00168783FD8
:102B700013011502ACF1640CA9F15009AAF13C0A49
:102B8000ABF1280BAEF1140E4FF48018B14227D9E7
:102B9000B9420ED0614512D049451DD0514518D0DB
:102BA000594518D0714501D1424615E0294EB14230
:102BB00001D1012210E0274E1436B14201D110227A
:102BC0000AE0244E2836B14206D0224A3C329142D5
:102BD00001D11A4600E02A461E49091F0A602BE06F
:102BE000B94213D0614517D0494522D051451DD077
:102BF00059451DD0714501D142461AE0B14202D17A
:102C00004FF0807215E0134EB14201D1012210E065
:102C1000104E1436B14201D110220AE00D4E283672
:102C2000B14206D00B4A3C32914201D11A4600E033
:102C30002A46074980394A60012180F82110002185
:102C400080F82010416B01B188472046BDE8F09F15
:102C500080000240080402402DE9F05FC16B0A6861
:102C600001680B68046C4FF0040808FA04F8844DFE
:102C7000844E854FDFF814C2DFF81492DFF814A2F7
:102C8000DFF814B2DFF814E218EA020F65D05FEA49
:102C9000437862D50A68920603D40A6822F00402D7
:102CA0000A60DFF8F0814FF48062016808F11408CF
:102CB00013011402414524D9A9420DD0B1420FD0CD
:102CC000B9421AD0614515D0494515D0514501D1B9
:102CD000120312E0594501D104220EE0714501D1E1
:102CE00040220AE06D4D1435A94206D06B4A2832C5
:102CF000914201D11A4600E022466749091F0A6045
:102D000029E0A94213D0B14215D0B94220D0614583
:102D10001BD049451BD0514502D14FF4800217E02A
:102D2000414502D14FF0806212E0594501D10422A1
:102D30000EE0714501D140220AE0584D1435A942F8
:102D400006D0564A2832914201D11A4600E0224666
:102D50004B4908394A60C16A71E04FF0020808FA2D
:102D600004F818EA020F70D05FEA83786DD50A681C
:102D7000920606D40A6822F00A020A60012180F84D
:102D80002110DFF810814FF40072016808F1140877
:102D900013011402414524D9A9420DD0B1420FD0EC
:102DA000B9421AD0614515D0494515D0514501D1D8
:102DB000120312E0594501D102220EE0714501D102
:102DC00020220AE0354D1435A94206D0334A283274
:102DD000914201D11A4600E022462F49091F0A609C
:102DE00029E0A94213D0B14215D0B94220D06145A3
:102DF0001BD049451BD0514502D14FF4001217E0BA
:102E0000414502D14FF0007212E0594501D1022232
:102E10000EE0714501D120220AE0204D1435A9426F
:102E200006D01E4A2832914201D11A4600E02246BD
:102E3000134908394A60002180F82010816A00296E
:102E40001CD0BDE8F05F0847FFE70825A540154204
:102E500014D01A0712D50A6822F00E020A6090F800
:102E60004020C36B012101FA02F25A60816380F8AD
:102E70002110002180F82010016BE0E7BDE8F09FF1
:102E8000080002401C0002403000024044000240A2
:102E9000580002406C000240080402401C0402403A
:102EA00030B560B11A4B026814219A4209D2194B0D
:102EB0001344B3FBF1F18900016417490AE00120D2
:102EC00030BD134B5B421344B3FBF1F18900016445
:102ED0000F490839C163022180F82110136843F6B5
:102EE000F0718B43F0E901142143D0E902452C43F2
:102EF00021430469214344692143846921431943DF
:102F0000116000214163012242770177084630BDFC
:102F100008040240F8FFFDBF0000024070B50446FF
:102F200090F82000002501280CD0012084F8200012
:102F300094F821600020012E06D084F8200002259C
:102F4000284670BD022070BD022684F82160A0636F
:102F50002068066826F0010606602046FEF780FC21
:102F6000E06A00282068016802D041F00E0106E006
:102F700021F0040101602068016841F00A0101604C
:102F80002068016841F001010160D9E730B585B0E2
:102F900000200090019002900390174801680029DA
:102FA00027D1012101601548416941F480714161D7
:102FB0004069022400F48070049041F20100CDE9E0
:102FC00000040325694603950D4800F01FF84FF6ED
:102FD0008070CDE90004694603950A4800F016F8B0
:102FE0004CF23370CDE9000469460395064800F0C1
:102FF0000DF805B030BD00000C00002000100240AC
:103000000020014000180140001401402DE9F84F54
:10301000DFF8C8910024A9F1040B23460F2709F11A
:10302000040AABF1040ED1E00125A54006EA050231
:10303000AA4276D1DFF8A8C14E68A6EB0C08664517
:103040002BD00DDC032E34D005DC36B3012E19D085
:10305000022E2FD11BE0112E16D0122E2AD119E0EC
:10306000B8F5881F19D006DCB8F5803F15D0B8F543
:10307000801F1FD111E0B8F5001F0ED0B8F5041F56
:1030800018D10AE0CB6815E0CB681B1D12E0CB68B5
:1030900008330FE0CB680C330CE08B682BB1012BAD
:1030A0004FF0080303D0456104E0042302E005610A
:1030B00000E00023FF2A01D8064601E000F10406E3
:1030C0004FEA840501D9A5F12005D6F8008007FA5A
:1030D00005FC28EA0C0803FA05F548EA0508C6F8D5
:1030E00000804D68ED0070D53E4DAE6946F001069A
:1030F000AE61AD6924F0030605F0010500953A4D77
:1031000006EB050CDCF80850A607360F07FA06F8A0
:1031100025EA0805DFF8D480404503D14FF00008C8
:1031200025E052E0DFF8C880404502D14FF00108A9
:103130001DE0DFF8C080404502D14FF0020816E0E4
:10314000DFF8B480404502D14FF003080FE0DFF80C
:10315000AC80404502D14FF0040808E0DFF8A080C1
:10316000404502D14FF0050801E04FF0060808FA8B
:1031700006F848EA0508CCF808804D68D9F80060E0
:10318000ED024D4601D5164300E096432E604D6892
:10319000DAF80060AD02554601D5164300E09643CB
:1031A0002E604D68DBF80060AD035D4601D5164327
:1031B00000E096432E604D68DEF80060ED03754632
:1031C00001D5164300E096432E60641C0A6816463B
:1031D000E2407FF429AFBDE8F88F00000804014009
:1031E00000001110001002400000014000080140E2
:1031F000000C014000100140001401400018014083
:10320000001C01408068084000D0012070470AB1CE
:10321000016170470904FBE70148806870470000BE
:1032200024000020024881680278114481607047C0
:1032300024000020074810B5016841F0100101602A
:10324000032000F06DF80F2000F006F800F024F8DD
:10325000002010BD0020024070B50D4D04464FF413
:103260007A712878B1FBF0F00A490968B1FBF0F0F7
:1032700000F0DAFB48B9102C07D200222146501E7C
:1032800000F02EF800206C6070BD012070BD0000C1
:103290002400002030000020094808B5816941F071
:1032A00001018161816901F001010091C16941F071
:1032B0008051C161C06900F08050009008BD0000DD
:1032C00000100240002809DB00F01F02012191409C
:1032D0004009800000F1E020C0F8001170470000B4
:1032E000F0B40E4B1B680C46C3F30223C3F1070571
:1032F000042D00D90425191D072901D2002300E05F
:10330000DB1E012606FA05F1491E214099409E4028
:10331000761E16403143F0BC05F028BD0CED00E0F0
:10332000064900F0070208684FF6FF03184040EA1C
:103330000220034A10430860704700000CED00E0D3
:103340000000FA0510B501460020284C04292FD0B2
:103350000BDC012930D0022929D100F06BF961681A
:10336000C1F38131491C49001FE0082920D01029F0
:103370001DD161682268D20119D51D48C1F383426D
:10338000C903805C0AD56168194AC1F34041921EA5
:10339000515C184AB2FBF1F1484301E01649484339
:1033A0006168490203D440000321B0FBF1F010BD75
:1033B000BDE8104000F04EB9226AC2F30121012994
:1033C00003D1920701D5C80310BD022905D1626A55
:1033D000920702D549F6404010BD0329FCD121686F
:1033E0008903F9D54FF2244010BD000000100240BF
:1033F0001098000800127A0000093D002DE9F843FA
:1034000005460078354CC00754D0E0690026C0005E
:1034100008D4E06940F08050E061E069012600F0E6
:10342000805000902E480168C90512D4016880467A
:1034300041F480710160FFF7EFFE074605E000BF31
:10344000FFF7EAFEC01B642823D8D8F80000C005A7
:10345000F6D5206A10F4407021D0A98801F440719B
:1034600081421CD0206A1F49012220F440700A606A
:1034700000220A602062C00711D0FFF7CDFE074688
:1034800041F2883808E000BFFFF7C6FEC11B414586
:1034900002D90320BDE8F883206A8007F4D5206AAA
:1034A000696820F44070084320621EB1E06920F092
:1034B0008050E0612878800705D56068A96820F40D
:1034C0004040084360602878C00605D56068696997
:1034D00020F48000084360600020DBE70010024019
:1034E00000700040400442422DE9F0470F460500BD
:1034F00061D0434E306800F00700B84209D230680E
:1035000020F0070038433060306800F00700B84210
:1035100051D128683B4C810712D5400703D560681C
:1035200040F4E06060602878000703D5606840F4EC
:10353000605060606068A96820F0F0000843606037
:103540002878C00728D06868012810D02168022890
:1035500010D0890700292EDA616821F003010143A8
:103560006160FFF759FE804641F288390DE021681D
:103570008903EFE78901EDE7FFF74EFEA0EB0801B5
:10358000494502D90320BDE8F0876068696800F00A
:103590000C00B0EB810FEFD1306800F00700B842AB
:1035A0000BD9306820F0070038433060306800F0F5
:1035B0000700B84201D00120E5E72878400705D58B
:1035C0006068E96820F4E0600843606028780007DC
:1035D00006D56068296920F4605040EAC100606047
:1035E00000F038F86168084AC1F30311515CC84023
:1035F0000649086006480068FFF72EFE0020C2E773
:1036000000200240001002402098000830000020F6
:10361000280000200448054900684968044AC1F3AD
:103620000221515CC8407047300000200010024069
:10363000309800080448054900684968044AC1F305
:10364000C221515CC8407047300000200010024089
:10365000309800080E4A51680E4801F00C03042B04
:1036600011D0082B0FD10C48C1F38343C903C05CB0
:103670000AD55168084AC1F34041921E515C054A7F
:103680005043B0FBF1F070470449484370470000D5
:103690000010024000127A00FE97000800093D0069
:1036A0002DE9F84F040070D02078C04DC00749D0F4
:1036B0006868C0F38100012807D06868C0F3810002
:1036C000022809D16868C00306D52868800339D567
:1036D00060680028E7D035E06068B0F5803F0BD027
:1036E00010B1B0F5A02F11D0286820F480302860E8
:1036F000286820F4802002E0286840F480302860A8
:10370000606890B1FFF788FD06460AE0286840F43B
:1037100080202860F0E700BFFFF77EFD801B642853
:1037200073D828688003F7D50CE0FFF775FD0646CF
:1037300005E000BFFFF770FD801B6428F0D8286803
:103740008003F7D420789A4E80074FF001094FF09C
:10375000000839D5686810F00C0F07D06868C0F30E
:103760008100022809D16868C00306D42868800750
:1037700014D52069012808D110E02069B0B1C6F83D
:103780000090FFF749FD074605E00AE1FFF744FD19
:10379000C01B0228C4D828688007F7D5286861694B
:1037A00020F0F80040EAC10028600DE0C6F8008073
:1037B000FFF732FD074604E0FFF72EFDC01B02288D
:1037C00023D828688007F7D4207800072CD57948BB
:1037D000A169D9B1C0F80090FFF71EFD074604E0CB
:1037E000FFF71AFDC01B02280FD8686A8007F7D5BB
:1037F00071484FF4FA510068B0FBF1F0009000BF3F
:103800000098411E0091FAD20EE080E0C0F80080DE
:10381000FFF702FD074604E0FFF7FEFCC01B02288D
:1038200075D8686A8007F7D42078400760D5E869C2
:103830000027C00008D4E86940F08050E861E869DA
:10384000012700F0805000905C480168C90513D43E
:103850000168834641F480710160FFF7DDFC824618
:1038600006E000BFFFF7D8FCA0EB0A0064284ED8A2
:10387000DBF80000C005F5D5E06801280AD008B1E2
:10388000052813D0286A20F001002862286A20F059
:10389000040002E0286A40F001002862E06841F27A
:1038A000883B98B1FFF7B8FC82460BE0286A40F0ED
:1038B00004002862EEE700BFFFF7AEFCA0EB0A01B0
:1038C00059455AD8286A8007F6D50CE0FFF7A4FCC2
:1038D000824605E0FFF7A0FCA0EB0A0159454CD851
:1038E000286A8007F6D41FB1E86920F08050E861AB
:1038F000E06988B36968C1F38101022944D00228D4
:10390000C6F8608004D0FFF787FC044638E034E056
:10391000FFF782FC074604E0FFF77EFCC01B02288D
:103920002BD828688001F7D4206AB0F5803F05D1F4
:103930006868A16820F4003008436860D4E9080191
:103940000843696821F4741108436860C6F8609000
:10395000FFF762FC044606E025E000BFFFF75CFCD1
:10396000001B022809D828688001F7D51BE000BF9A
:10397000FFF752FC001B022802D90320BDE8F88F94
:1039800028688001F4D40EE00128F7D06868226A24
:1039900000F48031914204D1616A00F470108842D1
:1039A00001D00120EAE70020E8E700000010024013
:1039B000000042428004424230000020007000407B
:1039C00070B515460E46040007D0A069B0F5807F9B
:1039D00003D094F8410010B107E0012070BD002031
:1039E00084F84000204600F01DF804F1080120682A
:1039F000FDF78EFF3146A2682068FDF7BDFFD4E9D0
:103A000001022946236BFDF765FFA168206850F885
:103A1000212042F0010240F82120012084F84100D9
:103A2000002070BDFFF7B2BA10B5401EB0F1807F24
:103A300001D3012010BD4FF0E02460610F21601719
:103A400005F094F90020A06107202061002010BD3E
:103A50007047704770B590F83C20012A2CD00124A3
:103A600080F83C40022280F83D2003685A689D6837
:103A700022F070060A6832435A60104B02689A427C
:103A80000ED00F4B9A420BD0B2F1804F08D00D4BA5
:103A90009A4205D00C4B9A4202D00C4B9A4204D168
:103AA000496825F080031943916080F83D4000216A
:103AB00080F83C10084670BD022070BD002C01400B
:103AC000003401400004004000080040000C0040A9
:103AD00010B5040003D094F83D0010B107E00120B8
:103AE00010BD002084F83C00204600F01FF80220A2
:103AF00084F83D00211D206804F0C4F8012084F8FA
:103B0000460084F83E0084F83F0084F8400084F8C2
:103B1000410084F8420084F8430084F8440084F8AB
:103B2000450084F83D00002010BD000008B5174A8C
:103B300001681748914207D1C16941F00201C16192
:103B4000C06900F002001EE0124A914211D1C16921
:103B500041F01001C161C069002200F01000009026
:103B600011463620FFF7BCFBBDE808403620FFF7C2
:103B7000A9BB094A914207D1C16941F02001C16145
:103B8000C06900F02000009008BD00000004004063
:103B900000100240001000400014004090F83D105A
:103BA000012901D001207047022180F83D100068F2
:103BB0000E4988420ED00E4988420BD0B0F1804F9A
:103BC00008D00C49884205D00B49884202D00B49E5
:103BD000884204D1816801F00701062903D00168F9
:103BE00041F001010160002070470000002C0140FD
:103BF000003401400004004000080040000C004078
:103C000090F83D10012901D001207047022180F871
:103C10003D100168CA6842F00102CA6000680E499E
:103C200088420ED00D4988420BD0B0F1804F08D0A9
:103C30000B49884205D00B49884202D00A49884284
:103C400004D1816801F00701062903D0016841F021
:103C50000101016000207047002C01400034014048
:103C60000004004000080040000C004001680A6A9F
:103C700041F211131A4207D10A6A9B101A4203D16A
:103C80000A6822F001020A60012180F83D1000203C
:103C9000704770B5044690F83C000025012817D005
:103CA000012684F83C60022084F83D002068826888
:103CB00022F0770222F47F4282600868502838D0D0
:103CC0000DDC20284FD005DC90B3102811D14AE03C
:103CD000022070BD302846D040280AD13BE0602841
:103CE0002FD070280DD0B0F5805F03D0B0F5005F05
:103CF00012D0012584F83D60002084F83C0028465D
:103D000070BDCB68D1E90121206804F001F820687A
:103D1000816841F0770109E0CB68D1E90121206891
:103D200003F0F6FF2068816841F480418160E1E79B
:103D300019E0CA684968206803F0FCFF5021206838
:103D400006E0CA684968206804F005F86021206828
:103D500003F0E8FFCEE7CA684968206803F0EAFF8D
:103D600040212068F4E7226801461046F0E77047DA
:103D700070B50446006801694FF00005C943890722
:103D800015D4C168C943890711D4E91E0161012016
:103D90002077206880698007204602D0FFF7E7FF80
:103DA00004E000F098F8204600F096F825772068A7
:103DB0000169C943490717D4C168C943490713D4E6
:103DC0006FF004010161022020772068806910F4FF
:103DD000407F204602D0FFF7CAFF04E000F07BF8E6
:103DE000204600F079F8257720680169C943090762
:103DF00016D4C168C943090712D46FF008010161E4
:103E0000042020772068C0698007204602D0FFF791
:103E1000AEFF04E000F05FF8204600F05DF8257783
:103E200020680169C943C90617D4C168C943C906D6
:103E300013D46FF010010161082020772068C06959
:103E400010F4407F204602D0FFF791FF04E000F01D
:103E500042F8204600F040F8257720680169C94300
:103E6000C90708D1C168C943C90704D1891E0161C6
:103E7000204600F033F820680169C943090609D4D7
:103E8000C168C943090605D46FF08001016120466D
:103E9000FFF7DEFD20680169C943490609D4C168FE
:103EA000C943490605D46FF040010161204600F086
:103EB00099F820680169C94389060BD4C168C943D0
:103EC000890607D46FF0200101612046BDE87040EB
:103ED000FFF7BFBD70BD70477047000070B5324935
:103EE00088425FD1314CA088401C80B20A21B0FBCF
:103EF000F1F2A08001FB120078B92D4D1022294665
:103F00002C4800F003FC082229462B4800F0FEFB59
:103F100001222A492A4800F01EFC26480025417843
:103F200001290ED145706088B0F59B6F07D2103023
:103F300083B20022638011462248FEF78FFDFDF711
:103F4000B7F91D48417801290ED1457060882B468C
:103F5000102801D9103883B2002263801146194815
:103F6000FEF77CFDFDF7A4F915484178012909D138
:103F700045701548FFF712FE4FF48072134914483C
:103F8000FEF75AFCA088B0F57A7F0BD1A580E088B7
:103F9000401C81B2E1800FA004F0D8FEBDE8704063
:103FA000FDF786B970BD0000F8050020180000205C
:103FB0000018014002000020040000200008014019
:103FC0000600002010050020B00500209C00002005
:103FD0009C04002054686973206973203173202881
:103FE000256429007047704710B504460068406991
:103FF00094F84110C0F3C010212911D180B120687C
:10400000143050E8001F21F0800140E80012002A1F
:10401000F5D1A06B08B1FEF763FD204604F0F2FC79
:104020002068406994F84210C0F38010222911D111
:1040300080B12068143050E8001F21F0400140E8B2
:104040000012002AF5D1E06B08B1FEF749FD2046C9
:1040500004F0B1FC002010BD70470000F8B5016805
:1040600004460868CA684B6910F00F0F4FF000054E
:1040700059D003F0010602F49077374365D0C107A9
:1040800005D0D10503D5616C41F0010161644107A0
:1040900005D5D90703D0616C41F002016164810745
:1040A00005D5D90703D0616C41F0040161640107B3
:1040B00007D502F02001314303D0616C41F00801C3
:1040C0006164616C00293AD0800604D5900602D55F
:1040D000204604F0A5FC20684069616CC0F38010A4
:1040E000090700D460B3204604F065FC20684069ED
:1040F000400621D52068143050E8001F21F040010F
:1041000040E80012002AF5D1E06BA8B16D49416387
:10411000E06BFEF709FD002811D0E06B416B01B0A8
:10412000BDE8F040084783060FD593060DD520461D
:10413000BDE8F84004F074BC2046FFF78DFFF8BDE1
:104140002046FFF789FF6564F8BD266B2023012E0A
:104150007CD1C6067AD5D60678D50868486800901E
:1041600048694FF00206400640D5E16B0868406898
:104170000004000CE8D0A28D8242E5D9E085886970
:1041800020282DD020680C3050E8001F21F48071C9
:1041900040E80012002AF5D12068143050E8001FD2
:1041A00021F0010140E80012002AF5D12068143006
:1041B00050E8001F21F0400140E80012002AF5D12C
:1041C00084F84230256320680C3050E8001F21F04D
:1041D000100140E80012002AF5D1E06BFEF780FCE8
:1041E0006663A08DE18D401A81B22AE0A08DE18D39
:1041F000401A81B2E08D0028A6D00029A4D0226800
:104200000C3252E8000F20F4907042E80007002FB3
:10421000F5D12068143050E8002F22F0010240E868
:104220000027002FF5D184F84230256320680C3038
:1042300050E8002F22F0100240E80023002BF5D1B7
:1042400066632046FFF7CFFEF8BDFFE705062BD5D6
:10425000150629D594F841002128F5D1A068B0F5BC
:10426000805F01D12069B0B1206A411C21622168C0
:1042700000784860E08C401E0004000CE084E3D12C
:104280002068C16821F08001C1602068C16841F0E8
:104290004001C160D8E7206A0088C0F30800486088
:1042A000206A801C2062E5E74006CDD55006CBD5BC
:1042B000CA68204622F04002CA6084F8413000F00B
:1042C000EAF8C1E7B988000870B5040004D094F892
:1042D0004100002510B106E0012070BD84F8405077
:1042E000204600F023F8242084F841002068C168AB
:1042F00021F40051C160204604F0F4FB20680169FC
:1043000021F4904101612068416921F02A01416155
:104310002068C16841F40051C1606564202084F8C0
:10432000410084F842006563002070BD70B586B01E
:1043300000250646009501950295039500682249DF
:1043400088423FD12149886940F48040886188696A
:1043500000F480400490886940F004008861886916
:104360001B4C00F0040004904815009002200190BE
:104370000320039069462046FEF748FE2015CDE94C
:104380000005694620460295FEF740FE124C114892
:10439000C4E900058020C4E9025020202561C4E959
:1043A00005502046E561FEF77BFD08B1FDF78FFA69
:1043B000F4630022114625206662FEF791FF252056
:1043C000FEF780FF06B070BD0038014000100240CB
:1043D00000080140580002403407002090F84230A5
:1043E000202B01D00220704721B11AB100230363B2
:1043F00004F0D4BB01207047704770472DE9F843A3
:10440000044690F841001F4616460D46202802D06B
:104410000220BDE8F8837DB176B1002060642120E0
:1044200084F84100FEF7F8FEA6848046E684A06882
:10443000B0F5805F02D003E00120EAE7206910B107
:104440002E4600250EE000260CE08021204604F0D8
:10445000EDFBA0B9AEB116F8010B21684860E08C05
:10446000401EE084E08C43464FF000020097002895
:10447000EBD14FF04001204604F0D8FB30B10320CF
:10448000C7E735F8020BC0F30800E6E7202084F800
:1044900041000020BDE77047FEE7000070B50D4CFD
:1044A0000025C4F898510C48016821F07041016062
:1044B000016841F040510160C4F89C51022004F5AC
:1044C000CC7405F0E1F801202060022005F0DCF852
:1044D000256070BD00802142000C01400E4810B5DF
:1044E000816986B041F0080181618069012400F092
:1044F00008000490C020CDE900040320CDE902406B
:1045000069460648FEF782FD0548C0F89C41C0F8A0
:10451000984106B010BD000000100240000C0140A0
:104520000080214270B50D4C0025C4F898510C480C
:10453000016821F070410160016841F04051016063
:104540000126C4F89C61022004F5CC7405F09CF8A7
:104550002660022005F098F8256070BD0080214299
:10456000000C01402DE9F0478146174800240168FE
:1045700021F070410160016841F000410160134E7B
:10458000254627464FF00108C6F89871022005F02D
:104590007BF8C6F898816006040ED6F81C0108B1B5
:1045A000641CE4B2012005F06FF86D1CEDB2082D1B
:1045B000EAD3B9F1000F04D0FFF770FF2046BDE841
:1045C000F087FFF7AFFFF9E7000C014000802142C0
:1045D0002DE9F04106461448016821F07041016060
:1045E000016841F040510160104C0027C4F89871F7
:1045F0003D464FF00108F009C4F89C017006060E14
:10460000022005F041F8C4F89881022005F03CF83A
:10461000C4F89871022005F037F86D1CEDB2082D32
:10462000E9D3BDE8F0810000000C01400080214288
:1046300070B50D48016821F070410160016841F0DA
:1046400040510160094C0120C4F89C01C4F8980154
:10465000042004F5CC7405F017F8002565600420EB
:1046600005F012F8256070BD000C01400080214269
:104670000E4810B5016821F070410160016841F0F9
:10468000405101600A4C0020C4F89801C4F89C0114
:10469000042004F5CC7404F0F7FF01202060606072
:1046A000BDE81040042004F0EFBF0000000C014002
:1046B0000080214270B513480024016821F0704148
:1046C0000160016841F0004101600F4D0126C5F80D
:1046D0009C61304604F0D8FFC5F89861012004F0D1
:1046E000D3FF07E0641CE4B2FA2C03D9FFF7C0FF44
:1046F000012070BDD5F81C010028F3D1C5F8980140
:1047000070BD0000000C01400080214270B50446DD
:1047100000780B46012560B10026012811D002283F
:104720000ED111461846FEF76DFD012808D16570BF
:104730000CE011461846FEF765FD002800D12570F3
:1047400070BD11461846FEF75DFD08B1267070BDBC
:104750000220207070BD70B5044600780B4601251C
:1047600060B10026012811D002280ED1114618464A
:10477000FEF748FD002808D165700DE01146184687
:10478000FEF740FD012800D1257070BD1146184686
:10479000FEF738FD012801D0267070BD0220207080
:1047A00070BD000070B509490646002408884D8890
:1047B00021464543204602F009FD02F0ABFE0448C5
:1047C00001E00680641CAC42FBD370BDC013002026
:1047D0000008006C2DE9F04F2B492C260A46887101
:1047E00092884FF4305A4FF4285B4FF4487541F6E5
:1047F000631E2B274FF02A0C4FF0F00845F210599A
:104800004FF4A0744FF4F073B8B10C80A1F802809B
:104810004A4532D1A1F808A0A1F80AB0380288812F
:104820000D804B80A2F5A640103801D10B804C8042
:10483000BDE8F04F002002F009BCA1F800804C80D8
:104840004A4507D1A1F808A0A1F80AB04FF42C50AE
:10485000888105E072450E8105D14F81A1F80CC019
:104860000B804D8002E0A1F80AC08F81A2F5A6401E
:104870001038DDD10C804B80DAE70E81A1F80AC038
:1048800072458F81CCD0CDE7C01300202DE9FE4FBB
:10489000161ACDE900104FF000085D1A47464FF098
:1048A000FF30002E02DD4FF0010102E003D14FF096
:1048B00000018B4602E08346C6F10006002D02DDB2
:1048C0004FF0010002E003D14FF00000824602E009
:1048D0008246C5F10005AE4201DD344600E02C46BB
:1048E000601C4FF00009029018E0009881B2019816
:1048F00080B200F019F8B0442F44A04504DD0198BF
:10490000A8EB040858440190A74203DD00983F1B20
:104910005044009009F101001FFA80F9029989457D
:10492000E3DDBDE8FE8F000000B502F04FFC02F0B1
:10493000F1FD024802490088088000BD34000020D3
:104940000008006C2DE9FC4F80460025144603202A
:104950000F46A0EB440649E0381B81B208EB050A7C
:1049600001901FFA8AF0FFF7DFFF781B81B208EB96
:10497000040900901FFA89F0FFF7D6FF07EB050B3B
:104980001FFA8BF11FFA89F0FFF7CEFF07EB04093E
:104990001FFA89F11FFA8AF0FFF7C6FFA8EB050A94
:1049A0001FFA89F11FFA8AF0FFF7BEFFA8EB04098E
:1049B0001FFA8BF11FFA89F0FFF7B6FF019881B259
:1049C0001FFA8AF0FFF7B0FF009881B21FFA89F052
:1049D000FFF7AAFF6D1C002E03DA06EB8506B61D55
:1049E00004E0281B06EB8006641E0A36A542B3DDF0
:1049F000BDE8FC8F2DE9F0419046304A0D46044653
:104A0000060A918810462F0A4089A1F5AA43103B57
:104A10000FD0A1F5C853633B24D002F06FFD3046A0
:104A200002F060FDE0B202F05DFD908902F066FDEB
:104A300036E002F063FD304602F054FD5089401C20
:104A400080B202F05BFDE0B202F04CFD908902F012
:104A500055FD384602F046FD9089401C80B202F0B8
:104A60004DFD20E0917919B91188091B491E8CB2BE
:104A700002F044FD260A304602F034FDE0B202F0B6
:104A800031FD304602F02EFDE0B202F02BFD9089A0
:104A900002F034FD384602F025FDE8B202F022FDB6
:104AA000384602F01FFDE8B202F01CFD04491089EF
:104AB0000880891CA1F80080BDE8F081C0130020A7
:104AC000FE07006C2DE9F04FFF488FB04FF02041FA
:104AD0000160FE490622C0E9011200211023C160D5
:104AE000C0E9041381611B02C161C0E909139B0085
:104AF000C0E90B13416381631A20CDE908100D91C1
:104B00000792032003918DE8070006916A4607A9E2
:104B1000ED48FEF755FF322004F0A7FDD32002F048
:104B2000EDFC02F063FAE84C4834A08002F05EFA33
:104B3000A08002F05BFA4FF6FF7505EA0020A08026
:104B400002F054FAA18849F241370843A08047F2A5
:104B5000897645F2103845F2105941F6631A4FF440
:104B6000704BB84276D0042002F0C8FC02F03EFA46
:104B7000A08002F03BFAA08002F038FA05EA00209B
:104B8000A08002F033FAA1880843A0F50541A08077
:104B900052395BD0B0425DD0D42002F0AFFC02F0BD
:104BA00025FAA08002F022FAA08002F01FFA05EA9E
:104BB0000020A08002F01AFAA1880843A080404596
:104BC00048D05521584602F0AFFCAA214FF201000F
:104BD00002F0AAFC52214FF2020002F0A5FC0821CB
:104BE0004FF2030002F0A0FC01214FF2040002F09A
:104BF0009BFC4FF4454002F081FC02F0F7F905EA16
:104C00000020A0804CF2015002F078FC02F0EEF996
:104C1000A1880843A080322004F027FDA1884945DF
:104C200018D0A12002F06AFC02F0E0F9A08002F0A6
:104C3000DDF905EA0020A08002F0D8F9A188084338
:104C4000A0F5AE41A080613902D003E0A68001E06A
:104C5000A4F804A0A1889EA004F078F8A088B84227
:104C60007ED1CF2002F04AFC002002F03BFCC120A4
:104C700002F038FC302002F035FCED2002F03EFC62
:104C8000642002F02FFC032002F02CFC122002F022
:104C900029FC812002F026FCE82002F02FFC852070
:104CA00002F020FC102002F01DFC7A2002F01AFC19
:104CB000CB2002F023FC392002F014FC2C2002F05F
:104CC00011FC002002F00EFC342002F00BFC02204C
:104CD00002F008FCF72002F011FC202002F002FC98
:104CE000EA2002F00BFC002002F0FCFB002002F0A6
:104CF000F9FBC02002F002FC1B2002F0F3FBC120F4
:104D000002F0FCFB012002F0EDFBC52002F0F6FBF7
:104D1000302002F0E7FB302002F0E4FBC72002F075
:104D2000EDFBB72002F0DEFB362002F0E7FB482067
:104D300002F0D8FB3A2002F0E1FB552002F0D2FB52
:104D4000B12002F0DBFB002002F0CCFB1A2002F0C5
:104D5000C9FBB62002F0D2FB0A2002F0C3FB00E040
:104D600093E0A22002F0BEFBF22002F0C7FB00207D
:104D700002F0B8FB262002F0C1FB012002F0B2FBDA
:104D8000E02002F0BBFB0F2002F0ACFB2A2002F077
:104D9000A9FB282002F0A6FB082002F0A3FB0E20AE
:104DA00002F0A0FB082002F09DFB542002F09AFBC9
:104DB000A92002F097FB432002F094FB0A2002F0A6
:104DC00091FB0F2002F08EFB002002F08BFB0020F5
:104DD00002F088FB002002F085FB002002F082FB3D
:104DE000E12002F08BFB002002F07CFB152002F09A
:104DF00079FB172002F076FB072002F073FB1120ED
:104E000002F070FB062002F06DFB2B2002F06AFB23
:104E1000562002F067FB3C2002F064FB052002F004
:104E200061FB102002F05EFB0F2002F05BFB3F20D5
:104E300002F058FB3F2002F055FB0F2002F052FB1E
:104E40002B2002F05BFB002002F04CFB002002F064
:104E500049FB012002F046FB3F2002F043FB2A20E1
:104E600002F04CFB002002F03DFB002002F03AFB78
:104E7000002002F037FBEF2002F034FB112002F09B
:104E80003DFB782004F0F1FBDFE0B0427DD1112042
:104E900002F034FB782004F0E8FB362002F02EFB11
:104EA000002002F01FFB3A2002F028FB052002F050
:104EB00019FBB22002F022FB0C2002F013FB0C20A5
:104EC00002F010FB00200BE078130020040100A08A
:104ED000204C43442049443A25780D0A0000000044
:104EE00002F000FB332002F0FDFA332002F0FAFA60
:104EF000B72002F003FB352002F0F4FABB2002F0E9
:104F0000FDFA322002F0EEFAC02002F0F7FA0C208F
:104F100002F0E8FAC22002F0F1FA012002F0E2FA0F
:104F2000C32002F0EBFA102002F0DCFAC42002F0F9
:104F3000E5FA202002F0D6FAC62002F0DFFA0F20B0
:104F400002F0D0FAD02002F0D9FAA42002F0CAFA76
:104F5000A12002F0C7FAE02002F0D0FAD02002F03F
:104F6000C1FA002002F0BEFA022002F0BBFA0720CC
:104F700002F0B8FA0A2002F0B5FA282002F0B2FADC
:104F8000322002F0AFFA442000E061E002F0AAFA19
:104F9000422002F0A7FA062002F0A4FA0E2002F046
:104FA000A1FA122002F09EFA142002F09BFA1720B8
:104FB00002F098FAE12002F0A1FAD02002F092FA71
:104FC000002002F08FFA022002F08CFA072002F093
:104FD00089FA0A2002F086FA282002F083FA3120AA
:104FE00002F080FA542002F07DFA472002F07AFAAB
:104FF0000E2002F077FA1C2002F074FA172002F05B
:1050000071FA1B2002F06EFA1E2002F06BFA2A20C1
:1050100002F074FA002002F065FA002002F062FA51
:10502000002002F05FFAEF2002F05CFA2B2002F081
:1050300065FA002002F056FA002002F053FA01202F
:1050400002F050FA3F2002F04DFA292001F0FABE9A
:1050500040457CD1ED2002F051FA012002F042FAE5
:10506000FE2002F03FFAEE2002F048FADE2002F0C5
:1050700039FA212002F036FAF12002F03FFA01203D
:1050800002F030FADF2002F039FA102002F02AFA9A
:10509000C42002F033FA8F2002F024FAC62002F076
:1050A0002DFA002002F01EFAE22002F01BFAE220A4
:1050B00002F018FAE22002F015FABF2002F01EFA00
:1050C000AA2002F00FFAB02002F018FA0D2002F028
:1050D00009FA002002F006FA0D2002F003FA00207F
:1050E00002F000FA112002F0FDF9002002F0FAF9B6
:1050F000192002F0F7F9002002F0F4F9212002F063
:10510000F1F9002002F0EEF92D2002F0EBF9002079
:1051100002F0E8F93D2002F0E5F9002002F0E2F9A2
:105120005D2002F0DFF9002002F0DCF95D2002F0E2
:10513000D9F9002002F0D6F9B12002F0DFF9802081
:1051400002F0D0F9002002F0CDF98B2000E0FCE362
:1051500002F0C8F9002002F0C5F9962002F0C2F969
:10516000002002F0BFF9B22002F0C8F9002002F0DE
:10517000B9F9002002F0B6F9022002F0B3F90020DC
:1051800002F0B0F9032002F0ADF9002002F0AAF914
:10519000B32002F0B3F9002002F0A4F9002002F0DD
:1051A000A1F9002002F09EF9002002F09BF90020F6
:1051B00002F098F9002002F095F9002002F092F92F
:1051C000002002F08FF9002002F08CF9002002F09C
:1051D00089F9002002F086F9002002F083F900200E
:1051E00002F080F9002002F07DF9002002F07AF947
:1051F000002002F077F9002002F074F9002002F09C
:1052000071F9002002F06EF9002002F06BF9002025
:1052100002F068F9002002F065F9002002F062F95E
:10522000002002F05FF9B42002F068F98B2002F050
:1052300059F9002002F056F9962002F053F90020A7
:1052400002F050F9A12002F04DF9002002F04AF9D5
:10525000B52002F053F9022002F044F9002002F0D8
:1052600041F9032002F03EF9002002F03BF904204E
:1052700002F038F9002002F035F9B62002F03EF9CC
:10528000002002F02FF9002002F02CF9B72002F0E4
:1052900035F9002002F026F9002002F023F93F2022
:1052A00002F020F9002002F01DF95E2002F01AF948
:1052B000002002F017F9642002F014F9002002F037
:1052C00011F98C2002F00EF9002002F00BF9AC204D
:1052D00002F008F9002002F005F9DC2002F002F9E2
:1052E000002002F0FFF8702002F0FCF8002002F02D
:1052F000F9F8902002F0F6F8002002F0F3F8EB2025
:1053000002F0F0F8002002F0EDF8DC2002F0EAF8FC
:10531000002002F0E7F8B82002F0F0F8002002F0D8
:10532000E1F8002002F0DEF8002002F0DBF80020B7
:1053300002F0D8F8002002F0D5F8002002F0D2F8F0
:10534000002002F0CFF8002002F0CCF8BA2002F0E2
:10535000D5F8242002F0C6F8002002F0C3F800209F
:1053600002F0C0F8002002F0BDF8C12002F0C6F83B
:10537000202002F0B7F8002002F0B4F8542002F028
:10538000B1F8002002F0AEF8FF2002F0ABF80020E8
:1053900002F0A8F8C22002F0B1F80A2002F0A2F848
:1053A000002002F09FF8042002F09CF8002002F098
:1053B00099F8C32002F0A2F83C2002F093F80020F4
:1053C00002F090F83A2002F08DF8002002F08AF8FE
:1053D000392002F087F8002002F084F8372002F02C
:1053E00081F8002002F07EF83C2002F07BF80020DB
:1053F00002F078F8362002F075F8002002F072F81A
:10540000322002F06FF8002002F06CF82F2002F03A
:1054100069F8002002F066F82C2002F063F8002002
:1054200002F060F8292002F05DF8002002F05AF83E
:10543000262002F057F8002002F054F8242002F051
:1054400051F8002002F04EF8242002F04BF8002022
:1054500002F048F8232002F045F8002002F042F85C
:105460003C2002F03FF8002002F03CF8362002F029
:1054700039F8002002F036F8322002F033F800202C
:1054800002F030F82F2002F02DF8002002F02AF868
:105490002C2002F027F8002002F024F8292002F046
:1054A00021F8002002F01EF8262002F01BF8002050
:1054B00002F018F8242002F015F8002002F012F88B
:1054C000242002F00FF8002002F00CF8232002F054
:1054D00009F8002002F006F8C42002F00FF862205C
:1054E00002F000F8002001F0FDFF052001F0FAFFB6
:1054F000002001F0F7FF842001F0F4FF002001F00C
:10550000F1FFF02001F0EEFF002001F0EBFF18208A
:1055100001F0E8FF002001F0E5FFA42001F0E2FF28
:10552000002001F0DFFF182001F0DCFF002001F077
:10553000D9FF502001F0D6FF002001F0D3FF0C204E
:1055400001F0D0FF002001F0CDFF172001F0CAFFCD
:10555000002001F0C7FF952001F0C4FF002001F0FA
:10556000C1FFF32001F0BEFF002001F0BBFFE620E9
:1055700001F0B8FF002001F0B5FFC52001F0BEFF2B
:10558000322001F0AFFF002001F0ACFF442001F019
:10559000A9FF002001F0A6FF652001F0A3FF002075
:1055A00001F0A0FF762001F09DFF002001F09AFF9E
:1055B000882001F097FF002001F094FFC62001F041
:1055C0009DFF202001F08EFF002001F08BFF1720AF
:1055D00001F088FF002001F085FF012001F082FF2B
:1055E000002001F07FFFC72001F088FF002001F0BC
:1055F00079FF002001F076FF002001F073FF00200A
:1056000001F070FFC82001F079FF002001F06AFF6F
:10561000002001F067FF002001F064FF002001F08E
:1056200061FFC92001F06AFF002001F05BFF00204C
:1056300001F058FF002001F055FF002001F052FF5B
:10564000002001F04FFF002001F04CFF002001F08E
:1056500049FF002001F046FF002001F043FF002039
:1056600001F040FF002001F03DFF002001F03AFF73
:10567000002001F037FF002001F034FF002001F08E
:1056800031FF002001F02EFFE02001F037FF16204F
:1056900001F028FF002001F025FF1C2001F022FF6F
:1056A000002001F01FFF212001F01CFF002001F06D
:1056B00019FF362001F016FF002001F013FF4620ED
:1056C00001F010FF002001F00DFF522001F00AFF51
:1056D000002001F007FF642001F004FF002001F02A
:1056E00001FF7A2001F0FEFE002001F0FBFE8B207E
:1056F00001F0F8FE002001F0F5FE992001F0F2FE25
:10570000002001F0EFFEA82001F0ECFE002001F0E7
:10571000E9FEB92001F0E6FE002001F0E3FEC4201E
:1057200001F0E0FE002001F0DDFECA2001F0DAFE0B
:10573000002001F0D7FED22001F0D4FE002001F0BD
:10574000D1FED92001F0CEFE002001F0CBFEE020FA
:1057500001F0C8FE002001F0C5FEF32001F0C2FEFA
:10576000002001F0BFFEE12001F0C8FE162001F08C
:10577000B9FE002001F0B6FE1C2001F0B3FE0020AF
:1057800001F0B0FE222001F0ADFE002001F0AAFEE3
:10579000362001F0A7FE002001F0A4FE452001F014
:1057A000A1FE002001F09EFE522001F09BFE002091
:1057B00001F098FE642001F095FE002001F092FEB9
:1057C0007A2001F08FFE002001F08CFE8B2001F08A
:1057D00089FE002001F086FE992001F083FE002062
:1057E00001F080FEA82001F07DFE002001F07AFE8D
:1057F000B92001F077FE002001F074FEC42001F012
:1058000071FE002001F06EFECA2001F06BFE002048
:1058100001F068FED22001F065FE002001F062FE7A
:10582000D82001F05FFE002001F05CFEE02001F0D6
:1058300059FE002001F056FEF32001F053FE002037
:1058400001F050FEE22001F059FE052001F04AFE71
:10585000002001F047FE0B2001F044FE002001F083
:1058600041FE1B2001F03EFE002001F03BFE3420F3
:1058700001F038FE002001F035FE442001F032FE38
:10588000002001F02FFE4F2001F02CFE002001F03F
:1058900029FE612001F026FE002001F023FE792080
:1058A00001F020FE002001F01DFE882001F01AFE0C
:1058B000002001F017FE972001F014FE002001F0F7
:1058C00011FEA62001F00EFE002001F00BFEB72015
:1058D00001F008FE002001F005FEC22001F002FEEA
:1058E000002001F0FFFDC72001F0FCFD002001F0C9
:1058F000F9FDD12001F0F6FD002001F0F3FDD620E6
:1059000001F0F0FD002001F0EDFDDD2001F0EAFDE9
:10591000002001F0E7FDF32001F0E4FD002001F09C
:10592000E1FDE32001F0EAFD052001F0DBFD0020B0
:1059300001F0D8FD0A2001F0D5FD002001F0D2FDD4
:105940001C2001F0CFFD002000E0FDE201F0CAFDC7
:10595000332001F0C7FD002001F0C4FD442001F018
:10596000C1FD002001F0BEFD502001F0BBFD002074
:1059700001F0B8FD622001F0B5FD002001F0B2FD9C
:10598000782001F0AFFD002001F0ACFD882001F08F
:10599000A9FD002001F0A6FD972001F0A3FD002045
:1059A00001F0A0FDA62001F09DFD002001F09AFD70
:1059B000B72001F097FD002001F094FDC22001F016
:1059C00091FD002001F08EFDC72001F08BFD00202D
:1059D00001F088FDD12001F085FD002001F082FD5D
:1059E000D52001F07FFD002001F07CFDDD2001F0DD
:1059F00079FD002001F076FDF32001F073FD002019
:105A000001F070FDE42001F079FD012001F06AFD54
:105A1000002001F067FD012001F064FD002001F08D
:105A200061FD022001F05EFD002001F05BFD2A20F7
:105A300001F058FD002001F055FD3C2001F052FD21
:105A4000002001F04FFD4B2001F04CFD002001F043
:105A500049FD5D2001F046FD002001F043FD74206A
:105A600001F040FD002001F03DFD842001F03AFDF1
:105A7000002001F037FD932001F034FD002001F0FB
:105A800031FDA22001F02EFD002001F02BFDB320FE
:105A900001F028FD002001F025FDBE2001F022FDCF
:105AA000002001F01FFDC42001F01CFD002001F0CA
:105AB00019FDCD2001F016FD002001F013FDD320CB
:105AC00001F010FD002001F00DFDDD2001F00AFDC8
:105AD000002001F007FDF32001F004FD002001F09B
