:020000040800F2
:10000000C829002045010008F7300008DB2E000851
:10001000F530000875110008653400080000000084
:10002000000000000000000000000000FB3000089D
:100030001F12000800000000F9300008FD30000821
:100040005F0100085F0100085F0100085F01000810
:100050005F0100085F010008211200085F0100082D
:100060005F0100085F0100085F010008DD11000862
:100070005F0100085F0100085F0100085F010008E0
:100080005F0100085F0100085F0100085F010008D0
:100090005F0100085F0100085F0100085F010008C0
:1000A0005F0100085F0100085F0100085F010008B0
:1000B0005F0100085F0100085F0100085F010008A0
:1000C0005F0100085F0100085F0100085F01000890
:1000D0005F010008593400085F0100085F01000853
:1000E000271200085F0100085F0100085F01000897
:1000F0005F0100085F0100085F0100085F01000860
:100100005F0100085F0100085F0100085F0100084F
:100110005F0100085F0100085F0100085F0100083F
:100120005F0100085F0100085F010008E911000895
:10013000DFF80CD000F06AFF0048004709440008CF
:10014000C82900200648804706480047FEE7FEE72A
:10015000FEE7FEE7FEE7FEE7FEE7FEE7FEE7FEE777
:100160007B310008310100082DE9F04F4FF0000C01
:100170004FF0000301EB1C6EBEF90250BEF90040C7
:100180000EF5807EBEF90290BEF900800EF5807EED
:10019000BEF90270BEF900600EF5807EBEF902B0B5
:1001A000BEF900A00EF5807ED044D944A8EB4A0ADF
:1001B000A9EB4B0B4FEAA4044FEAA50504EBA604F8
:1001C00005EBA705A4EB6606A5EB670704EBA804FF
:1001D00005EBA905A4EB6808A5EB690906EBAB06DE
:1001E000A7EBAA07A6EB6B0B07EB6A0A458020F882
:1001F000044B478020F8046BA0F8029020F8048B91
:10020000A0F802A020F804BB03F1010393FAA3FCB9
:10021000402BAFD1A0EB82014FF0100312090FF277
:10022000361000F1000006B403EB430C6144A2F564
:10023000803202EB8332B1F90250B1F90040A1EBF8
:100240000301B0F902B0B0F900A000F10400A5EB81
:10025000040E0EFB0BFC0AEB4B0E05FB0ACB04FB5A
:100260000ECAB1F90250B1F90040A1EB0301B0F997
:100270000290B0F9008000F10400A5EB040E0EFB23
:1002800009FC08EB490E05FB08C904FB0EC8B1F9CF
:100290000250B1F90040A1EB0301B0F90270B0F9CE
:1002A000006000F10400A5EB040E0EFB07FC06EB5A
:1002B000470E05FB06C704FB0EC6B1F90250B1F9A3
:1002C000004001F10001D044D944A8EB4A0AA9EB4F
:1002D0004B0B4FEAA4044FEAA50504EB264405EBBB
:1002E0002745A4EBE636A5EBE73704EB284405EBFE
:1002F0002945A4EBE838A5EBE93906EB2B46A7EB3B
:100300002A47A6EBEB3B07EBEA3A4D800C801944F9
:100310004F800E801944A1F80290A1F80080194482
:10032000A1F802A021F804BBB2F5803283DA03EB16
:10033000430C6144A2F101025FEA024E18BFA0EB38
:100340000C007FF476AF06BC4FEA830392087FF47B
:100350006AAFBDE8F08F00400000004000000040A0
:1003600000005DDD213BA3227E180000412D7EA50B
:10037000412D0000412D00C000405DDD82E75DDDC4
:10038000213B7EA5412D00400000004000000040C0
:100390000000AA2A94126B39460649327C0CA81137
:1003A0008E2349327C0CA3227E1821F77931AA2AA8
:1003B0009412A8118E235DDD213BA3227E1800003C
:1003C000412D95C6B13F461A2B1E58EE3735BEB4A7
:1003D000C53EA8118E235DDD213B63A97138DF087E
:1003E0009A28B7CDC53E7EA5412D0000412D00C005
:1003F000004063A92B1E21F77931BEB4C53EBEB4BF
:100400007C0C58EE373561AC213B95C6BAF9BAE59C
:1004100071383BA737355DDD82E75DDD213B7EA589
:10042000412D21F766D756D53F3D3BA78E23A81116
:10043000C9CAB7CDC53E61AC7E18AA2AC1C295C64D
:10044000B13FBEB47C0C0040000000400000004002
:1004500000001E3BB504693E9201C83C2403EB3505
:100460006409C83C24036B3946066C30060E1E3BFB
:10047000B504EB356409AA2A94126B394606493251
:100480007C0CAE240917AF37D607882E8D0F7E1E41
:100490005D1BEB356409AA2A941224188C1F1E34A4
:1004A000F10AB3269015A8118E2349327C0CA322A1
:1004B0007E18140B60276C30060E7E1E5D1B7104C7
:1004C000FB2A882E8D0F461A2B1EC7FD5A2E9D2CF7
:1004D0001211FE15E72021F77931AA2A9412A811EA
:1004E0008E2387F05334B2281314480D202602EAD5
:1004F000E536B3269015DF089A289CE32B39AE2405
:1005000009177104FB2A5DDD213BA3227E18000040
:10051000412D4ED7C53C9320EF198FFB6C2F78D11E
:10052000153E7E1E5D1B21F77931E2CB0F3F641C27
:10053000C61CB8F2683395C6B13F461A2B1E58EE5A
:10054000373597C1FB3F24188C1F02EAE536F0BC13
:10055000EC3FFE15E720BAE57138A6B8853FD51304
:100560003D2282E1DB39BEB4C53EA8118E235DDD9C
:10057000213B40B1AF3D790FDA244DD9423C2EAE3C
:10058000423C480D202656D53F3D8EAB823A140B97
:10059000602778D1153E63A97138DF089A28B7CD56
:1005A000C53EB1A71236A906CE2915CA4F3F78A677
:1005B00068337104FB2A95C6B13FBCA57630390279
:1005C000212C38C3EC3F7EA5412D0000412D00C0F9
:1005D0000040BCA5CE29C7FD5A2EF0BCEC3F78A642
:1005E00020268FFB6C2F09BAB13FB1A73D2257F9E6
:1005F00076304DB74F3F63A92B1E21F77931BEB43A
:10060000C53E8EABEF19ECF474325EB2153E2EAEE1
:100610009015B8F268332DB03F3D40B1121187F00C
:1006200053342EAE423CBEB47C0C58EE373561AC30
:10063000213BA6B8D6072BEC1236C8AADB39F0BC92
:10064000240302EAE53663A9713897C16EFEDCE740
:10065000B03734A8E53695C6BAF9BAE571383BA784
:100660003735E2CB0FF59CE32B3978A6683378D188
:1006700073F082E1DB39EDA579314ED7EDEB6DDF1B
:10068000823A99A56C2F5DDD82E75DDD213B7EA579
:10069000412D9CE33AE352DBB63B99A5FB2A02EAE3
:1006A00019DF4DD9423CEDA59A2887F026DB4ED7BD
:1006B000C53C78A6202621F766D756D53F3D3BA7F7
:1006C0008E23C7FDDFD363D3AF3D34A8E720710489
:1006D00094D078D1153E63A92B1E140B8CCD94CFEA
:1006E000723EC8AA5D1BA811C9CAB7CDC53E61AC90
:1006F0007E18241850C8E2CB0F3F2EAE90157E1EF8
:1007000025C615CA4F3F2DB09412AE244AC451C815
:10071000853F5EB28D0FAA2AC1C295C6B13FBEB455
:100720007C0C6C308EC1E2C4D43F4DB76409EB350C
:10073000B1C038C3EC3F09BA46061E3B2CC097C176
:10074000FB3FF0BC24032DE9F05F054600209246F4
:100750009B4688460646814640241BE02846414683
:100760004746224600F02FF853465A46C01A914198
:1007700010D311461846224600F016F82D1A67EBE2
:1007800001084F4622460120002100F00DF817EB2A
:1007900000094E41201EA4F10104DFDC4846314629
:1007A0002A464346BDE8F09F202A04DB203A00FA9F
:1007B00002F1002070479140C2F1200320FA03F3B8
:1007C000194390407047202A04DB203A21FA02F0B6
:1007D0000021704721FA02F3D040C2F1200291407B
:1007E000084319467047202A06DBCB17203A41FA06
:1007F00002F043EAE07306E041FA02F3D040C2F1AE
:1008000020029140084319467047D2B201E000F837
:10081000012B491EFBD270470022F6E710B51346A4
:100820000A4604461946FFF7F0FF204610BDF0B413
:1008300080EA0102D40F4200B2EB410F02D202461D
:10084000084611464A0042D0C30DDDB2C1F3C7527B
:10085000AD1A202D35DAC1F3160141F4000204B1BE
:100860005242C5F1200602FA06F12A411044B3EBC8
:10087000D05F23D0C4B1012DA0EBC35009DCF0BC84
:100880004FF0004202EAC352DBB200F5000000F074
:10089000C8BA400000F1807000EBC350A0F1807036
:1008A00040EAD170490009E0490841EAC071A0EB73
:1008B000C35000F50000400800EBC350F0BC00F04E
:1008C000A7BA6142012202EB4101001BF6E7F0BC2E
:1008D000704781F00041AAE780F00040A7E780EA76
:1008E000010210B502F00043400022D04A001FD0A0
:1008F000010E01EB1261C0F35600C2F3560240F440
:10090000000042F40002A0FB022000047F3914041E
:1009100000D0401C50EA124001D44000491EC2B22F
:100920000C0604EBD010401C4008802A02D003E0E3
:10093000002010BD20F00100002900DA002018433B
:1009400010BD420005D0C0F3C7525242914201DCB3
:100950000020704700EBC15070472DE9FE4F8046E4
:1009600081EA0300C00F0C46009021F0004123F003
:100970000045B8EB0200A94105D240462146904609
:100980001C460B46024623F00040104347D0270D7B
:10099000C7F30A00C3F30A510290401A019040289D
:1009A0006BDAC3F3130040F4801B0098924620B129
:1009B0000023D2EB030A63EB0B0B01985946C0F1FD
:1009C00040025046FFF7F0FE06460D465046594697
:1009D000019AFFF708FF10EB08006141002487EA45
:1009E000115284EAE7731A4340D0009A62B3019A25
:1009F000012A4FEA075215DC001B61EB02014FF0A0
:100A0000004202EA0752CDE90042001C41F5801184
:100A100032462B4600F042FA03B0BDE8F08F404664
:100A20002146F9E7001B61EB0201001C41F5801330
:100A300000185B412018A2F5001747EB030140EABC
:100A4000D570B6196D4111E06D084FEA360645EADA
:100A5000C0754FEA0752001B61EB0201001C41F513
:100A6000801149084FEA30000019514132462B46A7
:100A700003B0BDE8F04F00F002BA00980122400038
:100A80000023D0EB020263EBE073009821464FEAAB
:100A9000E074B8EB000061EB0401E9E783F0004388
:100AA0005BE781F0004158E72DE9FE4F81EA03043E
:100AB00004F0004421F0004100944FF0000B23F0BB
:100AC000004350EA01045ED052EA03045BD0C3F352
:100AD0000A54C1F30A552C44A4F2F3340194A0FB48
:100AE0000254C1F3130141F48011C3F3130343F41F
:100AF000801301FB024400FB034E840A970A44EA78
:100B0000815447EA8357A4FB076802958D0A05FBC9
:100B100007854FEA932C04FB0C542705029D4FEAEE
:100B2000065847EA1637B5EB08056EEB070C870E3B
:100B3000920E47EA811742EA8312A7FB0201B6EB45
:100B40000B0164EB00042B0D43EA0C335E1844EBFD
:100B50001C50DA465146E7FB0201C5F313044FEA85
:100B60000B3343EA14534FEA0432019C43EA060371
:100B7000A4F10C040294009CCDE900B400F08EF9BD
:100B800003B0BDE8F08F00200146F9E72DE9F04DF4
:100B900081EA030404F0004B21F0004514464FF0B5
:100BA000000A23F0004150EA050220D054EA010275
:100BB0001DD0C5F30A570246C5F31303C1F3130052
:100BC000C1F30A5640F4801543F48013A7EB0608DE
:100BD000101BD64608F2FD3873EB050002D308F16E
:100BE000010801E092185B41B8F1000F03DA002020
:100BF0000146BDE8F08D00204FF480110646844682
:100C00000EE0171B73EB050705D3121B63EB0503FF
:100C100006434CEA010C49084FEA300092185B4148
:100C200050EA0107EDD152EA030012D082EA040033
:100C300083EA0501084305D0101BAB4106D201220F
:100C4000002306E000224FF0004302E06FF00102B3
:100C500053101AEB06004CEB085110EB0A0041EB65
:100C60000B01BDE8F04D00F00AB970B521F000436A
:100C700003430CD0C1F30A550024D5EB040564EB03
:100C80000403D617AD1AB34102DB0020014670BD44
:100C9000201841EB025170BDC10F80EAE07008449A
:100CA000CA079623002100F0BCB896230022114603
:100CB00000F0B7B80EB5C10F80EAE0700844CA076B
:100CC000002140F233438DE80E000A460B4600F047
:100CD000E5F803B000BD0EB540F2334102910021AA
:100CE000CDE900110A460B4600F0D8F803B000BD6C
:100CF00020F00040C10DC0F3160040F400007F2931
:100D000001DA00207047962903DCC1F19601C84042
:100D1000704796398840704770B5C1F30A5201F0A8
:100D200000450024C1F3130140F2FF3341F4801168
:100D30009A4201DA002070BD40F233439A42A2F297
:100D4000334203DC5242FFF73EFD00E090402C436B
:100D5000F1D0404270BD00F0004230F000400AD0B7
:100D6000C10D01F56071C0F3160042EA0151C208DD
:100D700040071143704700200146704730B5041EFC
:100D800071F1000404DB4FF00044404264EB0101C8
:100D9000141E73F1000405DB1C464FF00043524261
:100DA00063EB0403994208BF904230BD01F0004359
:100DB00030B421F0004150EA010206D00A0DA2F53C
:100DC0006072C1F31301002A02DC30BC00207047BE
:100DD000440F44EAC104C100E01830BC00EBC2502B
:100DE00000F016B830B50B46014600202022012441
:100DF00009E021FA02F59D4205D303FA02F5491BE9
:100E000004FA02F52844151EA2F10102F1DC30BDFE
:100E10000029A8BF7047401C490008BF20F001000E
:100E2000704710B4B0FA80FC00FA0CF050EA0104EC
:100E300004BF10BC704749B1CCF1200421FA04F47E
:100E400011FA0CF118BF012121430843A3EB0C0157
:100E5000CB1D4FEA00614FEA102042BF002010BCBA
:100E6000704700EBC35010440029A4BF10BC70476A
:100E7000401C490008BF20F0010010BC704710B5AD
:100E8000141E73F1000408DA401C41F100019218AD
:100E90005B411A4301D120F0010010BD2DE9F04D56
:100EA00092469B4611B1B1FA81F202E0B0FA80F2AB
:100EB00020329046FFF778FC04460F4640EA0A00CD
:100EC00041EA0B0153465A46084313D0114653EAF0
:100ED000010019D0C8F140025046FFF774FC0546E6
:100EE0000E46504659464246FFF75EFC084305D081
:100EF000012004E020463946BDE8F08D002005437E
:100F000046EAE0762C4337430A986305E40AA0EBEF
:100F100008000022FD0A44EA47540A3002D50020A6
:100F20000146E9E7010510196941DDE908450019A5
:100F30006941BDE8F04DA2E72DE9F04D00231A46C6
:100F40001B1A8A4103DB00200146BDE8F08DC1F386
:100F50000A52C1F3130141F480154FF0000BD10781
:100F600002D100186D41521E0027044640F2FF11C5
:100F7000384601EB620A3E468046024600204FF4A6
:100F80008011FFF720FCC2197141BB1846EB01002C
:100F9000B4EB030C75EB000C04D3E41A65EB00050D
:100FA00017460E46241908F101006D418046342889
:100FB000E3DDF91946EB0600091BA84103D24FF007
:100FC000FF32134601E0002213461BEB070046EBFD
:100FD0000A51BDE8F04DFFF752BFC1F30A52C1F309
:100FE000130140F2FF3341F480119A4202DA0020EB
:100FF0000146704740F233439A42A2F2334202DC88
:101000005242FFF7E0BBFFF7CFBB0000064C074D95
:1010100006E0E06840F0010394E8070098471034C8
:10102000AC42F6D3FFF788F8D0470008F047000835
:1010300070B5044600688168C943C90717D1816843
:1010400021F00101816001F0B5F805460AE000BF1A
:1010500001F0B0F8401B022804D920688068C04322
:10106000C00706D020688068C043C007F0D00020C9
:1010700070BDA06A40F01000A062E06A40F001007C
:10108000E062012070BD10B50146406A826A12F02C
:10109000500F05D0006A026BBDE8104008461047AB
:1010A000816A41F40071816201688968C1F342413B
:1010B00007290CD1017B51B9816A21F480718162C9
:1010C000816AC90403D4816A41F00101816200F0A0
:1010D00025FA10BD10B5406A816A41F04001816275
:1010E000C16A41F00401C16200F01AFA10BD10B5E6
:1010F000406A00F014FA10BDF8B5002604460096C8
:1011000000688168C943C9072DD0816841F0010199
:101110008160164816490068B0FBF1F000E0401EFF
:1011200000900028FBD101F045F8054616E000BF0D
:1011300001F040F8401B022810D920688068C043A5
:10114000C0070BD0A06A40F01000A062E06A40F037
:101150000100E06284F824600120F8BD2068806806
:10116000C043C007E4D10020F8BD00005C000020AF
:1011700040420F00FEE710B5446A204600F05AFBDB
:101180000120207110BD10B5446A204600F028FBF4
:101190000120207110BD10B5446A206940F00400A0
:1011A0002061204600F048FB0120207110BD10B5E1
:1011B000446A206940F004002061204600F012FBE0
:1011C0000120207110BD10B5406A00F034FB10BD45
:1011D00010B5406A00F005FB10BD0000014800F0AA
:1011E000C9BC000098100020014800F0C3BC0000FA
:1011F000F010002030B590F840500124AC40C56B91
:101200006C60046863604368102B036803D09960C6
:101210000068C26030BD9A600068C16030BD704730
:10122000012000F0B1BE4FF4005000F0ADBE72B628
:10123000FEE700002DE9F05FDFF8E09000246FF09A
:101240000E0A6FF0070BA9F5406500BF59F824108E
:1012500008140EB2FFF720FD0821FFF772FB574676
:101260005146FFF76EFB80463046FFF715FD08211B
:10127000FFF767FB3946FFF764FB06460146FFF7B9
:101280002EFB074641460846FFF729FB3946FFF784
:10129000CEFAFFF760FD03F0C7F95A46FFF7E5FC09
:1012A000FFF784FD002C32D01021FFF74AFBFFF737
:1012B0001FFD45F82400214619A002F0D5F820466C
:1012C000FFF7F3FC1949FFF70AFBFFF744FD02465D
:1012D0000B4617A002F0C8F855F8241010A002F031
:1012E000C3F84046FFF737FD02460B4610A002F058
:1012F000BBF83046FFF72FFD02460B460FA002F069
:10130000B3F8641CA4B2802CA0D3BDE8F09F0F21D9
:10131000FFF717FBFFF7ECFC2860CCE7680C002018
:1013200025642020202020200000000000007A40BA
:101330002566202020202020000000002566202097
:10134000202020200D0A0000F8B500250446009555
:1013500090F8240001280BD0012084F824002046B6
:10136000FFF766FE2046FFF7C7FE060002D050E0FA
:101370000220F8BDA06A20F4885040F00200A0626C
:10138000022000F0ADFF25490968B1FBF0F04000F4
:1013900000E0401E00900028FBD12068816841F0E9
:1013A0000801816000F006FF074608E000F002FF38
:1013B000C01B0A2803D920688068000715D420685C
:1013C00080680007F2D42068816841F004018160E0
:1013D00000F0F0FE074612E000F0ECFEC01B0A2809
:1013E0000DD920688068400709D5A06A20F0020066
:1013F00040F01000A06284F824500120F8BD20685D
:1014000080684007E8D4A06A20F0020040F00100A4
:10141000A06284F824503046F8BD00005C00002033
:10142000F8B50024009490F824202546012A12D013
:10143000012280F824204A681F23072A0DD206685B
:10144000776B521E02EB820293409F430B689340DE
:101450001F43776319E00220F8BD06680D2A0AD2FF
:10146000376BD21F02EB820293409F430B6893407D
:101470001F43376309E0F76A0D3A02EB820293409B
:101480009F430B6893401F43F7620A68072306686F
:101490000A2A0AD3F7680A3A02EB420293409F43B2
:1014A0008B6893401F43F76008E0376902EB420204
:1014B00093409F438B6893401F4337610A68102A0B
:1014C00001D0112A20D1124B02689A4217D1936899
:1014D0001B0219D4936843F4000393600968102930
:1014E00012D10C490C4A0968B1FBF2F101EB810100
:1014F000490000E0491E00910029FBD104E0816A07
:1015000041F020018162012480F824502046F8BD7A
:10151000002401405C00002040420F0070477047EB
:10152000704700002DE9F04104004FF000057FD026
:10153000A06A002628B9E66284F82460204600F0FC
:1015400081F82046FFF774FDA16AC90600D420B1D6
:10155000A06A40F01000A0626AE0A16A21F48851FC
:1015600041F00201A162334923688B42E16904D151
:10157000B1F5402F01D14FF40021277B4FF4807C3F
:1015800041EA470261680A43A168614508D0012920
:1015900006D0002194F814E0BEF1010F02D00AE059
:1015A0006146F7E7C7B1A76A47F02007A762E76A75
:1015B00047F00107E7625F6827F469470F435F6000
:1015C000236899681C4F394011439960A1686145AF
:1015D0000BD0012909D00CE0DFF860E0A7690EEB21
:1015E00047370F4347F40061E5E7218A0D05A5F56C
:1015F00080152168CB6A23F470032B43CB622168EA
:1016000089680F4B1940914208D1E662A16A21F026
:10161000020141F00101A162BDE8F081A06A20F061
:10162000020040F01000A062E06A40F00100E062B9
:101630000120F1E7003C0140FDF7E1FF00E0FFFF82
:10164000FE0E1FFF70B586B0002506460095019579
:101650000295039500681A4988422ED11949886974
:1016600040F400708861886900F400700490886913
:1016700040F0040088618869694600F00400049025
:1016800004200090032001900F4800F089FC104CCA
:101690000E48C4E900058020C4E9025040002061E2
:1016A000800060612020C4E90605204600F086FB2A
:1016B00008B1FFF7BCFD3462666206B070BD000081
:1016C00000240140001002400008014008000240D0
:1016D000981000202DE9F047894604463B490068F0
:1016E0003B4F0E1D9046884201D0B84207D130686A
:1016F00010F4702F03D001252846BDE8F08794F838
:10170000240001280CD0012084F824002046FFF793
:10171000F3FC05004FF0000004D084F82400EBE750
:101720000220EAE7A16A40F60162914341F4807128
:10173000A1622168B94218D1326812F4702F14D016
:10174000A16A41F48011A1623168490505D5A16AF9
:1017500021F4005141F48051A162A16AC9040AD563
:10176000E16A21F00601E16206E0A26A22F4801239
:10177000A2624968E9E7E06284F82400216A15481A
:101780008862216A1448C862216A14480863216883
:101790006FF0020008602068816841F48071816008
:1017A000216843464A464C31206A00F045FB2068D8
:1017B0008168C1F342410729816803D041F4801157
:1017C000816099E741F4A001FAE70000002401409C
:1017D0000028014087100008EF100008D51000080D
:1017E00070477047704770B500B3F9B14379012B6A
:1017F0001ED0012646710223037105682C6802F091
:10180000100340F6FE729A409443D1E900210A4346
:101810009A4022432A6001680A68C0249C40A2437F
:101820000A60067100214171084670BD012070BD3B
:10183000022070BD70477047704770B5040003D038
:101840002079002510B105E0012070BD65712046AA
:1018500000F008F80220207125610120207100208D
:1018600070BD0000F0B585B00026054600960196D3
:101870000296039600681A4988422ED11949C86910
:1018800040F00050C861C86900F0005004908869B9
:1018900040F0040088618869202700F0040004906B
:1018A0000320CDE9007069460F4800F079FB104C29
:1018B0000E4820601020C4E901068020E06040004E
:1018C00020618000E661C4E90507204600F076FA51
:1018D00008B1FFF7ACFCEC60656205B0F0BD00003C
:1018E000007400400010024000080140440402401F
:1018F000F01000202DE9F0410400069817460D462F
:101900001BD0617901291BD001266671022121714A
:10191000C5B1E26824499162E2682449D162E26873
:101920002349116321680A6842F080520A6018B3A3
:101930002268042823D01C3222E00120BDE8F08177
:101940000220FBE7A2681B499162A2681A49D16292
:10195000A2681A49116321680A6842F480520A6039
:1019600020B12268042804D0103203E02268083233
:1019700000E00C32A06804E02268143200E0183263
:10198000E068394600F058FA0021617120B1216900
:1019900041F004012161D1E721680A6805F01003D4
:1019A0009E4032430A60C9E787110008D111000840
:1019B000AF11000877110008C7110008971100083F
:1019C00070B5040017D02068036801F010024FF4CE
:1019D00080559540AB43036020680368012505FAF4
:1019E00002F29343036041B1D4F80C0000F007F811
:1019F0002571002070BD012070BDA068F6E710B50C
:101A000090F821100022022905D00421816380F87A
:101A10002020012010BD01680B6823F00E030B602D
:101A200001680B6823F001030B6090F84030C46B31
:101A3000012101FA03F3636080F8211080F820206F
:101A4000104610BD2DE9F05F90F821100024022906
:101A500003D004218163012485E001680A6822F033
:101A60000E020A6001680A6822F001020A603F4E15
:101A70003E4FB215DFF8F4C0DFF8F090DFF8ECA0CD
:101A8000DFF8E8B0DFF8E4E00168783F1301150201
:101A9000ACF1640CA9F15009AAF13C0AABF1280B96
:101AA000AEF1140E4FF48018B14227D9B9420ED0CE
:101AB000614512D049451DD0514518D0594518D01F
:101AC000714501D1424615E0294EB14201D10122B2
:101AD00010E0274E1436B14201D110220AE0244E04
:101AE0002836B14206D0224A3C32914201D11A46F0
:101AF00000E02A461E49091F0A602BE0B94213D0B4
:101B0000614517D0494522D051451DD059451DD0BA
:101B1000714501D142461AE0B14202D14FF08072C4
:101B200015E0134EB14201D1012210E0104E1436DF
:101B3000B14201D110220AE00D4E2836B14206D042
:101B40000B4A3C32914201D11A4600E02A4607492D
:101B500080394A60012180F82110002180F820108E
:101B6000416B01B188472046BDE8F09F80000240EC
:101B7000080402402DE9F05FC16B0A6801680B6838
:101B8000046C4FF0040808FA04F8844D844E854F25
:101B9000DFF814C2DFF81492DFF814A2DFF814B2F1
:101BA000DFF814E218EA020F65D05FEA437862D5E5
:101BB0000A68920603D40A6822F004020A60DFF879
:101BC000F0814FF48062016808F1140813011402D7
:101BD000414524D9A9420DD0B1420FD0B9421AD003
:101BE000614515D0494515D0514501D1120312E088
:101BF000594501D104220EE0714501D140220AE08D
:101C00006D4D1435A94206D06B4A2832914201D15C
:101C10001A4600E022466749091F0A6029E0A942E6
:101C200013D0B14215D0B94220D061451BD04945EF
:101C30001BD0514502D14FF4800217E0414502D13B
:101C40004FF0806212E0594501D104220EE0714547
:101C500001D140220AE0584D1435A94206D0564A17
:101C60002832914201D11A4600E022464B490839F8
:101C70004A60C16A71E04FF0020808FA04F818EAF5
:101C8000020F70D05FEA83786DD50A68920606D499
:101C90000A6822F00A020A60012180F82110DFF8A8
:101CA00010814FF40072016808F114081301140246
:101CB000414524D9A9420DD0B1420FD0B9421AD022
:101CC000614515D0494515D0514501D1120312E0A7
:101CD000594501D102220EE0714501D120220AE0CE
:101CE000354D1435A94206D0334A2832914201D1EC
:101CF0001A4600E022462F49091F0A6029E0A9423E
:101D000013D0B14215D0B94220D061451BD049450E
:101D10001BD0514502D14FF4001217E0414502D1CA
:101D20004FF0007212E0594501D102220EE07145D8
:101D300001D120220AE0204D1435A94206D01E4AC6
:101D40002832914201D11A4600E02246134908394F
:101D50004A60002180F82010816A00291CD0BDE86B
:101D6000F05F0847FFE70825A540154214D01A0781
:101D700012D50A6822F00E020A6090F84020C36B68
:101D8000012101FA02F25A60816380F821100021DA
:101D900080F82010016BE0E7BDE8F09F08000240EA
:101DA0001C00024030000240440002405800024043
:101DB0006C000240080402401C04024030B560B1CF
:101DC0001A4B026814219A4209D2194B1344B3FBEF
:101DD000F1F18900016417490AE0012030BD134B7D
:101DE0005B421344B3FBF1F1890001640F490839E8
:101DF000C163022180F82110136843F6F0718B4310
:101E0000F0E901142143D0E902452C432143046940
:101E1000214344692143846921431943116000210E
:101E20004163012242770177084630BD0804024031
:101E3000F8FFFDBF0000024070B5044690F8200096
:101E4000002501280CD0012084F8200094F821609E
:101E50000020012E06D084F820000225284670BDFF
:101E6000022070BD022684F82160A0632068066805
:101E700026F0010606602046FFF7BCF9E06A00285C
:101E80002068016802D041F00E0106E021F0040153
:101E900001602068016841F00A0101602068016862
:101EA00041F001010160D9E770B5044600F082F904
:101EB0000546601C02D004480078044400F07AF91A
:101EC000401BA042FAD370BD50000020F8B5244C4E
:101ED0000146C207214EB4F900004FF0000508D0BA
:101EE0003E3000B24FF49B612080884209DB2180A4
:101EF00007E0890414D53E3800B22080002800DCB9
:101F0000258010211748FFF75BFD0123144A10219B
:101F100014480095FFF7EEFC0421304600F03CF930
:101F2000B4F9001010A001F09FFAB4F90000FEF718
:101F3000C1FE4FF06632104BFEF7B6FD6FF00B029C
:101F4000FEF793FEFEF732FFFEF705FF01B00246F3
:101F5000BDE8F0400B4609A001F086BA0010014030
:101F60004C000020DC1000204441435F7365743A4C
:101F70002025640A0000000066660A40566F6C3A2D
:101F800020256620560A0000044910B50A6802425E
:101F900002D00860FFF79AFF10BD00001404014052
:101FA0002DE9F84FDFF8C8910024A9F1040B23466E
:101FB0000F2709F1040AABF1040ED1E00125A54079
:101FC00006EA0502AA4276D1DFF8A8C14E68A6EB60
:101FD0000C0866452BD00DDC032E34D005DC36B35F
:101FE000012E19D0022E2FD11BE0112E16D0122E49
:101FF0002AD119E0B8F5881F19D006DCB8F5803F62
:1020000015D0B8F5801F1FD111E0B8F5001F0ED014
:10201000B8F5041F18D10AE0CB6815E0CB681B1D8A
:1020200012E0CB6808330FE0CB680C330CE08B6810
:102030002BB1012B4FF0080303D0456104E00423CA
:1020400002E0056100E00023FF2A01D8064601E016
:1020500000F104064FEA840501D9A5F12005D6F860
:10206000008007FA05FC28EA0C0803FA05F548EA9F
:102070000508C6F800804D68ED0070D53E4DAE698C
:1020800046F00106AE61AD6924F0030605F00105D6
:1020900000953A4D06EB050CDCF80850A607360F04
:1020A00007FA06F825EA0805DFF8D480404503D191
:1020B0004FF0000825E052E0DFF8C880404502D12B
:1020C0004FF001081DE0DFF8C080404502D14FF01D
:1020D000020816E0DFF8B480404502D14FF0030853
:1020E0000FE0DFF8AC80404502D14FF0040808E073
:1020F000DFF8A080404502D14FF0050801E04FF025
:10210000060808FA06F848EA0508CCF808804D6881
:10211000D9F80060ED024D4601D5164300E0964324
:102120002E604D68DAF80060AD02554601D51643C1
:1021300000E096432E604D68DBF80060AD035D461D
:1021400001D5164300E096432E604D68DEF800602E
:10215000ED03754601D5164300E096432E60641CDE
:102160000A681646E2407FF429AFBDE8F88F000008
:10217000080401400000111000100240000001405E
:1021800000080140000C0140001001400014014013
:1021900000180140001C0140C26821EA02030A4005
:1021A00043EA0241016170470AB1016170470904C5
:1021B000FBE70000014880687047000050000020E5
:1021C0000248816802781144816070475000002005
:1021D000074810B5016841F010010160032000F0CC
:1021E0006DF80F2000F006F800F024F8002010BD74
:1021F0000020024070B50D4D04464FF47A712878E6
:10220000B1FBF0F00A490968B1FBF0F000F0A6FB61
:1022100048B9102C07D200222146501E00F02EF89B
:1022200000206C6070BD012070BD000050000020D7
:102230005C000020094808B5816941F00101816115
:10224000816901F001010091C16941F08051C161D2
:10225000C06900F08050009008BD000000100240EE
:10226000002809DB00F01F02012191404009800095
:1022700000F1E020C0F8001170470000F0B40E4BF0
:102280001B680C46C3F30223C3F10705042D00D9D4
:102290000425191D072901D2002300E0DB1E0126B9
:1022A00006FA05F1491E214099409E40761E1640CF
:1022B0003143F0BC01F0FCB80CED00E0064900F041
:1022C000070208684FF6FF03184040EA0220034A5D
:1022D00010430860704700000CED00E00000FA05B4
:1022E00010B501460020284C04292FD00BDC012911
:1022F00030D0022929D100F06BF96168C1F3813136
:10230000491C49001FE0082920D010291DD161680F
:102310002268D20119D51D48C1F38342C903805CEC
:102320000AD56168194AC1F34041921E515C184AAE
:10233000B2FBF1F1484301E01649484361684902A4
:1023400003D440000321B0FBF1F010BDBDE8104004
:1023500000F04EB9226AC2F30121012903D192078C
:1023600001D5C80310BD022905D1626A920702D5C2
:1023700049F6404010BD0329FCD121688903F9D5F5
:102380004FF2244010BD00000010024088460008B3
:1023900000127A0000093D002DE9F8430546007857
:1023A000354CC00754D0E0690026C00008D4E0696D
:1023B00040F08050E061E069012600F0805000901C
:1023C0002E480168C90512D40168804641F4807125
:1023D0000160FFF7EFFE074605E000BFFFF7EAFEEA
:1023E000C01B642823D8D8F80000C005F6D5206AA1
:1023F00010F4407021D0A98801F4407181421CD0B2
:10240000206A1F49012220F440700A6000220A60FD
:102410002062C00711D0FFF7CDFE074641F2883891
:1024200008E000BFFFF7C6FEC11B414502D90320EB
:10243000BDE8F883206A8007F4D5206A696820F433
:102440004070084320621EB1E06920F08050E061D6
:102450002878800705D56068A96820F440400843C3
:1024600060602878C00605D56068696920F480003E
:10247000084360600020DBE700100240007000406D
:10248000400442422DE9F0470F46050061D0434E1B
:10249000306800F00700B84209D2306820F0070029
:1024A00038433060306800F00700B84251D12868E6
:1024B0003B4C810712D5400703D5606840F4E060CB
:1024C00060602878000703D5606840F46050606061
:1024D0006068A96820F0F000084360602878C007B1
:1024E00028D06868012810D02168022810D08907F8
:1024F00000292EDA616821F0030101436160FFF7D2
:1025000059FE804641F288390DE021688903EFE7E2
:102510008901EDE7FFF74EFEA0EB0801494502D91E
:102520000320BDE8F0876068696800F00C00B0EB3C
:10253000810FEFD1306800F00700B8420BD9306846
:1025400020F0070038433060306800F00700B842E0
:1025500001D00120E5E72878400705D56068E968E3
:1025600020F4E060084360602878000706D56068C2
:10257000296920F4605040EAC100606000F038F83A
:102580006168084AC1F30311515CC84006490860FC
:1025900006480068FFF72EFE0020C2E70020024038
:1025A00000100240984600085C0000205400002003
:1025B0000448054900684968044AC1F30221515C96
:1025C000C84070475C00002000100240A846000888
:1025D0000448054900684968044AC1F3C221515CB6
:1025E000C84070475C00002000100240A846000868
:1025F0000E4A51680E4801F00C03042B11D0082B31
:102600000FD10C48C1F38343C903C05C0AD551689C
:10261000084AC1F34041921E515C054A5043B0FB49
:10262000F1F0704704494843704700000010024031
:1026300000127A007646000800093D002DE9F84FA7
:10264000040070D02078C04DC00749D06868C0F33E
:102650008100012807D06868C0F38100022809D1F1
:102660006868C00306D52868800339D560680028EB
:10267000E7D035E06068B0F5803F0BD010B1B0F521
:10268000A02F11D0286820F480302860286820F41A
:10269000802002E0286840F480302860606890B1B3
:1026A000FFF788FD06460AE0286840F4802028608D
:1026B000F0E700BFFFF77EFD801B642873D8286811
:1026C0008003F7D50CE0FFF775FD064605E000BF77
:1026D000FFF770FD801B6428F0D828688003F7D4CA
:1026E00020789A4E80074FF001094FF0000839D545
:1026F000686810F00C0F07D06868C0F381000228EA
:1027000009D16868C00306D42868800714D52069F9
:10271000012808D110E02069B0B1C6F80090FFF799
:1027200049FD074605E00AE1FFF744FDC01B02280A
:10273000C4D828688007F7D52868616920F0F800B8
:1027400040EAC10028600DE0C6F80080FFF732FDC6
:10275000074604E0FFF72EFDC01B022823D8286897
:102760008007F7D4207800072CD57948A169D9B122
:10277000C0F80090FFF71EFD074604E0FFF71AFDC2
:10278000C01B02280FD8686A8007F7D571484FF43C
:10279000FA510068B0FBF1F0009000BF0098411EB4
:1027A0000091FAD20EE080E0C0F80080FFF702FD51
:1027B000074604E0FFF7FEFCC01B022875D8686AD4
:1027C0008007F7D42078400760D5E8690027C0006B
:1027D00008D4E86940F08050E861E869012700F01A
:1027E000805000905C480168C90513D40168834695
:1027F00041F480710160FFF7DDFC824606E000BF16
:10280000FFF7D8FCA0EB0A0064284ED8DBF80000E4
:10281000C005F5D5E06801280AD008B1052813D015
:10282000286A20F001002862286A20F0040002E0F3
:10283000286A40F001002862E06841F2883B98B1C4
:10284000FFF7B8FC82460BE0286A40F004002862DB
:10285000EEE700BFFFF7AEFCA0EB0A0159455AD8DE
:10286000286A8007F6D50CE0FFF7A4FC824605E055
:10287000FFF7A0FCA0EB0A0159454CD8286A800755
:10288000F6D41FB1E86920F08050E861E06988B3B0
:102890006968C1F38101022944D00228C6F860802A
:1028A00004D0FFF787FC044638E034E0FFF782FCF1
:1028B000074604E0FFF77EFCC01B02282BD82868DF
:1028C0008001F7D4206AB0F5803F05D16868A1681F
:1028D00020F4003008436860D4E9080108436968BF
:1028E00021F4741108436860C6F86090FFF762FC39
:1028F000044606E025E000BFFFF75CFC001B022851
:1029000009D828688001F7D51BE000BFFFF752FC0B
:10291000001B022802D90320BDE8F88F2868800137
:10292000F4D40EE00128F7D06868226A00F4803100
:10293000914204D1616A00F47010884201D00120F4
:10294000EAE70020E8E700000010024000004242F1
:10295000800442425C0000200070004010B5401E20
:10296000B0F1807F01D3012010BD4FF0E024606101
:102970000F21601700F09CFD0020A061072020615E
:10298000002010BD70B590F83C20012A2CD0012405
:1029900080F83C40022280F83D2003685A689D6818
:1029A00022F070060A6832435A60104B02689A425D
:1029B0000ED00F4B9A420BD0B2F1804F08D00D4B86
:1029C0009A4205D00C4B9A4202D00C4B9A4204D149
:1029D000496825F080031943916080F83D4000214B
:1029E00080F83C10084670BD022070BD002C0140EC
:1029F000003401400004004000080040000C00408A
:102A000010B5040003D094F83D0010B107E0012098
:102A100010BD002084F83C00204600F01FF8022082
:102A200084F83D00211D206800F0A8FB012084F8F7
:102A3000460084F83E0084F83F0084F8400084F8A3
:102A4000410084F8420084F8430084F8440084F88C
:102A5000450084F83D00002010BD000008B5006866
:102A60000649884208D10648C16941F01001C16198
:102A7000C06900F01000009008BD00000010004088
:102A80000010024090F83D10012901D0012070474C
:102A9000022180F83D1000680E4988420ED00E4990
:102AA00088420BD0B0F1804F08D00C49884205D045
:102AB0000B49884202D00B49884204D1816801F059
:102AC0000701062903D0016841F0010101600020DF
:102AD00070470000002C0140003401400004004019
:102AE00000080040000C004070477047F8B50168CE
:102AF00004460868CA684B6910F00F0F4FF00005D4
:102B000059D003F0010602F49077374365D0C1072E
:102B100005D0D10503D5616C41F001016164410725
:102B200005D5D90703D0616C41F0020161648107CA
:102B300005D5D90703D0616C41F004016164010738
:102B400007D502F02001314303D0616C41F0080148
:102B50006164616C00293AD0800604D5900602D5E4
:102B6000204600F080FB20684069616CC0F3801053
:102B7000090700D460B3204600F04EFB206840698E
:102B8000400621D52068143050E8001F21F0400194
:102B900040E80012002AF5D1E06BA8B16D4941630D
:102BA000E06BFEF74FFF002811D0E06B416B01B0E6
:102BB000BDE8F040084783060FD593060DD52046A3
:102BC000BDE8F84000F04FBB2046FFF78EFFF8BD90
:102BD0002046FFF78AFF6564F8BD266B2023012E8F
:102BE0007CD1C6067AD5D60678D5086848680090A4
:102BF00048694FF00206400640D5E16B086840681E
:102C00000004000CE8D0A28D8242E5D9E0858869F5
:102C100020282DD020680C3050E8001F21F480714E
:102C200040E80012002AF5D12068143050E8001F57
:102C300021F0010140E80012002AF5D1206814308B
:102C400050E8001F21F0400140E80012002AF5D1B1
:102C500084F84230256320680C3050E8001F21F0D2
:102C6000100140E80012002AF5D1E06BFEF7C7FE24
:102C70006663A08DE18D401A81B22AE0A08DE18DBE
:102C8000401A81B2E08D0028A6D00029A4D0226885
:102C90000C3252E8000F20F4907042E80007002F39
:102CA000F5D12068143050E8002F22F0010240E8EE
:102CB0000027002FF5D184F84230256320680C30BE
:102CC00050E8002F22F0100240E80023002BF5D13D
:102CD00066632046FFF708FFF8BDFFE705062BD522
:102CE000150629D594F841002128F5D1A068B0F542
:102CF000805F01D12069B0B1206A411C2162216846
:102D000000784860E08C401E0004000CE084E3D1B1
:102D10002068C16821F08001C1602068C16841F06D
:102D20004001C160D8E7206A0088C0F3080048600D
:102D3000206A801C2062E5E74006CDD55006CBD541
:102D4000CA68204622F04002CA6084F8413000F090
:102D5000C3F8C1E70932000870B5040004D094F844
:102D60004100002510B106E0012070BD84F84050FC
:102D7000204600F023F8242084F841002068C16830
:102D800021F40051C160204600F0CEFA20680169AC
:102D900021F4904101612068416921F02A014161DB
:102DA0002068C16841F40051C1606564202084F846
:102DB000410084F842006563002070BD30B585B0E5
:102DC00000240094019402940394006818498842F6
:102DD0002CD11848816941F480418161816901F4F5
:102DE00080410491816941F0040181618069124D43
:102DF00000F0040004904FF4007000900220019055
:102E00000320039069462846FFF7CAF82815CDE944
:102E10000004694628460294FFF7C2F800221146D2
:102E20002520FFF72BFA2520FFF71AFA05B030BD51
:102E300000380140001002400008014070472DE9B1
:102E4000F843044690F841001F4616460D462028D8
:102E500002D00220BDE8F8837DB176B10020606425
:102E6000212084F84100FFF7A5F9A6848046E68476
:102E7000A068B0F5805F02D003E00120EAE7206996
:102E800010B12E4600250EE000260CE080212046E1
:102E900000F0A6FAA0B9AEB116F8010B216848609F
:102EA000E08C401EE084E08C43464FF00002009727
:102EB0000028EBD14FF04001204600F091FA30B1EC
:102EC0000320C7E735F8020BC0F30800E6E720202F
:102ED00084F841000020BDE77047FEE73EB50021C1
:102EE000124800910191104A029102600124816010
:102EF000047301754FF460220461C2614160FEF702
:102F000011FB08B1FEF793F90220CDE90004072078
:102F1000029069460548FEF783FA08B1FEF787F983
:102F20000248FEF711FA3EBD00240140681000205F
:102F30001CB500200D49009001900B480860084620
:102F4000FEF77BFC08B1FEF772F904200090022026
:102F50000190102269460548FEF745FC002801D083
:102F6000FEF765F91CBD000000740040DC10002075
:102F7000114808B5416941F002014161416901F020
:102F800002010091416941F0010141614069002263
:102F900000F00100009011460B20FFF76FF90B20A5
:102FA000FFF75EF9002211463B20FFF767F9BDE805
:102FB00008403B20FFF754B900100240F0B585B03F
:102FC000002428480094019402940394816941F0FC
:102FD00010018161816901F010010491816941F062
:102FE00020018161816901F020010491816941F032
:102FF0000401816180691C4F00F0040004900022EC
:103000000C213846FFF7D0F8184E7814CDE90006A9
:10301000694602943846FEF7C3FF0C200125CDE92E
:1030200000050320CDE9025069463846FEF7B8FF97
:103030000095CDE9016469460D48FEF7B1FF002215
:1030400011460620FFF71AF90620FFF709F90022BA
:1030500011462820FFF712F92820FFF701F905B0E3
:10306000F0BD0000001002400010014000001110EF
:10307000000801401CB500240F4800940D4901943C
:1030800001604721C0E9011440F2E731C1608021AD
:103090008161FFF7B5FC08B1FEF7C9F82020CDE942
:1030A000000469460448FFF76DFC002801D0FEF7D4
:1030B000BEF81CBD00100040341100200C4810B5B3
:1030C0000A4901604FF4E1314160002181600C2226
:1030D000C160C0E904128161C161FFF73DFE0028B3
:1030E00003D0BDE81040FEF7A2B810BD0038014083
:1030F0007C110020FEE7FEE770477047FFF760B8DD
:1031000030B595B028216846FDF786FB14210AA842
:10311000FDF782FB18210FA8FDF77EFB01210804B3
:10312000CDE900100025029502240491CDE9074065
:103130004FF4E01009906846FFF780FA08B172B6C4
:10314000FEE70AA90F2081E831004FF48060CDE945
:103150000D0502210AA8FFF795F908B172B6FEE73E
:103160004FF4004011900F940FA8FFF715F90028B5
:1031700001D072B6FEE715B030BD7047F0B50268F9
:103180001C4B1D4D1D4E1E4F1E4C4FF0804C984247
:1031900009D0A04207D0604505D0A84203D0B04274
:1031A00001D0B84204D122F0700E4A6842EA0E0201
:1031B000984209D0A04207D0604505D0A84203D06C
:1031C000B04201D0B84203D122F44075CA682A4304
:1031D0004D6922F080022A4302608A68C2620A684E
:1031E0008262984201D0A04201D1096901630121A4
:1031F0004161F0BD002C0140000400400008004087
:10320000000C00400034014010B5406A0021C18527
:10321000C184FFF76AFC10BD01680C3151E8002F32
:1032200022F4907241E80023002BF5D1016814319B
:1032300051E8002F22F0010241E80023002BF5D1D4
:10324000016B012909D101680C3151E8002F22F0EE
:10325000100241E80023002BF5D1202180F8421014
:1032600000210163704708B590F84210222901D06F
:10327000022008BD82684FF480539A4201D101694F
:1032800021B1816A9A421BD04AB10AE00268816A80
:103290005268C2F308020A80816A891C08E0026948
:1032A00072B10268526802F07F020A70816A491C9A
:1032B0008162C18D491E0904090CC18503D01BE040
:1032C00002685268F1E70168CA6822F02002CA6009
:1032D0000168CA6822F48072CA6001684A6922F0F3
:1032E00001024A61202180F8421000214163026BF3
:1032F000012A03D0FFF7A2FD002008BD0163016889
:103300000C3151E8002F22F0100241E80023002B7D
:10331000F5D101680A68D20602D50A6849680091A9
:10332000818DFFF7E1FBE7E770B5044600680169AE
:10333000E26821F44051114301612169A06808430A
:10334000616908432168CA6841F20C639A430243E9
:10335000CA6020684169A26921F44071114341614A
:103360001E492068884202D1FFF732F901E0FFF7D9
:103370001FF900EBC00101EB0012606864218000BE
:10338000B2FBF0F3B3FBF1F36FF018067343B2FB3B
:10339000F0F5B2FBF0F605EB8305322303EB0515E0
:1033A000B5FBF1F5B6FBF1F605F0F00505EB0615FA
:1033B000B2FBF0F6B2FBF0F0B0FBF1F06FF01802E8
:1033C000504306EB800003EB0010B0FBF1F02168E6
:1033D00000F00F002844886070BD000000380140F4
:1033E0002DE9F041984617460E460446069D27E013
:1033F000681C25D02DB1FEF7DDFEA0EB0800A84229
:103400001ED920680C3050E8001F21F4D07140E82C
:103410000012002AF5D12068143050E8001F21F076
:10342000010140E80012002AF5D1202084F8410073
:1034300084F84200002084F840000320BDE8F081B9
:103440002068006836EA000004D00020B842CFD0DF
:103450000020F3E70120F9E70148FFF747BB000030
:103460007C110020FEE700000FB4054B10B503A946
:10347000044A029800F024FC10BC5DF814FB000024
:10348000F143000860000020490050EAC12018BF45
:1034900004204A0D18BF40F0010040F2FF72B2EB69
:1034A000515F08BF40F00200012808BF05207047A7
:1034B0000907090E002804DB00F1E02080F8001461
:1034C000704700F00F0000F1E02080F8141D7047F5
:1034D0002DE9F74F144694B00021C4E90211159963
:1034E000079121F00045C9498D4206DC1599C4E9D0
:1034F000000117B00020BDE8F08FC549DFF814A324
:10350000A9423CDD0799C44E0029C44FC44A15990D
:10351000534619DDFDF7C2FA554506D0C14AC24BE4
:10352000FDF7BCFAC4E900010AE04FF0D352BE4BEC
:10353000FDF7B4FA32463B46FDF7B0FAC4E90001A4
:1035400017B00120BDE8F08FFDF707FA554506D00A
:10355000B44AB54BFDF701FAC4E900010AE04FF0A7
:10356000D352B14BFDF7F9F932463B46FDF7F5F979
:10357000C4E9000117B04FF0FF30BDE8F08FAB4950
:10358000A942159978DB21F0004183468846A84A74
:10359000A84BFDF789FA0022A74BFDF7DEF9FDF7EE
:1035A000BBFB0990FDF786FB06460F469C4A534637
:1035B000FDF77AFA43465A46FDF773FA80468A4683
:1035C000984A994B30463946FDF76EFA2A0D012587
:1035D0000B9242465346FDF764FA032DC4E90001FD
:1035E00039D00B98C1F30A51401A05EB4511113936
:1035F000814230DA9148C346784400EB0510CDF89B
:103600000CA00C90D0E9002330463946FDF74CFA67
:1036100002460B460491069058460399FDF73EFA80
:1036200080468A4602460B4658460399FDF736FA0D
:10363000049B069AFDF732FA83460C9803913946AB
:10364000D0E902233046FDF72FFA5A46039BFDF7D7
:1036500025FA6D1CBDE707980028A2BF099817B08E
:10366000BDE8F08F616881F000416160099817B092
:103670004042BDE8F08FFFE784461598C1F313017F
:10368000C0F30A50A0F2F5304FEA601800F01F06B0
:10369000C6F12000139000200690079041F4801E90
:1036A00005206D4676B1664A08EB00017A4452F86F
:1036B000213002EB8101B3404A68139922FA01F1EB
:1036C000194305E05F4908EB0002794451F82210E4
:1036D000A1FB0E27A1FB0C131A449A4234BF01230D
:1036E000002303EB070A05EB8003D3E901B70F447E
:1036F0008F4234BF0121002193448B4411B1934583
:1037000002D903E0934501D2012100E00021C3E981
:1037100001B7514445F82010011EA0F10100C1DCA1
:103720000298059F00F10050800F12900298DDE989
:1037300003568000FDF7BEFA834628460D91FDF73B
:10374000CAFA6FF01D02FDF790FACDE90E0130467E
:10375000FDF7C1FA6FF03D02FDF787FA80468A4611
:103760003846FDF7B8FA6FF05D02FDF77EFA0746BE
:10377000424653461191FDF7F0F8DDE90E23FDF7BF
:10378000ECF85A460D9BFDF7E8F800250E465A4620
:1037900028460D9BFDF782F9DDE90E23FDF77EF942
:1037A00042465346FDF77AF93A46119BFDF779F9FF
:1037B000DFF898A0244A5346FDF776F90746884675
:1037C000234A244B31462846FDF76EF93A464346D4
:1037D000FDF7C3F8074688464FF0A84253463146E6
:1037E0002846FDF761F93A464346FDF7B6F8159AC3
:1037F00012F0004F04D0129A81F00041524212920E
:10380000C4E90001129817B0BDE8F08FFB21E93F31
:103810007CD90240FB21F93F7370032E8A19A33B28
:10382000000040543163621A61B4D03DFB2139413C
:1038300083C8C96D305FE43F0000E03FE410000042
:103840006010000042100000182D4454FB21F93D87
:103850003326A611460B113C2DE9FF4D21F00048FF
:1038600007460C46B8F1795F08DAFDF755FA0028EB
:1038700001BF0020324904B0BDE8F08D3A4623462E
:1038800010461946FDF710F9054602462D480E462A
:103890000B460621784400F05DF82A463346FDF7D2
:1038A00003F9DDE9022382468B4638462146FDF7BF
:1038B000FBF804460F4652465B4628463146FDF764
:1038C000F3F822463B46FDF7E9F807468A464FF0F3
:1038D000FF3228463146FDF7C8F91B4A90450ADAFF
:1038E0003A465346FDF7DAF804B00022BDE8F04D41
:1038F000134BFDF7D6B8154A4245A8BFA8F50015E9
:103900004FF00004B8BF124D22462B46FDF7C6F813
:103910000646884622462B4600200949FDF7BEF898
:1039200004460D463A46534630464146FDF7B6F842
:1039300004B022462B46BDE8F04DFDF7B2B80000BA
:103940000000F03F180E00003333D33F0000E93F82
:103950000000D23F2DE9F0414F1E00EBC7010446A5
:10396000D1E9000115461E4637F006020DD02A4661
:103970003346FDF799F87F1E04EBC703D3E9002314
:10398000FCF7EBFF37F00602F1D1022F25D0042F10
:1039900013D0062F18BFBDE8F0812A463346FDF745
:1039A00083F8D4E90A23FCF7D8FF2A463346FDF70B
:1039B0007BF8D4E90823FCF7D0FF2A463346FDF70D
:1039C00073F8D4E90623FCF7C8FF2A463346FDF70F
:1039D0006BF8D4E90423FCF7C0FF2A463346FDF711
:1039E00063F8D4E90223FCF7B8FF2A463346FDF713
:1039F0005BF8D4E90023BDE8F041FCF7AEBF00005E
:103A00002DE9FF4D054621F0004084B00C46B0F191
:103A1000795F0BDA2846FFF737FD042808BF00F06E
:103A20006FF8284608B02146BDE8F08D2A460B46BF
:103A30001046FDF739F806460F462A462346FDF79D
:103A400033F8804626488A4632463B46052178446C
:103A5000FFF780FF83461098029160B3214A224B02
:103A600040465146FDF720F8CDE900015A46404650
:103A70005146029BFDF718F882468846DDE90601AB
:103A80004FF0FF32FDF7F1F852464346FDF706F8D6
:103A900032463B46FDF708F8DDE90623FCF7FEFF5A
:103AA000DDE90023FCF7FAFF08B02A462346BDE80B
:103AB000F04DFCF7F6BF0B465A4630463946FCF748
:103AC000F3FF084A084BFCF748FF42465346FCF711
:103AD000EBFF08B02A462346BDE8F04DFCF73DBF9A
:103AE000560D0000495555555555C5BF0122FDF7E6
:103AF000BCB80022134610461146FDF747B8000037
:103B0000024A00201107FDF7B0B8000001FDFFFFD9
:103B100002E008C8121F08C1002AFAD17047704796
:103B2000002001E001C1121F002AFBD170470000F4
:103B30000149086070470000640000202DE9FF5F24
:103B400082B00021DDE90430020DDDF840B003430E
:103B500018D044F61050A2F2FF32424315141198C7
:103B600001281FD0A5EB0B00401C5FEA000A4FF0B4
:103B700000064E4FDFF83891B046504615D5CAF1D1
:103B8000000413E0119801244AA3012801D16FEA2F
:103B90000B010298119AC0E90031C0E9024206B057
:103BA000BDE8F09FCBF10000DFE704460021404A6A
:103BB000491842EB0450CDE9001012E0E00707D0AD
:103BC00032463B4640464946FCF76EFF80468946F2
:103BD00032463B4610461946FCF766FF06460F463E
:103BE0006410002CEAD1DDE90401DDE90023BAF11B
:103BF000000F06DAFCF758FF42464B46FCF754FF2D
:103C000005E0FCF7C3FF42464B46FCF7BFFF044606
:103C10000E460022284BFDF7B1F803D84FF0FF30D5
:103C2000014607E00022254B20463146FCF795FE71
:103C3000FDF7D3F9102409E0002C0ADB0A22002347
:103C4000FCF781FD039B30321A55641E50EA0102D5
:103C5000F2D1641C039AC4F111031444119A012A8D
:103C600003D0012208430DD10AE0084304D000200C
:103C70004FF0110B119072E7A3EB0B056D1E0DE0D9
:103C80005B4504DD4FF0000205F1010504E003DAB5
:103C90004FF00002A5F10105002AECD0029811991D
:103CA000C0E90231C0E9004579E700000000144096
:103CB0000000F03F300000000000F0430000E03F53
:103CC0002DE9FF4F95B09B468946064600250FE239
:103CD000252877D100242746F84A0121059400E0E1
:103CE000044316F8013F203B01FA03F01042F7D1DC
:103CF00030782A2811D06FF02F033078A0F13002ED
:103D0000092A16D8059A44F0020402EB820203EB5A
:103D100042021044761C0590EFE759F8042B0592F7
:103D2000002A03DA504244F40054059044F002049F
:103D3000761C30782E2816D116F8010F44F00404B2
:103D40002A280DD06FF02F023078A0F13003092B14
:103D500009D807EB870302EB4303C718761CF3E788
:103D600059F8047B761C30786C280FD006DC4C2880
:103D700017D068280DD06A2814D104E0742810D018
:103D80007A280FD10DE044F400140AE044F48014C2
:103D900001E044F440147278824202D104F58014A8
:103DA000761C761C307866280BD013DC582877D028
:103DB00009DC002875D04528F6D04628F4D04728DD
:103DC0001AD19DE118E0632835D0642879D06528A0
:103DD00012D195E1702873D008DC6728F1D06928EA
:103DE0006FD06E280DD06F2806D1B5E073282CD087
:103DF000752875D0782874D05A46179990476D1C4D
:103E000075E1C4F30250022809D003280DD0D9F877
:103E1000001004280DD00D6009F1040967E1D9F8FC
:103E20000010EA17C1E90052F6E7D9F800100D803A
:103E3000F2E70D70F0E719F8041B8DF80010002070
:103E40008DF80100EA46012003E059F804AB4FF079
:103E5000FF3061074FF0000102D40DE008F10101CD
:103E60008846B9420FDA8045F8DB1AF808100029B5
:103E7000F4D108E008F1010188468142FADB1AF822
:103E800008100029F6D105985B46A0EB08072146EB
:103E90003846179A00F094FA284400EB080507E02A
:103EA0004DE029E10DE01AF8010B5A4617999047A9
:103EB000B8F10108F7D25B4621463846179A13E15C
:103EC00042E00A220092C4F302524FF0000A022A92
:103ED00008D059F804CB032A4FEAEC710AD00DE060
:103EE00029E02AE009F1070121F00702F2E802C106
:103EF000914609E00FFA8CFC4FEAEC71042A03D1D9
:103F00004FFA8CFC4FEAEC71002907DA0A460021CF
:103F1000DCF1000C61EB02012D2202E0220504D548
:103F20002B228DF80420012203E0E20701D0202299
:103F3000F7E7904659E00A2102E010220DE0102137
:103F40004FF0000A00910BE010224FF0000A44F0FD
:103F500004040827009203E008224FF0000A0092B0
:103F6000C4F30252022A05D059F804CB0021032AD7
:103F700008D009E009F1070121F00702F2E802C1C7
:103F8000914605E01FFA8CFC042A01D10CF0FF0CCD
:103F90004FF00008220728D5702806D0009B83F038
:103FA000100353EA0A0305D00EE040228DF80420E6
:103FB000012208E05CEA010206D030228DF80420DC
:103FC0008DF8050002229046009B83F0080353EA17
:103FD0000A030AD15CEA010201D1620705D5302249
:103FE0008DF804204FF001087F1E582804D034A01B
:103FF00003900EA802900DE036A0F9E75346604604
:10400000009AFCF7A0FB84460398825C0298401E4D
:10401000029002705CEA0100F0D1029806A9081A29
:1040200000F1200A600702D524F4803400E0012763
:10403000574502DDA7EB0A0000E0002000EB0A0173
:10404000009005984144401A0590E00306D45B4671
:104050002146179A059800F0B3F90544002706E0B9
:1040600001A85A46C05D179990476D1C7F1C4745B3
:10407000F6DBE0030CD55B462146179A059800F065
:104080009FF9054404E030205A46179990476D1C6B
:104090000099481E00900029F5DC08E0029802997A
:1040A0005A460078491C0291179990476D1CBAF145
:1040B0000001AAF1010AF1DC65E100000928010014
:1040C000303132333435363738396162636465668E
:1040D0000000000030313233343536373839414250
:1040E000434445460000000000F058F90544761CA2
:1040F000307800287FF4ECAD19B02846BDE8F08F89
:10410000620700D4062709F1070222F0070CFCE839
:104110000223E14603F000485FEA080C02D00FF2E8
:10412000702C0DE05FEA045C02D50FF2682C07E00A
:104130005FEAC47C02D00FF2602C01E0AFF2700C99
:104140004FF0FF3823F00043CDF850C065280CD065
:1041500006DC452809D046281DD047283DD13DE042
:10416000662818D067287ED138E00021112F01DBA6
:10417000112000E0781CCDE9000106A90EA8FFF788
:10418000DDFCDDE90F010E9A03910021009207F199
:10419000010A04914DE04FF000400097CDE9011075
:1041A00006A90EA8FFF7CAFCDDE90F0203920E9BD9
:1041B00011990022DDF80CA00093049211B9791C2A
:1041C00000EB010AB7EB0A0004D4C0F1FF3007F19D
:1041D000010A0490AAEB0700019044E0012F00DAE5
:1041E00001270021112F01DD112000E03846CDE923
:1041F000000106A90EA8FFF7A1FCDDE90F010E9A48
:104200000391002104910092BA4621070CD403992E
:10421000514500DA8A46BAF1010F05DD009AAAF18C
:104220000101515C302908D0B84202DA10F1040FC4
:1042300006DA0121CDE9011015E0AAF10101E9E753
:10424000002805DC049901440491AAEB000102E076
:10425000411C514500DD8A460499401A401C0190DA
:104260004FF000400290200704D40198504501DB34
:10427000CDF8048000208DF84F0002980DF14F0713
:10428000B0F1004F25D02B200E9002984FF002087D
:1042900000280CDA404202902D200E9007E00A21FF
:1042A0000298FCF79FFD3031029007F8011DB8F12C
:1042B0000001A8F10108F2DC02980028EFD1791E74
:1042C0000E980870307800F0200040F0450007F8A4
:1042D000020D12A8C01B00F107081498007800B165
:1042E000012000EB0A01019801EBE07105984144BF
:1042F000401A401E0590E00306D45B462146179AFB
:10430000059800F05DF805441498007818B15A46F5
:10431000179990476D1CE00324D55B462146179AF8
:10432000059800F04DF805441CE00498002807DBD0
:10433000DDE90301884203DD0098405C179901E044
:10434000179930205A469047049805F10105401C02
:1043500004900198401E019004D12E205A461799CE
:1043600090476D1CBAF10001AAF1010ADDDC05E0FD
:1043700017F8010B5A46179990476D1CB8F10001C8
:10438000A8F10108F4DC5B462146179A0598ABE6D4
:104390002D0000002B000000200000002DE9F0415E
:1043A000044600251E461746880404D405E0394615
:1043B0002020B0476D1C641EF9D52846BDE8F08169
:1043C0002DE9F041044600251E469046C80301D55C
:1043D000302700E02027880404D505E04146384610
:1043E000B0476D1C641EF9D52846BDE8F081000079
:1043F00013B50A23012269460248FEF720FD009802
:104400001CBD00007C11002008B5FDF7E1FEFEF7A1
:1044100077FEFEF7D3FDFEF7ABFDFEF789FDFEF755
:104420004DFEFEF727FEFEF759FD394C012204210F
:104430002046FDF7B9FE012208212046FDF7B4FE13
:104440003448FEF71FFB002000902023324A102141
:104450003248FDF74FFA012231493248FDF73AF967
:1044600031A0FFF701F835A0FEF7FEFF0A20FDF7A7
:104470001BFD394E354FDFF8D880DFF8D890002487
:10448000A6F580652046FCF715FC3A464346FCF746
:104490000BFB00F079F80B22FCF7E7FB00224B4600
:1044A000FCF75BFAFCF738FC45F82400000446F8FA
:1044B0002400641CFF2CE5DD28A0FEF7D5FF0024B6
:1044C000621C55F8241029A0FEF7CEFF641CFF2CB7
:1044D000F6DD21494FF4807201F58060FBF744FE60
:1044E000FCF7A8FE0E4D264C264F6FF00B064FF43E
:1044F0007A7828686060FCF7D8FB3146FCF721FA2F
:104500003946FCF7ECF920604046FDF7CDFCF0E7BA
:1045100000100140341100200C000020DC100020AD
:104520000800002068100020D5E2CAC7D2BBB8F648
:10453000464654CAB5D1E90D0A000000B3F5CABC1D
:10454000BBAFCDEAB3C90D0A00000000EC866D8B4D
:10455000321BD43F0000A04068080020CAE4C8EB2A
:10456000D0C5BAC5A3BA0D0A0000000025642028F2
:10457000696E707574203A2564290D0A00000000E8
:10458000000000203333534000B5254B21F000429A
:1045900087B09A4203DC0022134600922BE0214BA5
:1045A0009A4208D140B94FF00100FFF7C1FAFFF776
:1045B000A0FA07B000BD03DBFFF798FA07B000BD13
:1045C00002AAFEF785FF10F003014FF001000DD0A5
:1045D000012914D002291AD00DF1080C9CE80F0013
:1045E000FFF73AF907B081F0004100BD0DF1080C6A
:1045F00000909CE80F00FFF703FA07B000BD0DF133
:10460000080C9CE80F00FFF727F907B000BD0DF17B
:10461000080C00909CE80F00FFF7F2F9E2E70000B9
:10462000FB21E93F0000F07F2DE9F04106460F46EF
:10463000FCF782FC041E0D4618BF0120284320F021
:104640000040C0F17F6000F1E040C00F0ED0301C90
:1046500018BF0120384320F00040C0F17F6000F116
:10466000E040C00F04BF0120FFF762FA2046294650
:10467000BDE8F081010202030405060708090A0BE0
:104680000C0D0E0F101001020203040506070809A5
:104690000A0B0C0D0E0F10100000000000000000AF
:1046A00001020304060708090000000001020304D8
:1046B0004C5555555555A53F7751C1166CC156BF40
:1046C0009015CB19A001FA3EAD529C804F7E92BE50
:1046D000C4B1B4BD9EEE213ED43888BEE9FAA8BD6F
:1046E00000004054FB21F93F3163621A61B4D03DB0
:1046F0000000601A61B4D03D7370032E8A19A33B89
:104700000000002E8A19A33BC14920259A837B39DA
:1047100000000000000000006E83F9A22915444E3D
:10472000D15727FCC0DD34F5999562DB4190433CBD
:10473000AB6351FE61C5BBDE3A6E24B7E0D24D4299
:10474000EA2E49061C92D1091CEB1DFE3EA729B199
:10475000F53582E88444BB2E26709CE9417E5FB427
:1047600039D69139F43953838B5F849C3B28F9BD4A
:10477000FF97F81F0F9805DE8B112FEF1F6D0A5A58
:10478000CF7E366DB709CB27663F464F2DEA5F9E39
:10479000C7BA27757BF1E5EBF739073DEA92528AF4
:1047A000B15FFB6B085D8D1FA6F810111111813FE1
:1047B000D561C119A0012ABF7DFEB157E31DC73ED7
:1047C000EB9C2B8AE6E55ABE7CD5CF5A3AD9E53D1B
:1047D000F04700080000002068000000103B0008BF
:1047E000584800086800002060290000203B0008AD
:1047F00000000000000000000000000000089C090C
:10480000280B920CCC0DCA0E810FE80FFD0FBF0FC5
:104810002F0F540E360DE20B650ACF0831079B05AA
:104820001E04CA02AC01D1004100030018007F0041
:10483000360134026E03D804640600086C020000DE
:104840000100000010000000000000000024F4003F
:08485000000000000000000060
:0400000508000131BD
:00000001FF
