:020000040800F2
:1000000078070020CD010008371C0008691A000895
:10001000351C000869040008ED1E000800000000FF
:100020000000000000000000000000003B1C000871
:10003000D504000800000000391C0008591C000805
:10004000E7010008E7010008E7010008E7010008F0
:10005000E7010008E7010008E7010008E7010008E0
:10006000E7010008E7010008E7010008E7010008D0
:10007000E7010008E7010008E7010008E7010008C0
:10008000E7010008E7010008E7010008E7010008B0
:10009000E7010008E7010008E7010008E7010008A0
:1000A000E7010008E7010008E7010008E701000890
:1000B000E7010008E7010008E7010008E701000880
:1000C000E7010008E7010008E7010008E701000870
:1000D000E7010008E11E0008E7010008E701000849
:1000E000E7010008E7010008E7010008E701000850
:1000F000E7010008E7010008E7010008E701000840
:10010000E7010008E7010008E7010008E70100082F
:10011000E7010008E7010008D91C0008E701000812
:10012000E7010008E7010008E7010008E70100080F
:1001300000F002F800F03AF80AA090E8000C8244BF
:100140008344AAF10107DA4501D100F02FF8AFF29C
:10015000090EBAE80F0013F0010F18BFFB1A43F0A5
:1001600001031847C8200000E8200000103A24BF0F
:1001700078C878C1FAD8520724BF30C830C144BF0C
:1001800004680C607047000000230024002500264E
:10019000103A28BF78C1FBD8520728BF30C148BFEA
:1001A0000B6070471FB51FBD10B510BD00F08AF879
:1001B0001146FFF7F7FF01F0ABFE00F0A8F803B41B
:1001C000FFF7F2FF03BC00F0AFF8000009488047DA
:1001D00009480047FEE7FEE7FEE7FEE7FEE7FEE729
:1001E000FEE7FEE7FEE7FEE704480549054A064B41
:1001F00070470000D71C000831010008780100207A
:1002000078070020780300207803002010B5203AFA
:10021000C0F00B80B1E81850203AA0E81850B1E8BF
:100220001850A0E81850BFF4F5AF5FEA027C24BF75
:10023000B1E81850A0E8185044BF18C918C0BDE86C
:1002400010405FEA827C24BF51F8043B40F8043B35
:1002500008BF7047D20728BF31F8023B48BF11F8EA
:10026000012B28BF20F8023B48BF00F8012B704744
:100270004FF0000200B5134694469646203922BF3F
:10028000A0E80C50A0E80C50B1F12001BFF4F7AF8A
:10029000090728BFA0E80C5048BF0CC05DF804EB6C
:1002A000890028BF40F8042B08BF704748BF20F8DA
:1002B000022B11F0804F18BF00F8012B70477047D8
:1002C00070477047754600F02BF8AE46050069464A
:1002D000534620F00700854618B020B5FFF784FF8D
:1002E000BDE820404FF000064FF000074FF0000837
:1002F0004FF0000B21F00701AC46ACE8C009ACE8B8
:10030000C009ACE8C009ACE8C0098D46704710B51B
:100310000446AFF300802046BDE81040FFF74FBF12
:10032000004870471401002001491820ABBEFEE7C9
:10033000260002007047000070B50446006881681E
:10034000C943C9071CD1816821F00101816000F017
:10035000DDFC05460FE000BF00F0D8FC401B022882
:1003600009D9A06A40F01000A062E06A40F00100E4
:10037000E062012070BD20688068C043C007EBD0F8
:10038000002070BD10B50146406A826A12F0500F1D
:1003900005D0006A026BBDE8104008461047816A2C
:1003A00041F40071816201688968C1F34241072903
:1003B0000CD1017B51B9816A21F480718162816A1B
:1003C000C90403D4816A41F00101816200F086F919
:1003D00010BD10B5406A816A41F040018162C16A76
:1003E00041F00401C16200F07BF910BD10B5406A14
:1003F00000F075F910BD0000F8B50026044600961F
:1004000000688168C943C90728D0816841F00101AB
:100410008160134813490068B0FBF1F000E0401E12
:1004200000900028FBD100F071FC054611E000BFF0
:1004300000F06CFC401B02280BD9A06A40F01000B1
:10044000A062E06A40F00100E06284F824600120CC
:10045000F8BD20688068C043C007E9D10020F8BD1E
:100460002400002040420F00FEE730B590F84050D5
:100470000124AC40C56B6C60046863604368102B5A
:10048000036803D099600068C26030BD9A6000685C
:10049000C16030BD11B50D4CFF2006222070012037
:1004A0006070FE20A070F120E07004202071002018
:1004B00060712146684600F010F8204600F018F8F8
:1004C00003480178A1724078E07218BDE000002076
:1004D00014000020704772B6FEE703788B54114475
:1004E00043784B7082788A70C078C870704700007B
:1004F000084910B500220A704A70835C0C78521CBF
:1005000023440B704C78D2B223444B700A2AF4D3A4
:1005100010BD000014000020F8B500250446009529
:1005200090F82400012808D0012084F824002046F7
:10053000FFF702FF060002D04BE00220F8BDA06AE0
:1005400020F4885040F00200A062022000F074FC09
:1005500022490968B1FBF0F0400000E0401E009025
:100560000028FBD12046FFF747FF2068816841F053
:100570000801816000F0CAFB074604E000F0C6FBFA
:10058000C01B0A2811D8206880680007F6D42068AC
:10059000816841F00401816000F0B8FB07460EE07D
:1005A00000F0B4FBC01B0A2809D9A06A20F00200A1
:1005B00040F01000A06284F824500120F8BD2068AB
:1005C00080684007ECD4A06A20F0020040F00100EF
:1005D000A06284F824503046F8BD000024000020BA
:1005E000F8B50024009490F824202546012A12D062
:1005F000012280F824204A681F23072A0DD20668AA
:10060000776B521E02EB820293409F430B6893402C
:100610001F43776319E00220F8BD06680D2A0AD24D
:10062000376BD21F02EB820293409F430B689340CB
:100630001F43376309E0F76A0D3A02EB82029340E9
:100640009F430B6893401F43F7620A6807230668BD
:100650000A2A0AD3F7680A3A02EB420293409F4300
:100660008B6893401F43F76008E0376902EB420252
:1006700093409F438B6893401F4337610A68102A59
:1006800001D0112A20D1124B02689A4217D19368E7
:100690001B0219D4936843F400039360096810297E
:1006A00012D10C490C4A0968B1FBF2F101EB81014E
:1006B000490000E0491E00910029FBD104E0816A55
:1006C00041F020018162012480F824502046F8BDC9
:1006D000002401402400002040420F007047704772
:1006E000704700002DE9F04104004FF000057FD075
:1006F000A06A002628B9E66284F82460204600F04B
:1007000081F82046FFF718FEA16AC90600D420B17F
:10071000A06A40F01000A0626AE0A16A21F488514A
:1007200041F00201A162334923688B42E16904D19F
:10073000B1F5402F01D14FF40021277B4FF4807C8D
:1007400041EA470261680A43A168614508D001296E
:1007500006D0002194F814E0BEF1010F02D00AE0A7
:100760006146F7E7C7B1A76A47F02007A762E76AC3
:1007700047F00107E7625F6827F469470F435F604E
:10078000236899681C4F394011439960A1686145FD
:100790000BD0012909D00CE0DFF860E0A7690EEB6F
:1007A00047370F4347F40061E5E7218A0D05A5F5BA
:1007B00080152168CB6A23F470032B43CB62216838
:1007C00089680F4B1940914208D1E662A16A21F075
:1007D000020141F00101A162BDE8F081A06A20F0B0
:1007E000020040F01000A062E06A40F00100E06208
:1007F0000120F1E7003C0140FDF7E1FF00E0FFFFD1
:10080000FE0E1FFF00B585B00021009101910291FD
:10081000039100680E49884218D10E48816941F45D
:1008200000718161816901F400710491816941F075
:10083000040181618069694600F00400049004208D
:10084000009003200190044800F05EF905B000BD5F
:100850000024014000100240000801402DE9F0474B
:10086000894604463B4900683B4F0E1D904688422E
:1008700001D0B84207D1306810F4702F03D00125A1
:100880002846BDE8F08794F8240001280CD0012008
:1008900084F824002046FFF7AFFD05004FF000006C
:1008A00004D084F82400EBE70220EAE7A16A40F6CE
:1008B0000162914341F48071A1622168B94218D16B
:1008C000326812F4702F14D0A16A41F48011A16231
:1008D0003168490505D5A16A21F4005141F48051E0
:1008E000A162A16AC9040AD5E16A21F00601E162A8
:1008F00006E0A26A22F48012A2624968E9E7E06297
:1009000084F82400216A15488862216A1448C86264
:10091000216A1448086321686FF0020008602068AB
:10092000816841F480718160216843464A464C31B8
:10093000206A00F0B1F820688168C1F342410729BC
:10094000816803D041F48011816099E741F4A001EE
:10095000FAE7000000240140002801408503000858
:10096000ED030008D30300082DE9F05F90F8211093
:100970000024022903D004218163012485E0016859
:100980000A6822F00E020A6001680A6822F0010279
:100990000A603F4E3E4FB215DFF8F4C0DFF8F0902A
:1009A000DFF8ECA0DFF8E8B0DFF8E4E00168783FBA
:1009B00013011502ACF1640CA9F15009AAF13C0A2B
:1009C000ABF1280BAEF1140E4FF48018B14227D9C9
:1009D000B9420ED0614512D049451DD0514518D0BD
:1009E000594518D0714501D1424615E0294EB14212
:1009F00001D1012210E0274E1436B14201D110225C
:100A00000AE0244E2836B14206D0224A3C329142B6
:100A100001D11A4600E02A461E49091F0A602BE050
:100A2000B94213D0614517D0494522D051451DD058
:100A300059451DD0714501D142461AE0B14202D15B
:100A40004FF0807215E0134EB14201D1012210E047
:100A5000104E1436B14201D110220AE00D4E283654
:100A6000B14206D00B4A3C32914201D11A4600E015
:100A70002A46074980394A60012180F82110002167
:100A800080F82010416B01B188472046BDE8F09FF7
:100A9000800002400804024070B5044690F820002F
:100AA000002501280CD0012084F8200094F8216052
:100AB0000020012E06D084F820000225284670BDB3
:100AC000022070BD022684F82160A06320680668B9
:100AD00026F0010606602046FFF7C7FCE06A002802
:100AE0002068016802D041F00E0106E021F0040107
:100AF00001602068016841F00A0101602068016816
:100B000041F001010160D9E72DE9F84FDFF8C89104
:100B1000002409F1040A0AF1040B23460F270BF104
:100B2000040ED1E00125A54006EA0502AA4276D1CD
:100B3000DFF8A8C14E68A6EB0C0866452BD00DDC8B
:100B4000032E34D005DC36B3012E19D0022E2FD15E
:100B50001BE0112E16D0122E2AD119E0B8F5881FED
:100B600019D006DCB8F5803F15D0B8F5801F1FD12D
:100B700011E0B8F5001F0ED0B8F5041F18D10AE037
:100B8000CB6815E0CB681B1D12E0CB6808330FE083
:100B9000CB680C330CE08B682BB1012B4FF00803B2
:100BA00003D0456104E0042302E0056100E0002376
:100BB000FF2A01D8064601E000F104064FEA840549
:100BC00001D9A5F12005D6F8008007FA05FC28EA2E
:100BD0000C0803FA05F548EA0508C6F800804D68D8
:100BE000ED0070D53E4DAE6946F00106AE61AD69CF
:100BF00024F0030605F0010500953A4D06EB050CBF
:100C0000DCF80850A607360F07FA06F825EA0805AB
:100C1000DFF8D480404503D14FF0000825E052E0D2
:100C2000DFF8C880404502D14FF001081DE0DFF831
:100C3000C080404502D14FF0020816E0DFF8B480D2
:100C4000404502D14FF003080FE0DFF8AC8040458B
:100C500002D14FF0040808E0DFF8A080404502D13F
:100C60004FF0050801E04FF0060808FA06F848EAD8
:100C70000508CCF808804D68D9F80060ED034D46B2
:100C800001D5164300E096432E604D68DAF8006007
:100C9000AD03554601D5164300E096432E604D68DE
:100CA000DBF80060ED025D4601D5164300E0964397
:100CB0002E604D68DEF80060AD02754601D5164322
:100CC00000E096432E60641C0A681646E2407FF4FA
:100CD00029AFBDE8F88F00000004014000001110AA
:100CE000001002400000014000080140000C0140DB
:100CF000001001400014014000180140001C014098
:100D00000AB1016170470904FBE7000001488068EF
:100D100070470000180000200248816802781144E2
:100D20008160704718000020074810B5016841F045
:100D300010010160032000F06DF80F2000F006F8AC
:100D400000F024F8002010BD0020024070B50D4DC9
:100D500004464FF47A712878B1FBF0F00A4909682B
:100D6000B1FBF0F000F0C4FB48B9102C07D2002210
:100D70002146501E00F02EF800206C6070BD01204E
:100D800070BD00001800002024000020094808B5AC
:100D9000816941F001018161816901F001010091E6
:100DA000C16941F08051C161C06900F0805000907C
:100DB00008BD000000100240002809DB00F01F02FF
:100DC000012191404009800000F1E020C0F80011AD
:100DD00070470000F0B40E4B1B680C46C3F30223AF
:100DE000C3F10705042D00D90425191D072901D2D7
:100DF000002300E0DB1E012606FA05F1491E214012
:100E000099409E40761E16403143F0BC01F06FB809
:100E10000CED00E0064900F0070208684FF6FF03FA
:100E2000184040EA0220034A10430860704700005F
:100E30000CED00E00000FA0510B52CA401461DCC15
:100E400086B08DE81D002DA02D4C00680490002078
:100E500004292FD00BDC01292FD0022928D100F042
:100E600071F96168C1F38131491C49001EE008290C
:100E700020D010291CD161682268D20118D5C1F395
:100E80008342C9031DF8020009D5616804AAC1F3B1
:100E90004041515C1B4AB2FBF1F1484301E01A4961
:100EA00048436168490203D440000321B0FBF1F0DC
:100EB00006B010BD00F056F9FAE7226AC2F301212C
:100EC000012903D1920701D5C803F1E7022905D111
:100ED000626A920702D549F64040E9E70329E7D163
:100EE00021688903E4D54FF22440E1E702030405B9
:100EF000060708090A0B0C0D0E0F10100102000066
:100F00000010024000127A0000093D002DE9F8436C
:100F100005460078354CC00754D0E0690026C00073
:100F200008D4E06940F08050E061E069012600F0FB
:100F3000805000902E480168C90512D4016880468F
:100F400041F480710160FFF7E1FE074605E000BF54
:100F5000FFF7DCFEC01B642823D8D8F80000C005CA
:100F6000F6D5206A10F4407021D0A98801F44071B0
:100F700081421CD0206A1F49012220F440700A607F
:100F800000220A602062C00711D0FFF7BFFE0746AB
:100F900041F2883808E000BFFFF7B8FEC11B4145A9
:100FA00002D90320BDE8F883206A8007F4D5206ABF
:100FB000696820F44070084320621EB1E06920F0A7
:100FC0008050E0612878800705D56068A96820F422
:100FD0004040084360602878C00605D560686969AC
:100FE00020F48000084360600020DBE7001002402E
:100FF00000700040400442422DE9F0470F460500D2
:1010000061D0434E306800F00700B84209D2306822
:1010100020F0070038433060306800F00700B84225
:1010200051D128683B4C810712D5400703D5606831
:1010300040F4E06060602878000703D5606840F401
:10104000605060606068A96820F0F000084360604C
:101050002878C00728D06868012810D021680228A5
:1010600010D0890700292EDA616821F003010143BD
:101070006160FFF74BFE804641F288390DE0216840
:101080008903EFE78901EDE7FFF740FEA0EB0801D8
:10109000494502D90320BDE8F0876068696800F01F
:1010A0000C00B0EB810FEFD1306800F00700B842C0
:1010B0000BD9306820F0070038433060306800F00A
:1010C0000700B84201D00120E5E72878400705D5A0
:1010D0006068E96820F4E0600843606028780007F1
:1010E00006D56068296920F4605040EAC10060605C
:1010F00000F038F86168084AC1F30311515CC84038
:101100000649086006480068FFF720FE0020C2E795
:101110000020024000100240142200082400002099
:101120001C0000200448054900684968044AC1F3CE
:101130000221515CC840704724000020001002408A
:10114000242200080448054900684968044AC1F39C
:10115000C221515CC84070472400002000100240AA
:101160002422000812A185B00FC98DE80F0014A039
:10117000144A006804905168134801F00C03042BD2
:1011800010D0082B0ED1C1F38343C9031DF803000F
:101190000AD5516804AAC1F34041515C0A4A504340
:1011A000B0FBF1F005B0704708494843FAE700008A
:1011B00002030405060708090A0B0C0D0E0F101098
:1011C000010200000010024000127A0000093D00F8
:1011D0002DE9F84F040070D02078C04DC00749D0E9
:1011E0006868C0F38100012807D06868C0F38100F7
:1011F000022809D16868C00306D52868800339D55C
:1012000060680028E7D035E06068B0F5803F0BD01B
:1012100010B1B0F5A02F11D0286820F480302860DC
:10122000286820F4802002E0286840F4803028609C
:10123000606890B1FFF76AFD06460AE0286840F44E
:1012400080202860F0E700BFFFF760FD801B642866
:1012500073D828688003F7D50CE0FFF757FD0646E2
:1012600005E000BFFFF752FD801B6428F0D8286816
:101270008003F7D420789A4E80074FF001094FF091
:10128000000839D5686810F00C0F07D06868C0F303
:101290008100022809D16868C00306D42868800745
:1012A00014D52069012808D110E02069B0B1C6F832
:1012B0000090FFF72BFD074605E00AE1FFF726FD4A
:1012C000C01B0228C4D828688007F7D52868616940
:1012D00020F0F80040EAC10028600DE0C6F8008068
:1012E000FFF714FD074604E0FFF710FDC01B0228BE
:1012F00023D828688007F7D4207800072CD57948B0
:10130000A169D9B1C0F80090FFF700FD074604E0DD
:10131000FFF7FCFCC01B02280FD8686A8007F7D5CE
:1013200071484FF4FA510068B0FBF1F0009000BF33
:101330000098411E0091FAD20EE080E0C0F80080D3
:10134000FFF7E4FC074604E0FFF7E0FCC01B0228BF
:1013500075D8686A8007F7D42078400760D5E869B7
:101360000027C00008D4E86940F08050E861E869CF
:10137000012700F0805000905C480168C90513D433
:101380000168834641F480710160FFF7BFFC82462B
:1013900006E000BFFFF7BAFCA0EB0A0064284ED8B5
:1013A000DBF80000C005F5D5E06801280AD008B1D7
:1013B000052813D0286A20F001002862286A20F04E
:1013C000040002E0286A40F001002862E06841F26F
:1013D000883B98B1FFF79AFC82460BE0286A40F000
:1013E00004002862EEE700BFFFF790FCA0EB0A01C3
:1013F00059455AD8286A8007F6D50CE0FFF786FCD5
:10140000824605E0FFF782FCA0EB0A0159454CD863
:10141000286A8007F6D41FB1E86920F08050E8619F
:10142000E06988B36968C1F38101022944D00228C8
:10143000C6F8608004D0FFF769FC044638E034E069
:10144000FFF764FC074604E0FFF760FCC01B0228BE
:101450002BD828688001F7D4206AB0F5803F05D1E9
:101460006868A16820F4003008436860D4E9080186
:101470000843696821F4741108436860C6F86090F5
:10148000FFF744FC044606E025E000BFFFF73EFC02
:10149000001B022809D828688001F7D51BE000BF8F
:1014A000FFF734FC001B022802D90320BDE8F88FA7
:1014B00028688001F4D40EE00128F7D06868226A19
:1014C00000F48031914204D1616A00F470108842C6
:1014D00001D00120EAE70020E8E700000010024008
:1014E000000042428004424224000020007000407C
:1014F00010B5401EB0F1807F01D3012010BD4FF028
:10150000E02460610F21601700F0F1FC0020A06171
:1015100007202061002010BD7047704770B590F81B
:101520003C20012A2CD0012480F83C40022280F883
:101530003D2003685A689D6822F070060A683243AD
:101540005A60104B02689A420ED00F4B9A420BD051
:10155000B2F1804F08D00D4B9A4205D00C4B9A4205
:1015600002D00C4B9A4204D1496825F080031943FC
:10157000916080F83D40002180F83C10084670BD25
:10158000022070BD002C01400034014000040040E6
:1015900000080040000C004010B5040003D094F88F
:1015A0003D0010B107E0012010BD002084F83C0090
:1015B000204600F01FF8022084F83D00211D20681D
:1015C00000F090FB012084F8460084F83E0084F887
:1015D0003F0084F8400084F8410084F8420084F819
:1015E000430084F8440084F8450084F83D0000205E
:1015F00010BD000008B500680B49884212D10B48A5
:10160000C16941F01001C161C069002200F0100001
:10161000009011463620FFF7DDFBBDE8084036207C
:10162000FFF7CABB08BD00000010004000100240D8
:10163000704770B50446006801694FF00005C94362
:10164000890715D4C168C943890711D4E91E01610E
:1016500001202077206880698007204602D0FFF7AC
:10166000E7FF04E000F098F8204600F096F82577B0
:1016700020680169C943490717D4C168C9434907AC
:1016800013D46FF004010161022020772068806983
:1016900010F4407F204602D0FFF7CAFF04E000F0BC
:1016A0007BF8204600F079F8257720680169C94366
:1016B000090716D4C168C943090712D46FF008019D
:1016C0000161042020772068C0698007204602D08D
:1016D000FFF7AEFF04E000F05FF8204600F05DF891
:1016E000257720680169C943C90617D4C168C94371
:1016F000C90613D46FF0100101610820207720681B
:10170000C06910F4407F204602D0FFF791FF04E04B
:1017100000F042F8204600F040F825772068016983
:10172000C943C90708D1C168C943C90704D1891E83
:101730000161204600F032F820680169C9430906BA
:1017400009D4C168C943090605D46FF0800101615D
:101750002046FFF7E1FE20680169C943490609D424
:10176000C168C943490605D46FF0400101612046B4
:1017700000F03CF820680169C94389060BD4C168B0
:10178000C943890607D46FF0200101612046BDE8F6
:101790007040FFF7C2BE70BD704770470F4910B56B
:1017A00088421AD10E4C6088401C80B260800A28A2
:1017B00013D1002060800B48006880B2208000F0C8
:1017C000C5FB6FF00B0100F0D3FC074900F0D2FB22
:1017D0006060BDE8104000F031BA10BD5800002034
:1017E0000C00002000000020333353407047704746
:1017F00070B5026804461068D168536910F00F0F85
:1018000052D003F0010501F490762E435FD0C20759
:1018100005D0CA0503D5E26B42F00102E26342073C
:1018200005D5DA0703D0E26B42F00202E2638207D9
:1018300005D5DA0703D0E26B42F00402E263020747
:1018400007D501F020022A4303D0E26B42F00802E0
:10185000E263E26B002A33D0800604D5880602D505
:10186000204600F09BFA20684069E16BC0F38010CD
:10187000090700D428B3204600F082FA20684169A5
:1018800049061AD5416921F040014161606BA0B160
:101890002D494163606BFFF767F8002810D0606B3B
:1018A000416BBDE870400847830610D58B060ED506
:1018B0002046BDE8704000F071BA2046FFF797FF60
:1018C00070BD2046FFF793FF0020E06370BD030664
:1018D0002BD50B0629D594F839002128F6D1A0681C
:1018E000B0F5805F01D12069B0B1206A411C21624E
:1018F000216800784860E08C401E0004000CE08401
:10190000E4D12068C16821F08001C1602068C1680D
:1019100041F04001C16070BD206A0088C0F308003A
:101920005060206A801C2062E5E74006F3D5480637
:10193000F1D5D168204621F04001D160202184F802
:10194000391000F085F870BD711D000870B50400F5
:1019500004D094F83900002510B106E0012070BDD4
:1019600084F83850204600F023F8242084F8390009
:101970002068C16821F40051C160204600F054FA8B
:101980002068016921F4904101612068416921F0DA
:101990002A0141612068C16841F40051C160E563DA
:1019A000202084F8390084F83A00002070BD00003F
:1019B00000B585B00021009101910291039100686A
:1019C000104988421BD11048816941F480418161EE
:1019D0008069694600F4804004904FF400700090E4
:1019E00002200190032003900848FFF78DF80022A1
:1019F00011462520FFF7EEF92520FFF7DDF905B0A8
:101A000000BD000000380140001002400008014005
:101A1000704790F83930202B18D1A9B1A2B190F8B5
:101A20003830012B12D001628284C2840021C1634C
:101A3000212280F8392080F838100068C16841F010
:101A40008001C1600020704701207047022070476C
:101A500000680349884202D102490120087070479A
:101A60000038014004000020FEE700003EB50021E0
:101A7000154800910191134A02910260012481608E
:101A8000047301754FF460220461C2614160FEF786
:101A900029FE08B1FEF71FFD0220CDE90004072052
:101AA000029069460848FEF79BFD08B1FEF713FD5A
:101AB0000548FEF731FD012204490348FEF7CEFE3A
:101AC0003EBD00000024014028000020000000204E
:101AD0000D4808B5416941F001014161416901F0DA
:101AE00001010091416941F0020141614069002218
:101AF00000F00200009011460F20FFF76BF9BDE8DF
:101B000008400F20FFF758B9001002402DE9F043BC
:101B100085B00024244800940194029403948169C0
:101B200041F040018161816901F0400104918169C6
:101B300041F010018161816901F010010491816916
:101B400041F004018161816901F00401049181691E
:101B500041F0080181618069DFF8508000F00800E1
:101B60000490012220214046FFF7CAF8DFF8409098
:101B7000012220214846FFF7C3F82025022701262D
:101B800003970095CDE9016469464046FEF7BCFF26
:101B900003970095CDE9016469464846FEF7B4FF16
:101BA00005B0BDE8F08300000010024000180140BD
:101BB000000C01401CB500240F4800940D4901940D
:101BC000016041F61F41C0E9011441F2873184618F
:101BD000C160FFF7E1FC08B1FEF77DFC2020CDE9F4
:101BE000000469460448FFF799FC002801D0FEF77D
:101BF00072FC1CBD00100040580000200C4810B5BD
:101C00000A4901604FF4E1314160002181600822FE
:101C1000C160C0E904128161FFF798FE002803D07B
:101C2000BDE81040FEF757BC10BD00000038014071
:101C3000A0000020FEE7FEE77047704710B5FEF7F2
:101C400029FCBDE81040342201490248FFF7E1BEFB
:101C5000E0000020A0000020FFF75EB830B595B08E
:101C600028216846FEF704FB14210AA8FEF700FBB2
:101C700018210FA8FEF7FCFA01210804CDE9001095
:101C80000025029502240491CDE907404FF4E010AD
:101C900009906846FFF79CFA08B172B6FEE70AA9F8
:101CA0000F2081E831004FF48060CDE90D0502215D
:101CB0000AA8FFF7A1F908B172B6FEE74FF4004099
:101CC00011900F940FA8FFF721F9002801D072B6E8
:101CD000FEE715B030BD70470148FFF7AABC000011
:101CE00058000020F0B502681C4B1D4D1D4E1E4FC4
:101CF0001E4C4FF0804C984209D0A04207D060455E
:101D000005D0A84203D0B04201D0B84204D122F09D
:101D1000700E4A6842EA0E02984209D0A04207D0EB
:101D2000604505D0A84203D0B04201D0B84203D1EB
:101D300022F44075CA682A434D6922F080022A4382
:101D400002608A68C2620A688262984201D0A04238
:101D500001D10969016301214161F0BD002C0140FD
:101D60000004004000080040000C00400034014026
:101D700010B5406A0021C185C184FFF738FD10BD50
:101D80000168CA6822F49072CA6001684A6922F048
:101D900001024A61202180F83A10704710B590F88E
:101DA0003A10222901D0022010BD82684FF48053DE
:101DB0009A4201D1016921B1816A9A421BD04AB18C
:101DC0000AE00268816A5268C2F308020A80816AE6
:101DD000891C08E0026972B10268526802F07F0251
:101DE0000A70816A491C8162C18D491E0904090C6F
:101DF000C18503D016E002685268F1E70168CA683D
:101E000022F02002CA600168CA6822F48072CA60A7
:101E100001684A6922F001024A61202180F83A10E3
:101E2000FFF7F6FD002010BD70B50446006801699B
:101E3000E26821F44051114301612169A06808431F
:101E4000616908432168CA6841F20C639A430243FE
:101E5000CA6020684169A26921F44071114341615F
:101E60001E492068884202D1FFF76CF901E0FFF7B4
:101E700059F900EBC00101EB001260686421800099
:101E8000B2FBF0F3B3FBF1F36FF018067343B2FB50
:101E9000F0F5B2FBF0F605EB8305322303EB0515F5
:101EA000B5FBF1F5B6FBF1F605F0F00505EB06150F
:101EB000B2FBF0F6B2FBF0F0B0FBF1F06FF01802FD
:101EC000504306EB800003EB0010B0FBF1F02168FB
:101ED00000F00F002844886070BD00000038014009
:101EE0000148FFF785BC0000A0000020FEE70907BD
:101EF000090E002804DB00F1E02080F80014704790
:101F000000F00F0000F1E02080F8141D7047000081
:101F10008AB0282209496846FEF778F9FEF704FFDF
:101F2000FFF79CFEFFF7F2FDFFF7D2FDFFF742FE41
:101F3000FFF79CFDFFF762FEFEE70000EC210008C2
:101F4000014800F0E3B800BF0000C07FB0FA80F3A2
:101F500010FA03F2C3F19D030AD0D90501EB122058
:101F6000530638BF704700F1010008BF20F00100A0
:101F7000704700004FF47F0C1CEAD0121EBF1CEA11
:101F8000D11392EA0C0F93EA0C0F00F0478090EA0D
:101F9000010F48BF42F480724FF0004C4CEA002021
:101FA0004CEA012102EB0302A0FB0113A2F500029F
:101FB000002918BF43F001035B0028BF4FEA330339
:101FC00042EB22425FEA132C4CEBC2502EBFBCEB1B
:101FD000436FB2F57C0F70474FEA036CBCF1004FC2
:101FE00008BF20F00100B2F57C0F38BF70470BD559
:101FF00082F0FF0212F5803FC8BF704700F1C04079
:10200000D8BF00F00040704700F5000C5FEA4C0CB0
:1020100048BF7047B0F1C04000F073B890EA010FBC
:102020000CEAD11348BF42F48072624538BF634561
:1020300004D280EA010000F00040704710B500F0C3
:102040001AF800BF8900013E00F007B800F009B897
:102050005FEA410C5FEA1C6C08D080EA010000F0E6
:1020600050B85FEA400C5FEA1C6CF6D14FF00040BC
:10207000A0F5800070470EF1020E2EF0030E5EF800
:10208000044B244204D44FEA4102B2F17F4F11D8ED
:102090004FEA4003B3F17F4F0CD80ED14FEAD07C0A
:1020A000B2F17F4F0CEB4C0C0CF1020C08BF4CEB67
:1020B000D17C04E04FF0080C01E04FEAD17C0CEB3E
:1020C0004C0324FA03F404F00704B4F1040C06D220
:1020D0000EEB840CBDE810404CF0010C6047DFE8CB
:1020E0000CF0070802024FF00040A0F5800010BD80
:1020F0000846420018BFD2F1807288BF00F000404D
:1021000010BDFF2141EAD050C00570470CF00F030D
:10211000092B08BF082000F051800A2B0BD0082B98
:1021200018BF704708BF1CF0400F0AD04FF00000E6
:102130004FF0000170471CF0400F18BF4FF00040F7
:1021400070471CF0100F08D020F0704300F07F4261
:1021500042EAD3014FEA4370704700F0604021F03B
:102160007F4242EA000201F07F4040EA727070470D
:102170004FF0FF0212EAD0521CBF92F0FF038B42D5
:10218000C2BFD14200EBC1507047002A0AD0002BD9
:102190000BD0002900F00040A4BF40F0FE4040F406
:1021A0000000704700F00040704743024FF00B0CF6
:1021B00018BF4CF0806C7FF4C3AE70471CF4801FD6
:1021C00011D01CF4E02F03D06FEACC3149007047E6
:1021D0004FF04050EFF3008222F0704242EA0002DA
:1021E00082F3008870474FF0000070478FC215409F
:1021F00066663642666630426666D6406666BA41B4
:1022000033335340CDCC1C41666694423333334163
:10221000CDCC0842000000000000000001020304D1
:102220000607080900000000010203044C22000810
:1022300000000020280000006C0100087422000843
:10224000280000205007000088010008000000005E
:10225000010000000000000000000000000000007D
:10226000000000000100000010000000000000005D
:042270000024F40052
:0400000508000131BD
:00000001FF
