:020000040800F2
:1000000050070020CD010008E3150008F513000893
:10001000E1150008950400087918000800000000A8
:10002000000000000000000000000000E7150008CC
:100030009704000800000000E5150008711600088C
:10004000E7010008E7010008E7010008E7010008F0
:10005000E7010008E7010008E7010008E7010008E0
:10006000E7010008E7010008E7010008E7010008D0
:10007000E7010008E7010008E7010008E7010008C0
:10008000E7010008E7010008E7010008E7010008B0
:10009000E7010008E7010008E7010008E7010008A0
:1000A000E7010008E7010008E7010008E701000890
:1000B000E7010008E7010008E7010008E701000880
:1000C000E7010008E7010008E7010008E701000870
:1000D000E70100086D180008E7010008E7010008C3
:1000E000E7010008E7010008E7010008E701000850
:1000F000E7010008E7010008E7010008E701000840
:10010000E7010008E7010008E7010008E70100082F
:10011000E7010008E7010008F1160008E701000800
:10012000E7010008E7010008E7010008E70100080F
:1001300000F002F800F03AF80AA090E8000C8244BF
:100140008344AAF10107DA4501D100F02FF8AFF29C
:10015000090EBAE80F0013F0010F18BFFB1A43F0A5
:100160000103184788180000A8180000103A24BF9F
:1001700078C878C1FAD8520724BF30C830C144BF0C
:1001800004680C607047000000230024002500264E
:10019000103A28BF78C1FBD8520728BF30C148BFEA
:1001A0000B6070471FB51FBD10B510BD00F08AF879
:1001B0001146FFF7F7FF01F0A3FB00F0A8F803B426
:1001C000FFF7F2FF03BC00F0AFF8000009488047DA
:1001D00009480047FEE7FEE7FEE7FEE7FEE7FEE729
:1001E000FEE7FEE7FEE7FEE704480549054A064B41
:1001F00070470000EF160008310100085001002090
:1002000050070020500300205003002010B5203A72
:10021000C0F00B80B1E81850203AA0E81850B1E8BF
:100220001850A0E81850BFF4F5AF5FEA027C24BF75
:10023000B1E81850A0E8185044BF18C918C0BDE86C
:1002400010405FEA827C24BF51F8043B40F8043B35
:1002500008BF7047D20728BF31F8023B48BF11F8EA
:10026000012B28BF20F8023B48BF00F8012B704744
:100270004FF0000200B5134694469646203922BF3F
:10028000A0E80C50A0E80C50B1F12001BFF4F7AF8A
:10029000090728BFA0E80C5048BF0CC05DF804EB6C
:1002A000890028BF40F8042B08BF704748BF20F8DA
:1002B000022B11F0804F18BF00F8012B70477047D8
:1002C00070477047754600F02BF8AE46050069464A
:1002D000534620F00700854618B020B5FFF784FF8D
:1002E000BDE820404FF000064FF000074FF0000837
:1002F0004FF0000B21F00701AC46ACE8C009ACE8B8
:10030000C009ACE8C009ACE8C0098D46704710B51B
:100310000446AFF300802046BDE81040FFF74FBF12
:1003200000487047F000002001491820ABBEFEE7EE
:10033000260002007047000070B5224C00224FF4E6
:100340008051204600F0CBFA00226115204600F0D3
:10035000C6FA251500222946204600F0C0FA0122DF
:10036000D6023146204600F0BAFA642000F0A2F826
:1003700000223146204600F0B2FA002280211248C5
:1003800000F0ADFA0022A115204600F0A8FA0720DF
:1003900000F058F8002000F055F80A2000F052F85C
:1003A000002000F04FF8602000F04CF801222946B0
:1003B000204600F094FA29462046BDE8704000220D
:1003C00000F08DBA00100140000801402DE9F04115
:1003D0000E46002500F08AF80624184F00E015B9F3
:1003E000022000F02FF8641EE4B2385D00F02AF815
:1003F0006D1CEDB2002CF2D1082000F023F8340A75
:10040000204600F01FF8F0B200F01CF8092000F0C0
:1004100019F8204600F016F8F0B200F013F80122A7
:10042000074D94022146284600F059FA21462846F5
:10043000BDE8F041002200F052BA00001000002098
:10044000001001402DE9F0410824DFF84080104FF2
:100450000546A601280601D5012200E00022202140
:10046000404600F03CFA6806050E00223146384648
:1004700000F035FA01223146384600F030FA641EA9
:1004800014F0FF04E6D1BDE8F0810000000801404F
:1004900000100140FEE7704770B5054600244FF498
:1004A0007A7603E0304600F005F8641CAC42F9D3DC
:1004B00070BD000070B54FF0E02400226569094965
:1004C000A36909684843A1699942FCD002D2A3EB11
:1004D000010302E0A5EB010633441A440B468242B5
:1004E000F1D370BD0000002072B6FEE770B5124A6D
:1004F000C1B2C0F3072611705670C0F30743937062
:10050000040EA2F10805D4702A6805F10C005143CD
:100510000170090A02FB06114170090A02FB03116E
:100520008170090A02FB0411C170090A6960017136
:10053000090A417170BD00000C00002030B585B083
:10054000002002901248816941F0100181618169A7
:1005500001F010010491816941F004018161806919
:10056000012500F004000490E020CDE900050324FB
:1005700069460394074800F0A9F84FF4FE40CDE91E
:10058000000569460394044800F0A0F805B030BDAA
:100590000010024000080140001001402DE9F05F0A
:1005A00090F821100024022903D004218163012442
:1005B00085E001680A6822F00E020A6001680A6894
:1005C00022F001020A603F4E3E4FB215DFF8F4C040
:1005D000DFF8F090DFF8ECA0DFF8E8B0DFF8E4E057
:1005E0000168783F13011502ACF1640CA9F15009C0
:1005F000AAF13C0AABF1280BAEF1140E4FF48018AF
:10060000B14227D9B9420ED0614512D049451DD01B
:10061000514518D0594518D0714501D1424615E0D1
:10062000294EB14201D1012210E0274E1436B142C9
:1006300001D110220AE0244E2836B14206D0224AC7
:100640003C32914201D11A4600E02A461E49091F58
:100650000A602BE0B94213D0614517D0494522D03A
:1006600051451DD059451DD0714501D142461AE072
:10067000B14202D14FF0807215E0134EB14201D168
:10068000012210E0104E1436B14201D110220AE0CE
:100690000D4E2836B14206D00B4A3C32914201D170
:1006A0001A4600E02A46074980394A60012180F84D
:1006B0002110002180F82010416B01B188472046AD
:1006C000BDE8F09F80000240080402402DE9F84F89
:1006D000DFF8C891002409F1040A0AF1040B23464B
:1006E0000F270BF1040ED1E00125A54006EA050213
:1006F000AA4276D1DFF8A8C14E68A6EB0C08664581
:100700002BD00DDC032E34D005DC36B3012E19D0EE
:10071000022E2FD11BE0112E16D0122E2AD119E055
:10072000B8F5881F19D006DCB8F5803F15D0B8F5AC
:10073000801F1FD111E0B8F5001F0ED0B8F5041FBF
:1007400018D10AE0CB6815E0CB681B1D12E0CB681E
:1007500008330FE0CB680C330CE08B682BB1012B16
:100760004FF0080303D0456104E0042302E0056173
:1007700000E00023FF2A01D8064601E000F104064C
:100780004FEA840501D9A5F12005D6F8008007FAC3
:1007900005FC28EA0C0803FA05F548EA0508C6F83E
:1007A00000804D68ED0070D53E4DAE6946F0010603
:1007B000AE61AD6924F0030605F0010500953A4DE0
:1007C00006EB050CDCF80850A607360F07FA06F80A
:1007D00025EA0805DFF8D480404503D14FF0000832
:1007E00025E052E0DFF8C880404502D14FF0010813
:1007F0001DE0DFF8C080404502D14FF0020816E04E
:10080000DFF8B480404502D14FF003080FE0DFF875
:10081000AC80404502D14FF0040808E0DFF8A0802A
:10082000404502D14FF0050801E04FF0060808FAF4
:1008300006F848EA0508CCF808804D68D9F8006049
:10084000ED034D4601D5164300E096432E604D68FA
:10085000DAF80060AD03554601D5164300E0964333
:100860002E604D68DBF80060ED025D4601D5164351
:1008700000E096432E604D68DEF80060AD027546DC
:1008800001D5164300E096432E60641C0A681646A4
:10089000E2407FF429AFBDE8F88F0000000401407A
:1008A000000011100010024000000140000801404B
:1008B000000C0140001001400014014000180140EC
:1008C000001C01408068084000D001207047C268C9
:1008D00021EA02030A4043EA0241016170470AB17A
:1008E000016170470904FBE7014880687047000018
:1008F000240000200248816802781144816070471A
:1009000024000020074810B5016841F01001016083
:10091000032000F06DF80F2000F006F800F024F836
:10092000002010BD0020024070B50D4D04464FF46C
:100930007A712878B1FBF0F00A490968B1FBF0F050
:1009400000F05AFB48B9102C07D200222146501E55
:1009500000F02EF800206C6070BD012070BD00001A
:100960002400002030000020094808B5816941F0CA
:1009700001018161816901F001010091C16941F0CA
:100980008051C161C06900F08050009008BD000036
:1009900000100240002809DB00F01F0201219140F5
:1009A0004009800000F1E020C0F80011704700000D
:1009B000F0B40E4B1B680C46C3F30223C3F10705CA
:1009C000042D00D90425191D072901D2002300E0B8
:1009D000DB1E012606FA05F1491E214099409E4082
:1009E000761E16403143F0BC00F047BF0CED00E02E
:1009F000064900F0070208684FF6FF03184040EA76
:100A00000220034A10430860704700000CED00E02C
:100A10000000FA052DE9F84305460078354CC0077B
:100A200054D0E0690026C00008D4E06940F080504E
:100A3000E061E069012600F0805000902E480168D6
:100A4000C90512D40168804641F480710160FFF746
:100A50004BFF074605E000BFFFF746FFC01B6428B9
:100A600023D8D8F80000C005F6D5206A10F44070ED
:100A700021D0A98801F4407181421CD0206A1F490D
:100A8000012220F440700A6000220A602062C00740
:100A900011D0FFF729FF074641F2883808E000BF70
:100AA000FFF722FFC11B414502D90320BDE8F883AF
:100AB000206A8007F4D5206A696820F440700843F2
:100AC00020621EB1E06920F08050E0612878800744
:100AD00005D56068A96820F4404008436060287824
:100AE000C00605D56068696920F48000084360602D
:100AF0000020DBE70010024000700040400442424A
:100B00002DE9F0470F46050061D0434E306800F0F4
:100B10000700B84209D2306820F00700384330603F
:100B2000306800F00700B84251D128683B4C81077B
:100B300012D5400703D5606840F4E0606060287813
:100B4000000703D5606840F4605060606068A96881
:100B500020F0F000084360602878C00728D068685B
:100B6000012810D02168022810D0890700292EDA28
:100B7000616821F0030101436160FFF7B5FE804623
:100B800041F288390DE021688903EFE78901EDE73B
:100B9000FFF7AAFEA0EB0801494502D90320BDE8F2
:100BA000F0876068696800F00C00B0EB810FEFD14E
:100BB000306800F00700B8420BD9306820F0070019
:100BC00038433060306800F00700B84201D001209F
:100BD000E5E72878400705D56068E96820F4E0601B
:100BE000084360602878000706D56068296920F40A
:100BF000605040EAC100606000F038F86168084A5F
:100C0000C1F30311515CC8400649086006480068FA
:100C1000FFF78AFE0020C2E70020024000100240D9
:100C2000D41900083000002028000020044805499D
:100C300000684968044AC1F30221515CC84070470A
:100C40003000002000100240E41900080448054963
:100C500000684968044AC1F3C221515CC84070472A
:100C60003000002000100240E419000812A185B0F5
:100C70000FC98DE80F0014A0144A00680490516851
:100C8000134801F00C03042B10D0082B0ED1C1F334
:100C90008343C9031DF803000AD5516804AAC1F3B0
:100CA0004041515C0A4A5043B0FBF1F005B0704737
:100CB00008494843FAE7000002030405060708094B
:100CC0000A0B0C0D0E0F1010010200000010024064
:100CD00000127A0000093D002DE9F84F040070D0A1
:100CE0002078C04DC00749D06868C0F38100012852
:100CF00007D06868C0F38100022809D16868C00382
:100D000006D52868800339D560680028E7D035E02B
:100D10006068B0F5803F0BD010B1B0F5A02F11D0B6
:100D2000286820F480302860286820F4802002E0C1
:100D3000286840F480302860606890B1FFF7D4FDE7
:100D400006460AE0286840F480202860F0E700BFEB
:100D5000FFF7CAFD801B642873D828688003F7D585
:100D60000CE0FFF7C1FD064605E000BFFFF7BCFD44
:100D7000801B6428F0D828688003F7D420789A4E26
:100D800080074FF001094FF0000839D5686810F06E
:100D90000C0F07D06868C0F38100022809D1686889
:100DA000C00306D42868800714D52069012808D11B
:100DB00010E02069B0B1C6F80090FFF795FD074636
:100DC00005E00AE1FFF790FDC01B0228C4D828689F
:100DD0008007F7D52868616920F0F80040EAC10073
:100DE00028600DE0C6F80080FFF77EFD074604E0AE
:100DF000FFF77AFDC01B022823D828688007F7D4A4
:100E0000207800072CD57948A169D9B1C0F80090A5
:100E1000FFF76AFD074604E0FFF766FDC01B0228E6
:100E20000FD8686A8007F7D571484FF4FA51006807
:100E3000B0FBF1F0009000BF0098411E0091FAD283
:100E40000EE080E0C0F80080FFF74EFD074604E0AA
:100E5000FFF74AFDC01B022875D8686A8007F7D4DF
:100E60002078400760D5E8690027C00008D4E86909
:100E700040F08050E861E869012700F08050009060
:100E80005C480168C90513D40168834641F4807148
:100E90000160FFF729FD824606E000BFFFF724FD51
:100EA000A0EB0A0064284ED8DBF80000C005F5D599
:100EB000E06801280AD008B1052813D0286A20F07C
:100EC00001002862286A20F0040002E0286A40F04D
:100ED00001002862E06841F2883B98B1FFF704FD09
:100EE00082460BE0286A40F004002862EEE700BF6B
:100EF000FFF7FAFCA0EB0A0159455AD8286A800787
:100F0000F6D50CE0FFF7F0FC824605E0FFF7ECFCBD
:100F1000A0EB0A0159454CD8286A8007F6D41FB1C6
:100F2000E86920F08050E861E06988B36968C1F33E
:100F30008101022944D00228C6F8608004D0FFF75E
:100F4000D3FC044638E034E0FFF7CEFC074604E06B
:100F5000FFF7CAFCC01B02282BD828688001F7D4F1
:100F6000206AB0F5803F05D16868A16820F40030A0
:100F700008436860D4E908010843696821F47411E2
:100F800008436860C6F86090FFF7AEFC044606E0D0
:100F900025E000BFFFF7A8FC001B022809D828683D
:100FA0008001F7D51BE000BFFFF79EFC001B022865
:100FB00002D90320BDE8F88F28688001F4D40EE040
:100FC0000128F7D06868226A00F48031914204D188
:100FD000616A00F47010884201D00120EAE7002025
:100FE000E8E7000000100240000042428004424254
:100FF000300000200070004010B5401EB0F1807F2E
:1010000001D3012010BD4FF0E02460610F21601773
:1010100000F033FC0020A06107202061002010BDFB
:1010200070477047704770B50446006801694FF01B
:101030000005C943890715D4C168C943890711D47C
:10104000E91E016101202077206880698007204621
:1010500002D0FFF7E7FF04E000F098F8204600F028
:1010600096F8257720680169C943490717D4C168F4
:10107000C943490713D46FF00401016102202077AE
:101080002068806910F4407F204602D0FFF7CAFF35
:1010900004E000F07BF8204600F079F8257720681E
:1010A0000169C943090716D4C168C943090712D4A5
:1010B0006FF008010161042020772068C069800773
:1010C000204602D0FFF7AEFF04E000F05FF82046B4
:1010D00000F05DF8257720680169C943C90617D477
:1010E000C168C943C90613D46FF01001016108201B
:1010F00020772068C06910F4407F204602D0FFF7B7
:1011000091FF04E000F042F8204600F040F8257717
:1011100020680169C943C90708D1C168C943C90723
:1011200004D1891E0161204600F032F8206801696F
:10113000C943090609D4C168C943090605D46FF03B
:10114000800101612046FFF76BFF20680169C943F8
:10115000490609D4C168C943490605D46FF0400166
:101160000161204600F015F820680169C94389062D
:101170000BD4C168C943890607D46FF0200101610F
:101180002046BDE87040FFF74CBF70BD7047704708
:10119000704770477047000070B5026804461068D9
:1011A000D168536910F00F0F52D003F0010501F41C
:1011B00090762E435FD0C20705D0CA0503D5E26BF7
:1011C00042F00102E263420705D5DA0703D0E26B81
:1011D00042F00202E263820705D5DA0703D0E26B30
:1011E00042F00402E263020707D501F020022A431D
:1011F00003D0E26B42F00802E263E26B002A33D0D4
:10120000800604D5880602D5204600F08DFA2068B5
:101210004069E16BC0F38010090700D428B3204671
:1012200000F074FA2068416949061AD5416921F035
:1012300040014161606BA0B12D494163606BFFF7D4
:10124000ADF9002810D0606B416BBDE870400847D5
:10125000830610D58B060ED52046BDE8704000F001
:1012600063BA2046FFF796FF70BD2046FFF792FF56
:101270000020E06370BD03062BD50B0629D594F83A
:1012800039002128F6D1A068B0F5805F01D120692E
:10129000B0B1206A411C2162216800784860E08C6E
:1012A000401E0004000CE084E4D12068C16821F0F5
:1012B0008001C1602068C16841F04001C16070BD1B
:1012C000206A0088C0F308005060206A801C2062F9
:1012D000E5E74006F3D54806F1D5D168204621F070
:1012E0004001D160202184F8391000F06FF870BD02
:1012F000FD16000870B5040004D094F839000025EC
:1013000010B106E0012070BD84F83850204600F08E
:1013100023F8242084F839002068C16821F40051A2
:10132000C160204600F046FA2068016921F490412E
:1013300001612068416921F02A0141612068C1688A
:1013400041F40051C160E563202084F8390084F83D
:101350003A00002070BD000000B585B0002100916A
:1013600001910291039100681449884223D11448E5
:10137000816941F480418161816901F48041049176
:10138000816941F0040181618069694600F00400CF
:1013900004904FF40070009002200190032003900D
:1013A0000848FFF793F9002211462520FFF700FBBC
:1013B0002520FFF7EFFA05B000BD0000003801401E
:1013C00000100240000801407047000010B500689E
:1013D0000549884206D120210448FFF778FA0449DC
:1013E0000120087010BD00000038014000180140C5
:1013F00020000020FEE7000070B5144886B0816927
:1014000041F004018161816901F004010491816965
:1014100041F0100181618069012400F01000049006
:1014200003260025009402200396CDE90150694669
:101430000748FFF74BF91820CDE90005CDE9024632
:1014400069460448FFF742F906B070BD001002403B
:1014500000080140001801402DE9F0410126254C0B
:10146000254F264D012818D0207878B11021284624
:10147000FFF728FA98B108212846FFF723FA70B140
:1014800001213846FFF71EFA012808D0102128460E
:10149000FFF718FA01281FD02AE02670E6E70A2095
:1014A000FEF7FAFF0020207010212846FFF70AFA05
:1014B00058B108212846FFF705FA48B101213846FE
:1014C000FFF700FA012805D012E00120BDE8F08105
:1014D0000220FBE70320F9E708212846FFF7F2F98D
:1014E000012805D101213846FFF7ECF900B9267033
:1014F0000020EBE716000020000801400018014022
:101500002DE9F04385B0002424480094019402940E
:101510000394816941F040018161816901F04001DA
:101520000491816941F010018161816901F010012C
:101530000491816941F004018161816901F0040134
:101540000491816941F0080181618069DFF8508070
:1015500000F008000490012220214046FFF7BFF967
:10156000DFF84090012220214846FFF7B8F92025F6
:101570000227012603970095CDE90164694640469C
:10158000FFF7A4F803970095CDE901646946484642
:10159000FFF79CF805B0BDE8F083000000100240A2
:1015A00000180140000C01400C4810B50A490160C8
:1015B0004FF4E1314160002181600822C160C0E93F
:1015C00004128161FFF796FE002803D0BDE81040A9
:1015D000FEF78ABF10BD000000380140B0000020B7
:1015E000FEE7FEE7704770472DE9F0410025194FEF
:1015F000012440F6FF784FF47A7641462046FEF704
:10160000E5FEFA20FEF748FFB44201D2C73418E0E5
:1016100042F21070844202D204F5FA6411E00E48DE
:10162000844202D244F620600AE00C48844201D28F
:101630000B4805E00B48844201D20B4800E00B4800
:101640000444BC4200D33C466D1C3A2DD5D3BDE8C2
:10165000F0810000C0EF0B08A086010040420F009F
:10166000400D03008096980080841E00404B4C0083
:10167000FFF740B930B595B028216846FEF7F8FD70
:1016800014210AA8FEF7F4FD18210FA8FEF7F0FDBB
:1016900001210804CDE900100025029502240491DF
:1016A000CDE907404FF4E01009906846FFF714FBBE
:1016B00008B172B6FEE70AA90F2081E831004FF4A5
:1016C0008060CDE90D0502210AA8FFF719FA08B1DB
:1016D00072B6FEE74FF4004011900F940FA8FFF789
:1016E00099F9002801D072B6FEE715B030BD7047F9
:1016F0000148FFF798BC00003400002010B5406A94
:101700000021C185C184FFF745FD10BD0168CA688D
:1017100022F49072CA6001684A6922F001024A61AB
:10172000202180F83A10704710B590F83A1022291D
:1017300001D0022010BD82684FF480539A4201D13B
:10174000016921B1816A9A421BD04AB10AE002685C
:10175000816A5268C2F308020A80816A891C08E023
:10176000026972B10268526802F07F020A70816AEF
:10177000491C8162C18D491E0904090CC18503D031
:1017800016E002685268F1E70168CA6822F0200298
:10179000CA600168CA6822F48072CA6001684A6936
:1017A00022F001024A61202180F83A10FFF70CFE76
:1017B000002010BD70B5044600680169E26821F49C
:1017C0004051114301612169A068084361690843E0
:1017D0002168CA6841F20C639A430243CA602068D8
:1017E0004169A26921F44071114341611E49206899
:1017F000884202D1FFF72AFA01E0FFF717FA00EB5F
:10180000C00101EB0012606864218000B2FBF0F3BC
:10181000B3FBF1F36FF018067343B2FBF0F5B2FBC4
:10182000F0F605EB8305322303EB0515B5FBF1F567
:10183000B6FBF1F605F0F00505EB0615B2FBF0F688
:10184000B2FBF0F0B0FBF1F06FF01802504306EB82
:10185000800003EB0010B0FBF1F0216800F00F00F6
:101860002844886070BD0000003801400148FFF73F
:1018700093BC0000B0000020FEE70907090E002815
:1018800004DB00F1E02080F80014704700F00F0046
:1018900000F1E02080F8141D7047000070B5164D6F
:1018A000164C02281AD0032824D1012922D1002263
:1018B00020212846FFF713F8218840F6FF70814267
:1018C00001D21031218089B26068FEF77FFD284681
:1018D000BDE8704001222021FFF701B8012909D19C
:1018E000002220212846FEF7FAFF21880129EAD9A3
:1018F0001039E7E770BD0000000C0140180000201F
:101900008AB00024282225496846FEF77FFCFEF7AE
:10191000F9FFFFF7AFFEFFF7F3FDFFF745FE642089
:10192000FEF7BAFDFFF768FDFEF708FE0520FEF79B
:10193000B3FDFEF701FD1420FEF7AEFDDFF8609069
:10194000184D194F40F6FF780020FFF785FD064639
:1019500001281DD120214846FEF7B9FF641CE4B2DE
:10196000012C02D0022C13D109E0FEF7E5FC142073
:10197000FEF792FD29886868FEF728FD08E014202C
:10198000FEF78AFDFFF730FE6F600024A5F80080A7
:1019900021463046FFF782FFD6E70000AC19000869
:1019A000001801401800002040420F008FC215406F
:1019B00066663642666630426666D6406666BA41FC
:1019C00033335340CDCC1C416666944233333341AC
:1019D000CDCC08420000000000000000010203041A
:1019E0000607080900000000010203040C1A0008A1
:1019F00000000020340000006C010008401A0008BC
:101A0000340000201C0700008801000800000000CE
:101A10000A510E000000000000000000000000005D
:101A2000000001003003000040420F0000010000F0
:101A30000100000010000000000000000024F4007D
:0400000508000131BD
:00000001FF
